:020000040800F2
:1000000000000320310600086D1700086F17000874
:10001000711700087317000875170008000000002A
:10002000000000000000000000000000E190000857
:10003000771700080000000071910008138900087C
:100040008106000881060008810600088106000874
:100050008106000881060008791700087F1700084C
:10006000851700088106000881060008810600083F
:100070008106000881060008810600088D17000827
:100080008106000881060008810600088106000834
:100090008106000881060008810600088106000824
:1000A0008106000881060008810600088106000814
:1000B00081060008991700088106000881060008DB
:1000C00081060008810600088106000881060008F4
:1000D00081060008810600088106000881060008E4
:1000E00081060008810600088106000881060008D4
:1000F00081060008810600088106000881060008C4
:1001000081060008810600088106000881060008B3
:100110008106000881060008A5170008810600086E
:100120008106000881060008810600088106000893
:100130008106000881060008810600088106000883
:100140008106000881060008810600088106000873
:100150008106000881060008810600088106000863
:100160008106000881060008810600088106000853
:1001700081060008810600088106000800000000D2
:100180008106000881060008810600088106000833
:100190008106000881060008810600088106000823
:0C01A000B117000881060008BD17000818
:1001B00010B5054C237833B9044B13B10448AFF3A1
:1001C00000800123237010BD800300200000000088
:1001D0009479020808B5034B1BB103490348AFF3F8
:1001E000008008BD0000000084030020947902080C
:1001F000034613F8012B002AFBD1181A0138704767
:1002000001F0FF01102A2BDB10F0070F08D010F8C7
:10021000013B013A8B422DD010F0070F42B3F6D1CB
:10022000F0B441EA012141EA014122F007047FF0E4
:1002300000070023F0E80256083C85EA010586EA3B
:10024000010685FA47F5A3FA87F586FA47F6A5FA77
:1002500087F68EB9EED1F0BC01F0FF0102F0070283
:1002600032B110F8013B013A83EA010313B1F8D12E
:100270000020704701387047002D06BF354603380F
:10028000073815F0010F07D1013015F4807F02BF48
:10029000013015F4C03F0130F0BC0138704700BF99
:1002A0007BB972B90029BEBF00204FF0004106E0C3
:1002B00008BF00281CBF6FF000414FF0FF3000F076
:1002C000B5B9ADF1080C6DE904CE002909DB002BAE
:1002D0001ADB00F04DF8DDF804E0DDE9022304B09C
:1002E0007047404261EB4101002B1BDB00F040F8FE
:1002F000DDF804E0DDE9022304B0404261EB410196
:10030000524263EB43037047524263EB430300F0F6
:100310002FF8DDF804E0DDE9022304B0404261EB90
:1003200041017047524263EB430300F021F8DDF8CE
:1003300004E0DDE9022304B0524263EB430370475B
:1003400053B94AB9002908BF00281CBF4FF0FF313C
:100350004FF0FF3000F06AB9ADF1080C6DE904CE42
:1003600000F006F8DDF804E0DDE9022304B0704790
:100370002DE9F047089D0C46002B4ED194468C4544
:100380008646B2FA82F262D94AB1C2F120039140A4
:1003900020FA03F30CFA02FC194300FA02FE4FEABA
:1003A0001C471FFA8CF6B1FBF7F44FEA1E4307FB1C
:1003B000141143EA014304FB06F199420AD91CEBEC
:1003C000030304F1FF3080F01281994240F20F8163
:1003D000023C6344591A1FFA8EF3B1FBF7F007FB96
:1003E000101143EA014300FB06F69E420AD91CEBBA
:1003F000030300F1FF3180F0FC809E4240F2F9805F
:10040000634402389B1B40EA044000211DB1D340E5
:100410000022C5E90032BDE8F0878B4205D90DB155
:10042000C5E9000100210846F5E7B3FA83F1002988
:1004300046D1A34202D39042C0F0F080861A64EB0A
:1004400003030120002DE6D0C5E90063E3E7002A9D
:1004500040F09080A1EB0C044FEA1C481FFA8CF787
:100460000121B4FBF8F64FEA1E4308FB164443EAA9
:10047000044307FB06F0984208D91CEB030306F17E
:10048000FF3402D2984200F2CD8026461C1A1FFA91
:100490008EF3B4FBF8F008FB104443EA044300FB7E
:1004A00007F79F4208D91CEB030300F1FF3402D287
:1004B0009F4200F2B0802046DB1B40EA0640A5E7E1
:1004C000C1F120068B4022FA06F71F4320FA06FCF2
:1004D00004FA01F343EA0C03F44000FA01F8380C83
:1004E0004FEA1349B4FBF0FE1FFA87FC00FB1E44E1
:1004F00049EA04440EFB0CF9A14502FA01F20AD9BB
:100500003C190EF1FF3A80F08480A14540F28180D1
:10051000AEF1020E3C44A4EB09041FFA83F9B4FBCC
:10052000F0F300FB134449EA044403FB0CFCA4452C
:1005300007D93C1903F1FF3067D2A44565D9023BC6
:100540003C4443EA0E40A0FB0293A4EB0C049C4203
:10055000CE469C4651D34ED055B1B8EB0E0364EB5A
:100560000C0404FA06F6CB401E43CC40C5E90064F7
:10057000002150E7C2F1200320FA03F10CFA02FC3B
:1005800024FA03F394400C434FEA1C4800FA02FE9D
:100590001FFA8CF7B3FBF8F008FB1031230C43EA89
:1005A000014300FB07F1994208D91CEB030300F15A
:1005B000FF362CD299422AD9023863445B1AA4B27E
:1005C000B3FBF8F108FB113344EA034401FB07F3E2
:1005D000A34208D91CEB040401F1FF3613D2A34255
:1005E00011D902396444E41A41EA004139E704466A
:1005F000F0E6084606E7C845AED2B9EB020E63EB5B
:10060000070C0138A8E73146EDE7034699E7304685
:10061000D4E7D6467FE7634402384DE706462346D3
:1006200008460FE7023E634430E700BF704700BF53
:10063000DFF834D0002103E00C4B5B584350043109
:100640000B480C4B42189A42F6D30B4A02E00023A7
:1006500042F8043B094B9A42F9D304F097FF26F085
:1006600027FB00F075F9704700000320207C12087A
:10067000000000207C01002080030020183E0120A3
:10068000FEE7704770470000094A1378012B07D036
:10069000022B09D13123002010700B70012070470C
:1006A0003023F8E73223F6E7032BFBD00020704716
:1006B000A0030020704710B50821044624F060FF15
:1006C000204610BD014807F041BA00BF9404002045
:1006D000014B1B68586A7047940400207047000063
:1006E000014826F057B800BF087A020807B5064B44
:1006F000ADF806001B68054801220DF1060106F061
:1007000047FF03B05DF804FB04000020240500202F
:1007100008B5064C064D23781BB92B780BB901F0B0
:10072000D1F8642008F075F9F5E700BFA0030020B8
:10073000180700202DE9F043384F394DC1B0386813
:100740004FF0FF3108F032FA0446002861D12B78CF
:10075000012B5FFA83F922D1324EDFF8D480306862
:100760004FF0FF3108F096F92F4888F8009026F0F6
:1007700079F82246C821204601F092F84FF4FA7029
:1007800009F0FEFE68462C7088F800400AF0EEF989
:100790002648694625F0FEFF306808F09EF92B7860
:1007A000022B19D11F4C224E20684FF0FF3108F068
:1007B00071F901231F48337026F054F800210846D0
:1007C000C82201F06DF8FA2009F0DAFE0023206853
:1007D0002B70337008F081F92B78032B19D1114C51
:1007E000134E20684FF0FF3108F054F901231248EE
:1007F000337026F037F800210846C82201F050F87F
:10080000FA2009F0BDFE002320682B70337008F039
:1008100064F9642008F0FDF891E700BFA40300200C
:10082000A0030020A80300201A7A0208377A0208E1
:1008300018070020407A0208607A020810B54FF4C9
:100840007A731446024892B207F079FF204610BD31
:10085000EC030020012808B50AD1104B187010488D
:1008600026F000F80F4B1868BDE8084008F0CAB938
:10087000022807D1094B0C4A187013680B48013342
:100880001360EDE70428EDD1044B094803221A70E8
:10089000054A1368013B1360E2E700BFA003002094
:1008A0007F7A0208A40300200C000020837A02084B
:1008B0008A7A020830B595B0102200210AA826F0E5
:1008C000EBF81422002103A826F0E6F800241E4BC2
:1008D00001941A6C42F080521A641B6C03F080532E
:1008E0000193019B194B02941A6842F440421A602A
:1008F0001B6803F4404302930122029B4FF48033B0
:10090000CDE9082302254FF480030821CDE90E53D9
:100910004FF4B473CDE9101308A804231393129570
:1009200006F0DEF806F0A2F80F23CDE903354FF408
:10093000A0504FF48053CDE90603052103A8059488
:1009400006F0AAFA15B030BD003802400070004031
:100950002DE980489FB00024C74D04F025FEFFF725
:10096000A9FF1422002111A826F096F802942B6BFF
:10097000C24843F010032B632B6B03F01003029368
:10098000029B03942B6B43F020032B632B6B03F030
:1009900020030393039B04942B6B43F080032B638E
:1009A0002B6B03F080030493049B05942B6B43F0A3
:1009B00004032B632B6B03F004030593059B069440
:1009C0002B6B43F001032B632B6B03F001030693A6
:1009D000069B07942B6B43F002032B632B6B03F0F6
:1009E00002030793079B08942B6B43F040032B6390
:1009F0002B6B03F040030893089B09942B6B43F087
:100A000008032B632B6B03F00803099322463C2158
:100A1000099B05F0EFF99A482246042105F0EAF90E
:100A2000984822464FF4405105F0E4F92246964892
:100A30008021012605F0DEF94FF003083C238F48A2
:100A4000CDF8508011A902274FF00409CDE91136E5
:100A5000139405F0E5F88A48149711A94FF0070A96
:100A6000CDE91196139405F0DBF84FF4881387480D
:100A7000139711A9CDE911A305F0D2F84FF4405214
:100A8000804811A9CDE911264FF4007BCDE9134729
:100A900005F0C6F84FF488137D48139411A9CDE9E9
:100AA00011B305F0BDF88023774811A9CDE91136BF
:100AB000CDE9134405F0B4F822460521062004F0E0
:100AC000C5FD062004F0F4FD22460521504604F041
:100AD000BDFD504604F0ECFD22460521082004F03F
:100AE000B5FD082004F0E4FD01942B6B43F40013E2
:100AF0002B632B6B674D03F40013052122460193F2
:100B00000F20019B04F0A2FD0F2004F0D1FD6248EC
:100B1000624B036004F0DAFD614A624B2C62C5E966
:100B2000002328464FF48043C5E90434C5E9024454
:100B3000C5E9064405F078FB1021284605F0BCFD08
:100B40002146284605F0D7FD57485849584DC0F86A
:100B500018B04FF48273C0E900131823C0E90734BA
:100B60000A23C362C0E90244C0E90444C0E909445D
:100B700006F0B2FC4F4A1797C5E900264FF0100B5C
:100B80004022C5E904B24FF4C072C5E906244FF40F
:100B90000062C5E9082411A94FF400522846C5E9AE
:100BA0000249CDE9117ACDE9139ACDE915874FF0C5
:100BB000080AAA6206F074FB4FF6FF720DA92846D8
:100BC000CDE90EA60A940D96109406F089FB3046E6
:100BD00004F016FD4FF6FF720DA92846CDE90D7AF7
:100BE000CDE90F6406F07CFB4FF6FF720DA9284695
:100BF000CDE90D8ACDE90F9406F072FB4FF40C722B
:100C00000A920A9A10920DA94FF6FF722846CDE972
:100C10000D9A0F9606F064FB40F26A51284606F0E2
:100C20007DFB2146342211A825F036FF224D234AB0
:100C30002C61C5E900240922C5E905261D22C5E964
:100C4000072840F20D1040F2431240F2171CC5E98C
:100C5000090240F247122846C5E90BC2C5E9024421
:100C6000AC8685F8364005F0EBFDFF204FF4806E32
:100C7000F0214FF4A07223E000380240001002403F
:100C800000080240000C0240000402400000024044
:100C9000001802407C0600201007002000300240AF
:100CA000005C0040A08601002405002000500140A7
:100CB000B8030020400100A0D405002000680140D6
:100CC000CDE916040520CDE918E0CDE91427CDE9DA
:100CD0001214CDE91A411C9211A9224628461194FA
:100CE000624DADF874408DF8764005F074FE604AB0
:100CF0002A601268DFF8D89190472A685D4DD26863
:100D000090475D4A2846C5E90024C5E90274C5E953
:100D10000A47C5E90C4404F087FE3146284604F032
:100D20003BFF5A4621460DA825F0B6FE21461C225F
:100D300011A8524DCDE90B4425F0AEFE504AAC60EF
:100D4000C5E9002828461B22C5E90324AC614FF4FD
:100D5000805707F0EFF80DA928460D9707F0DAF94C
:100D6000284607F013F90BA92846CDE90B4407F0F4
:100D7000B9FB602211A9CDE911242846224613941B
:100D8000159407F065F9284600F0D4FBDFF844819C
:100D90003C483D4D04614FF4E132C0E900820C2231
:100DA000C0E90524C0E90244C46107F099FC374852
:100DB000374A84610A23C362C0E90024C0E90244BF
:100DC000C0E90444C0E90844846206F085FB5A4641
:100DD000214611A825F060FEA023C5E900934FF03D
:100DE000FF33C5E9033428468023AB61CDE90D44C8
:100DF000AC6007F09FF811A92846119707F08AF90F
:100E00000DA92846CDE90D4407F06CFB00F087FDE5
:100E100000F084FD1F4825F0BDFC1F4825F0BAFCFA
:100E200007F084FD1D4807F000FE1D4B1D4A1860A9
:100E30003146304607F070FE1B4B1C4A18602146B5
:100E40001B4807F09FFD1B4B1B4A186021461B489F
:100E500007F098FD1A4B1B4A186021461A4807F004
:100E600091FD1A4B186007F073FDFEE79C0300200C
:100E70002C000020D006002000B00240DC0400203E
:100E800000040040EC030020940400207C050020B6
:100E900000380040907A0208C17A0208387B0208C4
:100EA000A8030020287B0208A4030020907B0208EE
:100EB00011070008B40300206C7B02082D190008FC
:100EC000B0030020487B020835070008AC0300206F
:100ED000000C004000100140704770477FB5094B7F
:100EE0008DF817201B6802930DF117020123009261
:100EF00001930A460146044805F03EFA07B05DF842
:100F000004FB00BF080000207C0600207FB5002302
:100F10008DF81730084B1B6802930A4601230DF128
:100F20001701009101930146044805F0B5FA9DF8B8
:100F3000170007B05DF804FB080000207C060020C5
:100F40001FB5084C24680092CDE901340A460123FC
:100F50000146054805F0A0FA003818BF012004B08A
:100F600010BD00BF080000207C06002004F048BB34
:100F700010B5064C00222046042104F03BFF204619
:100F80000122BDE81040042104F034BF00080240F3
:100F900038B50B4D044601220A484FF4005104F0C5
:100FA00029FF00220421284604F024FF2046FFF7F1
:100FB0009DFB28460122BDE83840042104F01ABFF9
:100FC00000080240000C024038B50B4D04460022D8
:100FD0000A484FF4005104F00DFF00220421284676
:100FE00004F008FF2046FFF781FB28460122BDE8F8
:100FF0003840042104F0FEBE00080240000C02400C
:10100000F7B5144E144F05460C4630460022042115
:1010100004F0F0FE00224FF40051384604F0EAFEDE
:101020002846FFF763FB0D4B0D481B68224601A9BC
:1010300006F05AFC384601224FF40051019C04F09E
:10104000D9FE30460122042104F0D4FE204603B02C
:10105000F0BD00BF00080240000C02400400002068
:101060002405002004F0CCBA0268034B9A4201D157
:1010700004F0B4BA704700BF001000407047000091
:1010800082B00E4B00220092596C41F480415964A9
:10109000596C01F48041009100990192196C41F062
:1010A000805119641B6C03F080530193019B0F2145
:1010B0006FF0010002B004F0C9BA00BF003802406E
:1010C0000268094B9A4282B00BD100230193074B6F
:1010D0001A6B42F480521A631B6B03F48053019322
:1010E000019B02B0704700BF003002400038024050
:1010F00007B50F4B02689A4216D10022A3F5F043C0
:101100000192196B41F4000119631B6B03F4000396
:10111000019305215A20019B04F098FA5A2003B04C
:101120005DF804EB04F0C4BA03B05DF804FB00BF43
:1011300000B002402DE9F043044689B0142200219A
:1011400003A825F0A9FC2268204B9A423BD1204CF1
:10115000204800250095236B43F004032363236B91
:1011600003F004030093009B0195236B43F00103FC
:101170002363236B03F001030193019B4FF01209DA
:101180004FF400734FF001080327042603A9CDE9AB
:101190000339CDE90587079604F042FD4FF48073CB
:1011A0000D48079603A9CDE90339CDE9058704F079
:1011B00037FD0295236C43F400032364236C03F48E
:1011C00000030293029B09B0BDE8F083005C00407D
:1011D000003802400008024000000240F0B599B01B
:1011E00004461422002107A825F056FC30220DEBFE
:1011F0000200002125F050FC22685E4B9A4240F02C
:10120000B78008230C93C0231093042312930CA8D7
:101210004FF40033159305F017FF08B1FFF72EFFC9
:10122000554B5648002400945A6C42F080625A6430
:101230005A6C02F080620092009A01941A6B42F09C
:1012400020021A631A6B02F020020192019A0294A2
:101250001A6B42F001021A631A6B02F00102029249
:10126000029A03941A6B42F002021A631A6B02F09C
:1012700002020392039A04941A6B42F040021A632A
:101280001A6B02F040020492049A05941A6B42F021
:1012900004021A631A6B02F004020592059A06947E
:1012A0001A6B42F008021A631B6B03F008030693E3
:1012B00002250E26069B0B964FF4806307A9CDE905
:1012C0000735CDE9094504F0ABFC41F658032C483D
:1012D0000B9607A9CDE907350927CDE9094504F0A3
:1012E0009FFC032327480B9707A9CDE90735CDE9D4
:1012F000094504F095FC4FF4706322480B9607A94A
:10130000CDE90735CDE9094504F08AFC4FF40C63BB
:101310001D480B9607A9CDE90735CDE9094504F02D
:101320007FFCC02319480B9607A9CDE90735CDE905
:10133000094504F075FC082315480B9607A9CDE96B
:101340000735CDE9094504F06BFC4FF4A0530E4876
:101350000B9707A9CDE90735CDE9094504F060FCF5
:1013600058202246052104F071F9582004F0A0F914
:1013700019B0F0BD0068014000380240001402407E
:101380000000024000040240001802400008024031
:10139000000C0240F0B514228BB0044600210DEB86
:1013A000020025F079FB2368304A934238D1304B54
:1013B0003048002400941A6C42F480421A641A6C7B
:1013C00002F480420092009A01941A6B42F00402E7
:1013D0001A631A6B02F004020192019A02941A6BCA
:1013E00042F002021A631B6B03F002030293029B9A
:1013F000022708230326052505A9CDE90537CDE9F0
:10140000086504F00DFC4FF4E043CDE90537CDE964
:1014100007461948099505A904F002FC0BB0F0BD78
:10142000164A9342FAD1124B1548002103915A6C87
:1014300042F480125A645A6C02F480120392039AA6
:1014400004911A6B42F020021A631B6B03F0200315
:101450000493049B4FF4607202230321CDE905231A
:101460000523CDE9081305A9D6E700BF00380040E1
:1014700000380240000802400004024000500140D1
:101480000014024037B50368254A9342054635D11A
:10149000002302F50D320093116C224C41F0020141
:1014A0001164126C204902F002020092009A4FF07F
:1014B0002062C4E9001240224FF48060C4E9022394
:1014C0004FF40062C4E904024FF400522046C4E91C
:1014D0000623C4E9083304F01FF908B1FFF7CEFD75
:1014E0006C62AC63002205211D20A56304F0AEF8F8
:1014F0001D2003B0BDE8304004F0DAB80B4A934237
:101500000BD1002301930A4B1A6C42F008021A64B3
:101510001B6C03F008030193019B03B030BD00BFB7
:10152000000400403404002070600240000C0040C1
:101530000038024010B5044686B01422002101A8EC
:1015400025F0AAFA22680D4B9A4214D10023009389
:101550000B4B0C481A6B42F002021A631B6B03F030
:1015600002030093009B1022022301A9CDE901236D
:10157000059304F055FB06B010BD00BF0004004009
:10158000003802400004024010B5044688B014221E
:10159000002103A825F080FA2268144B9A4223D137
:1015A00003F59433002101915A6C114842F0100266
:1015B0005A645A6C02F010020192019A02911A6B5D
:1015C00042F001021A631B6B03F001030293029BBA
:1015D0004FF4C06202230321CDE903230723CDE9A1
:1015E000061303A904F01CFB08B010BD0010014055
:1015F000000002402DE9F04186B0002303932B4BFD
:101600001C68002C4FD14FF00108C3F80080284B14
:1016100000949A6B274842EA08029A639B6B03EA9C
:1016200008030093022703260C25009B01A94FF60F
:101630003F03CDE90137CDE9046504F0F1FA1E4816
:10164000059501A9CDE90187CDE9034604F0E8FA43
:1016500048F233131948059501A9CDE90137CDE9C1
:10166000034604F0DDFA4FF683731548059501A98A
:10167000CDE90137CDE9034604F0D2FA4CF2037309
:101680001048059501A9CDE90137CDE9034604F0DD
:10169000C7FA60230C48059501A9CDE90137CDE9CA
:1016A000034604F0BDFA06B0BDE8F0811C07002037
:1016B00000380240001402400008024000180240B6
:1016C00000100240000C02400004024070B588B0D7
:1016D00000230293204B1A6C42F010021A641B6C18
:1016E00003F010030293054601A903A8029B05F02D
:1016F0008DFC069B4BBB05F069FC184E184B336004
:1017000040F2E733F360174BB0FBF3F3013B736038
:10171000304600233361B360B36106F00BFC04462E
:1017200080B9304606F048FA044658B9362003F02E
:10173000BFFF0F2D0DD822462946362003F086FF25
:10174000094B1D60204608B070BD05F03FFC40000D
:10175000D3E70124F6E700BF00380240200700204D
:101760000010004040420F00940000207047FEE748
:10177000FEE7FEE7FEE77047012004F049BB0220C8
:1017800004F046BB042004F043BB0000014804F011
:101790008DB800BF34040020014806F09DBA00BF98
:1017A000DC040020014806F097BA00BF20070020A3
:1017B000014805F0B3B800BFD4050020014804F08B
:1017C00061B900BFD00600200120704708B525F0A0
:1017D00069FA162303604FF0FF3008BD08B525F005
:1017E00061FA16230360FEE770B50D4614460E46F7
:1017F000731B9C4201DC204670BDAFF3008006F8ED
:10180000010BF5E74FF0FF3070474FF400534B608A
:101810000020704701207047002070470A4A116875
:1018200008B5034609B909491160106869460344BF
:101830008B4206D925F036FA0C2303604FF0FF30B7
:1018400008BD1360FCE700BF68070020183E0120B8
:10185000172810B514D843EA01230A4900EB4000C9
:1018600043EA024201EB00111723012404FA03F0BA
:10187000104214BF10200820013B21F8020BF5D2C2
:1018800010BD00BF6E070020034A04484FF41073D8
:10189000002106F0BDBD00BF6E070020DC04002063
:1018A000F8B505460E4617460024E0B23B463246E0
:1018B00029460134FFF7CCFF182CF6D1BDE8F840DB
:1018C000FFF7E2BFF8B5104D104E00240627297827
:1018D00021448910B1FBF7F307FB131101EB410120
:1018E0007218E0B29378715C52780134FFF7B0FF60
:1018F000182CECD1FFF7C8FF2B780133B3FBF4F2BF
:1019000004FB12332B70F8BD6C0700201000002080
:101910000148002106F0E4BDDC040020704708B552
:1019200000F0B6FDBDE8084000F03ABD00F0B2BDE1
:10193000704710B50421044623F022FE204610BD56
:1019400038B50C4B0C4C18800C4B82201980636806
:10195000984740F6110398420AD1094D23682C603C
:10196000822098472B688220DB689847002038BD8A
:101970000120FCE7FA0B002064000020F80B002097
:10198000FC0B00204FF4A071F020FFF7D9BF00003E
:10199000F7B5334D2B6804461B6982209847208099
:1019A00000284AD02B680DF106025B6901A982204C
:1019B0009847BDF8063040F6746293423FD9ADF8BF
:1019C0000620BDF80630D21A92B20A2A3DD90B235E
:1019D000B2FBF3F2234B1B889A4201D9013B9AB226
:1019E000BDF8043040F6B8318B4230D8C3F571638E
:1019F0000E339BB20F21B3FBF1F31B4909888B42D5
:101A000001D901398BB2194E194D30682F688342C4
:101A100081B28CBF591AC91AB8B2BA428CBF101A17
:101A2000801A89B280B201440529C8BF3360336887
:101A3000C8BF2A6063802B68A38003B0F0BDB32BBE
:101A40009CBFB423ADF80630BBE70022C8E7C3F55E
:101A50006D6308339BB20E2BCCD80023D3E700BFB5
:101A6000FC0B0020F80B0020FA0B0020F40B0020E8
:101A7000F00B002037B568460D461446FFF788FF87
:101A8000BDF8000030B1BDF802302B60BDF8043065
:101A90002360012003B030BD032821D8DFE800F027
:101AA000020B12190F4B1A68B2FA82F25209042182
:101AB0000D4804F09FB90B4B5A68B2FA82F25209F2
:101AC0000821F5E7074B9A68B2FA82F25209102111
:101AD000EEE7044BDA68B2FA82F252092021E7E716
:101AE000704700BF000C002000100240032821D8DE
:101AF000DFE800F0020B12190F4B1A68003A18BF0A
:101B0000012204210D4804F075B90B4B5A68003AC4
:101B100018BF01220821F5E7074B9A68003A18BF61
:101B200001221021EEE7044BDA68003A18BF0122C7
:101B30002021E7E7704700BF000C002000100240A2
:101B400003280DD8DFE800F00206080A0421054842
:101B500004F055B90821FAE71021F8E72021F6E74B
:101B6000704700BF0010024008B5032811D8DFE815
:101B700000F0020A0C0E0421074804F035F9431E58
:101B80005842584108BD0821F6E71021F4E720210A
:101B9000F2E70020F3E700BF0010024070B5084DE7
:101BA00000240126E0B2FFF7DFFF18B12B68012BFC
:101BB00018BF2E600134052C05F10405F2D170BD6B
:101BC000000C0020012380F8781080F879307047ED
:101BD0007047002070470000034B4164003918BF74
:101BE00001211970704700BFD730012070470020D5
:101BF0007047836B0BB10846184770474FF6FF706C
:101C00007047406803689B69184770477047704782
:101C10007047704710B5044600F052FD044B6361F5
:101C200023680449D3F890302046BDE81040184797
:101C3000100C0020000000D008B503680446D3F85B
:101C40008430984723682046DB6F984700F0F4F80B
:101C5000236820465B6F98472920FFF7B5F900F00D
:101C6000EBF8236820465B6F9847F8E710B5044609
:101C70000AF02AFC23682046D3F8BC30BDE81040A7
:101C8000184700F0FFBC00F003BD00F037BD00F0C6
:101C9000D5BC00F047BD00F04FBD00F0D9BC09F045
:101CA00041BE10B58421044623F06AFC204610BDD5
:101CB00010B590F8341090F878400C4B8C421A789C
:101CC00009D03AB90A4A0B491488088810800C8058
:101CD00001221A7010BD002AFCD0054A054914885B
:101CE000088810800C800022F3E700BFD03001206C
:101CF000CC300120CE30012070B50D46194635B9E3
:101D0000094B0A4A0A4840F2FF2124F07FFBC0E950
:101D10000F52084B003A18BF01221A700368BDE841
:101D20007040D3F890301847CC7B0208047C02083E
:101D3000527C0208D630012008B5094B1B888B4223
:101D400003D8084B1B88934205D9074B074A08481C
:101D5000A32124F05BFB074B1980074B1A8008BDB9
:101D6000CC300120CE300120977C0208FA7C02089A
:101D7000527C0208D2300120D4300120034690F872
:101D80007A0018B1586803681B681847704700004C
:101D9000014B024A1A607047100C0020F4790208C7
:101DA000012108B50022084606F0B6FE0A4B18606D
:101DB00028B90A4B0A4A28210A4824F027FB0022A6
:101DC0000421012006F047FF074B186018B9074BA4
:101DD000034A2C21F0E708BD1C0C00202C7E0208D1
:101DE000757E0208A47E0208180C0020EA7E020814
:101DF000024B4FF0FF31186806F0D8BE1C0C0020D3
:101E0000014B186806F0FEBE1C0C0020024B00219E
:101E1000186806F0CBBE00BF1C0C0020FFF7F0BF17
:101E200003480449006800231A4606F04FBF00BF6C
:101E3000180C00202400002013B5084C00231A467B
:101E400001A9206806F073FF20684FF0FF330022DD
:101E500001A906F06CFF02B010BD00BF180C0020F5
:101E600003685B6C18470120704703689B6A18473A
:101E7000FEE740F2EF307047054B0360054B4FF033
:101E80008062C3F88820BFF34F8FBFF36F8F704716
:101E90008080020800E100E010B504464FF45A616A
:101EA000FFF7EAFF204623F06BFB204610BD000041
:101EB00082B0002301930E4B1A6B42F400021A63A6
:101EC0001A6B02F400020192019A1A6942F40002AC
:101ED0001A611A6922F400021A61064B064A1A6155
:101EE000064A5A61064B4FF080629A6002B0704712
:101EF00000380240D006002051210008711E000861
:101F000000E100E008B50A2809D8DFE800F0061073
:101F10000E080808081010101000022008BD054B1C
:101F2000054A0648902124F071FA0020F6E70120C6
:101F3000F4E700BF2C7F0208477F0208927F020867
:101F400038B50C46887FFFF7DDFFA58AE28A164B7D
:101F50002169586342EA05425A64628BD963521B75
:101F60001A642568082D0ED19A611A615862207F83
:101F70000E4A42EA0062DA61E2681A620C4A59616A
:101F8000D9601A6038BD0022D8611A61E1680A0A76
:101F9000480902F4784200F4FC600243C1F3C40132
:101FA0000A439A63034AECE700B0024009000100CB
:101FB000012302000123030008B50B280BD8DFE83A
:101FC00000F00612100A0A0A0A0808080808022087
:101FD00008BD0520FCE7054B054A06486F2124F0A3
:101FE00015FA0020F4E70120F2E700BF2C7F020879
:101FF000D67F0208927F02082DE9F04191F81D80FA
:102000000C464046FFF7D8FFA77F05463846FFF746
:10201000D3FF06463846FFF775FFA18A628B444B13
:10202000521A1A649A61228B521A1A61E28A586310
:1020300042EA01425A6421696268D963DA60206821
:10204000802828D0227F0FD8202867D0402865D04C
:1020500004281AD0364B45EA026545F40035B845E8
:10206000DD6161D0334A44E0B0F5807F04D0B0F543
:10207000007FEFD1304800E0304840EA0262DA6188
:10208000E2681A625E62596132E045EA026242F435
:102090000032DA61F6E7A068021DDA62227F45EAC3
:1020A000026545F40035DD615E625961017841B138
:1020B000012921D0224B234A23484FF48D7124F06B
:1020C000A5F9DA69418822F47F42013922F0100231
:1020D00042EA0122DA610121154BDA6942F020025D
:1020E000DA61DA699206FCD410229A600029B9D02C
:1020F000164A1A60BDE8F081B2F1FF01DA69408842
:1021000022F47F4200F1FF3022F0100242EA002266
:1021100042F0100218BF0121DA61DDE745EA0262F0
:10212000034B42F40032B4E742F20132E1E700BF70
:1021300000B0024001230100090002000A00020071
:10214000208002083A800208927F020801230200E0
:10215000024B1B68586803685B691847D830012038
:1021600070B5044625460A4B0C3000266060267286
:10217000667245F8203B602229460AF0FBFA04F516
:102180005A63EE6024359D42FBD1204670BD00BFEE
:1021900080800208034B1A68D207FCD423229A607D
:1021A000704700BF00B002407047000030B50F4CD0
:1021B0002568ED07FCD423250904A56041F0010141
:1021C0000225FF2B65636164E0630AD008496562FC
:1021D00041EA0363E361074B22626061E0602360D0
:1021E00030BDE561039BA363034BF8E700B00240F9
:1021F00009000100010002000100030030B50E4C8F
:102200002568ED07FCD423251204A56042F00102E5
:102210000225FF2B65636264E063E16008D01B0662
:1022200043F00213E361054B65626061236030BDDA
:10223000034BE3610123F9E700B002400100020013
:10224000020002FF30B50B4C2568ED07FCD42325B6
:1022500012041B06A56043F40033022542F001027C
:1022600065636264E063E160E361034B6562606142
:10227000236030BD00B00240010002000120704721
:102280004020704700EB81100830704700EB811050
:1022900008307047012070474FF4916070474FF449
:1022A000916303FB0100083070474FF4916303FB17
:1022B000010008307047012070471020704700EB84
:1022C00001100830704700EB0110083070470846D5
:1022D00001F00AB910B5034B0360044608F0A9FEEB
:1022E000204610BD3881020810B50446FFF7F2FF02
:1022F0002046482123F044F9204610BD10B5034B79
:102300000360044608F095FE204610BD04810208D3
:1023100010B50446FFF7F2FF20464FF4926123F018
:102320002FF9204610BD000010B5034B0360044692
:1023300008F07FFE204610BDD080020810B504468C
:10234000FFF7F2FF2046182123F01AF9204610BDAE
:1023500010B5084B0360044600F2BC40FFF7BAFF1B
:1023600004F12C00FFF7CAFF04F11400FFF7DCFFB3
:10237000204610BD6C81020808B50248FFF7E8FF4F
:1023800008BD00BFF81A002010B50446FFF7E0FFB3
:10239000204640F2646123F0F3F8204610BD0000AF
:1023A0002DE9F34100F042FC054600F043FC002417
:1023B0000146234628462246009413F0EDF8274BA9
:1023C000274A1A60204602F0BBFB264D264B274ABF
:1023D00027489A6013F048F82B68BFF35B8FDB0740
:1023E00035D4284623F0CEF888B3224C224B236004
:1023F00004F5A16604F1140004F12C0804F2BC47B2
:102400006060C4F80880E760266108F013FE1B4B8B
:102410006361404608F00EFE194BE362384608F04F
:1024200009FE184BC4F8BC3404F2045002F0CEFD8F
:10243000224604F20451304602F038FC304601F0E6
:1024400053F8114824F000F8284623F0A7F80F4865
:1024500002B0BDE8F041FFF7DDBB00BF3C31012019
:10246000A40C0020F41A0020C40C0020A80C0020AA
:1024700028000020F81A00206C810208D080020891
:10248000048102083881020879230008200C00200A
:10249000704700000148FFF7CFBB00BF200C0020B1
:1024A00070B5264E264C274D274B23603046FFF74C
:1024B00057FE284618F076F9244810F04BFD244BBF
:1024C0002448DC6000224FF48071C3E912122249D3
:1024D0001A86C3E91A12214983F85820C3E91E015C
:1024E0001F49C3F880101F491F480B60F021C3E942
:1024F0000422C3E90622C3E90822C3E90A22C3E988
:102500000E22C3E91022C3E91422C3E917225A6636
:1025100083F870205A67C3E9016501801348018080
:1025200013484FF4A07101801248018012490A70CB
:10253000012283F83420114A1A6070BD500D00202A
:10254000F01A0020C40C0020BC7B0208A80C00205C
:10255000200C0020000001010100000100045000D7
:102560001A001400D8300120CC300120D2300120D4
:10257000CE300120D4300120D0300120487D020827
:102580000148FFF779BC00BF500D002000207047C4
:1025900081807047C18070470181704741817047D9
:1025A0007047704770477047704710B4C48803681D
:1025B000121B84885B6D091B12B25DF8044B09B2D3
:1025C00018474FF6FF7383814FF0FF3303621368A0
:1025D000C36110607047002070478B8883800120A2
:1025E0007047704780F82610704790F826007047B3
:1025F00010B50022B1F90840B1F90A1002804280FA
:102600008480C18010BD0022028042808280C2800E
:1026100070470177704780ED080A704780F82410F2
:10262000704780F825107047012070479830704738
:102630008C3070478430704770470000034B902205
:1026400083F85A2383F85823704700BF00E100E065
:10265000094A0A49D3680A48C3F30A03013B9BB2FB
:102660000B801169C1F30A01013901801364536BB6
:1026700043F0010353637047006801405E2100206E
:102680005C210020014BD3F8AC007047006801408A
:10269000024B0122C3F8AC105A6270470068014037
:1026A0007047704710B52C21044622F069FF204680
:1026B00010BD10B5BC21044622F062FF204610BDBB
:1026C00070B5044609F083F923689D6E0FF0B2F9E6
:1026D00001462046A8472368054AD3F88C50204677
:1026E000AC460023BDE87040A2F51631604700BF3C
:1026F00000B004D009F052B909F05CB909F018B97A
:1027000009F087BA90F8252012B103685B69184771
:10271000704790F825201AB190F8242002B1186073
:1027200070470000034B4FF080629A604FF0807258
:102730009A60704700E100E0084B4FF08062C3F8F8
:102740008820BFF34F8FBFF36F8F4FF08072C3F8B5
:102750008820BFF34F8FBFF36F8F704700E100E019
:1027600070B50023124E8380124B0360336893F8D8
:10277000582005460AB1D86C00B998680368DB6A2E
:1027800098473368B0FA80F4D86C640930B10368B4
:10279000DB6A9847002808BF44F001042CB9064BB7
:1027A000064A07482C2123F031FE284670BD00BFA1
:1027B000D83001207C82020878810208D681020884
:1027C0000F82020870B5254E3568BFF35B8F15F098
:1027D000010540D1304622F0D5FE00283BD0204CE8
:1027E000204B256104F13400C4E90035C4E90255E9
:1027F000E584A562A58510F092FE04F158000BF067
:102800006FFC194BA3652046184B40F8843BFFF73B
:10281000A7FF174BC4F884302433C4F88C304FF42E
:10282000C803C4E928350023C4F8AC30C4F8B0307C
:10283000C4F8B430C4F8B8300E480F4BC4F8905008
:10284000C4F89C50C4F8A850C4F8983023F0FCFD9C
:10285000304622F0A3FE024870BD00BF6021002078
:1028600064210020849A02089C82020814830208D2
:10287000389A020839260008189A020838B5184C08
:1028800023685BB3174B184A1B6C11888B4216D117
:10289000164B198804F0CCF8236893F86A200025B9
:1028A000013283F86A2083F87C50FFF7B9FA206878
:1028B00009F00AFE2846BDE83840FFF7EDB804F0FD
:1028C000B7F82468236820461B6A9847012384F8D8
:1028D0007C300020BDE83840FFF708B938BD00BFA4
:1028E000D8300120006801405E2100205C210020DA
:1028F0007047704770477047704770477047704720
:10290000704730B4C26844685510034604EB620057
:10291000D20748BF62599B6830BC48BFD35818479C
:102920000346406830B19A681AB9D86800F00100CF
:1029300070470120704710B50821044622F020FEA0
:10294000204610BD10B51021044622F019FE204685
:1029500010BD10B54FF4F871044622F011FE204668
:1029600010BD00F5B270884208B505D10FF062F8CD
:10297000BDE8084000F0E8BD08BD70B50368044636
:102980001B6B154698472368294620465B6BBDE8BC
:10299000704018470022C0E90122C0E90322C0E9C3
:1029A0000522C0E907224FF480728284014A026046
:1029B000704700BF748302082DE9F04F044689B0C8
:1029C0002646002511F062F8814BE56346F8403B4E
:1029D0004FF0260A52462946304624F05DF830462C
:1029E000FFF7D8FF04F16C09FF277A4B23645246A6
:1029F0004FF6FF73294684F86670A5664846ADF821
:102A0000183024F049F84846FFF7C4FF724AE266DE
:102A1000BDF81820A4F8922004F5867806A984F859
:102A2000947048460CF043F904F5B27B40460CF034
:102A300013FC52462946584624F02EF85846FFF714
:102A4000A9FF4FF0010304F5CC7784F88831634A7D
:102A5000C4F88C514FF6FF73A4F89231A4F8943166
:102A600084F89631294684F89051C4F86421384698
:102A7000524624F011F83846FFF78CFF584BC4F843
:102A8000C0314FF6FF73A4F8C4314FF47F03C4F88C
:102A9000CC314FF0FF33C4E97635524B524AC4F87B
:102AA0009821C4E97834514BC4F8C851C4E97A3547
:102AB0002A46A4F8D051C4F8D45129463046FFF72D
:102AC0005CFF30464FF4A071FFF766FD3046F02101
:102AD000FFF764FD04F1040A4FF07F43A36631461B
:102AE000504608F088FC2A4629464846FFF745FF2D
:102AF000052606A94846ADF818600CF0D8F84946F6
:102B0000504608F078FC6C2140462E22FFF735FF36
:102B100004F19802C4F8342104F1D102C4F8382138
:102B20004FF0010284F83C211522C4F8402184F8BA
:102B3000985040460CF0EBFB4046C4F844610CF062
:102B4000E6FB2B4940460CF0C5FB4146504608F0D9
:102B500052FC29465846BE22FFF70FFF0B22ADF864
:102B60001420ADF8182005A906AA58460BF066FFF8
:102B700004F5F072C4F88C215946504608F03BFC2D
:102B80009D2238461B21FFF7F8FE4FF07F43A4F843
:102B9000CC516D46C4F8C831394628460BF048FC84
:102BA00095E8070004F5EA7383E807000C4B0693E9
:102BB00006A906233846ADF81C300BF0E1FE50465E
:102BC000394608F018FC204609B0BDE8F08F00BF78
:102BD00004840208489C0208249D0208B09C020854
:102BE000DC830208EC830208B89B02086329000812
:102BF00058830208704710B50421044622F0C0FC37
:102C0000204610BD012908B506D0022908D059B9BF
:102C100001F0E2FF006808BD01F0DEFF4068FAE75E
:102C200001F0DAFF8068F6E70020F4E7004870471B
:102C3000448402081520704713B5002451B103687D
:102C400001948DF8034001AA9C680DF10303A0478D
:102C500002B010BD0846FBE7C0897047008A704784
:102C6000C088704780887047807A00F07F00704786
:102C7000807AC00970470020704700009FED010A6C
:102C8000704700BF000000007047704700F5987360
:102C90000868496803C370477047704741607047D0
:102CA00070470000064BC0F84C310023C0F850318B
:102CB00000F5A273C0F84801C0F84031704700BF6A
:102CC00081380008012303727047704770477047CE
:102CD00070477047704710B4C2684168541003468B
:102CE00001EB6200D20748BF0A599B685DF8044BAC
:102CF00048BFD35818470346406830B19A681AB99C
:102D0000D86800F0010070470120704710B50C2111
:102D1000044622F035FC204610BD10B514210446AF
:102D200022F02EFC204610BD10B51021044622F0E2
:102D300027FC204610BD10B54FF4AE71044622F0BA
:102D40001FFC204610BD10B54021044622F018FC9F
:102D5000204610BD10B54021044622F011FC20464B
:102D600010BD10B50EF066FE0368BDE81040DB6BC9
:102D7000184710B50EF05EFE0368BDE810405B6BAF
:102D80001847000013B50446807A637A0130C0B258
:102D90009842A07205D9012323720023A37202B0C6
:102DA00010BDB4F90C20002111F022F8C30706D59C
:102DB00000284FF6FF73C8BF0123184400B2144A1D
:102DC000E08112880023ADF8023083B2D21AADF848
:102DD0000020228A20829B1AADF804300D4B1B88FC
:102DE000ADF806300EF026FE036802AA1B6C12E94D
:102DF00006009847A37A012BD1D1074B1B78002BF3
:102E0000CDD00EF017FE02B0BDE810400EF018BE97
:102E1000CC300120CE300120D6300120054B1B786C
:102E200001462BB1406818B103680C315B6E18473E
:102E3000704700BFD7300120054B1B7801462BB1EE
:102E4000406818B103680C315B6E1847704700BFCB
:102E5000D7300120037A70B50546BBB940680368D6
:102E6000DB69984704463CB96868036805F10C01C2
:102E70001B6EBDE870401847A1886B8FC91A236884
:102E800020461B6B09B29847A469ECE770BD037A32
:102E900070B50546BBB940680368DB6998470446CE
:102EA0003CB96868036805F10C011B6EBDE8704011
:102EB0001847E1886B8FC91A236820465B6B09B2FB
:102EC0009847A469ECE770BD10B50446D0F84001FE
:102ED00058B10368DB68984738B1D4F840010368FB
:102EE0009B6898470023C4F8403110BD70B5044674
:102EF00090F8390094F838300130C0B2984284F824
:102F0000390005D901232372002384F8393070BDBC
:102F1000B4F93A20002110F06BFFC30706D5002852
:102F20004FF6FF73C8BF0123184400B2638AC01A6A
:102F3000A08760680368DB69984705462DB960681B
:102F40000368BDE870405B691847E988A38F19449E
:102F50002B6828465B6B09B29847AD69EEE770B500
:102F6000044690F8390094F838300130C0B29842E5
:102F700084F8390005D901232372002384F83930FD
:102F800070BDB4F93A20002110F032FFC30706D516
:102F900000284FF6FF73C8BF0123184400B2238AEC
:102FA000C01AA08760680368DB69984705462DB999
:102FB00060680368BDE870405B691847A988A38F03
:102FC00019442B6828461B6B09B29847AD69EEE798
:102FD0002DE9F14FD0E955BA0746DBF80800036840
:102FE0001B6A9847B0F5887F05D2494B494AA3210F
:102FF000494823F00BFADBF8040003681B6A984782
:103000000F2803D8454B434AA421F1E7DBF80C0015
:1030100003681B6A9847132803D8414B3D4AA521F2
:10302000E6E70EF007FDDFF8049104300EF04FFDE7
:10303000D9F8000010B10368DB689847D9F80000A0
:1030400010B103681B689847DFF8E480D8F80000E7
:1030500010B103685B699847D7F83C0110B1036869
:103060005B689847D8F8000010B103681B68984760
:10307000D7F83C0110B103689B689847DBF80C0057
:10308000036800215B6A9847264B03604FF4A05306
:103090000381254B002686721B8846600446C68144
:1030A00006828381DBF80800036831465B6A984733
:1030B000054601F0BFFFDBF80400036831465B6A98
:1030C00098472946064601F093FF331DC7F83C6137
:1030D000C9F80040C8F80050CAF800302B68C6F89C
:1030E00008A02846DB68EE639847336830461B68C3
:1030F00098472146284610F075FE236820461B6934
:10310000984723685B69204601B0BDE8F04F184737
:10311000E8850208768602086A870208B1870208F5
:103120005488020804900208CC300120203101208C
:103130001C3101202DE9F14FD0E955BA0746DBF8E3
:10314000080003681B6A9847B0F5F87F05D2494B21
:10315000494AA321494823F059F9DBF804000368E0
:103160001B6A98470F2803D8454B434AA421F1E72F
:10317000DBF80C0003681B6A9847132803D8414BFF
:103180003D4AA521E6E70EF055FCDFF80491043036
:103190000EF09DFCD9F8000010B10368DB68984779
:1031A000D9F8000010B103681B689847DFF8E48085
:1031B000D8F8000010B103685B699847D7F83C0164
:1031C00010B103685B689847D8F8000010B1036835
:1031D0001B689847D7F83C0110B103689B68984773
:1031E000DBF80C00036800215B6A9847264B0360FC
:1031F0004FF4A0530381254B002686721B8846603E
:103200000446C68106828381DBF8080003683146E4
:103210005B6A9847054601F029FDDBF80400036866
:1032200031465B6A98472946064601F0FDFC331D8E
:10323000C7F83C61C9F80040C8F80050CAF800302F
:103240002B68C6F808A02846DB68EE639847336809
:1032500030461B6898472146284610F0C3FD236876
:1032600020461B69984723685B69204601B0BDE88A
:10327000F04F1847E8850208F78802086A870208B5
:10328000B18702085488020804900208CC3001205B
:10329000203101201C3101202DE9F0411D46036839
:1032A000BDF918701B6B04461646984723683146D3
:1032B00020465B6B98472368294620469B6B9847BE
:1032C000236839462046DB6BBDE8F0411847000013
:1032D0002DE9F74FD0E9556A0746B06803681B6AC5
:1032E0009847B0F5887F05D2544B554AA3215548DD
:1032F00023F08CF8706803681B6A98470F2803D87E
:10330000514B4F4AA421F2E7F06803681B6A9847C3
:103310003F2803D84D4B4A4AA521E8E70EF08AFB27
:10332000DFF8389104300EF0D2FBD9F8000010B16C
:103330000368DB689847D9F8000010B103681B6880
:103340009847DFF81C81D8F8000010B103685B696A
:103350009847D7F83C0110B103685B689847D8F8E4
:10336000000010B103681B689847D7F83C0110B102
:1033700003689B689847F068036800215B6A984778
:1033800005460022324B4260027245F80C3B04466F
:1033900028460AF04DFF142323872E4B1B7800226A
:1033A000A287002B35D101232372B0680368002166
:1033B0005B6A9847054601F03DFE7068036800218E
:1033C0005B6A98472946064601F012FE331DC7F88E
:1033D0003C61C9F80040C8F80050CAF800302B68BA
:1033E000C6F808A02846DB68EE6398473368304685
:1033F0001B6898472146284610F0F4FC23682046B5
:103400001B69984723685B69204603B0BDE8F04F0D
:103410001847DFF850B0BBF9003000930E4B11464F
:10342000B3F900302846FFF737FF28460AF07BFE45
:10343000BBF800305B426387B7E700BFE88502084E
:10344000E58902086A870208B187020854880208E1
:1034500028900208D7300120CC30012020310120F3
:103460001C310120CE300120044B1B6893F85820FA
:103470000AB1D86C00B99868704700BFD8300120F5
:10348000F8B5174604460E460EF0BEFB124B1C6004
:10349000124B2360124B0025C4E95135114BC4E98E
:1034A00053551868036829469B68C4E94F55C4E919
:1034B00055769847284601F043FBFFF7D5FF19F0F2
:1034C0001AF8FFF7D1FF19F091F8FFF7CDFF19F0C7
:1034D00099F82046F8BD00BF2C310120688F020802
:1034E000508F0208D8300120064BC0F84C31002321
:1034F000C0F8503100F5A273C0F84801C0F840315F
:10350000704700BF81380008064BC0F84C310023DB
:10351000C0F8503100F5A273C0F84801C0F840313E
:10352000704700BF6D3B0008064BC0F84C310023CC
:10353000C0F8503100F5A273C0F84801C0F840311E
:10354000704700BF39370008064BC0F84C310023E4
:10355000C0F8503100F5A273C0F84801C0F84031FE
:10356000704700BF313A0008064BC0F84C310023C9
:10357000C0F8503100F5A273C0F84801C0F84031DE
:10358000704700BFF1350008064BC0F84C310023EE
:10359000C0F8503100F5A273C0F84801C0F84031BE
:1035A000704700BF35310008064BC0F84C3100238E
:1035B000C0F8503100F5A273C0F84801C0F840319E
:1035C000704700BFD1320008064BC0F84C310023D1
:1035D000C0F8503100F5A273C0F84801C0F840317E
:1035E000704700BFD12F000803685B6A18470000CE
:1035F0002DE9F14FD0E9556A0746B06803681B6AA8
:103600009847B0F5F87F05D2434B444AA32144487C
:1036100022F0FCFE706803681B6A98470F2803D8E5
:10362000404B3E4AA421F2E7F06803681B6A9847C2
:103630000B2803D83C4B394AA521E8E70EF0FAF9EC
:10364000DFF8EC9004300EF042FAD9F8000010B127
:103650000368DB689847D9F8000010B103681B685D
:103660009847DFF8D080D8F8000010B103685B6994
:103670009847D7F83C0110B103685B689847D8F8C1
:10368000000010B103681B689847D7F83C0110B1DF
:1036900003689B689847F0680021FFF7A5FF4FF08B
:1036A000000B224BC0F804B0044680F808B0036059
:1036B000B068036859465B6A9847054601F0D6FA38
:1036C0007068036859465B6A98472946064601F0C8
:1036D000ABFA331DC7F83C61C9F80040C8F8005088
:1036E000CAF800302B68C6F808A02846DB68EE63ED
:1036F0009847336830461B6898472146284610F0A3
:1037000071FB236820461B69984723685B69204644
:1037100001B0BDE8F04F1847E8850208DB8A0208CF
:103720006A870208B187020854880208BC8F020821
:10373000203101201C3101202DE9F14FD0E9556ADB
:103740000746B06803681B6A9847B0F5A27F05D2A8
:10375000434B444AA321444822F058FE7068036852
:103760001B6A98470F2803D8404B3E4AA421F2E732
:10377000F06803681B6A98470B2803D83C4B394A0A
:10378000A521E8E70EF056F9DFF8EC9004300EF0D2
:103790009EF9D9F8000010B10368DB689847D9F8A2
:1037A000000010B103681B689847DFF8D080D8F894
:1037B000000010B103685B699847D7F83C0110B16D
:1037C00003685B689847D8F8000010B103681B686D
:1037D0009847D7F83C0110B103689B689847F06898
:1037E0000021FFF701FF4FF0000B224BC0F804B09F
:1037F000044680F808B00360B068036859465B6A05
:103800009847054601F0D6FB7068036859465B6A25
:1038100098472946064601F0ABFB331DC7F83C61CB
:10382000C9F80040C8F80050CAF800302B68C6F844
:1038300008A02846DB68EE639847336830461B686B
:1038400098472146284610F0CDFA236820461B6988
:10385000984723685B69204601B0BDE8F04F1847E0
:10386000E8850208B78B02086A870208B187020858
:1038700054880208BC8F0208203101201C3101202D
:103880002DE9F14FD0E9556A0746B06803681B6A15
:103890009847B0F5916F05D2434B444AA321444861
:1038A00022F0B4FD706803681B6A98470F2803D89C
:1038B000404B3E4AA421F2E7F06803681B6A984730
:1038C0000B2803D83C4B394AA521E8E70EF0B2F8A3
:1038D000DFF8EC9004300EF0FAF8D9F8000010B1DF
:1038E0000368DB689847D9F8000010B103681B68CB
:1038F0009847DFF8D080D8F8000010B103685B6902
:103900009847D7F83C0110B103685B689847D8F82E
:10391000000010B103681B689847D7F83C0110B14C
:1039200003689B689847F0680021FFF75DFE4FF041
:10393000000B224BC0F804B0044680F808B00360C6
:10394000B068036859465B6A9847054601F0FAF982
:103950007068036859465B6A98472946064601F035
:10396000BDF9331DC7F83C61C9F80040C8F80050E4
:10397000CAF800302B68C6F808A02846DB68EE635A
:103980009847336830461B6898472146284610F010
:1039900029FA236820461B69984723685B692046FB
:1039A00001B0BDE8F04F1847E8850208918C020885
:1039B0006A870208B187020854880208BC8F02088F
:1039C000203101201C310120F7B505460026144B9B
:1039D0004660067245F80C3B044628460F460AF03E
:1039E00027FC104B84F838701B7884F83960A68760
:1039F00023B901232372204603B0F0BD0A4B0B4FBD
:103A0000B3F900300093B7F900303246314628460A
:103A1000FFF742FC28460AF086FB3B886387EAE70B
:103A2000E08F0208D7300120CE300120CC300120B9
:103A30002DE9F047D0E9556A0746B06803681B6A6C
:103A40009847B0F5A27F05D2414B424AA321424894
:103A500022F0DCFC706803681B6A98470F2803D8C3
:103A60003E4B3C4AA421F2E7F06803681B6A984782
:103A70003F2803D83A4B374AA521E8E70DF0DAFF93
:103A8000DFF8E09004300EF022F8D9F8000010B111
:103A90000368DB689847D9F8000010B103681B6819
:103AA0009847DFF8C480D8F8000010B103685B695C
:103AB0009847D7F83C0110B103685B689847D8F87D
:103AC000000010B103681B689847D7F83C0110B19B
:103AD00003689B689847F068036800215B6A984711
:103AE00014210446FFF770FFB068036800215B6A89
:103AF0009847054601F05EFA7068036800215B6A2A
:103B000098472946064601F033FA331DC7F83C6151
:103B1000C9F80040C8F80050CAF800302B68C6F851
:103B200008A02846DB68EE639847336830461B6878
:103B300098472146284610F055F9236820461B690E
:103B40009847236820465B69BDE8F047184700BFE7
:103B5000E88502086B8D02086A870208B1870208AF
:103B600054880208203101201C3101202DE9F04742
:103B7000D0E9556A0746B06803681B6A9847B0F5F4
:103B8000916F05D2414B424AA321424822F03EFCAC
:103B9000706803681B6A98470F2803D83E4B3C4A5D
:103BA000A421F2E7F06803681B6A98473F2803D80E
:103BB0003A4B374AA521E8E70DF03CFFDFF8E090EB
:103BC00004300DF084FFD9F8000010B10368DB6801
:103BD0009847D9F8000010B103681B689847DFF8D0
:103BE000C480D8F8000010B103685B699847D7F823
:103BF0003C0110B103685B689847D8F8000010B129
:103C000003681B689847D7F83C0110B103689B68AC
:103C10009847F068036800215B6A984714210446BE
:103C2000FFF7D2FEB068036800215B6A984705463B
:103C300001F088F87068036800215B6A984729469C
:103C4000064601F04BF8331DC7F83C61C9F8004047
:103C5000C8F80050CAF800302B68C6F808A02846FB
:103C6000DB68EE639847336830461B689847214607
:103C7000284610F0B7F8236820461B699847236848
:103C800020465B69BDE8F047184700BFE885020899
:103C9000588E02086A870208B18702085488020811
:103CA000203101201C310120406A7047806A704732
:103CB00070478A880B8810B5D20A4C88C1699BB2BC
:103CC00051F8220043EA0443184410BD10B50446DD
:103CD000BAB1107B68B1537BD27A1B0203F4E06364
:103CE0001A43236A03EB82031A888A4202D193F9AA
:103CF000020010BD05D8013880B204330028F3D18A
:103D0000F7E70020F5E710B52C21044621F038FC38
:103D1000204610BD30B58BB00446BDF86050089504
:103D2000BDF85C5007959DF8505006959DF84C5095
:103D300005959DF8485004959DF8445003959DF8CD
:103D4000405002959DF83C500195BDF838500095C3
:103D50000FF0A2FC064B2360159BE361169B2362C8
:103D6000199B63621A9BA36220460BB030BD00BF53
:103D70004C90020830B50368018185B06D4601465C
:103D8000D3F8843004462846984795E807003C3429
:103D900084E8070005B030BD30B50368418185B0C7
:103DA0006D460146D3F8843004462846984795E886
:103DB00007003C3484E8070005B030BD00220280D3
:103DC00042808280C280704780F83610704770B59C
:103DD000036804461B6B154698472368294620460E
:103DE0005B6EBDE87040184700207047806C7047DC
:103DF0007047704770477047704730B4C268446876
:103E00005510034604EB6200D20748BF62599B6815
:103E100030BC48BFD35818470346406830B19A6851
:103E20001AB9D86800F0010070470120704710B53A
:103E30004C21044621F0A4FB204610BD10B51021F2
:103E4000044621F09DFB204610BD10B54FF48C6157
:103E5000044621F095FB204610BD10B5034629B954
:103E60000DF0E8FDBDE81040FFF75EBB302904D13E
:103E70001B68BDE81040DB6A18473129F8D03229A9
:103E8000F6D010BD08B5FEF73DFC08BD036870B55F
:103E90005E6B124B1B6804468DB22BB9104B114A56
:103EA0006C21114822F0B2FA1049828D09889142A2
:103EB00003D80F4B0B4A6D21F3E713F812200D4B7B
:103EC0001B6853F8220003681B6B9847291A334676
:103ED000204609B2BDE87040184700BF30310120CC
:103EE000AC900208EE9002082991020834310120BA
:103EF000709102083831012038B500F5F673994207
:103F000004460D4603D10DF095FDFFF74DFB04F57A
:103F10000874A54205D10DF08DFDBDE83840FFF7CE
:103F200023BB38BD00224FF0FF31C0E90021826081
:103F30007047000038B5262204460D46002122F0C5
:103F4000ABFD2046FEF726FD064B23602B88E3845D
:103F5000FF23204684F8283029460AF0A8FE204690
:103F600038BD00BF249D020810B52622044600215A
:103F700022F092FD2046FEF70DFD0023A36284F897
:103F80002C30012384F82430044B23604FF6FF7358
:103F900084F83230E3852386204610BDB09C0208A9
:103FA00010B526220446002122F076FD2046FEF7B9
:103FB000F1FC0A4B23600A4BA3624FF6FF73A38503
:103FC0004FF47F020023C4E90C3223874FF0FF3205
:103FD000C4E91023E363204610BD00BFB89B02086C
:103FE000DC8302082DE9F04F044697B025460027F0
:103FF0000FF04CFDD74BE76345F8403B262239468E
:10400000284622F049FD2846FEF7C4FCD24B236423
:10401000FF2384F8663004F16C034FF6FF7614A991
:10402000184604F1980AA766069304F1CC09ADF886
:104030005060FFF77FFF5046FFF796FF04F580784A
:104040004846FFF791FF4046FFF78EFF04F59A734D
:1040500018460793FFF788FF04F5B47314A91846B0
:104060000893ADF85060FFF765FF04F5CA7314A913
:1040700018460993ADF85060FFF75CFF04F5E07354
:1040800014A918460A93ADF85060FFF753FF04F5E2
:10409000F67318460B93FFF767FF04F5087304F5F2
:1040A000157B18460C93FFF75FFF584607F0DEF8C4
:1040B00004F53B7318460293FFF772FFA74BC4F851
:1040C000EC3204F54E731846C4F834730393FFF7CB
:1040D00067FF04F5607318460493FFF761FF04F56A
:1040E000727318460593FFF75BFF04F5826314A90A
:1040F00018460D93ADF85060FFF71CFF984BC4F8BD
:104100005034984BC4F85834F0233A462846C4F843
:104110005444C4F85C74394600934FF4A073261DD0
:10412000FFF7BAF84FF07F43A3662946304607F001
:1041300062F93A4606983946FEF71FFC09230698AD
:10414000ADF8503014A90AF0B2FD0699304607F0D8
:1041500052F950466E226921FEF70FFC072314AA7C
:10416000504613A9ADF84C30ADF850300AF066FC5B
:104170005146304607F03FF948461022E421FEF749
:10418000FCFB122314AA484613A9ADF84C30ADF835
:1041900050300AF053FC4946304607F02CF94046AF
:1041A0003D22E421FEF7E9FB062314AA404613A9A9
:1041B000ADF84C30ADF850300AF040FC4146304686
:1041C00007F019F907986E22E421FEF7D6FB0E25B9
:1041D00014AA0798ADF84C5013A9ADF850500AF046
:1041E0002DFC0799304607F006F9102208980B219C
:1041F000FEF7C3FB4FF00A090898ADF8509014A9D8
:104200000AF055FD0899304607F0F5F81022099894
:104210006921FEF7B2FB4FF00C0A0998ADF850A0E7
:1042200014A90AF044FD0999304607F0E4F86E221B
:104230000A980B21FEF7A1FB0D230A98ADF8503028
:1042400014A90AF034FD0A99304607F0D4F80B9807
:10425000B922E421FEF791FB04F58A680F2314AA22
:104260000B98ADF84C3013A9ADF850300AF0E6FBCE
:104270000B99C4F81482304607F0BDF80C98B922A7
:104280004FF48971FEF779FB14AA0C98ADF84C70C5
:1042900013A9ADF850700AF0D1FB0C99C4F848820C
:1042A000304607F0A8F82D232222584600936921B2
:1042B0006E23FEF7F1FF58464FF07F4106F014FFE2
:1042C000DFF8A880CDF850800523584614A9ADF832
:1042D000543006F01CFF5846012107F015F84FF046
:1042E00001034A46584684F8833249463B4607F064
:1042F0000EF85946304607F07EF82C2229460298DF
:10430000FEF73BFB4FF07F43C4F81C33D4F8EC328C
:104310000299D3F88430A4F820730EAD284698474C
:1043200095E8070004F54A7B4FF003038BE807008C
:1043300084F82533D4F8EC320299D3F88430284637
:10434000984795E80700084B1B688BE8070004F2C4
:104350003C4B0DE0AC920208489C02080492020813
:1043600094920208F93E000830310120DC830208F3
:104370002BB9534B534A6021534822F047F8534B13
:104380001B881BB9524B4F4A6121F5E7514B394607
:10439000186800F011FC504A03464946584611F08F
:1043A00055F80298C4F834B30AF0CAFA4FF0040979
:1043B0000298CDF8508014A9ADF854900AF0E0FAB4
:1043C0000299304607F017F8039819225146FEF774
:1043D000D4FA4FF07F430399C4F868332846A4F811
:1043E0006C730AF025F895E8070004F55D7383E81F
:1043F00007004FF003030398ADF8543014A9CDF82B
:1044000050800AF0BDFA0399304606F0F4FF049894
:104410006E221621FEF7B1FA4FF07F430499C4F8DB
:10442000B0332846A4F8B4730AF002F895E8070000
:1044300004F56F7383E8070002230498ADF8543045
:1044400014A9CDF850800AF09BFA0499304606F082
:10445000D2FF05987E221F21FEF78FFA4FF07F438F
:104460000599C4F8F8332846A4F8FC7309F0E0FF76
:1044700095E8070004F2044383E807004FF00103C6
:104480000598ADF8543014A9CDF850800AF078FAA8
:104490000599304606F0AFFFA0220D985146FEF771
:1044A0006CFA0D98ADF8509014A90AF000FC304653
:1044B0000D9906F0A0FF204617B0BDE8F08F00BFB1
:1044C000AC900208AE910208299102083431012013
:1044D000709102083C310120F99102087047704741
:1044E000704730B4C26844685510034604EB62005C
:1044F000D20748BF62599B6830BC48BFD3581847A1
:104500000346406830B19A681AB9D86800F00100D3
:1045100070470120704710B51021044621F030F893
:10452000204610BD10B54FF4A271044621F028F8C2
:10453000204610BD38B500F19803994204460D4657
:1045400003D10DF077FAFEF7DFFF04F580739D428B
:1045500003D10DF06FFAFFF717F8CC34A54205D15F
:104560000DF068FABDE83840FFF72EB838BD0229D3
:1045700008B505D10DF05EFABDE80840FEF7C4BFEE
:10458000012907D1C82380F8FE30BDE80840CC30AF
:104590000EF02ABC08BD00002DE9F74F0446264660
:1045A00000250FF073FA5A4BE56346F8403B4FF095
:1045B00026094A462946304622F06EFA3046FEF772
:1045C000E9F904F16C074FF0FF08524B23644A46A7
:1045D0004FF6FF73294684F86680A5663846ADF825
:1045E000043022F059FA3846FEF7D4F94A4BE36614
:1045F000BDF80430A4F8923001A904F1980B84F8B6
:10460000948038460AF053FB04F1CC0A5846FFF771
:10461000ABFC04F580795046FFF7A6FC4846FFF74F
:10462000A3FC3E4BC4E94D343D4B2A46C4E94F350B
:1046300029463046FEF7A1F930464FF4A071FDF748
:10464000ABFF3046F021FDF7A9FF04F104084FF05D
:104650007F43A3663146404606F0CDFE2A462946F2
:104660003846FEF78AF9032301A93846ADF804302D
:104670000AF01DFBC82384F894303946404606F002
:10468000BAFE29465846BE22FEF777F904F59A7518
:104690000B2301AA69465846ADF80030ADF8043046
:1046A0000AF0CCF959464046C4F8C05006F0A3FEC3
:1046B000504641221921FEF760F9112301AAADF8F5
:1046C0000030694610235046ADF804300AF0B6F9C0
:1046D00051464046C4F8F45006F08DFE484641224B
:1046E0008721FEF74AF90223ADF8003001AA012321
:1046F00069464846ADF804300AF0A0F94046C4F8CF
:104700002851494606F077FE204603B0BDE8F08FF9
:10471000FC920208489C0208249D0208E4920208C8
:104720003545000870477047704730B4C268446828
:104730005510034604EB6200D20748BF62599B68DC
:1047400030BC48BFD35818470346406830B19A6818
:104750001AB9D86800F0010070470120704710B501
:104760001021044620F00CFF204610BD10B54FF478
:104770008871044620F004FF204610BD983088421E
:1047800008B505D10DF056F9BDE80840FEF7DCBECE
:1047900008BD00002DE9F3470446264600250FF02A
:1047A00075F94C4BE56346F8403B4FF026094A4605
:1047B0002946304622F070F93046FEF7EBF804F156
:1047C0006C074FF0FF08444B23644A464FF6FF73D3
:1047D000294684F86680A5663846ADF8043022F094
:1047E0005BF93846FEF7D6F83C4BE366BDF804307B
:1047F000A4F8923001A904F1980A84F8948038460C
:104800000AF055FA04F1CC095046FFF7ADFB4846D3
:10481000FFF7AAFB324BC4E94034324B2A46C4E9C5
:10482000423529463046FEF7A8F830464FF4A071CD
:10483000FDF7B2FE3046F021FDF7B0FE04F10408AA
:104840004FF07F43A3663146404606F0D4FD2A462A
:1048500029463846FEF791F8032301A93846ADF8FA
:1048600004300AF024FAC82384F8943039464046CC
:1048700006F0C1FD29465046BE22FEF77EF80B2306
:1048800001AA69465046ADF80030ADF804300AF090
:10489000D5F804F58073C4F8C0305146404606F0A0
:1048A000AAFD48462D225A21FEF767F81423ADF8D9
:1048B000003001AA132369464846ADF804300AF0D7
:1048C000BDF84046494606F096FD204602B0BDE8D8
:1048D000F08700BF48930208489C0208249D020804
:1048E000309302087D4700087047000030B5174D2F
:1048F0002C68BFF35B8F14F001048FB022D12846DF
:1049000020F040FEF0B13F230993114B0893114B67
:1049100007930123CDE9053304930423CDE9024332
:104920000D230D49009315221023CDE90B440B48AC
:104930000A940194FFF7EEF9094821F085FD284615
:1049400020F02CFE05480FB030BD00BF2022002013
:104950002CBC020858BC0208C0B90208242200205E
:10496000E94800087047000030B5164D2C68BFF3C9
:104970005B8F14F001048FB021D1284620F002FE95
:10498000E8B13F230993104B0893104B104911488D
:104990000A94CDE9064301220423CDE9033214230E
:1049A00000930722CDE90B44CDE901440594FFF7BC
:1049B000B1F9094821F048FD284620F0EFFD0548EF
:1049C0000FB030BD5022002050BC02085CBC020871
:1049D000E8BA020854220020654900087047000028
:1049E00030B5164D2C68BFF35B8F14F001048FB007
:1049F00021D1284620F0C6FDE8B13F230993104B92
:104A00000893104B104911480A94CDE9064301223E
:104A10000423CDE90332232300931022CDE90B4474
:104A2000CDE901440594FFF775F9094821F00CFD23
:104A3000284620F0B3FD05480FB030BD802200208D
:104A400054BC020860BC02084CBB0208842200204F
:104A5000DD49000800207047002070470EB403B500
:104A600003AB002153F8042B01930EF093F802B02E
:104A70005DF804EB03B070470CB407B504AB53F812
:104A8000042B01930EF086F803B05DF804EB02B03E
:104A900070470000436C10B5044673B3038F2BB905
:104AA000184B194AC521194821F0B0FCC38E00EB00
:104AB00043035B8C0BB30FF020FF238F012B03D834
:104AC000134B144ACB21EEE7E28E531C9BB2092B09
:104AD000194688BFA3F10A0104EB410140F63F10DB
:104AE000498C814209D10A2B04EB420228BF0023E2
:104AF00004EB4303508C588451842046BDE8104099
:104B00000FF0FEBD749302087D93020828940208FA
:104B100072940208809402080FF0B9BD10B586B0F7
:104B200002AC84E806001A460AAB05930193099B80
:104B300000932146089B0CF01BFB06B010BD000043
:104B400038B518BB124B13481C681349B4B122681E
:104B500022440260626822440A60A26814440F4B37
:104B600000221A8000F038F8054600F033F80C4BAC
:104B70001C600C4B1D600C4B188007E00B4B036056
:104B80000B4B0B600B4B1C68002CE8D138BD00BFF1
:104B9000BC220020B4220020B0220020B822002035
:104BA00030310120383101203431012080BC02082D
:104BB00064BC0208F4BC0208044B1B6853F82100D3
:104BC000034B1B6803EB4000704700BFB02200207E
:104BD000B42200200720704700487047C022002000
:104BE00010B5FFF783FE044C2060FFF7F9FE60600C
:104BF000FFF7BAFEA06010BDC022002010B500244F
:104C000004600C6014601C6010BD7047043870476D
:104C1000704710B51021044620F0B2FC204610BDAC
:104C2000A0F10400F5E7000000228260024A026061
:104C300018324260C16070475C95020870470000FE
:104C400010B5034B03600446FDF758FE204610BD27
:104C50008495020810B50446FFF7F2FF20464FF492
:104C6000F87120F08DFC204610BD000010B5044600
:104C7000FDF7A2FE014B2360204610BD849502087B
:104C8000FDF73DBE704710B54FF4AE71044620F0FD
:104C900077FC204610BD10B50446D0F8580100F04E
:104CA00098F92046BDE810400CF06EBF10B50446E0
:104CB000FEF7E6FB014B2360204610BDB8950208C5
:104CC000704704387047704710B51021044620F033
:104CD00057FC204610BDA0F10400F5E700228260D9
:104CE000024A026018324260C16070470C960208A6
:104CF000042908B502D0052906D008BD0CF09AFE9B
:104D0000BDE80840FEF750BC0CF094FEBDE808403A
:104D1000FEF72ABC7047000010B5034B0360044641
:104D2000FFF767F8204610BD3896020810B5044614
:104D3000FFF7F2FF20464FF4916120F021FC20465E
:104D400010BD000010B50446FFF74CF9014B23607D
:104D5000204610BD38960208D0F878343C22013342
:104D600010B493FBF2F1C0F8783402FB113333BB7B
:104D7000D0F88444D0F88014D0F87C2401343B2C43
:104D8000C0F8844406DD01313B29C0F884340DDCD1
:104D9000C0F8801490F8843490F8802490F87C1443
:104DA0005DF8044B00F5157006F0B1BA0132C0F899
:104DB0008034172AD8BF1346C0F87C34EAE75DF880
:104DC000044B7047FF2310B580F8CA3080F8663175
:104DD00080F8FE3080F8323180F81E3280F852328E
:104DE00090F861340446052B07D8DFE803F0032070
:104DF00024282C30962380F8FE3004F198000DF022
:104E0000F3FF04F59A700DF0EFFF04F1CC000DF004
:104E1000EBFF04F580700DF0E7FF04F5F6700DF080
:104E2000E3FF04F50870BDE810400DF0DDBF9623E8
:104E300080F83231E1E7962380F86631DDE796238A
:104E400080F8CA30D9E7962380F81E32D5E796233A
:104E500080F85232D1E790F86034012B10B5044647
:104E60000CD0022B12D023B990F86114C06BFFF75D
:104E70003FFF2046BDE81040FFF7A4BF90F8613423
:104E8000042BF6D8013384F86134F2E790F86134EA
:104E9000002BEED0013BF6E738B50B1E00F2624561
:104EA000B6BF124A124A5B420A210446284610F055
:104EB000CDFA28460FF05CFF072812D804EB400318
:104EC000BA22A3F862244322A3F864240022A3F8A0
:104ED0006624C4F8345304F53B70BDE838400DF047
:104EE00083BF0023A4F87434F3E700BF2C960208B4
:104EF0002D96020838B5044604F51575FEF77AFFBD
:104F0000284606F04FFAC4F87C04284606F063FAF7
:104F1000C4F88004284606F061FA0025C4F8840429
:104F200084F861542046FFF74DFF29462046BDE82E
:104F30003840FFF7B1BF312908D0322908D03029D5
:104F400002D1002380F86034FEF787BF0123F9E720
:104F50000223F7E7704704387047704710B51021F7
:104F6000044620F00DFB204610BDA0F10400F5E73B
:104F700000228260024A026018324260C1607047BB
:104F8000709602087047000010B5034B036004469A
:104F9000FFF7A4FA204610BD9896020810B5044603
:104FA000FFF7F2FF20464FF4A27120F0E9FA204605
:104FB00010BD000010B50446FFF7EEFA014B236068
:104FC000204610BD98960208FFF789BA00220260B9
:104FD00070477047704704387047704710B510210C
:104FE000044620F0CDFA204610BDA0F10400F5E7FC
:104FF00000228260024A026018324260C16070473B
:10500000CC9602087047000010B5034B03600446BD
:10501000FFF788FB204610BDF496020810B5044641
:10502000FFF7F2FF20464FF4887120F0A9FA2046DE
:1050300010BD000010B50446FFF7ACFB014B236028
:10504000204610BDF4960208FFF76DBBF0207047B4
:105050004FF4A07070472920FBF7B6BF2820FBF75C
:10506000B3BF08B5FBF784FFCA20FBF7ADFFC32031
:10507000FBF78EFF0820FBF78BFF5020FBF788FF24
:10508000CF20FBF7A1FF0020FBF782FFC120FBF739
:105090007FFF3020FBF77CFFED20FBF795FF6420BE
:1050A000FBF776FF0320FBF773FF1220FBF770FF7F
:1050B0008120FBF76DFFE820FBF786FF8520FBF7DB
:1050C00067FF0020FBF764FF7820FBF761FFCB2030
:1050D000FBF77AFF3920FBF75BFF2C20FBF758FF2B
:1050E0000020FBF755FF3420FBF752FF0220FBF7AF
:1050F0004FFFF720FBF768FF2020FBF749FFEA206E
:10510000FBF762FF0020FBF743FF0020FBF740FFA7
:10511000B120FBF759FF0020FBF73AFF1B20FBF7FC
:1051200037FFB620FBF750FF0A20FBF731FFA22024
:10513000FBF72EFFC020FBF747FF1020FBF728FFEF
:10514000C120FBF741FF1020FBF722FFC520FBF732
:105150003BFF4520FBF71CFF1520FBF719FFC7207D
:10516000FBF732FF9020FBF713FF3620FBF72CFFF5
:10517000C820FBF70DFFF220FBF726FF0020FBF70E
:1051800007FFB020FBF720FFC220FBF701FFB6208E
:10519000FBF71AFF0A20FBF7FBFEA720FBF7F8FE40
:1051A0002720FBF7F5FE0420FBF7F2FE2A20FBF791
:1051B0000BFF0020FBF7ECFE0020FBF7E9FE0020D0
:1051C000FBF7E6FEEF20FBF7E3FE2B20FBF7FCFEF0
:1051D0000020FBF7DDFE0020FBF7DAFE0120FBF7E5
:1051E000D7FE3F20FBF7D4FEF620FBF7EDFE0120B3
:1051F000FBF7CEFE0020FBF7CBFE0620FBF7C8FE38
:105200002C20FBF7E1FEC820FBF72CFF2620FBF744
:10521000DBFE0120FBF7BCFEE020FBF7D5FE0F20F4
:10522000FBF7B6FE2920FBF7B3FE2420FBF7B0FE08
:105230000C20FBF7ADFE0E20FBF7AAFE0920FBF7C2
:10524000A7FE4E20FBF7A4FE7820FBF7A1FE3C2032
:10525000FBF79EFE0920FBF79BFE1320FBF798FE51
:105260000520FBF795FE1720FBF792FE1120FBF7B8
:105270008FFE0020FBF78CFEE120FBF7A5FE00204F
:10528000FBF786FE1620FBF783FE1B20FBF780FE54
:105290000420FBF77DFE1120FBF77AFE0720FBF7C9
:1052A00077FE3120FBF774FE3320FBF771FE4220BE
:1052B000FBF76EFE0520FBF76BFE0C20FBF768FE8C
:1052C0000A20FBF765FE2820FBF762FE2F20FBF784
:1052D0005FFE0F20FBF75CFE1120FBF775FEC82078
:1052E000FBF7C0FE2920FBF76FFEBDE808402C202D
:1052F000FBF76ABE08B5FBF73BFE0321D320FBF7A3
:105300007FFE80B208BD10B5C4B202220321204640
:10531000FBF7E4FD0A20FBF729FE204600220321CB
:10532000FBF7DCFDBDE810400220FBF71FBE38B5DF
:105330000446E4B2FBF7D0FD00212046FBF7E6FD72
:10534000012105462046FBF7E1FD40EA052080B239
:1053500038BD10B5C4B240212046FBF7D7FD030687
:1053600007D54C212046FBF7D1FD003818BF01209E
:1053700010BD01224B212046FBF7B0FD2046002244
:105380004B21FBF7ABFD0020F2E773B50423C4B259
:105390000E461546D7210DEB03022046FBF7D0FD44
:1053A000019B1BBA1A0DC3F30B23328020462B80BE
:1053B00001224B21FBF792FD00224B212046FBF7F7
:1053C0008DFD02B070BD000010B50A4A13789842F6
:1053D00004460DD0517888420AD00BB141B901235F
:1053E000D454FBF779FD2046BDE81040FFF78BBF92
:1053F00010BD00BFCC22002010B5C4B20921204648
:10540000FBF784FD40F00102D2B220460921BDE83D
:105410001040FBF763BD10B5C4B209212046FBF76D
:1054200075FD092100F0FE022046BDE81040FBF7A3
:1054300055BD38B5C4B20D4620460A21FBF766FDBE
:1054400040EA0502D2B220460A21BDE83840FBF707
:1054500045BD10B50446FBF740FD20461F21FFF770
:10546000E8FF2046BDE81040FFF7C6BF38B5C4B21C
:105470000D4620460A21FBF749FD20EA0502D2B27B
:1054800020460A21BDE83840FBF728BD10B5044688
:10549000FFF7C1FF20461F21BDE81040FFF7E6BF20
:1054A00010B5C0B20C460B21FBF730FD204010BDFB
:1054B0001F21FFF7F5BF0A46C0B20B21FBF70EBD57
:1054C0001F21FFF7F8BF38B5C4B20D46204617219B
:1054D000FBF71CFD20EA0502D2B220461721BDE8E9
:1054E0003840FBF7FBBC70B5C4B206460421204629
:1054F000FBF70CFD042100F0FB0205462046FBF7FC
:10550000EDFC3046F021FFF7DEFF05F0F802204603
:105510000421FBF7E3FC492220212046FBF7DEFCB7
:105520000220FBF723FD204601222121FBF7D6FCB8
:1055300020469A224121FBF7D1FC204601224A2134
:10554000FBF7CCFC204601224B21FBF7C7FC204691
:1055500000224B21FBF7C2FC204601225621FBF71B
:10556000BDFC204601225821FBF7B8FC2046012251
:105570004021FBF7B3FC2046FF220B21FBF7AEFCDA
:10558000BDE870400220FBF7F1BC0000054BD3F8EA
:10559000882042F47002C3F888204FF000629A60BD
:1055A000704700BF00ED00E008B50B4B1A6842F4ED
:1055B00000721A601A6842F480621A601A6842F433
:1055C00080721A60032000F02FF80020FCF77EF8AC
:1055D000FBF756FD002008BD003C0240034A044B87
:1055E00011681B780B441360704700BFD022002065
:1055F00090000020014B1868704700BFD0220020A7
:1056000038B50446FFF7F6FF631C1CBF054B1B783B
:10561000054618BFE418FFF7EDFF431BA342FAD37A
:1056200038BD00BF900000200749CA6822F4E0623C
:105630000302120403F4E063120C134343F0BF634C
:1056400043F40033CB60704700ED00E0164B30B5FB
:10565000DC68C4F30224C4F10703251D042B28BF12
:105660000423062D4FF0FF358CBF033C002405FAC0
:1056700003F321EA0303A54022EA0502A340002820
:1056800043EA0203ACBF00F16040084A4FEA03134B
:10569000B8BF00F00F00DBB2AABF00F561401354A1
:1056A00080F8003330BD00BF00ED00E014ED00E0F5
:1056B000002807DB044A4109012300F01F00834052
:1056C00042F82130704700BF00E100E010B5044609
:1056D00050B1437903F0FF0213B90271FBF7F0FCFC
:1056E00001236371002010BD0120FCE7036810B5A1
:1056F000084C0246D9B210391820B1FBF0F0205CFA
:10570000D06523F47F7020F003005F2988BF043048
:10571000906510BD3897020870B50446FFF76AFF20
:105720000546002C60D0022384F83530226800231F
:1057300084F83430136823F001031360226813687F
:10574000D8072ED413683248A1691840D4E901352E
:105750002B43E5682B4325692B4365692B43E5699A
:105760000B432B43256A2B430343606A042802BF83
:10577000D4E90B5635432B4313605369042823F0B7
:10578000070343EA000335D1A06AE56A03438DB3FA
:1057900091B9012820D030F002012BD1E90129D59F
:1057A0001DE0FFF727FF401B0528C7D92023032052
:1057B000636584F8350070BDB1F5005F16D103282C
:1057C00018D801A151F820F0DF5700089D570008B4
:1057D000DF570008D9570008B5F1C07F0AD1402330
:1057E0006365012384F835300120E4E70228F6D907
:1057F0000328D3D053612046FFF778FFE26D3F23A3
:105800009340836000200123606584F83530D2E73F
:105810003F8010F070B590F83440866D012C30D088
:10582000012480F8344090F83540012C4FF00004FA
:1058300025D1022580F8355044650468256825F493
:105840008025256063608368402B0EBFA260A16045
:10585000E260C26D08BFE1603F239340B3602368FC
:1058600043F016032360036C1BB1236843F0080365
:105870002360236843F001032360002070BD80F89B
:1058800034400220FAE790F83530022B03D0802311
:105890004365012070470268052380F8353013689E
:1058A00023F001031360002070470000F7B50023C8
:1058B00001935C4B856D1F68C36D2E6808229A406A
:1058C000324204460CD001680868400708D50868D1
:1058D00020F004000860AA60626D42F00102626577
:1058E00001229A40324208D021684969090641BF25
:1058F000AA60626D42F00202626504229A4032425E
:1059000008D021680968880741BFAA60626D42F02B
:105910000402626510229A40324210D0236819684E
:1059200009070CD5AA601A68500337D51B681903FC
:1059300001D4236C00E0A36C0BB120469847E16DC5
:1059400020228A4032423AD023681868C60636D5EB
:10595000AA6094F83520052A1A6827D122F0160289
:105960001A605A6922F080025A61226C0AB9A26C4C
:105970001AB11A6822F008021A603F238B40AB600C
:10598000012384F83530002384F83430236D002B54
:1059900045D0204603B0BDE8F04018471A68D2054C
:1059A0005EBF1A6822F008021A60C2E7500327D5CA
:1059B0001B68190331D4636C0BB120469847636DA3
:1059C0006BB3636DDA0719D522684FF41653B7FB32
:1059D000F3F7052384F83530136823F001031360CF
:1059E000019B0133BB42019302D81368DB07F7D454
:1059F000012384F83530002384F83430E36CC6E7A3
:105A00001A6812F4807208D1196821F01001196027
:105A1000012384F8353084F83420E36BCCE703B0FD
:105A2000F0BD00BF8C00002010B5044630B390F8E4
:105A3000393003F0FF021BB980F83820FBF758FB20
:105A400022686168022384F83930136823F44033F4
:105A50000B431360536BA16823F007030B4353639D
:105A6000136CE16823F47F5323F03F030B4313646B
:105A700000200123E06384F8393010BD0120FCE7E9
:105A800070477047036870B55E681D68F20704468A
:105A900014D5E90512D51A6822F480721A60C26B17
:105AA00042F00102C26301229A60042380F8393077
:105AB000002380F83830436903B19847B20616D501
:105AC000AB0414D523681A6822F400521A6020220D
:105AD0009A60E36B43F00203E363042384F83930F4
