:020000040800F2
:100000000000032031060008F9150008FB15000860
:10001000FD150008FF15000801160008000000008B
:10002000000000000000000000000000A18900089E
:100030000316000800000000318A0008C38200088F
:100040008106000881060008810600088106000874
:100050008106000881060008051600080B16000836
:1000600011160008810600088106000881060008B4
:10007000810600088106000881060008191600089C
:100080008106000881060008810600088106000834
:100090008106000881060008810600088106000824
:1000A0008106000881060008810600088106000814
:1000B0008106000825160008810600088106000850
:1000C00081060008810600088106000881060008F4
:1000D00081060008810600088106000881060008E4
:1000E00081060008810600088106000881060008D4
:1000F00081060008810600088106000881060008C4
:1001000081060008810600088106000881060008B3
:1001100081060008810600083116000881060008E3
:100120008106000881060008810600088106000893
:100130008106000881060008810600088106000883
:100140008106000881060008810600088106000873
:100150008106000881060008810600088106000863
:100160008106000881060008810600088106000853
:1001700081060008810600088106000800000000D2
:100180008106000881060008810600088106000833
:100190008106000881060008810600088106000823
:0C01A0003D160008810600084916000802
:1001B00010B5054C237833B9044B13B10448AFF3A1
:1001C00000800123237010BD800300200000000088
:1001D000BC6A020808B5034B1BB103490348AFF3DF
:1001E000008008BD0000000084030020BC6A0208F3
:1001F000034613F8012B002AFBD1181A0138704767
:1002000001F0FF01102A2BDB10F0070F08D010F8C7
:10021000013B013A8B422DD010F0070F42B3F6D1CB
:10022000F0B441EA012141EA014122F007047FF0E4
:1002300000070023F0E80256083C85EA010586EA3B
:10024000010685FA47F5A3FA87F586FA47F6A5FA77
:1002500087F68EB9EED1F0BC01F0FF0102F0070283
:1002600032B110F8013B013A83EA010313B1F8D12E
:100270000020704701387047002D06BF354603380F
:10028000073815F0010F07D1013015F4807F02BF48
:10029000013015F4C03F0130F0BC0138704700BF99
:1002A0007BB972B90029BEBF00204FF0004106E0C3
:1002B00008BF00281CBF6FF000414FF0FF3000F076
:1002C000B5B9ADF1080C6DE904CE002909DB002BAE
:1002D0001ADB00F04DF8DDF804E0DDE9022304B09C
:1002E0007047404261EB4101002B1BDB00F040F8FE
:1002F000DDF804E0DDE9022304B0404261EB410196
:10030000524263EB43037047524263EB430300F0F6
:100310002FF8DDF804E0DDE9022304B0404261EB90
:1003200041017047524263EB430300F021F8DDF8CE
:1003300004E0DDE9022304B0524263EB430370475B
:1003400053B94AB9002908BF00281CBF4FF0FF313C
:100350004FF0FF3000F06AB9ADF1080C6DE904CE42
:1003600000F006F8DDF804E0DDE9022304B0704790
:100370002DE9F047089D0C46002B4ED194468C4544
:100380008646B2FA82F262D94AB1C2F120039140A4
:1003900020FA03F30CFA02FC194300FA02FE4FEABA
:1003A0001C471FFA8CF6B1FBF7F44FEA1E4307FB1C
:1003B000141143EA014304FB06F199420AD91CEBEC
:1003C000030304F1FF3080F01281994240F20F8163
:1003D000023C6344591A1FFA8EF3B1FBF7F007FB96
:1003E000101143EA014300FB06F69E420AD91CEBBA
:1003F000030300F1FF3180F0FC809E4240F2F9805F
:10040000634402389B1B40EA044000211DB1D340E5
:100410000022C5E90032BDE8F0878B4205D90DB155
:10042000C5E9000100210846F5E7B3FA83F1002988
:1004300046D1A34202D39042C0F0F080861A64EB0A
:1004400003030120002DE6D0C5E90063E3E7002A9D
:1004500040F09080A1EB0C044FEA1C481FFA8CF787
:100460000121B4FBF8F64FEA1E4308FB164443EAA9
:10047000044307FB06F0984208D91CEB030306F17E
:10048000FF3402D2984200F2CD8026461C1A1FFA91
:100490008EF3B4FBF8F008FB104443EA044300FB7E
:1004A00007F79F4208D91CEB030300F1FF3402D287
:1004B0009F4200F2B0802046DB1B40EA0640A5E7E1
:1004C000C1F120068B4022FA06F71F4320FA06FCF2
:1004D00004FA01F343EA0C03F44000FA01F8380C83
:1004E0004FEA1349B4FBF0FE1FFA87FC00FB1E44E1
:1004F00049EA04440EFB0CF9A14502FA01F20AD9BB
:100500003C190EF1FF3A80F08480A14540F28180D1
:10051000AEF1020E3C44A4EB09041FFA83F9B4FBCC
:10052000F0F300FB134449EA044403FB0CFCA4452C
:1005300007D93C1903F1FF3067D2A44565D9023BC6
:100540003C4443EA0E40A0FB0293A4EB0C049C4203
:10055000CE469C4651D34ED055B1B8EB0E0364EB5A
:100560000C0404FA06F6CB401E43CC40C5E90064F7
:10057000002150E7C2F1200320FA03F10CFA02FC3B
:1005800024FA03F394400C434FEA1C4800FA02FE9D
:100590001FFA8CF7B3FBF8F008FB1031230C43EA89
:1005A000014300FB07F1994208D91CEB030300F15A
:1005B000FF362CD299422AD9023863445B1AA4B27E
:1005C000B3FBF8F108FB113344EA034401FB07F3E2
:1005D000A34208D91CEB040401F1FF3613D2A34255
:1005E00011D902396444E41A41EA004139E704466A
:1005F000F0E6084606E7C845AED2B9EB020E63EB5B
:10060000070C0138A8E73146EDE7034699E7304685
:10061000D4E7D6467FE7634402384DE706462346D3
:1006200008460FE7023E634430E700BF704700BF53
:10063000DFF834D0002103E00C4B5B584350043109
:100640000B480C4B42189A42F6D30B4A02E00023A7
:1006500042F8043B094B9A42F9D304F0A5FC25F07B
:1006600051FD00F019F9704700000320701E1208B8
:10067000000000207801002080030020AC3B012016
:10068000FEE7704770470000094A1378012B07D036
:10069000022B09D13123002010700B70012070470C
:1006A0003023F8E73223F6E7032BFBD00020704716
:1006B000A0030020704710B50821044624F000FA7A
:1006C000204610BD07B5064BADF806001B6805486F
:1006D00001220DF1060106F069FC03B05DF804FB90
:1006E00004000020D404002008B5054C2378002B1A
:1006F000FCD101F039F8642007F063FEF6E700BF93
:10070000C806002008B52A4C2A4D2B4E0121204650
:1007100005F078F8012812D12870284825F042FB0E
:100720000022C821104601F00DF80121204605F0F5
:1007300069F8012818D10A2007F043FEF5E70221E5
:10074000204605F05FF8012816D128701C4825F0D6
:1007500029FB0021C822084600F0F4FF02212046B0
:1007600005F050F8012803D0C82007F02AFECDE795
:100770000A2007F026FEF1E70421204605F042F8A2
:10078000012812D12870304625F00CFB0021C82228
:10079000084600F0D7FF0421204605F033F8012871
:1007A000E2D10A2007F00DFEF5E700232B70DBE70E
:1007B00000000240C80600206C6B0208306B020883
:1007C0004D6B020808B592B24FF0FF33024807F0B4
:1007D0008EFC002008BD00BFE4030020012802D1E8
:1007E000054B187070470228FAD0042802BF024B4C
:1007F00003221A70704700BFA003002030B595B0E7
:10080000102200210AA825F0C7FB1422002103A80A
:1008100025F0C2FB00241E4B01941A6C42F080525A
:100820001A641B6C03F080530193019B194B0294D3
:100830001A6842F440421A601B6803F44043029372
:100840000122029B4FF48033CDE9082302254FF4A7
:1008500080030821CDE90E534FF4B473CDE9101392
:1008600008A804231393129505F048FE05F00CFE2A
:100870000F23CDE903354FF4A0504FF48053CDE959
:100880000603052103A8059406F014F815B030BD41
:1008900000380240007000402DE980489FB00024DD
:1008A000C74D04F08FFBFFF7A9FF1422002111A808
:1008B00025F072FB02942B6BC24843F010032B63AC
:1008C0002B6B03F010030293029B03942B6B43F0FA
:1008D00020032B632B6B03F020030393039B0494EF
:1008E0002B6B43F080032B632B6B03F0800304938B
:1008F000049B05942B6B43F004032B632B6B03F0D9
:1009000004030593059B06942B6B43F001032B63B3
:100910002B6B03F001030693069B07942B6B43F0AC
:1009200002032B632B6B03F002030793079B0894CE
:100930002B6B43F040032B632B6B03F040030893B6
:10094000089B09942B6B43F008032B632B6B03F07C
:100950000803099322463C21099B04F059FF9A4859
:100960002246042104F054FF224698484FF4405197
:1009700004F04EFF01264FF003083C2391481394E6
:1009800011A902274FF00409CDE91136CDF85080A6
:1009900004F054FE8C48139411A94FF0070ACDE9D6
:1009A0001196149704F04AFE4FF488138848139464
:1009B00011A9CDE911A304F041FE4FF4405383483F
:1009C00011A9CDE91136CDE9134704F037FE2246CF
:1009D0000521062004F048FB062004F077FB2246A0
:1009E0000521504604F040FB504604F06FFB2246C0
:1009F0000521082004F038FB082004F067FB01946F
:100A00002B6B43F400132B632B6B724D03F4001319
:100A10000521224601930F20019B04F025FB0F20A6
:100A200004F054FB6C486D4B036004F05DFB6C4AB2
:100A30006C4B2C62C5E9002328464FF48043C5E97E
:100A40000434C5E90244C5E9064405F0FBF8102169
:100A5000284605F03FFB2146284605F05AFB624830
:100A6000624984624FF48273C0E900134FF4007549
:100A70001823C0E906530A23C3625D4DC0E902444E
:100A8000C0E90444C0E9084406F034FA594A17970B
:100A9000C5E900264FF0100B4022C5E904B24FF41F
:100AA000C072C5E906244FF40062C5E9082411A903
:100AB0004FF400522846C5E90249CDE9139AAA62CB
:100AC000CDE9117ACDE915874FF0080A06F0F6F85E
:100AD0004FF6FF720DA92846CDE90EA60A940D9691
:100AE000109406F00BF9304604F098FA4FF6FF72B6
:100AF0000DA92846CDE90D7ACDE90F6406F0FEF880
:100B00004FF6FF720DA92846CDE90D8ACDE90F9465
:100B100006F0F4F84FF40C720A920A9A10920DA99A
:100B20004FF6FF722846CDE90D9A0F9606F0E6F8CB
:100B300040F26A51284606F0FFF82146342211A8F7
:100B400025F02AFA2C4D2D4A2C61C5E900240922F2
:100B5000C5E905261D2240F20D1CC5E9072840F213
:100B60004312C5E909C240F2171E40F24712284657
:100B7000C5E90BE2C5E90244AC8685F8364005F0CC
:100B80006DFBFF20F0214FF4A072CDE916044FF465
:100B900080690520CDE91214CDE91427CDE918901C
:100BA000CDE91A411C9211A9224628461194144DF0
:100BB000ADF874408DF8764005F01BFC22E000BFD4
:100BC000003802400010024000080240000C0240C1
:100BD000000002402C060020C00600200030024029
:100BE000005C0040A0860100D404002000500140B9
:100BF000B0030020400100A08405002000680140EF
:100C00009C030020484A2A601268DFF868A19047D8
:100C10002A68464DD2689047454A2846C5E90024CF
:100C2000C5E90274C5E90A47C5E90C4404F00AFCA9
:100C30003146284604F0BEFC5A4621460DA825F050
:100C4000ABF921461C2211A83A4DCDE90B4425F001
:100C5000A3F9394AAC60C5E9002828461B22C5E93A
:100C60000324AC6106F03EFE4FF480520DA92846E5
:100C70000D9206F027FF284606F060FE0BA92846D5
:100C8000CDE90B4407F006F9602211A9CDE9112442
:100C9000284622461394159406F0B2FE284600F02A
:100CA0008FFB26484FF4E132C0E900A20C22C0E9D4
:100CB0000524C0E902440461C46107F0E9F9204851
:100CC000204A84610A23C362C0E90024C0E90244C7
:100CD000C0E90444C0E90844846206F00BF900F05E
:100CE00070FD00F06DFD184824F0F4FF174824F063
:100CF000F1FF07F0F3FA164A1648214607F01AFBEF
:100D0000154B164A18602146154807F013FB154B82
:100D1000154A18602146154807F00CFB144B186063
:100D200007F0EEFAFEE700BF280000208006002052
:100D300000B002408C04002000040040E4030020C6
:100D40002C050020003800408C6B0208BD6B0208A7
:100D5000506C0208E9060008AC0300202C6C020865
:100D6000D1170008A8030020086C02080507000836
:100D7000A403002000100140704770477FB5094B65
:100D80008DF817201B6802930DF1170201230092C2
:100D900001930A460146044804F0FCFF07B05DF8E1
:100DA00004FB00BF080000202C0600207FB50023B4
:100DB0008DF81730084B1B6802930A4601230DF18A
:100DC0001701009101930146044805F073F89DF85E
:100DD000170007B05DF804FB080000202C06002077
:100DE0001FB5084C24680092CDE901340A4601235E
:100DF0000146054805F05EF8003818BF012004B030
:100E000010BD00BF080000202C06002004F006B929
:100E100010B5064C00222046042104F0F9FC2046BF
:100E20000122BDE81040042104F0F2BC0008024099
:100E300038B50B4D044601220A484FF4005104F026
:100E4000E7FC00220421284604F0E2FC2046FFF7DC
:100E500039FC28460122BDE83840042104F0D8BC02
:100E600000080240000C024038B50B4D0446002239
:100E70000A484FF4005104F0CBFC0022042128461C
:100E800004F0C6FC2046FFF71DFC28460122BDE801
:100E90003840042104F0BCBC00080240000C0240B1
:100EA000F7B5144E144F05460C4630460022042177
:100EB00004F0AEFC00224FF40051384604F0A8FCC8
:100EC0002846FFF7FFFB0D4B0D481B68224601A982
:100ED00006F018FA384601224FF40051019C04F044
:100EE00097FC30460122042104F092FC204603B016
:100EF000F0BD00BF00080240000C024004000020CA
:100F0000D404002004F08AB80268034B9A4201D14D
:100F100004F072B8704700BF001000407047000036
:100F200082B00E4B00220092596C41F4804159640A
:100F3000596C01F48041009100990192196C41F0C3
:100F4000805119641B6C03F080530193019B0F21A6
:100F50006FF0010002B004F087B800BF0038024013
:100F60000268094B9A4282B00BD100230193074BD0
:100F70001A6B42F480521A631B6B03F48053019383
:100F8000019B02B0704700BF0030024000380240B1
:100F900007B50F4B02689A4216D10022A3F5F04321
:100FA0000192196B41F4000119631B6B03F40003F8
:100FB000019305215A20019B04F056F85A2003B0F2
:100FC0005DF804EB04F082B803B05DF804FB00BFE9
:100FD00000B002402DE9F043044689B014220021FC
:100FE00003A824F0D9FF2268244B9A4243D1244C11
:100FF000244800250095236B43F004032363236BEF
:1010000003F004030093009B0195236B43F001035D
:101010002363236B03F001030193019B4FF012093B
:101020004FF400734FF001080327042603A9CDE90C
:101030000339CDE90587079604F000FB4FF4807370
:101040001148079603A9CDE90339CDE9058704F0D6
:10105000F5FA0295236C43F400032364236C03F434
:1010600000030293029B236A43F400032362236A72
:1010700023F40003236209B0BDE8F083005C004064
:10108000003802400008024000000240F0B599B06C
:1010900004461422002107A824F07EFF30220DEB25
:1010A0000200002124F078FF22685E4B9A4240F053
:1010B000B78008230C93C0231093042312930CA829
:1010C0004FF40033159305F0CDFC08B1FFF726FF70
:1010D000554B5648002400945A6C42F080625A6482
:1010E0005A6C02F080620092009A01941A6B42F0EE
:1010F00020021A631A6B02F020020192019A0294F4
:101100001A6B42F001021A631A6B02F0010202929A
:10111000029A03941A6B42F002021A631A6B02F0ED
:1011200002020392039A04941A6B42F040021A637B
:101130001A6B02F040020492049A05941A6B42F072
:1011400004021A631A6B02F004020592059A0694CF
:101150001A6B42F008021A631B6B03F00803069334
:1011600002250E26069B0B964FF4806307A9CDE956
:101170000735CDE9094504F061FA41F658032C48DA
:101180000B9607A9CDE907350927CDE9094504F0F4
:1011900055FA032327480B9707A9CDE90735CDE971
:1011A000094504F04BFA4FF4706322480B9607A9E7
:1011B000CDE90735CDE9094504F040FA4FF40C6359
:1011C0001D480B9607A9CDE90735CDE9094504F07F
:1011D00035FAC02319480B9607A9CDE90735CDE9A3
:1011E000094504F02BFA082315480B9607A9CDE909
:1011F0000735CDE9094504F021FA4FF4A0530E4814
:101200000B9707A9CDE90735CDE9094504F016FA92
:1012100058202246052103F027FF582003F056FFEF
:1012200019B0F0BD006801400038024000140240CF
:101230000000024000040240001802400008024082
:10124000000C0240F0B514228BB0044600210DEBD7
:10125000020024F0A1FE2368304A934238D1304B7B
:101260003048002400941A6C42F480421A641A6CCC
:1012700002F480420092009A01941A6B42F0040238
:101280001A631A6B02F004020192019A02941A6B1B
:1012900042F002021A631B6B03F002030293029BEB
:1012A000022708230326052505A9CDE90537CDE941
:1012B000086504F0C3F94FF4E043CDE90537CDE903
:1012C00007461948099505A904F0B8F90BB0F0BD17
:1012D000164A9342FAD1124B1548002103915A6CD9
:1012E00042F480125A645A6C02F480120392039AF8
:1012F00004911A6B42F020021A631B6B03F0200367
:101300000493049B4FF4607202230321CDE905236B
:101310000523CDE9081305A9D6E700BF0038004032
:101320000038024000080240000402400050014022
:101330000014024037B51E4B02689A42054634D16C
:1013400000231C4A0193116C1B4C41F002011164F3
:10135000126C1A4902F002020192019A4FF02062C7
:10136000C4E9001240224FF48060C4E902234FF424
:101370000062C4E904024FF400522046C4E9062387
:10138000C4E9083303F0D6FE08B1FFF7C7FD6C626D
:10139000AC63002205211D20A56303F065FE1D201E
:1013A00003B0BDE8304003F091BE03B030BD00BFD4
:1013B00000040040003802402C040020706002400D
:1013C00010B5044686B01422002101A824F0E4FDE3
:1013D00022680D4B9A4214D1002300930B4B0C480A
:1013E0001A6B42F002021A631B6B03F002030093B4
:1013F000009B1022022301A9CDE90123059304F0EB
:101400001DF906B010BD00BF0004004000380240C6
:101410000004024010B5044688B01422002103A83D
:1014200024F0BAFD2268144B9A4223D103F5943379
:10143000002101915A6C114842F010025A645A6C12
:1014400002F010020192019A02911A6B42F001021D
:101450001A631B6B03F001030293029B4FF4C062FB
:1014600002230321CDE903230723CDE9061303A9B2
:1014700004F0E4F808B010BD001001400000024084
:101480002DE9F04186B0002303932B4B1C68002C00
:101490004FD14FF00108C3F80080284B00949A6B9D
:1014A000274842EA08029A639B6B03EA0803009309
:1014B000022703260C25009B01A94FF63F03CDE927
:1014C0000137CDE9046504F0B9F81E48059501A976
:1014D000CDE90187CDE9034604F0B0F848F23313B3
:1014E0001948059501A9CDE90137CDE9034604F076
:1014F000A5F84FF683731548059501A9CDE9013785
:10150000CDE9034604F09AF84CF2037310480595B0
:1015100001A9CDE90137CDE9034604F08FF8602336
:101520000C48059501A9CDE90137CDE9034604F042
:1015300085F806B0BDE8F081CC06002000380240F6
:10154000001402400008024000180240001002404F
:10155000000C02400004024070B588B000230293E2
:10156000204B1A6C42F010021A641B6C03F010033B
:101570000293054601A903A8029B05F055FA069BB4
:101580004BBB05F031FA184E184B336040F2E7338D
:10159000F360174BB0FBF3F3013B7360304600235D
:1015A0003361B360B36106F09DF9044680B93046FB
:1015B00005F0DAFF044658B9362003F087FD0F2DF9
:1015C0000DD822462946362003F04EFD094B1D60FA
:1015D000204608B070BD05F007FA4000D3E70124AB
:1015E000F6E700BF00380240D0060020001000409F
:1015F00040420F00900000207047FEE7FEE7FEE744
:10160000FEE77047012004F011B9022004F00EB982
:10161000042004F00BB90000014803F055BE00BFE0
:101620002C040020014806F02FB800BF8C040020D5
:10163000014806F029B800BFD0060020014804F098
:101640007BBE00BF84050020014803F029BF00BF16
:10165000800600200120704708B524F04DFD1623B8
:1016600003604FF0FF3008BD08B524F045FD162398
:101670000360FEE770B50D4614460E46731B9C4290
:1016800001DC204670BDAFF3008006F8010BF5E7E2
:101690004FF0FF3070474FF400534B60002070470D
:1016A00001207047002070470A4A116808B50346B8
:1016B00009B9094911601068694603448B4206D98B
:1016C00024F01AFD0C2303604FF0FF3008BD1360B7
:1016D000FCE700BF18070020B03B0120172810B519
:1016E00014D843EA01230A4900EB400043EA0242CE
:1016F00001EB00111723012404FA03F0104214BF78
:1017000010200820013B21F8020BF5D210BD00BFCC
:101710001E07002070B5094D094C2A464FF410737E
:101720000021204606F04CFB2A4620464FF4107359
:10173000BDE87040002106F043BB00BF1E0700203B
:101740008C040020F8B505460E4617460024E0B28A
:101750003B46324629460134FFF7C0FF182CF6D12C
:10176000BDE8F840FFF7D6BFF8B5104D104E002485
:101770000627297821448910B1FBF7F307FB1311E1
:1017800001EB41017218E0B29378715C5278013438
:10179000FFF7A4FF182CECD1FFF7BCFF2B78013327
:1017A000B3FBF4F204FB12332B70F8BD1C070020CE
:1017B0000C0000200148002106F06ABB8C040020C8
:1017C000704708B500F0B6FDBDE8084000F03ABD2E
:1017D00000F0B2BD704710B50421044623F070F943
:1017E000204610BD38B50C4B0C4C18800C4B822099
:1017F00019806368984740F6110398420AD1094D51
:1018000023682C60822098472B688220DB689847E9
:10181000002038BD0120FCE7AA0B0020600000205A
:10182000A80B0020AC0B00204FF4A071F020FFF7B4
:10183000D9BF0000F7B5334D2B6804461B698220E1
:101840009847208000284AD02B680DF106025B697A
:1018500001A982209847BDF8063040F67462934291
:101860003FD9ADF80620BDF80630D21A92B20A2A46
:101870003DD90B23B2FBF3F2234B1B889A4201D9CB
:10188000013B9AB2BDF8043040F6B8318B4230D8F3
:10189000C3F571630E339BB20F21B3FBF1F31B4908
:1018A00009888B4201D901398BB2194E194D306824
:1018B0002F68834281B28CBF591AC91AB8B2BA4292
:1018C0008CBF101A801A89B280B201440529C8BFA2
:1018D00033603368C8BF2A6063802B68A38003B07D
:1018E000F0BDB32B9CBFB423ADF80630BBE700229C
:1018F000C8E7C3F56D6308339BB20E2BCCD8002329
:10190000D3E700BFAC0B0020A80B0020AA0B0020DF
:10191000A40B0020A00B002037B568460D461446E6
:10192000FFF788FFBDF8000030B1BDF802302B6032
:10193000BDF804302360012003B030BD032821D856
:10194000DFE800F0020B12190F4B1A68B2FA82F2AC
:10195000520904210D4803F05BBF0B4B5A68B2FAE1
:1019600082F252090821F5E7074B9A68B2FA82F22F
:1019700052091021EEE7044BDA68B2FA82F25209FA
:101980002021E7E7704700BFB00B002000100240A5
:10199000032821D8DFE800F0020B12190F4B1A6858
:1019A000003A18BF012204210D4803F031BF0B4B50
:1019B0005A68003A18BF01220821F5E7074B9A68D8
:1019C000003A18BF01221021EEE7044BDA68003A12
:1019D00018BF01222021E7E7704700BFB00B0020AD
:1019E0000010024003280DD8DFE800F00206080AC4
:1019F0000421054803F011BF0821FAE71021F8E798
:101A00002021F6E7704700BF0010024008B5032808
:101A100011D8DFE800F0020A0C0E0421074803F099
:101A2000F1FE431E5842584108BD0821F6E7102137
:101A3000F4E72021F2E70020F3E700BF00100240A6
:101A400070B5084D00240126E0B2FFF7DFFF18B1A2
:101A50002B68012B18BF2E600134052C05F10405FD
:101A6000F2D170BDB00B0020012380F8781080F80F
:101A7000793070477047002070470000034B416485
:101A8000003918BF01211970704700BF6B2E01206B
:101A9000704700207047836B0BB1084618477047AA
:101AA0004FF6FF707047406803689B69184770479E
:101AB000704770477047704710B5044600F052FDFC
:101AC000044B636123680449D3F890302046BDE895
:101AD00010401847C00B0020000000D008B5036874
:101AE0000446D3F88430984723682046DB6F984734
:101AF00000F0F4F8236820465B6F98472920FFF731
:101B0000B3F900F0EBF8236820465B6F9847F8E7DD
:101B100010B5044609F07AFF23682046D3F8BC309C
:101B2000BDE81040184700F0FFBC00F003BD00F016
:101B300037BD00F0D5BC00F047BD00F04FBD00F050
:101B4000D9BC09F091B910B58421044622F0B8FF40
:101B5000204610BD10B590F8341090F878400C4B2A
:101B60008C421A7809D03AB90A4A0B491488088875
:101B700010800C8001221A7010BD002AFCD0054A8A
:101B800005491488088810800C800022F3E700BF04
:101B9000642E0120602E0120622E012070B50D46BA
:101BA000194635B9094B0A4A0A4840F2FF2123F089
:101BB000CDFEC0E90F52084B003A18BF01221A703F
:101BC0000368BDE87040D3F8903018478C6C020869
:101BD000C46C0208126D02086A2E012008B5094B78
:101BE0001B888B4203D8084B1B88934205D9074BAF
:101BF000074A0848A32123F0A9FE074B1980074B89
:101C00001A8008BD602E0120622E0120576D020847
:101C1000BA6D0208126D0208662E0120682E01209E
:101C2000034690F87A0018B1586803681B68184793
:101C300070470000014B024A1A607047C00B002039
:101C40001C6B0208012108B50022084606F0C5FBFE
:101C50000A4B186028B90A4B0A4A28210A4823F07F
:101C600075FE00220421012006F056FC074B186087
:101C700018B9074B034A2C21F0E708BDCC0B002014
:101C8000EC6E0208356F0208646F0208C80B002072
:101C9000AA6F0208024B4FF0FF31186806F0E7BB4D
:101CA000CC0B0020014B186806F00DBCCC0B0020BB
:101CB000024B0021186806F0DABB00BFCC0B0020F5
:101CC000FFF7F0BF03480449006800231A4606F0F6
:101CD0005EBC00BFC80B00202000002013B5084CDC
:101CE00000231A4601A9206806F082FC20684FF004
:101CF000FF33002201A906F07BFC02B010BD00BF3B
:101D0000C80B002003685B6C18470120704703680C
:101D10009B6A1847FEE740F2EF307047054B0360BF
:101D2000054B4FF08062C3F88820BFF34F8FBFF39D
:101D30006F8F70474071020800E100E010B5044663
:101D40004FF45A61FFF7EAFF204622F0B9FE204621
:101D500010BD000082B0002301930E4B1A6B42F4B9
:101D600000021A631A6B02F400020192019A1A69C6
:101D700042F400021A611A6922F400021A61064B49
:101D8000064A1A61064A5A61064B4FF080629A6011
:101D900002B070470038024080060020F51F00089E
:101DA000151D000800E100E008B50A2809D8DFE8A1
:101DB00000F006100E08080808101010100002208D
:101DC00008BD054B054A0648902123F0BFFD0020C1
:101DD000F6E70120F4E700BFEC6F02080770020885
:101DE0005270020838B50C46887FFFF7DDFFA58AE0
:101DF000E28A164B2169586342EA05425A64628BB3
:101E0000D963521B1A642568082D0ED19A611A6194
:101E10005862207F0E4A42EA0062DA61E2681A6282
:101E20000C4A5961D9601A6038BD0022D8611A6124
:101E3000E1680A0A480902F4784200F4FC600243AF
:101E4000C1F3C4010A439A63034AECE700B00240BD
:101E500009000100012302000123030008B50B283B
:101E60000BD8DFE800F00612100A0A0A0A08080870
:101E70000808022008BD0520FCE7054B054A064876
:101E80006F2123F063FD0020F4E70120F2E700BF9B
:101E9000EC6F020896700208527002082DE9F041BA
:101EA00091F81D800C464046FFF7D8FFA77F0546F6
:101EB0003846FFF7D3FF06463846FFF775FFA18A7D
:101EC000628B444B521A1A649A61228B521A1A611D
:101ED000E28A586342EA01425A6421696268D9631E
:101EE000DA602068802828D0227F0FD8202867D089
:101EF000402865D004281AD0364B45EA026545F4DF
:101F00000035B845DD6161D0334A44E0B0F5807FEB
:101F100004D0B0F5007FEFD1304800E0304840EA0F
:101F20000262DA61E2681A625E62596132E045EA91
:101F3000026242F40032DA61F6E7A068021DDA625A
:101F4000227F45EA026545F40035DD615E62596134
:101F5000017841B1012921D0224B234A23484FF473
:101F60008D7123F0F3FCDA69418822F47F42013954
:101F700022F0100242EA0122DA610121154BDA69EE
:101F800042F02002DA61DA699206FCD410229A60EB
:101F90000029B9D0164A1A60BDE8F081B2F1FF01FC
:101FA000DA69408822F47F4200F1FF3022F010020B
:101FB00042EA002242F0100218BF0121DA61DDE797
:101FC00045EA0262034B42F40032B4E742F20132C6
:101FD000E1E700BF00B00240012301000900020058
:101FE0000A000200E0700208FA700208527002084B
:101FF00001230200024B1B68586803685B6918479D
:102000006C2E012070B5044625460A4B0C30002684
:1020100060602672667245F8203B6022294609F00E
:102020004BFE04F55A63EE6024359D42FBD12046F9
:1020300070BD00BF40710208034B1A68D207FCD480
:1020400023229A60704700BF00B002407047000032
:1020500030B50F4C2568ED07FCD423250904A56095
:1020600041F001010225FF2B65636164E0630AD042
:102070000849656241EA0363E361074B22626061DC
:10208000E060236030BDE561039BA363034BF8E789
:1020900000B002400900010001000200010003003D
:1020A00030B50E4C2568ED07FCD423251204A5603D
:1020B00042F001020225FF2B65636264E063E16088
:1020C00008D01B0643F00213E361054B65626061B3
:1020D000236030BD034BE3610123F9E700B0024008
:1020E00001000200020002FF30B50B4C2568ED072D
:1020F000FCD4232512041B06A56043F400330225FB
:1021000042F0010265636264E063E160E361034BF6
:1021100065626061236030BD00B0024001000200D2
:10212000012070474020704700EB81100830704755
:1021300000EB811008307047012070474FF4447065
:1021400070474FF4447303FB0100083070474FF4AD
:10215000447303FB010008307047012070471020D2
:10216000704700EB01100830704700EB0110083099
:102170007047084601F00CB910B5034B03600446E4
:1021800008F08BF9204610BDF871020810B504461E
:10219000FFF7F2FF2046482122F092FC204610BDB6
:1021A00010B5034B0360044608F077F9204610BDD4
:1021B000C471020810B50446FFF7F2FF20464FF441
:1021C000467122F07DFC204610BD000010B5034B87
:1021D0000360044608F061F9204610BD90710208C2
:1021E00010B50446FFF7F2FF2046182122F068FCE4
:1021F000204610BD10B5084B0360044600F5517031
:10220000FFF7BAFF04F12C00FFF7CAFF04F1140036
:10221000FFF7DCFF204610BD2C72020808B502480B
:10222000FFF7E8FF08BD00BFA81A002010B504465C
:10223000FFF7E0FF204640F2EC4122F041FC20464F
:1022400010BD00002DE9F34100F044FC054600F00C
:1022500045FC00240146234628462246009412F0FD
:102260003BFC274B274A1A60204602F001FA264D14
:10227000264B274A27489A6012F096FB2B68BFF33B
:102280005B8FDB0735D4284622F01CFC88B3224C38
:10229000224B236004F5647604F1140004F12C0849
:1022A00004F551776060C4F80880E760266108F0A3
:1022B000F5F81B4B6361404608F0F0F8194BE362F8
:1022C000384608F0EBF8184BC4F8443304F5637053
:1022D00002F08AFB224604F56371304602F07EFA72
:1022E000304601F055F8114823F04EFB284622F005
:1022F000F5FB0F4802B0BDE8F041FFF7DDBB00BFC2
:10230000D02E0120540C0020A41A0020740C0020B0
:10231000580C002024000020A81A00202C7202086B
:1023200090710208C4710208F87102081D220008A9
:10233000D00B0020704700000148FFF7CFBB00BF63
:10234000D00B002070B5264E264C274D274B23601E
:102350003046FFF757FE284617F0C4FC244810F01B
:1023600099F8244B2448DC6000224FF48071C3E9C3
:10237000121222491A86C3E91A12214983F85820F9
:10238000C3E91E011F49C3F880101F491F480B6095
:10239000F021C3E90422C3E90622C3E90822C3E904
:1023A0000A22C3E90E22C3E91022C3E91422C3E9B9
:1023B00017225A6683F870205A67C3E901650180C5
:1023C0001348018013484FF4A07101801248018026
:1023D00012490A70012283F83420114A1A6070BD34
:1023E000000D0020A01A0020740C00207C6C020854
:1023F000580C0020D00B002000000101010000015A
:10240000000450001A0014006C2E0120602E0120E0
:10241000662E0120622E0120682E0120642E0120EC
:10242000086E02080148FFF779BC00BF000D0020CC
:102430000020704781807047C180704701817047DC
:10244000418170477047704770477047704710B4BC
:10245000C4880368121B84885B6D091B12B25DF887
:10246000044B09B218474FF6FF7383814FF0FF33D7
:1024700003621368C36110607047002070478B8847
:10248000838001207047704780F82610704790F8CD
:102490002600704710B50022B1F90840B1F90A10C2
:1024A000028042808480C18010BD00220280428070
:1024B0008280C28070470177704780ED080A7047BC
:1024C00080F82410704780F825107047012070476D
:1024D000983070478C3070478430704770470000E8
:1024E000034B902283F85A2383F85823704700BF88
:1024F00000E100E0094A0A49D3680A48C3F30A0325
:10250000013B9BB20B801169C1F30A0101390180C3
:102510001364536B43F00103536370470068014039
:10252000961F0020941F0020014BD3F8AC00704789
:1025300000680140024B0122C3F8AC105A62704798
:10254000006801407047704710B52C21044622F006
:10255000B7FA204610BD10B5BC21044622F0B0FAEF
:10256000204610BD70B5044608F0D3FC23689D6E6C
:102570000EF000FD01462046A8472368054AD3F81F
:102580008C502046AC460023BDE87040A2F51631C1
:10259000604700BF00B004D008F0A2BC08F0ACBC9B
:1025A00008F068BC08F0D7BD90F8252012B1036888
:1025B0005B691847704790F825201AB190F82420DD
:1025C00002B1186070470000034B4FF080629A60C0
:1025D0004FF080729A60704700E100E0084B4FF0C6
:1025E0008062C3F88820BFF34F8FBFF36F8F4FF027
:1025F0008072C3F88820BFF34F8FBFF36F8F70478F
:1026000000E100E070B50023124E8380124B03609E
:10261000336893F8582005460AB1D86C00B9986819
:102620000368DB6A98473368B0FA80F4D86C6409B1
:1026300030B10368DB6A9847002808BF44F0010402
:102640002CB9064B064A07482C2123F07FF928466F
:1026500070BD00BF6C2E01203C7302083872020866
:1026600096720208CF72020870B5254E3568BFF326
:102670005B8F15F0010540D1304622F023FA002887
:102680003BD0204C204B256104F13400C4E90035D7
:10269000C4E90255E584A562A58510F0E0F904F1CE
:1026A00058000AF0BDFF194BA3652046184B40F8AF
:1026B000843BFFF7A7FF174BC4F884302433C4F8DA
:1026C0008C304FF4C803C4E928350023C4F8AC307B
:1026D000C4F8B030C4F8B430C4F8B8300E480F4B6A
:1026E000C4F89050C4F89C50C4F8A850C4F898306E
:1026F00023F04AF9304622F0F1F9024870BD00BFDC
:10270000981F00209C1F0020C48902085C730208E7
:10271000D473020878890208DD2400085889020869
:1027200038B5184C23685BB3174B184A1B6C1188DB
:102730008B4216D1164B198803F088FE236893F854
:102740006A200025013283F86A2083F87C50FFF765
:10275000B9FA206809F05AF92846BDE83840FFF771
:10276000EDB803F073FE2468236820461B6A98477F
:10277000012384F87C300020BDE83840FFF708B919
:1027800038BD00BF6C2E012000680140961F00205C
:10279000941F00207047704770477047704770471C
:1027A00070477047704730B4C2684468551003469C
:1027B00004EB6200D20748BF62599B6830BC48BF37
:1027C000D35818470346406830B19A681AB9D86898
:1027D00000F0010070470120704710B50821044641
:1027E00022F06EF9204610BD10B51021044622F0EB
:1027F00067F9204610BD10B54FF4F871044622F079
:102800005FF9204610BD00F5B270884208B505D1C9
:102810000EF0B0FBBDE8084000F0EABD08BD70B5A1
:10282000036804461B6B15469847236829462046D3
:102830005B6BBDE8704018470022C0E90122C0E987
:102840000322C0E90522C0E907224FF48072828486
:10285000014A0260704700BF347402082DE9F04F4E
:10286000044689B02646002510F0B0FB824BE56394
:1028700046F8403B4FF0260A52462946304623F0A0
:102880008BFB3046FFF7D8FF04F16C09FF277B4B29
:10289000236452464FF6FF73294684F86670A56696
:1028A0004846ADF8183023F077FB4846FFF7C4FFE1
:1028B000734AE266BDF81820A4F8922004F58678E1
:1028C00006A984F8947048460BF091FC04F5B27B9D
:1028D00040460BF061FF52462946584623F05CFB08
:1028E0005846FFF7A9FF4FF0010304F5CC7784F8B1
:1028F0008831644AC4F88C514FF6FF73A4F89231C2
:10290000A4F8943184F89631294684F89051C4F89B
:1029100064213846524623F03FFB3846FFF78CFFD0
:10292000594BC4F8C0314FF6FF73A4F8C4314FF4CB
:102930007F03C4F8CC314FF0FF33C4E97635534BF5
:10294000534AC4F89821C4E97834524BC4F8C851AA
:10295000C4E97A352A46A4F8D051C4F8D45129469E
:102960003046FFF75CFF30464FF4A071FFF766FD7D
:102970003046F021FFF764FD04F1040A4FF07F4375
:10298000A3663146504607F0D8FF2A4629464846F6
:10299000FFF745FF042206A94846ADF818200BF0C2
:1029A00026FC4946504607F0C8FF6C2140462E22BF
:1029B000FFF735FF04F19802C4F8342104F1D10285
:1029C000C4F838214FF0010284F83C21152284F824
:1029D0009850C4F8402140460BF039FF0522C4F856
:1029E000442140460BF033FF2B4940460BF012FFC9
:1029F0004146504607F0A1FF29465846BE22FFF740
:102A00000EFF0A22ADF81420ADF8182005A906AA79
:102A100058460BF0B3FA04F5F072C4F88C2159460D
:102A2000504607F08AFF9D2238461B21FFF7F7FE2C
:102A30004FF07F43A4F8CC516D46C4F8C8313946F5
:102A400028460AF095FF95E8070004F5EA7383E845
:102A500007000D4B069306A94FF001033846ADF869
:102A60001C300BF02DFA5046394607F066FF204621
:102A700009B0BDE8F08F00BFC4740208888B02085B
:102A8000648C0208F08B02089C740208AC74020883
:102A9000F88A02080728000818740208704710B561
:102AA0000421044622F00CF8204610BD012908B587
:102AB00006D0022908D059B901F026FE006808BDE9
:102AC00001F022FE4068FAE701F01EFE8068F6E79A
:102AD0000020F4E70048704704750208142070478E
:102AE00013B5002451B1036801948DF8034001AA85
:102AF0009C680DF10303A04702B010BD0846FBE738
:102B0000C0897047008A7047C088704780887047C6
:102B1000807A00F07F007047807AC00970470020FB
:102B2000704700009FED010A704700BF00000000E1
:102B30007047704700F598730868496803C3704789
:102B4000704770474160704770470000064BC0F8FF
:102B50004C310023C0F8503100F5A273C0F8480191
:102B6000C0F84031704700BF2937000801230372C5
:102B7000704770477047704770477047704710B490
:102B8000C26841685410034601EB6200D20748BF97
:102B90000A599B685DF8044B48BFD3581847034651
:102BA000406830B19A681AB9D86800F001007047DF
:102BB0000120704710B50C21044621F081FF20460A
:102BC00010BD10B51421044621F07AFF204610BD37
:102BD00010B51021044621F073FF204610BD10B53A
:102BE0004FF4AE71044621F06BFF204610BD10B5C6
:102BF0004021044621F064FF204610BD10B540215D
:102C0000044621F05DFF204610BD10B50EF0B2F96C
:102C10000368BDE81040DB6B184710B50EF0AAF949
:102C20000368BDE810405B6B1847000013B504460D
:102C3000807A637A0130C0B29842A07205D901232C
:102C400023720023A37202B010BDB4F90C2000213E
:102C500010F06EFBC30706D500284FF6FF73C8BF00
:102C60000123184400B2144AE08112880023ADF811
:102C7000023083B2D21AADF80020228A20829B1A39
:102C8000ADF804300D4B1B88ADF806300EF072F92C
:102C9000036802AA1B6C12E906009847A37A012B6D
:102CA000D1D1074B1B78002BCDD00EF063F902B0C9
:102CB000BDE810400EF064B9602E0120622E0120A4
:102CC0006A2E0120054B1B7801462BB1406818B1D4
:102CD00003680C315B6E1847704700BF6B2E0120F4
:102CE000054B1B7801462BB1406818B103680C31C5
:102CF0005B6E1847704700BF6B2E0120037A70B5DA
:102D00000546BBB940680368DB69984704463CB98F
:102D10006868036805F10C011B6EBDE87040184738
:102D2000A1886B8FC91A236820461B6B09B298478C
:102D3000A469ECE770BD037A70B50546BBB940687D
:102D40000368DB69984704463CB96868036805F185
:102D50000C011B6EBDE870401847E1886B8FC91AE3
:102D6000236820465B6B09B29847A469ECE770BD05
:102D700010B50446D0F8400158B10368DB689847A5
:102D800038B1D4F8400103689B6898470023C4F821
:102D9000403110BD70B5044690F8390094F83830D1
:102DA0000130C0B2984284F8390005D9012323725A
:102DB000002384F8393070BDB4F93A20002110F0B6
:102DC000B7FAC30706D500284FF6FF73C8BF012323
:102DD000184400B2638AC01AA08760680368DB6980
:102DE000984705462DB960680368BDE870405B6987
:102DF0001847E988A38F19442B6828465B6B09B2F2
:102E00009847AD69EEE770B5044690F8390094F83C
:102E100038300130C0B2984284F8390005D9012316
:102E20002372002384F8393070BDB4F93A200021B0
:102E300010F07EFAC30706D500284FF6FF73C8BF0F
:102E40000123184400B2238AC01AA087606803686F
:102E5000DB69984705462DB960680368BDE8704096
:102E60005B691847A988A38F19442B6828461B6BF8
:102E700009B29847AD69EEE72DE9F14FD0E955BAAF
:102E80000746DBF8080003681B6A9847B0F5887F9F
:102E900005D2494B494AA321494822F057FDDBF8A6
:102EA000040003681B6A98470F2803D8454B434A20
:102EB000A421F1E7DBF80C0003681B6A984713288C
:102EC00003D8414B3D4AA521E6E70EF053F8DFF861
:102ED000049104300EF09BF8D9F8000010B103689B
:102EE000DB689847D9F8000010B103681B68984761
:102EF000DFF8E480D8F8000010B103685B699847F8
:102F0000D7F83C0110B103685B689847D8F8000017
:102F100010B103681B689847D7F83C0110B10368EB
:102F20009B689847DBF80C00036800215B6A9847B0
:102F3000264B03604FF4A0530381254B0026867275
:102F40001B8846600446C68106828381DBF8080040
:102F5000036831465B6A9847054601F079FDDBF866
:102F60000400036831465B6A98472946064601F02B
:102F70004DFD331DC7F83C61C9F80040C8F800504A
:102F8000CAF800302B68C6F808A02846DB68EE6354
:102F90009847336830461B6898472146284610F00A
:102FA000C1F9236820461B69984723685B6920465E
:102FB00001B0BDE8F04F1847947602082277020866
:102FC000167802085D78020800790208B0800208CD
:102FD000602E0120B42E0120B02E01202DE9F14FEA
:102FE000D0E955BA0746DBF8080003681B6A984722
:102FF000B0F5F87F05D2494B494AA321494822F050
:10300000A5FCDBF8040003681B6A98470F2803D867
:10301000454B434AA421F1E7DBF80C0003681B6A27
:103020009847132803D8414B3D4AA521E6E70DF008
:10303000A1FFDFF8049104300DF0E9FFD9F800009A
:1030400010B10368DB689847D9F8000010B1036835
:103050001B689847DFF8E480D8F8000010B10368D7
:103060005B699847D7F83C0110B103685B689847E3
:10307000D8F8000010B103681B689847D7F83C01E6
:1030800010B103689B689847DBF80C0003680021C7
:103090005B6A9847264B03604FF4A0530381254B8E
:1030A000002686721B8846600446C681068283819C
:1030B000DBF80800036831465B6A9847054601F073
:1030C0006DFBDBF80400036831465B6A98472946CC
:1030D000064601F041FB331DC7F83C61C9F80040CA
:1030E000C8F80050CAF800302B68C6F808A0284677
:1030F000DB68EE639847336830461B689847214683
:10310000284610F00FF9236820461B69984723686A
:103110005B69204601B0BDE8F04F1847947602087D
:10312000A3790208167802085D780208007902087F
:10313000B0800208602E0120B42E0120B02E0120A4
:103140002DE9F0411D460368BDF918701B6B04465C
:10315000164698472368314620465B6B984723689C
:10316000294620469B6B9847236839462046DB6BEF
:10317000BDE8F041184700002DE9F74FD0E9556A46
:103180000746B06803681B6A9847B0F5887F05D288
:10319000544B554AA321554822F0D8FB7068036868
:1031A0001B6A98470F2803D8514B4F4AA421F2E7D6
:1031B000F06803681B6A98473F2803D84D4B4A4A7A
:1031C000A521E8E70DF0D6FEDFF8389104300DF0C8
:1031D0001EFFD9F8000010B10368DB689847D9F8E2
:1031E000000010B103681B689847DFF81C81D8F80D
:1031F000000010B103685B699847D7F83C0110B133
:1032000003685B689847D8F8000010B103681B6832
:103210009847D7F83C0110B103689B689847F0685D
:10322000036800215B6A984705460022324B4260E2
:10323000027245F80C3B044628460AF099FA14231A
:1032400023872E4B1B780022A287002B35D1012328
:103250002372B068036800215B6A9847054601F055
:10326000F7FB7068036800215B6A984729460646A9
:1032700001F0CCFB331DC7F83C61C9F80040C8F829
:103280000050CAF800302B68C6F808A02846DB6852
:10329000EE639847336830461B68984721462846B6
:1032A00010F040F8236820461B69984723685B6943
:1032B000204603B0BDE8F04F1847DFF850B0BBF927
:1032C000003000930E4B1146B3F900302846FFF74B
:1032D00037FF28460AF0C7F9BBF800305B42638726
:1032E000B7E700BF94760208917A020816780208C0
:1032F0005D78020800790208D48002086B2E012054
:10330000602E0120B42E0120B02E0120622E01205B
:10331000044B1B6893F858200AB1D86C00B9986820
:10332000704700BF6C2E0120F8B5174604460E46C4
:103330000DF00AFF124B1C60124B2360124B00254C
:10334000C4E95135114BC4E953551868036829463F
:103350009B68C4E94F55C4E955769847284601F063
:1033600087F9FFF7D5FF18F066FBFFF7D1FF18F0DC
:10337000DDFBFFF7CDFF18F0E5FB2046F8BD00BFF1
:10338000C02E012014800208FC7F02086C2E012050
:10339000064BC0F84C310023C0F8503100F5A27341
:1033A000C0F84801C0F84031704700BF2937000815
:1033B000064BC0F84C310023C0F8503100F5A27321
:1033C000C0F84801C0F84031704700BF153A000806
:1033D000064BC0F84C310023C0F8503100F5A27301
:1033E000C0F84801C0F84031704700BFE13500081F
:1033F000064BC0F84C310023C0F8503100F5A273E1
:10340000C0F84801C0F84031704700BFD938000803
:10341000064BC0F84C310023C0F8503100F5A273C0
:10342000C0F84801C0F84031704700BF9934000827
:10343000064BC0F84C310023C0F8503100F5A273A0
:10344000C0F84801C0F84031704700BFDD2F0008C8
:10345000064BC0F84C310023C0F8503100F5A27380
:10346000C0F84801C0F84031704700BF793100080A
:10347000064BC0F84C310023C0F8503100F5A27360
:10348000C0F84801C0F84031704700BF792E0008ED
:1034900003685B6A184700002DE9F14FD0E9556ACF
:1034A0000746B06803681B6A9847B0F5F87F05D2F5
:1034B000434B444AA321444822F048FA7068036809
:1034C0001B6A98470F2803D8404B3E4AA421F2E7D5
:1034D000F06803681B6A98470B2803D83C4B394AAD
:1034E000A521E8E70DF046FDDFF8EC9004300DF083
:1034F0008EFDD9F8000010B10368DB689847D9F851
:10350000000010B103681B689847DFF8D080D8F836
:10351000000010B103685B699847D7F83C0110B10F
:1035200003685B689847D8F8000010B103681B680F
:103530009847D7F83C0110B103689B689847F0683A
:103540000021FFF7A5FF4FF0000B224BC0F804B09D
:10355000044680F808B00360B068036859465B6AA7
:103560009847054601F01AF97068036859465B6A86
:1035700098472946064601F0EFF8331DC7F83C612D
:10358000C9F80040C8F80050CAF800302B68C6F8E7
:1035900008A02846DB68EE639847336830461B680E
:1035A0009847214628460FF0BDFE236820461B6938
:1035B000984723685B69204601B0BDE8F04F184783
:1035C00094760208877B0208167802085D78020864
:1035D0000079020868800208B42E0120B02E012074
:1035E0002DE9F14FD0E9556A0746B06803681B6AB8
:1035F0009847B0F5A27F05D2434B444AA3214448E3
:1036000022F0A4F9706803681B6A98470F2803D852
:10361000404B3E4AA421F2E7F06803681B6A9847D2
:103620000B2803D83C4B394AA521E8E70DF0A2FC52
:10363000DFF8EC9004300DF0EAFCD9F8000010B18E
:103640000368DB689847D9F8000010B103681B686D
:103650009847DFF8D080D8F8000010B103685B69A4
:103660009847D7F83C0110B103685B689847D8F8D1
:10367000000010B103681B689847D7F83C0110B1EF
:1036800003689B689847F0680021FFF701FF4FF03F
:10369000000B224BC0F804B0044680F808B0036069
:1036A000B068036859465B6A9847054601F090F98F
:1036B0007068036859465B6A98472946064601F0D8
:1036C00065F9331DC7F83C61C9F80040C8F80050DF
:1036D000CAF800302B68C6F808A02846DB68EE63FD
:1036E0009847336830461B689847214628460FF0B4
:1036F00019FE236820461B69984723685B692046AA
:1037000001B0BDE8F04F184794760208637C0208C8
:10371000167802085D7802080079020868800208BD
:10372000B42E0120B02E01202DE9F14FD0E9556AC9
:103730000746B06803681B6A9847B0F5447F05D216
:10374000434B444AA321444822F000F970680368BF
:103750001B6A98470F2803D8404B3E4AA421F2E742
:10376000F06803681B6A98470B2803D83C4B394A1A
:10377000A521E8E70DF0FEFBDFF8EC9004300DF03A
:1037800046FCD9F8000010B10368DB689847D9F807
:10379000000010B103681B689847DFF8D080D8F8A4
:1037A000000010B103685B699847D7F83C0110B17D
:1037B00003685B689847D8F8000010B103681B687D
:1037C0009847D7F83C0110B103689B689847F068A8
:1037D0000021FFF75DFE4FF0000B224BC0F804B054
:1037E000044680F808B00360B068036859465B6A15
:1037F0009847054601F058F87068036859465B6AB7
:1038000098472946064601F001F8331DC7F83C6188
:10381000C9F80040C8F80050CAF800302B68C6F854
:1038200008A02846DB68EE639847336830461B687B
:103830009847214628460FF075FD236820461B69EE
:10384000984723685B69204601B0BDE8F04F1847F0
:10385000947602083D7D0208167802085D78020819
:103860000079020868800208B42E0120B02E0120E1
:10387000F7B505460026144B4660067245F80C3B2A
:10388000044628460F4609F073FF104B84F8387041
:103890001B7884F83960A68723B901232372204658
:1038A00003B0F0BD0A4B0B4FB3F900300093B7F9EA
:1038B0000030324631462846FFF742FC284609F0E0
:1038C000D2FE3B886387EAE78C8002086B2E0120DA
:1038D000622E0120602E01202DE9F047D0E9556AC3
:1038E0000746B06803681B6A9847B0F5A27F05D207
:1038F000414B424AA321424822F028F870680368ED
:103900001B6A98470F2803D83E4B3C4AA421F2E794
:10391000F06803681B6A98473F2803D83A4B374A38
:10392000A521E8E70DF026FBDFF8E09004300DF06C
:103930006EFBD9F8000010B10368DB689847D9F82E
:10394000000010B103681B689847DFF8C480D8F8FE
:10395000000010B103685B699847D7F83C0110B1CB
:1039600003685B689847D8F8000010B103681B68CB
:103970009847D7F83C0110B103689B689847F068F6
:10398000036800215B6A984714210446FFF770FF23
:10399000B068036800215B6A9847054601F018F893
:1039A0007068036800215B6A98472946064600F064
:1039B000EDFF331DC7F83C61C9F80040C8F800505E
:1039C000CAF800302B68C6F808A02846DB68EE630A
:1039D0009847336830461B689847214628460FF0C1
:1039E000A1FC236820461B699847236820465B6931
:1039F000BDE8F047184700BF94760208177E02081A
:103A0000167802085D78020800790208B42E0120B9
:103A1000B02E01202DE9F047D0E9556A0746B0687D
:103A200003681B6A9847B0F5447F05D2414B424A70
:103A3000A321424821F08AFF706803681B6A9847F7
:103A40000F2803D83E4B3C4AA421F2E7F0680368F4
:103A50001B6A98473F2803D83A4B374AA521E8E725
:103A60000DF088FADFF8E09004300DF0D0FAD9F8C4
:103A7000000010B10368DB689847D9F8000010B166
:103A800003681B689847DFF8C480D8F8000010B1BD
:103A900003685B699847D7F83C0110B103685B681D
:103AA0009847D8F8000010B103681B689847D7F80A
:103AB0003C0110B103689B689847F06803680021D7
:103AC0005B6A984714210446FFF7D2FEB06803688A
:103AD00000215B6A9847054600F0E6FE70680368BF
:103AE00000215B6A98472946064600F08FFE331D89
:103AF000C7F83C61C9F80040C8F80050CAF8003067
:103B00002B68C6F808A02846DB68EE639847336840
:103B100030461B689847214628460FF003FC23686F
:103B200020461B699847236820465B69BDE8F0473B
:103B3000184700BF94760208047F0208167802082E
:103B40005D78020800790208B42E0120B02E012011
:103B5000406A7047806A704770478A880B8810B542
:103B6000D20A4C88C1699BB251F8220043EA04434F
:103B7000184410BD10B50446BAB1107B68B1537B30
:103B8000D27A1B0203F4E0631A43236A03EB820335
:103B90001A888A4202D193F9020010BD05D8013873
:103BA00080B204330028F3D1F7E70020F5E710B521
:103BB0002C21044620F084FF204610BD30B58BB088
:103BC0000446BDF860500895BDF85C5007959DF817
:103BD000505006959DF84C5005959DF84850049519
:103BE0009DF8445003959DF8405002959DF83C5037
:103BF0000195BDF8385000950EF0EEFF064B23609E
:103C0000159BE361169B2362199B63621A9BA36257
:103C100020460BB030BD00BFF880020870477047E7
:103C20007047704730B4C26844685510034604EBCF
:103C30006200D20748BF62599B6830BC48BFD35866
:103C400018470346406830B19A681AB9D86800F03E
:103C5000010070470120704710B51021044620F084
:103C60002FFF204610BD10B54FF43F71044620F0E1
:103C700027FF204610BD10B5034629B90DF07AF98B
:103C8000BDE81040FFF7A4BB302904D11B68BDE894
:103C90001040DB6A18473129F8D03229F6D010BD20
:103CA00038B500F5F673994204460D4603D10DF080
:103CB00061F9FFF7CDFB04F50874A54205D10DF0BD
:103CC00059F9BDE83840FFF7A3BB38BD38B5262207
:103CD00004460D46002122F05FF92046FEF7ACFDB8
:103CE000064B23602B88E384FF23204684F828308A
:103CF00029460AF07CFA204638BD00BF648C0208D1
:103D000010B526220446002122F046F92046FEF78F
:103D100093FD0023A36284F82C30012384F824301F
:103D2000044B23604FF6FF7384F83230E38523861B
:103D3000204610BDF08B02082DE9F04F04468FB0ED
:103D4000A04600260FF042F9AB4BE66348F8403B33
:103D500026223146404622F01FF94046FEF76CFD10
:103D6000A64B236404F16C0BFF230CA984F8663086
:103D70004FF6FF7504F1980AA666584604F1CC097F
:103D8000ADF83050FFF7A2FF5046FFF7B9FF4846A5
:103D9000FFF7B6FF04F5807318460393FFF7B0FFF3
:103DA00004F59A7318460493FFF7AAFF04F5B47359
:103DB0000CA918460593ADF83050FFF787FF04F5BE
:103DC000CA730CA918460693ADF83050FFF77EFF72
:103DD00004F5E0730CA918460793ADF83050FFF7CF
:103DE00075FF04F5F67318460893FFF789FF04F58D
:103DF000087304F5157718460993FFF781FF3846D5
:103E000006F0D6FC7E4BC4E9BB347E4BC4E9BD361C
:103E1000F02332460093314640464FF4A073251DEF
:103E2000FFF78EF94FF07F43A3664146284606F020
:103E300084FD324631465846FEF7F1FC08230CA9B2
:103E40005846ADF830300AF0D2F95946284606F007
:103E500074FD50466E226921FEF7E1FC06230CAA90
:103E60000BA95046ADF82C30ADF830300AF086F88A
:103E70005146284606F061FD48461022E421FEF72F
:103E8000CEFC11230CAA0BA94846ADF82C30ADF896
:103E900030300AF073F84946284606F04EFD039884
:103EA0003D22E421FEF7BBFC05230CAA0398ADF8E4
:103EB0002C300BA9ADF830300AF060F80399284691
:103EC00006F03BFD04986E22E421FEF7A8FC0D23CA
:103ED0000CAA0498ADF82C300BA9ADF830300AF0DC
:103EE0004DF80499284606F028FD102205980B216C
:103EF000FEF795FC09230598ADF830300CA90AF0BF
:103F000076F90599284606F018FD102206986921D1
:103F1000FEF785FC4FF00B080698ADF830800CA931
:103F20000AF065F90699284606F007FD6E22079803
:103F30004146FEF774FC0C230798ADF830300CA90D
:103F40000AF055F90799284606F0F7FC0898B922B7
:103F5000E421FEF764FC04F53B780E230CAA0898D4
:103F6000ADF82C300BA9ADF830300AF007F80899FD
:103F7000C4F81482284606F0E0FC0998B9224FF4F0
:103F80008971FEF74CFC0CAA0998ADF82C600BA9BE
:103F9000ADF8306009F0F2FF0999C4F8488228466C
:103FA00006F0CBFC2D232222009338466E23692194
:103FB000FFF7C6F838464FF07F4106F027FB124B5B
:103FC0000C930CA93846ADF8346006F03AFB38463D
:103FD000012106F03BFC0A220123114684F88332BA
:103FE0003846334606F035FC2846394606F0A5FC2F
:103FF00020460FB0BDE8F08F78810208888B020858
:1040000060810208A13C00089C7402087047704758
:10401000704730B4C26844685510034604EB620030
:10402000D20748BF62599B6830BC48BFD358184775
:104030000346406830B19A681AB9D86800F00100A8
:1040400070470120704710B51021044620F038FD5C
:10405000204610BD10B54FF4A271044620F030FD8B
:10406000204610BD38B500F19803994204460D462C
:1040700003D10CF07FFFFFF79BF904F580739D429D
:1040800003D10CF077FFFFF7D3F9CC34A54205D16B
:104090000CF070FFBDE83840FFF7EAB938BD0229DF
:1040A00008B505D10CF066FFBDE80840FFF780B900
:1040B000012907D1C82380F8FE30BDE80840CC3084
:1040C0000EF032B908BD00002DE9F74F0446264630
:1040D00000250EF07BFF5A4BE56346F8403B4FF05E
:1040E00026094A462946304621F056FF3046FEF75B
:1040F000A3FB04F16C074FF0FF08524B23644A46C0
:104100004FF6FF73294684F86680A5663846ADF8F9
:10411000043021F041FF3846FEF78EFB4A4BE36640
:10412000BDF80430A4F8923001A904F1980B84F88A
:10413000948038460AF05BF804F1CC0A5846FFF741
:10414000DFFD04F580795046FFF7DAFD4846FFF7BA
:10415000D7FD3E4BC4E94D343D4B2A46C4E94F35AB
:1041600029463046FEF75BFB30464FF4A071FEF760
:1041700065F93046F021FEF763F904F104084FF0C9
:104180007F43A3663146404606F0D7FB2A462946C0
:104190003846FEF744FB032301A93846ADF8043046
:1041A0000AF025F8C82384F894303946404606F0D2
:1041B000C4FB29465846BE22FEF731FB04F59A752A
:1041C0000A2301AA69465846ADF80030ADF804301C
:1041D00009F0D4FE59464046C4F8C05006F0ADFB85
:1041E000504641221921FEF71AFB102301AAADF80F
:1041F000003069460F235046ADF8043009F0BEFE8A
:1042000051464046C4F8F45006F097FB4846412218
:104210008721FEF704FB0223ADF8003001AA012339
:1042200069464846ADF8043009F0A8FE4046C4F897
:104230002851494606F081FB204603B0BDE8F08FC7
:10424000C8810208888B0208648C0208B0810208C9
:104250006540000870477047704730B4C2684468D2
:104260005510034604EB6200D20748BF62599B68B1
:1042700030BC48BFD35818470346406830B19A68ED
:104280001AB9D86800F0010070470120704710B5D6
:104290001021044620F014FC204610BD10B54FF448
:1042A0008871044620F00CFC204610BD98308842EE
:1042B00008B505D10CF05EFEBDE80840FFF798B8E0
:1042C00008BD00002DE9F3470446264600250EF000
:1042D0007DFE4C4BE56346F8403B4FF026094A46CD
:1042E0002946304621F058FE3046FEF7A5FA04F183
:1042F0006C074FF0FF08444B23644A464FF6FF73A8
:10430000294684F86680A5663846ADF8043021F069
:1043100043FE3846FEF790FA3C4BE366BDF80430A6
:10432000A4F8923001A904F1980A84F894803846E0
:1043300009F05DFF04F1CC095046FFF7E1FC484667
:10434000FFF7DEFC324BC4E94034324B2A46C4E965
:10435000423529463046FEF762FA30464FF4A071E6
:10436000FEF76CF83046F021FEF76AF804F1040815
:104370004FF07F43A3663146404606F0DEFA2A46F8
:1043800029463846FEF74BFA032301A93846ADF813
:10439000043009F02CFFC82384F894303946404695
:1043A00006F0CBFA29465046BE22FEF738FA0A2319
:1043B00001AA69465046ADF80030ADF8043009F066
:1043C000DDFD04F58073C4F8C0305146404606F068
:1043D000B4FA48462D225A21FEF721FA1323ADF8EC
:1043E000003001AA122369464846ADF8043009F0AE
:1043F000C5FD4046494606F0A0FA204602B0BDE899
:10440000F08700BF14820208888B0208648C0208BF
:10441000FC810208AD4200087047000030B5164D1F
:104420002C68BFF35B8F14F001048FB021D12846B4
:1044300020F048FBE8B13F230993104B0893104B41
:10444000104911480A94CDE9064301220423CDE91D
:104450000332232300931022CDE90B44CDE901441C
:104460000594FFF7ABFB094821F08EFA284620F0AF
:1044700035FB05480FB030BD58200020F8A90208D0
:1044800004AA020834A802085C200020194400088D
:104490007047000030B5164D2C68BFF35B8F14F0E9
:1044A00001048FB020D1284620F00CFBE0B13F235F
:1044B0000993104B0893104B104911480A9401229C
:1044C000CDE906430423CDE903320A230093CDE965
:1044D0000B44CDE901440594FFF770FB094821F036
:1044E00053FA284620F0FAFA05480FB030BD00BF55
:1044F00088200020FCA9020808AA020814A90208C2
:104500008C200020914400087047000030B5174D02
:104510002C68BFF35B8F14F001048FB022D12846C2
:1045200020F0D0FAF0B13F230993114B0893114BBF
:10453000114912480A94CDE906430123CDE9043319
:104540000423CDE90243142300930F221823CDE95D
:104550000B440194FFF732FB094821F015FA284675
:1045600020F0BCFA05480FB030BD00BFB8200020D5
:1045700000AA02080CAA020824A90208BC200020F4
:104580000945000800207047002070470EB403B5AD
:1045900003AB002153F8042B01930DF09BFD02B0F7
:1045A0005DF804EB03B070470CB407B504AB53F8E7
:1045B000042B01930DF08EFD03B05DF804EB02B007
:1045C00070470000436C10B5044673B3038F2BB9DA
:1045D000184B194AC521194821F0B8F9C38E00EBD0
:1045E00043035B8C0BB30FF028FC238F012B03D804
:1045F000134B144ACB21EEE7E28E531C9BB2092BDE
:10460000194688BFA3F10A0104EB410140F63F10AF
:10461000498C814209D10A2B04EB420228BF0023B6
:1046200004EB4303508C588451842046BDE810406D
:104630000FF006BB4082020849820208F482020899
:104640003E8302084C8302080FF0C1BA10B586B051
:1046500002AC84E806001A460AAB05930193099B55
:1046600000932146089B0CF023F806B010BD000013
:1046700038B518BB124B13481C681349B4B12268F3
:1046800022440260626822440A60A26814440F4B0C
:1046900000221A8000F038F8054600F033F80C4B81
:1046A0001C600C4B1D600C4B188007E00B4B03602B
:1046B0000B4B0B600B4B1C68002CE8D138BD00BFC6
:1046C000F4200020EC200020E8200020F020002032
:1046D000C42E0120CC2E0120C82E012018AA0208C9
:1046E00010AA020850AA0208044B1B6853F82100C4
:1046F000034B1B6803EB4000704700BFE82000201D
:10470000EC2000200220704700487047F82000206D
:1047100010B5FFF7FBFE044C2060FFF77FFE6060E2
:10472000FFF7B8FEA06010BDF820002010B50024EF
:1047300004600C6014601C6010BD70470438704742
:10474000704710B51021044620F0BAF9204610BD7C
:10475000A0F10400F5E7000000228260024A026036
:1047600018324260C1607047288402087047000018
:1047700010B5034B03600446FEF712F8204610BD47
:104780005084020810B50446FFF7F2FF20464FF4AC
:10479000F87120F095F9204610BD000010B50446D0
:1047A000FEF75CF8014B2360204610BD50840208E0
:1047B000FDF7F7BF704710B54FF4AE71044620F017
:1047C0007FF9204610BD10B50446D0F8580100F01E
:1047D0000EF92046BDE810400CF076BC10B504463A
:1047E000FEF7A2FD014B2360204610BD8484020821
:1047F000704704387047704710B51021044620F008
:104800005FF9204610BDA0F10400F5E700228260A8
:10481000024A026018324260C1607047D8840208C0
:10482000042908B502D0052906D008BD0CF0A2FB6A
:10483000BDE80840FEF70CBE0CF09CFBBDE808404C
:10484000FEF7E6BD7047000010B5034B0360044659
:10485000FFF7E5F9204610BD0085020810B50446B3
:10486000FFF7F2FF20464FF4447120F029F920466B
:1048700010BD90F8FC32012B07D0022B0DD05BB994
:1048800090F8FD12C06BFFF7CBBF90F8FD32042B00
:1048900002D8013380F8FD32704790F8FD32002BCA
:1048A000FAD0013BF6E7000010B50446FFF744FAE2
:1048B000014B2360204610BD0085020838B5044630
:1048C00004F51575FFF7ACF9284606F00DF8C4F8A5
:1048D0000403284606F021F8C4F80803284606F029
:1048E0001FF8C4F80C0338BDD0F800333C22013364
:1048F00010B493FBF2F1C0F8003302FB113323BB79
:10490000D0F80C4301343B2CD0E9C121C0F80C4352
:1049100006DD01313B29C0F80C330DDCC0F808136B
:1049200090F80C3390F8082390F804135DF8044BCA
:1049300000F5157005F08DBF0132C0F80833172A55
:10494000D8BF1346C0F80433EAE75DF8044B70475C
:10495000312908D0322908D0302902D1002380F82B
:10496000FC32FFF788B90123F9E70223F7E7704724
:1049700004387047704710B51021044620F0A0F8A5
:10498000204610BDA0F10400F5E70000002282607F
:10499000024A026018324260C160704738850208DE
:1049A0007047000010B5034B03600446FFF72EFB71
:1049B000204610BD6085020810B50446FFF7F2FFDF
:1049C00020464FF4A27120F07BF8204610BD000075
:1049D00010B50446FFF778FB014B2360204610BD5D
:1049E00060850208FFF713BB002202607047704722
:1049F000704704387047704710B51021044620F006
:104A00005FF8204610BDA0F10400F5E700228260A7
:104A1000024A026018324260C16070479485020801
:104A20007047000010B5034B03600446FFF712FC0B
:104A3000204610BDBC85020810B50446FFF7F2FF02
:104A400020464FF4887120F03BF8204610BD00004E
:104A500010B50446FFF736FC014B2360204610BD1D
:104A6000BC850208FFF7F7BBF02070474FF4A07039
:104A700070472920FCF7F8B92820FCF7F5B908B5EC
:104A8000FCF7C6F9CA20FCF7EFF9C320FCF7D0F910
:104A90000820FCF7CDF95020FCF7CAF9CF20FCF72D
:104AA000E3F90020FCF7C4F9C120FCF7C1F930207C
:104AB000FCF7BEF9ED20FCF7D7F96420FCF7B8F954
:104AC0000320FCF7B5F91220FCF7B2F98120FCF7BE
:104AD000AFF9E820FCF7C8F98520FCF7A9F9002018
:104AE000FCF7A6F97820FCF7A3F9CB20FCF7BCF97A
:104AF0003920FCF79DF92C20FCF79AF90020FCF7EF
:104B000097F93420FCF794F90220FCF791F9F7208B
:104B1000FCF7AAF92020FCF78BF9EA20FCF7A4F9AE
:104B20000020FCF785F90020FCF782F9B120FCF7A2
:104B30009BF90020FCF77CF91B20FCF779F9B620E3
:104B4000FCF792F90A20FCF773F9A220FCF770F940
:104B5000C020FCF789F91020FCF76AF9C120FCF7A6
:104B600083F91020FCF764F9C520FCF77DF9452096
:104B7000FCF75EF91520FCF75BF9C720FCF774F928
:104B80009020FCF755F93620FCF76EF9C820FCF7A9
:104B90004FF9F220FCF768F90020FCF749F9B02042
:104BA000FCF762F9C220FCF743F9B620FCF75CF988
:104BB0000A20FCF73DF9A720FCF73AF92720FCF77B
:104BC00037F90420FCF734F92A20FCF74DF90020CE
:104BD000FCF72EF90020FCF72BF90020FCF728F950
:104BE000EF20FCF725F92B20FCF73EF90020FCF71D
:104BF0001FF90020FCF71CF90120FCF719F93F20F0
:104C0000FCF716F9F620FCF72FF90120FCF710F954
:104C10000020FCF70DF90620FCF70AF92C20FCF720
:104C200023F9C820FCF76EF92620FCF71DF90120B6
:104C3000FCF7FEF8E020FCF717F90F20FCF7F8F876
:104C40002920FCF7F5F82420FCF7F2F80C20FCF7FB
:104C5000EFF80E20FCF7ECF80920FCF7E9F84E20FD
:104C6000FCF7E6F87820FCF7E3F83C20FCF7E0F8E6
:104C70000920FCF7DDF81320FCF7DAF80520FCF733
:104C8000D7F81720FCF7D4F81120FCF7D1F8002052
:104C9000FCF7CEF8E120FCF7E7F80020FCF7C8F8B5
:104CA0001620FCF7C5F81B20FCF7C2F80420FCF71F
:104CB000BFF81120FCF7BCF80720FCF7B9F8312049
:104CC000FCF7B6F83320FCF7B3F84220FCF7B0F855
:104CD0000520FCF7ADF80C20FCF7AAF80A20FCF739
:104CE000A7F82820FCF7A4F82F20FCF7A1F80F2044
:104CF000FCF79EF81120FCF7B7F8C820FCF702F982
:104D00002920FCF7B1F8BDE808402C20FCF7ACB82E
:104D100008B5FCF77DF80321D320FCF7C1F880B279
:104D200008BD10B5C4B2022203212046FCF726F8C4
:104D30000A20FCF76BF8204600220321FCF71EF83E
:104D4000BDE810400220FCF761B838B50446E4B273
:104D5000FCF712F800212046FCF728F8012105464F
:104D60002046FCF723F840EA052080B238BD10B594
:104D7000C4B240212046FCF719F8030607D54C21A0
:104D80002046FCF713F8003818BF012010BD01229F
:104D90004B212046FBF7F2FF204600224B21FBF778
:104DA000EDFF0020F2E773B50423C4B20E461546AA
:104DB000D7210DEB03022046FCF712F8019B1BBA2A
:104DC0001A0DC3F30B23328020462B8001224B2186
:104DD000FBF7D4FF00224B212046FBF7CFFF02B0A8
:104DE00070BD000010B50A4A1378984204460DD0F1
:104DF000517888420AD00BB141B90123D454FBF752
:104E0000BBFF2046BDE81040FFF78BBF10BD00BFC1
:104E10000421002010B5C4B209212046FBF7C6FFCB
:104E200040F00102D2B220460921BDE81040FBF754
:104E3000A5BF10B5C4B209212046FBF7B7FF092171
:104E400000F0FE022046BDE81040FBF797BF38B5E2
:104E5000C4B20D4620460A21FBF7A8FF40EA05022E
:104E6000D2B220460A21BDE83840FBF787BF10B513
:104E70000446FBF782FF20461F21FFF7E8FF20468C
:104E8000BDE81040FFF7C6BF38B5C4B20D46204696
:104E90000A21FBF78BFF20EA0502D2B220460A2145
:104EA000BDE83840FBF76ABF10B50446FFF7C1FF05
:104EB00020461F21BDE81040FFF7E6BF10B5C0B285
:104EC0000C460B21FBF772FF204010BD1F21FFF79E
:104ED000F5BF0A46C0B20B21FBF750BF1F21FFF7F9
:104EE000F8BF38B5C4B20D4620461721FBF75EFF68
:104EF00020EA0502D2B220461721BDE83840FBF770
:104F00003DBF70B5C4B2064604212046FBF74EFFF4
:104F1000042100F0FB0205462046FBF72FFF304638
:104F2000F021FFF7DEFF05F0F80220460421FBF731
:104F300025FF492220212046FBF720FF0220FBF716
:104F400065FF204601222121FBF718FF20469A2207
:104F50004121FBF713FF204601224A21FBF70EFFF8
:104F6000204601224B21FBF709FF204600224B215E
:104F7000FBF704FF204601225621FBF7FFFE2046E7
:104F800001225821FBF7FAFE204601224021FBF7BF
:104F9000F5FE2046FF220B21FBF7F0FEBDE8704036
:104FA0000220FBF733BF0000054BD3F8882042F402
:104FB0007002C3F888204FF000629A60704700BF0B
:104FC00000ED00E008B50B4B1A6842F400721A605D
:104FD0001A6842F480621A601A6842F480721A6099
:104FE000032000F02FF80020FCF7B6FAFBF798FF3B
:104FF000002008BD003C0240034A044B11681B78A6
:105000000B441360704700BF082100208C00002073
:10501000014B1868704700BF0821002038B50446CE
:10502000FFF7F6FF631C1CBF054B1B78054618BF36
:10503000E418FFF7EDFF431BA342FAD338BD00BFCE
:105040008C0000200749CA6822F4E06203021204BF
:1050500003F4E063120C134343F0BF6343F40033E3
:10506000CB60704700ED00E0164B30B5DC68C4F350
:105070000224C4F10703251D042B28BF0423062D99
:105080004FF0FF358CBF033C002405FA03F321EAFF
:105090000303A54022EA0502A340002843EA0203D5
:1050A000ACBF00F16040084A4FEA0313B8BF00F0FC
:1050B0000F00DBB2AABF00F56140135480F8003343
:1050C00030BD00BF00ED00E014ED00E0002807DB7C
:1050D000044A4109012300F01F00834042F82130B7
:1050E000704700BF00E100E010B5044650B14379BD
:1050F00003F0FF0213B90271FBF732FF0123637162
:10510000002010BD0120FCE7036810B5084C0246E2
:10511000D9B210391820B1FBF0F0205CD06523F42F
:105120007F7020F003005F2988BF0430906510BDB8
:105130000086020870B50446FFF76AFF0546002C9A
:1051400060D0022384F835302268002384F834309C
:10515000136823F00103136022681368D8072ED464
:1051600013683248A1691840D4E901352B43E5683A
:105170002B4325692B4365692B43E5690B432B437F
:10518000256A2B430343606A042802BFD4E90B5607
:1051900035432B4313605369042823F0070343EA84
:1051A000000335D1A06AE56A03438DB391B90128A4
:1051B00020D030F002012BD1E90129D51DE0FFF705
:1051C00027FF401B0528C7D920230320636584F8E7
:1051D000350070BDB1F5005F16D1032818D801A1C4
:1051E00051F820F0FB510008B9510008FB510008AC
:1051F000F5510008B5F1C07F0AD140236365012352
:1052000084F835300120E4E70228F6D90328D3D00A
:1052100053612046FFF778FFE26D3F2393408360A0
:1052200000200123606584F83530D2E73F8010F01C
:1052300070B590F83440866D012C30D0012480F890
:10524000344090F83540012C4FF0000425D1022560
:1052500080F8355044650468256825F4802525606C
:1052600063608368402B0EBFA260A160E260C26DE4
:1052700008BFE1603F239340B360236843F0160307
:105280002360036C1BB1236843F008032360236889
:1052900043F001032360002070BD80F834400220F9
:1052A000FAE790F83530022B03D0802343650120C4
:1052B00070470268052380F83530136823F0010336
:1052C0001360002070470000F7B5002301935C4B8A
:1052D000856D1F68C36D2E6808229A4032420446CD
:1052E0000CD001680868400708D5086820F0040061
:1052F0000860AA60626D42F00102626501229A4074
:10530000324208D021684969090641BFAA60626D2E
:1053100042F00202626504229A40324208D02168BB
:105320000968880741BFAA60626D42F004026265A5
:1053300010229A40324210D02368196809070CD510
:10534000AA601A68500337D51B68190301D4236C6F
:1053500000E0A36C0BB120469847E16D20228A4003
:1053600032423AD023681868C60636D5AA6094F847
:105370003520052A1A6827D122F016021A605A69C8
:1053800022F080025A61226C0AB9A26C1AB11A6822
:1053900022F008021A603F238B40AB60012384F89F
:1053A0003530002384F83430236D002B45D020465F
:1053B00003B0BDE8F04018471A68D2055EBF1A680E
:1053C00022F008021A60C2E7500327D51B681903B0
:1053D00031D4636C0BB120469847636D6BB3636D3A
:1053E000DA0719D522684FF41653B7FBF3F70523F4
:1053F00084F83530136823F001031360019B0133F7
:10540000BB42019302D81368DB07F7D4012384F869
:105410003530002384F83430E36CC6E71A6812F4A0
:10542000807208D1196821F010011960012384F8F5
:10543000353084F83420E36BCCE703B0F0BD00BF17
:105440008800002010B5044630B390F8393003F0DE
:10545000FF021BB980F83820FBF79AFD22686168CB
:10546000022384F83930136823F440330B4313606C
:10547000536BA16823F007030B435363136CE1687C
:1054800023F47F5323F03F030B43136400200123D5
:10549000E06384F8393010BD0120FCE770477047A5
:1054A000036870B55E681D68F207044614D5E90507
:1054B00012D51A6822F480721A60C26B42F001029F
:1054C000C26301229A60042380F83930002380F8F7
:1054D0003830436903B19847B20616D5AB0414D5EA
:1054E00023681A6822F400521A6020229A60E36B43
:1054F00043F00203E363042384F83930002384F883
:10550000383063690BB120469847300716D5290516
:1055100014D523681A6822F400621A6008229A607F
:10552000E36B43F00403E363042384F8393000237E
:1055300084F8383063690BB12046984772070BD561
:105540006B0509D523681A6822F480621A60042268
:105550009A602046FFF7A2FFB00714D5A90512D51F
:1055600023681A6822F400721A6002229A60E36BC0
:10557000E363012384F83930002384F83830236949
:105580000BB120469847F20613D5EB0411D52368DA
:105590001A6822F480521A6010229A60E36BE36367
:1055A000012384F83930002384F838302046FFF78F
:1055B00076FF70BDF0B590F83820012A03464FF011
:1055C00002002BD0012283F8382083F8390003EB46
:1055D0000112D2E90740556A174F44EA0040093CDE
:1055E000012C9CBF05F07F4210434FEA01161A6858
:1055F00088BF40EA056091B9516A39400143516260
:10560000012C9969916103D8596A21F07F41916217
:105610000122002083F8392083F83800F0BDD169D9
:1056200039400143D1619919012C896911619CBFED
:1056300025F07F451562EBE7F0FFFC002DE9F74F01
:10564000DFF8BC916C4A00230D6801249C4004EAF9
:105650000506AC4340F0B7804D68032705F003040E
:105660004FEA430807FA08FC671E012F6FEA0C0C8B
:1056700034D8876807EA0C0ECF6807FA08F747EABC
:105680000E078760476827EA060EC5F300179F409C
:1056900047EA0E074760C76807EA0C0E8F6807FAEB
:1056A00008F747EA0E07022CC76019D14FEAD30A60
:1056B00000EB8A0A03F0070BDAF820704FEA8B0B35
:1056C0004FF00F0E0EFA0BFE27EA0E0E0F6907FAC7
:1056D0000BF747EA0E07CAF8207001E0032CDAD175
:1056E000076804FA08F407EA0C073C4315F4403F46
:1056F000046068D000240194D9F8444044F4804404
:10570000C9F84440D9F8444023F0030707F1804723
:1057100004F4804407F59C37019403F0030C019CCA
:10572000D7F808E04FEA8C0C0F2404FA0CF42EEAA8
:10573000040E324CA0424DD004F58064A0424BD000
:1057400004F58064A04249D004F58064A04247D0AB
:1057500004F58064A04245D004F58064A04243D0A3
:1057600004F58064A04241D004F58064A0423FD09B
:1057700004F58064A0423DD004F58064A04214BFCB
:105780000A24092404FA0CF444EA0E04BC60946868
:10579000F74315F4801F0CBF3C4034439460D46839
:1057A00015F4001F0CBF3C403443D460546815F41A
:1057B000003F0CBF3C40344354601468ED0354BFB9
:1057C0003C40344314600133102B7FF43DAF03B0F1
:1057D000BDE8F08F0024D5E70124D3E70224D1E708
:1057E0000324CFE70424CDE70524CBE70624C9E74B
:1057F0000724C7E70824C5E7003C01400000024039
:10580000003802400369194214BF0120002070478C
:105810000AB1816170470904FBE7436901EA0302A9
:1058200021EA030141EA024181617047044A51695A
:10583000014208B502D05061FAF7D0FF08BD00BFA1
:10584000003C014001684B6913F480634FF0000293
:1058500010D06FF480634B612023026380F83D30E9
:1058600080F83E20036C80F83C2043F0040303647E
:1058700001207047184670472DE9F84606460F4646
:1058800091461D464FEA114A3368BAF1010F0CBF29
:105890005C699C6927EA0404A4B2B4FA84F464093C
:1058A000A14501D0002025E06A1CEED0FFF7B0FB37
:1058B000089BC01AA84201D8002DE5D13368BAF17F
:1058C000010F0CBF5B699B6927EA03039BB2B3FA24
:1058D00083F35B099945D7D100232022336386F8EF
:1058E0003D2086F83E30326C86F83C3042F0200293
:1058F00032640120BDE8F8862DE9F04104460F46E8
:10590000164698462568686927EA000080B2C0B14B
:105910006B695A0517D52B6843F400732B606FF43D
:1059200080636B6120220023236384F83D2084F888
:105930003E30236C43F004032364002384F83C309E
:105940000120BDE8F081731CDDD0FFF761FBA0EB07
:105950000800B04201D8002ED4D123685A6927EA42
:10596000020292B2002ACDD000232022236384F8C1
:105970003D2084F83E30236C1343DDE770B50446C8
:105980000D46164623685B691B0601D500201EE004
:105990002046FFF757FFC8B96A1CF3D0FFF738FB62
:1059A000801BA84201D8002DECD123685B6913F05D
:1059B0008003E7D12022236384F83D2084F83E3021
:1059C000226C84F83C3042F020022264012070BD39
:1059D0002DE9F0431546026885B0DDE90C7899465B
:1059E000136843F4807313600E463B46CDF8008085
:1059F00000224FF001110446FFF73EFF236838B143
:105A00001B68DB0502D54FF400732364032620E0F6
:105A100006F0FE061E611A4943463A462046FFF745
:105A20006BFFA8B9236803905A6903929B6903939B
:105A3000424639462046039BFFF7A0FF064660B169
:105A4000236C042B01BF2268136843F400731360B6
:105A50000126304605B0BDE8F083B9F1010F236897
:105A600002D1EDB21D61F4E72A0A1A6139464246B5
:105A70002046FFF783FF0028E2D12368F1E700BF4B
:105A8000020001002DE9FF479A46036815461A688F
:105A900042F480621A601A68DDE90C7842F4807280
:105AA0001A600E463B46CDF8008000224FF00111EF
:105AB0000446FFF7E1FE236838B11B68DB0544BFED
:105AC0004FF400732364032021E05FFA86F906F0A7
:105AD000FE061E612B4943463A462046FFF70CFF5F
