:020000040800F2
:100000000000032031060008F9150008FB15000860
:10001000FD150008FF15000801160008000000008B
:1000200000000000000000000000000091870008B0
:10003000031600080000000021880008B3800008B3
:100040008106000881060008810600088106000874
:100050008106000881060008051600080B16000836
:1000600011160008810600088106000881060008B4
:10007000810600088106000881060008191600089C
:100080008106000881060008810600088106000834
:100090008106000881060008810600088106000824
:1000A0008106000881060008810600088106000814
:1000B0008106000825160008810600088106000850
:1000C00081060008810600088106000881060008F4
:1000D00081060008810600088106000881060008E4
:1000E00081060008810600088106000881060008D4
:1000F00081060008810600088106000881060008C4
:1001000081060008810600088106000881060008B3
:1001100081060008810600083116000881060008E3
:100120008106000881060008810600088106000893
:100130008106000881060008810600088106000883
:100140008106000881060008810600088106000873
:100150008106000881060008810600088106000863
:100160008106000881060008810600088106000853
:1001700081060008810600088106000800000000D2
:100180008106000881060008810600088106000833
:100190008106000881060008810600088106000823
:0C01A0003D160008810600084916000802
:1001B00010B5054C237833B9044B13B10448AFF3A1
:1001C00000800123237010BD800300200000000088
:1001D000AC68020808B5034B1BB103490348AFF3F1
:1001E000008008BD0000000084030020AC68020805
:1001F000034613F8012B002AFBD1181A0138704767
:1002000001F0FF01102A2BDB10F0070F08D010F8C7
:10021000013B013A8B422DD010F0070F42B3F6D1CB
:10022000F0B441EA012141EA014122F007047FF0E4
:1002300000070023F0E80256083C85EA010586EA3B
:10024000010685FA47F5A3FA87F586FA47F6A5FA77
:1002500087F68EB9EED1F0BC01F0FF0102F0070283
:1002600032B110F8013B013A83EA010313B1F8D12E
:100270000020704701387047002D06BF354603380F
:10028000073815F0010F07D1013015F4807F02BF48
:10029000013015F4C03F0130F0BC0138704700BF99
:1002A0007BB972B90029BEBF00204FF0004106E0C3
:1002B00008BF00281CBF6FF000414FF0FF3000F076
:1002C000B5B9ADF1080C6DE904CE002909DB002BAE
:1002D0001ADB00F04DF8DDF804E0DDE9022304B09C
:1002E0007047404261EB4101002B1BDB00F040F8FE
:1002F000DDF804E0DDE9022304B0404261EB410196
:10030000524263EB43037047524263EB430300F0F6
:100310002FF8DDF804E0DDE9022304B0404261EB90
:1003200041017047524263EB430300F021F8DDF8CE
:1003300004E0DDE9022304B0524263EB430370475B
:1003400053B94AB9002908BF00281CBF4FF0FF313C
:100350004FF0FF3000F06AB9ADF1080C6DE904CE42
:1003600000F006F8DDF804E0DDE9022304B0704790
:100370002DE9F047089D0C46002B4ED194468C4544
:100380008646B2FA82F262D94AB1C2F120039140A4
:1003900020FA03F30CFA02FC194300FA02FE4FEABA
:1003A0001C471FFA8CF6B1FBF7F44FEA1E4307FB1C
:1003B000141143EA014304FB06F199420AD91CEBEC
:1003C000030304F1FF3080F01281994240F20F8163
:1003D000023C6344591A1FFA8EF3B1FBF7F007FB96
:1003E000101143EA014300FB06F69E420AD91CEBBA
:1003F000030300F1FF3180F0FC809E4240F2F9805F
:10040000634402389B1B40EA044000211DB1D340E5
:100410000022C5E90032BDE8F0878B4205D90DB155
:10042000C5E9000100210846F5E7B3FA83F1002988
:1004300046D1A34202D39042C0F0F080861A64EB0A
:1004400003030120002DE6D0C5E90063E3E7002A9D
:1004500040F09080A1EB0C044FEA1C481FFA8CF787
:100460000121B4FBF8F64FEA1E4308FB164443EAA9
:10047000044307FB06F0984208D91CEB030306F17E
:10048000FF3402D2984200F2CD8026461C1A1FFA91
:100490008EF3B4FBF8F008FB104443EA044300FB7E
:1004A00007F79F4208D91CEB030300F1FF3402D287
:1004B0009F4200F2B0802046DB1B40EA0640A5E7E1
:1004C000C1F120068B4022FA06F71F4320FA06FCF2
:1004D00004FA01F343EA0C03F44000FA01F8380C83
:1004E0004FEA1349B4FBF0FE1FFA87FC00FB1E44E1
:1004F00049EA04440EFB0CF9A14502FA01F20AD9BB
:100500003C190EF1FF3A80F08480A14540F28180D1
:10051000AEF1020E3C44A4EB09041FFA83F9B4FBCC
:10052000F0F300FB134449EA044403FB0CFCA4452C
:1005300007D93C1903F1FF3067D2A44565D9023BC6
:100540003C4443EA0E40A0FB0293A4EB0C049C4203
:10055000CE469C4651D34ED055B1B8EB0E0364EB5A
:100560000C0404FA06F6CB401E43CC40C5E90064F7
:10057000002150E7C2F1200320FA03F10CFA02FC3B
:1005800024FA03F394400C434FEA1C4800FA02FE9D
:100590001FFA8CF7B3FBF8F008FB1031230C43EA89
:1005A000014300FB07F1994208D91CEB030300F15A
:1005B000FF362CD299422AD9023863445B1AA4B27E
:1005C000B3FBF8F108FB113344EA034401FB07F3E2
:1005D000A34208D91CEB040401F1FF3613D2A34255
:1005E00011D902396444E41A41EA004139E704466A
:1005F000F0E6084606E7C845AED2B9EB020E63EB5B
:10060000070C0138A8E73146EDE7034699E7304685
:10061000D4E7D6467FE7634402384DE706462346D3
:1006200008460FE7023E634430E700BF704700BF53
:10063000DFF834D0002103E00C4B5B584350043109
:100640000B480C4B42189A42F6D30B4A02E00023A7
:1006500042F8043B094B9A42F9D304F09DFB25F084
:1006600049FC00F019F97047000003207C1B1208B8
:10067000000000207801002080030020A83B01201A
:10068000FEE7704770470000094A1378012B07D036
:10069000022B09D10123002010700B70012070473C
:1006A0000023F8E70223F6E7032BFBD00020704776
:1006B000A0030020704710B50821044624F0F8F884
:1006C000204610BD07B5064BADF806001B6805486F
:1006D00001220DF1060106F061FB03B05DF804FB99
:1006E00004000020D404002008B5054C2378002B1A
:1006F000FCD101F039F8642007F05BFDF6E700BF9C
:10070000C806002008B52A4C2A4D2B4E0121204650
:1007100004F070FF012812D12870284825F03AFA19
:100720000022C821104601F00DF80121204604F0F6
:1007300061FF012818D10A2007F03BFDF5E70221EF
:10074000204604F057FF012816D128701C4825F0D8
:1007500021FA0021C822084600F0F4FF02212046B9
:1007600004F048FF012803D0C82007F022FDCDE7A0
:100770000A2007F01EFDF1E70421204604F03AFFAD
:10078000012812D12870304625F004FA0021C82231
:10079000084600F0D7FF0421204604F02BFF012873
:1007A000E2D10A2007F005FDF5E700232B70DBE717
:1007B00000000240C80600205C69020820690208A7
:1007C0003D69020808B592B24FF0FF33024807F0C6
:1007D00086FB002008BD00BFE4030020012802D1F1
:1007E000054B187070470228FAD0042802BF024B4C
:1007F00003221A70704700BFA003002030B595B0E7
:10080000102200210AA825F0BFFA1422002103A813
:1008100025F0BAFA00241E4B01941A6C42F0805263
:100820001A641B6C03F080530193019B194B0294D3
:100830001A6842F440421A601B6803F44043029372
:100840000122029B4FF48033CDE9082302254FF4A7
:1008500080030821CDE90E534FF4B473CDE9101392
:1008600008A804231393129505F040FD05F004FD3C
:100870000F23CDE903354FF4A0504FF48053CDE959
:100880000603052103A8059405F00CFF15B030BD43
:1008900000380240007000402DE980489FB00024DD
:1008A000C74D04F087FAFFF7A9FF1422002111A811
:1008B00025F06AFA02942B6BC24843F010032B63B5
:1008C0002B6B03F010030293029B03942B6B43F0FA
:1008D00020032B632B6B03F020030393039B0494EF
:1008E0002B6B43F080032B632B6B03F0800304938B
:1008F000049B05942B6B43F004032B632B6B03F0D9
:1009000004030593059B06942B6B43F001032B63B3
:100910002B6B03F001030693069B07942B6B43F0AC
:1009200002032B632B6B03F002030793079B0894CE
:100930002B6B43F040032B632B6B03F040030893B6
:10094000089B09942B6B43F008032B632B6B03F07C
:100950000803099322463C21099B04F051FE9A4862
:100960002246042104F04CFE224698484FF44051A0
:1009700004F046FE01264FF003083C2391481394EF
:1009800011A902274FF00409CDE91136CDF85080A6
:1009900004F04CFD8C48139411A94FF0070ACDE9DF
:1009A0001196149704F042FD4FF48813884813946D
:1009B00011A9CDE911A304F039FD4FF44053834848
:1009C00011A9CDE91136CDE9134704F02FFD2246D8
:1009D0000521062004F040FA062004F06FFA2246B2
:1009E0000521504604F038FA504604F067FA2246D2
:1009F0000521082004F030FA082004F05FFA019481
:100A00002B6B43F400132B632B6B724D03F4001319
:100A10000521224601930F20019B04F01DFA0F20AF
:100A200004F04CFA6C486D4B036004F055FA6C4AC4
:100A30006C4B2C62C5E9002328464FF48043C5E97E
:100A40000434C5E90244C5E9064404F0F3FF10216B
:100A5000284605F037FA2146284605F052FA624842
:100A6000624984624FF48273C0E900134FF4007549
:100A70001823C0E906530A23C3625D4DC0E902444E
:100A8000C0E90444C0E9084406F02CF9594A179714
:100A9000C5E900264FF0100B4022C5E904B24FF41F
:100AA000C072C5E906244FF40062C5E9082411A903
:100AB0004FF400522846C5E90249CDE9139AAA62CB
:100AC000CDE9117ACDE915874FF0080A05F0EEFF60
:100AD0004FF6FF720DA92846CDE90EA60A940D9691
:100AE000109406F003F8304604F090F94FF6FF72C8
:100AF0000DA92846CDE90D7ACDE90F6405F0F6FF82
:100B00004FF6FF720DA92846CDE90D8ACDE90F9465
:100B100005F0ECFF4FF40C720A920A9A10920DA99C
:100B20004FF6FF722846CDE90D9A0F9605F0DEFFCD
:100B300040F26A51284605F0F7FF2146342211A8F9
:100B400025F022F92C4D2D4A2C61C5E900240922FB
:100B5000C5E905261D2240F20D1CC5E9072840F213
:100B60004312C5E909C240F2171E40F24712284657
:100B7000C5E90BE2C5E90244AC8685F8364005F0CC
:100B800065FAFF20F0214FF4A072CDE916044FF46E
:100B900080690520CDE91214CDE91427CDE918901C
:100BA000CDE91A411C9211A9224628461194144DF0
:100BB000ADF874408DF8764005F013FB22E000BFDD
:100BC000003802400010024000080240000C0240C1
:100BD000000002402C060020C00600200030024029
:100BE000005C0040A0860100D404002000500140B9
:100BF000B0030020400100A08405002000680140EF
:100C00009C030020484A2A601268DFF868A19047D8
:100C10002A68464DD2689047454A2846C5E90024CF
:100C2000C5E90274C5E90A47C5E90C4404F002FBB2
:100C30003146284604F0B6FB5A4621460DA825F059
:100C4000A3F821461C2211A83A4DCDE90B4425F00A
:100C50009BF8394AAC60C5E9002828461B22C5E943
:100C60000324AC6106F036FD4FF480520DA92846EE
:100C70000D9206F01FFE284606F058FD0BA92846E7
:100C8000CDE90B4406F0FEFF602211A9CDE9112445
:100C9000284622461394159406F0AAFD284600F033
:100CA0008FFB26484FF4E132C0E900A20C22C0E9D4
:100CB0000524C0E902440461C46107F0E1F820485A
:100CC000204A84610A23C362C0E90024C0E90244C7
:100CD000C0E90444C0E90844846206F003F800F067
:100CE00070FD00F06DFD184824F0ECFE174824F06C
:100CF000E9FE07F0EBF9164A1648214607F012FA0A
:100D0000154B164A18602146154807F00BFA154B8B
:100D1000154A18602146154807F004FA144B18606C
:100D200007F0E6F9FEE700BF28000020800600205B
:100D300000B002408C04002000040040E4030020C6
:100D40002C050020003800407C690208AD690208CB
:100D5000406A0208E9060008AC0300201C6A020889
:100D6000D1170008A8030020F86902080507000849
:100D7000A403002000100140704770477FB5094B65
:100D80008DF817201B6802930DF1170201230092C2
:100D900001930A460146044804F0F4FE07B05DF8EA
:100DA00004FB00BF080000202C0600207FB50023B4
:100DB0008DF81730084B1B6802930A4601230DF18A
:100DC0001701009101930146044804F06BFF9DF860
:100DD000170007B05DF804FB080000202C06002077
:100DE0001FB5084C24680092CDE901340A4601235E
:100DF0000146054804F056FF003818BF012004B032
:100E000010BD00BF080000202C06002003F0FEBF2C
:100E100010B5064C00222046042104F0F1FB2046C8
:100E20000122BDE81040042104F0EABB00080240A2
:100E300038B50B4D044601220A484FF4005104F026
:100E4000DFFB00220421284604F0DAFB2046FFF7EE
:100E500039FC28460122BDE83840042104F0D0BB0B
:100E600000080240000C024038B50B4D0446002239
:100E70000A484FF4005104F0C3FB00220421284625
:100E800004F0BEFB2046FFF71DFC28460122BDE80A
:100E90003840042104F0B4BB00080240000C0240BA
:100EA000F7B5144E144F05460C4630460022042177
:100EB00004F0A6FB00224FF40051384604F0A0FBDA
:100EC0002846FFF7FFFB0D4B0D481B68224601A982
:100ED00006F010F9384601224FF40051019C04F04D
:100EE0008FFB30460122042104F08AFB204603B028
:100EF000F0BD00BF00080240000C024004000020CA
:100F0000D404002003F082BF0268034B9A4201D14F
:100F100003F06ABF704700BF001000407047000038
:100F200082B00E4B00220092596C41F4804159640A
:100F3000596C01F48041009100990192196C41F0C3
:100F4000805119641B6C03F080530193019B0F21A6
:100F50006FF0010002B003F07FBF00BF0038024015
:100F60000268094B9A4282B00BD100230193074BD0
:100F70001A6B42F480521A631B6B03F48053019383
:100F8000019B02B0704700BF0030024000380240B1
:100F900007B50F4B02689A4216D10022A3F5F04321
:100FA0000192196B41F4000119631B6B03F40003F8
:100FB000019305215A20019B03F04EFF5A2003B0F4
:100FC0005DF804EB03F07ABF03B05DF804FB00BFEB
:100FD00000B002402DE9F043044689B014220021FC
:100FE00003A824F0D1FE2268244B9A4243D1244C1A
:100FF000244800250095236B43F004032363236BEF
:1010000003F004030093009B0195236B43F001035D
:101010002363236B03F001030193019B4FF012093B
:101020004FF400734FF001080327042603A9CDE90C
:101030000339CDE90587079604F0F8F94FF480737A
:101040001148079603A9CDE90339CDE9058704F0D6
:10105000EDF90295236C43F400032364236C03F43D
:1010600000030293029B236A43F400032362236A72
:1010700023F40003236209B0BDE8F083005C004064
:10108000003802400008024000000240F0B599B06C
:1010900004461422002107A824F076FE30220DEB2E
:1010A0000200002124F070FE22685E4B9A4240F05C
:1010B000B78008230C93C0231093042312930CA829
:1010C0004FF40033159305F0C5FB08B1FFF726FF79
:1010D000554B5648002400945A6C42F080625A6482
:1010E0005A6C02F080620092009A01941A6B42F0EE
:1010F00020021A631A6B02F020020192019A0294F4
:101100001A6B42F001021A631A6B02F0010202929A
:10111000029A03941A6B42F002021A631A6B02F0ED
:1011200002020392039A04941A6B42F040021A637B
:101130001A6B02F040020492049A05941A6B42F072
:1011400004021A631A6B02F004020592059A0694CF
:101150001A6B42F008021A631B6B03F00803069334
:1011600002250E26069B0B964FF4806307A9CDE956
:101170000735CDE9094504F059F941F658032C48E3
:101180000B9607A9CDE907350927CDE9094504F0F4
:101190004DF9032327480B9707A9CDE90735CDE97A
:1011A000094504F043F94FF4706322480B9607A9F0
:1011B000CDE90735CDE9094504F038F94FF40C6362
:1011C0001D480B9607A9CDE90735CDE9094504F07F
:1011D0002DF9C02319480B9607A9CDE90735CDE9AC
:1011E000094504F023F9082315480B9607A9CDE912
:1011F0000735CDE9094504F019F94FF4A0530E481D
:101200000B9707A9CDE90735CDE9094504F00EF99B
:1012100058202246052103F01FFE582003F04EFE01
:1012200019B0F0BD006801400038024000140240CF
:101230000000024000040240001802400008024082
:10124000000C0240F0B514228BB0044600210DEBD7
:10125000020024F099FD2368304A934238D1304B84
:101260003048002400941A6C42F480421A641A6CCC
:1012700002F480420092009A01941A6B42F0040238
:101280001A631A6B02F004020192019A02941A6B1B
:1012900042F002021A631B6B03F002030293029BEB
:1012A000022708230326052505A9CDE90537CDE941
:1012B000086504F0BBF84FF4E043CDE90537CDE90C
:1012C00007461948099505A904F0B0F80BB0F0BD20
:1012D000164A9342FAD1124B1548002103915A6CD9
:1012E00042F480125A645A6C02F480120392039AF8
:1012F00004911A6B42F020021A631B6B03F0200367
:101300000493049B4FF4607202230321CDE905236B
:101310000523CDE9081305A9D6E700BF0038004032
:101320000038024000080240000402400050014022
:101330000014024037B51E4B02689A42054634D16C
:1013400000231C4A0193116C1B4C41F002011164F3
:10135000126C1A4902F002020192019A4FF02062C7
:10136000C4E9001240224FF48060C4E902234FF424
:101370000062C4E904024FF400522046C4E9062387
:10138000C4E9083303F0CEFD08B1FFF7C7FD6C6276
:10139000AC63002205211D20A56303F05DFD1D2027
:1013A00003B0BDE8304003F089BD03B030BD00BFDD
:1013B00000040040003802402C040020706002400D
:1013C00010B5044686B01422002101A824F0DCFCEC
:1013D00022680D4B9A4214D1002300930B4B0C480A
:1013E0001A6B42F002021A631B6B03F002030093B4
:1013F000009B1022022301A9CDE90123059304F0EB
:1014000015F806B010BD00BF0004004000380240CF
:101410000004024010B5044688B01422002103A83D
:1014200024F0B2FC2268144B9A4223D103F5943382
:10143000002101915A6C114842F010025A645A6C12
:1014400002F010020192019A02911A6B42F001021D
:101450001A631B6B03F001030293029B4FF4C062FB
:1014600002230321CDE903230723CDE9061303A9B2
:1014700003F0DCFF08B010BD001001400000024086
:101480002DE9F04186B0002303932B4B1C68002C00
:101490004FD14FF00108C3F80080284B00949A6B9D
:1014A000274842EA08029A639B6B03EA0803009309
:1014B000022703260C25009B01A94FF63F03CDE927
:1014C0000137CDE9046503F0B1FF1E48059501A978
:1014D000CDE90187CDE9034603F0A8FF48F23313B5
:1014E0001948059501A9CDE90137CDE9034603F077
:1014F0009DFF4FF683731548059501A9CDE9013786
:10150000CDE9034603F092FF4CF2037310480595B2
:1015100001A9CDE90137CDE9034603F087FF602338
:101520000C48059501A9CDE90137CDE9034603F043
:101530007DFF06B0BDE8F081CC06002000380240F7
:10154000001402400008024000180240001002404F
:10155000000C02400004024070B588B000230293E2
:10156000204B1A6C42F010021A641B6C03F010033B
:101570000293054601A903A8029B05F04DF9069BBD
:101580004BBB05F029F9184E184B336040F2E73396
:10159000F360174BB0FBF3F3013B7360304600235D
:1015A0003361B360B36106F095F8044680B9304604
:1015B00005F0D2FE044658B9362003F07FFC0F2D0B
:1015C0000DD822462946362003F046FC094B1D6003
:1015D000204608B070BD05F0FFF84000D3E70124B5
:1015E000F6E700BF00380240D0060020001000409F
:1015F00040420F00900000207047FEE7FEE7FEE744
:10160000FEE77047012004F009B8022004F006B894
:10161000042004F003B80000014803F04DBD00BFF2
:101620002C040020014805F027BF00BF8C040020D7
:10163000014805F021BF00BFD0060020014804F09A
:1016400073BD00BF84050020014803F021BE00BF28
:10165000800600200120704708B524F045FC1623C1
:1016600003604FF0FF3008BD08B524F03DFC1623A1
:101670000360FEE770B50D4614460E46731B9C4290
:1016800001DC204670BDAFF3008006F8010BF5E7E2
:101690004FF0FF3070474FF400534B60002070470D
:1016A00001207047002070470A4A116808B50346B8
:1016B00009B9094911601068694603448B4206D98B
:1016C00024F012FC0C2303604FF0FF3008BD1360C0
:1016D000FCE700BF18070020A83B0120172810B521
:1016E00014D843EA01230A4900EB400043EA0242CE
:1016F00001EB00111723012404FA03F0104214BF78
:1017000010200820013B21F8020BF5D210BD00BFCC
:101710001E07002070B5094D094C2A464FF410737E
:101720000021204606F044FA2A4620464FF4107362
:10173000BDE87040002106F03BBA00BF1E07002044
:101740008C040020F8B505460E4617460024E0B28A
:101750003B46324629460134FFF7C0FF182CF6D12C
:10176000BDE8F840FFF7D6BFF8B5104D104E002485
:101770000627297821448910B1FBF7F307FB1311E1
:1017800001EB41017218E0B29378715C5278013438
:10179000FFF7A4FF182CECD1FFF7BCFF2B78013327
:1017A000B3FBF4F204FB12332B70F8BD1C070020CE
:1017B0000C0000200148002106F062BA8C040020D1
:1017C000704708B500F0B6FDBDE8084000F03ABD2E
:1017D00000F0B2BD704710B50421044623F068F84C
:1017E000204610BD38B50C4B0C4C18800C4B822099
:1017F00019806368984740F6110398420AD1094D51
:1018000023682C60822098472B688220DB689847E9
:10181000002038BD0120FCE7AA0B0020600000205A
:10182000A80B0020AC0B00204FF4A071F020FFF7B4
:10183000D9BF0000F7B5334D2B6804461B698220E1
:101840009847208000284AD02B680DF106025B697A
:1018500001A982209847BDF8063040F67462934291
:101860003FD9ADF80620BDF80630D21A92B20A2A46
:101870003DD90B23B2FBF3F2234B1B889A4201D9CB
:10188000013B9AB2BDF8043040F6B8318B4230D8F3
:10189000C3F571630E339BB20F21B3FBF1F31B4908
:1018A00009888B4201D901398BB2194E194D306824
:1018B0002F68834281B28CBF591AC91AB8B2BA4292
:1018C0008CBF101A801A89B280B201440529C8BFA2
:1018D00033603368C8BF2A6063802B68A38003B07D
:1018E000F0BDB32B9CBFB423ADF80630BBE700229C
:1018F000C8E7C3F56D6308339BB20E2BCCD8002329
:10190000D3E700BFAC0B0020A80B0020AA0B0020DF
:10191000A40B0020A00B002037B568460D461446E6
:10192000FFF788FFBDF8000030B1BDF802302B6032
:10193000BDF804302360012003B030BD032821D856
:10194000DFE800F0020B12190F4B1A68B2FA82F2AC
:10195000520904210D4803F053BE0B4B5A68B2FAEA
:1019600082F252090821F5E7074B9A68B2FA82F22F
:1019700052091021EEE7044BDA68B2FA82F25209FA
:101980002021E7E7704700BFB00B002000100240A5
:10199000032821D8DFE800F0020B12190F4B1A6858
:1019A000003A18BF012204210D4803F029BE0B4B59
:1019B0005A68003A18BF01220821F5E7074B9A68D8
:1019C000003A18BF01221021EEE7044BDA68003A12
:1019D00018BF01222021E7E7704700BFB00B0020AD
:1019E0000010024003280DD8DFE800F00206080AC4
:1019F0000421054803F009BE0821FAE71021F8E7A1
:101A00002021F6E7704700BF0010024008B5032808
:101A100011D8DFE800F0020A0C0E0421074803F099
:101A2000E9FD431E5842584108BD0821F6E7102140
:101A3000F4E72021F2E70020F3E700BF00100240A6
:101A400070B5084D00240126E0B2FFF7DFFF18B1A2
:101A50002B68012B18BF2E600134052C05F10405FD
:101A6000F2D170BDB00B0020012380F8781080F80F
:101A7000793070477047002070470000034B416485
:101A8000003918BF01211970704700BF672E01206F
:101A9000704700207047836B0BB1084618477047AA
:101AA0004FF6FF707047406803689B69184770479E
:101AB000704770477047704710B5044600F052FDFC
:101AC000044B636123680449D3F890302046BDE895
:101AD00010401847C00B0020000000D008B5036874
:101AE0000446D3F88430984723682046DB6F984734
:101AF00000F0F4F8236820465B6F98472920FFF731
:101B0000B3F900F0EBF8236820465B6F9847F8E7DD
:101B100010B5044609F072FE23682046D3F8BC30A5
:101B2000BDE81040184700F0FFBC00F003BD00F016
:101B300037BD00F0D5BC00F047BD00F04FBD00F050
:101B4000D9BC09F089B810B58421044622F0B0FE52
:101B5000204610BD10B590F8341090F878400C4B2A
:101B60008C421A7809D03AB90A4A0B491488088875
:101B700010800C8001221A7010BD002AFCD0054A8A
:101B800005491488088810800C800022F3E700BF04
:101B9000602E01205C2E01205E2E012070B50D46C6
:101BA000194635B9094B0A4A0A4840F2FF2123F089
:101BB000C5FDC0E90F52084B003A18BF01221A7048
:101BC0000368BDE87040D3F8903018477C6A02087B
:101BD000B46A0208026B0208662E012008B5094BA0
:101BE0001B888B4203D8084B1B88934205D9074BAF
:101BF000074A0848A32123F0A1FD074B1980074B92
:101C00001A8008BD5C2E01205E2E0120476B020861
:101C1000AA6B0208026B0208622E0120642E0120CA
:101C2000034690F87A0018B1586803681B68184793
:101C300070470000014B024A1A607047C00B002039
:101C40000C690208012108B50022084606F0BDFA19
:101C50000A4B186028B90A4B0A4A28210A4823F07F
:101C60006DFD00220421012006F04EFB074B186099
:101C700018B9074B034A2C21F0E708BDCC0B002014
:101C8000DC6C0208256D0208546D0208C80B0020A8
:101C90009A6D0208024B4FF0FF31186806F0DFBA68
:101CA000CC0B0020014B186806F005BBCC0B0020C4
:101CB000024B0021186806F0D2BA00BFCC0B0020FE
:101CC000FFF7F0BF03480449006800231A4606F0F6
:101CD00056BB00BFC80B00202000002013B5084CE5
:101CE00000231A4601A9206806F07AFB20684FF00D
:101CF000FF33002201A906F073FB02B010BD00BF44
:101D0000C80B002003685B6C18470120704703680C
:101D10009B6A1847FEE740F2EF307047054B0360BF
:101D2000054B4FF08062C3F88820BFF34F8FBFF39D
:101D30006F8F7047306F020800E100E010B5044675
:101D40004FF45A61FFF7EAFF204622F0B1FD20462A
:101D500010BD000082B0002301930E4B1A6B42F4B9
:101D600000021A631A6B02F400020192019A1A69C6
:101D700042F400021A611A6922F400021A61064B49
:101D8000064A1A61064A5A61064B4FF080629A6011
:101D900002B070470038024080060020F51F00089E
:101DA000151D000800E100E008B50A2809D8DFE8A1
:101DB00000F006100E08080808101010100002208D
:101DC00008BD054B054A0648902123F0B7FC0020CA
:101DD000F6E70120F4E700BFDC6D0208F76D0208AA
:101DE000426E020838B50C46887FFFF7DDFFA58AF2
:101DF000E28A164B2169586342EA05425A64628BB3
:101E0000D963521B1A642568082D0ED19A611A6194
:101E10005862207F0E4A42EA0062DA61E2681A6282
:101E20000C4A5961D9601A6038BD0022D8611A6124
:101E3000E1680A0A480902F4784200F4FC600243AF
:101E4000C1F3C4010A439A63034AECE700B00240BD
:101E500009000100012302000123030008B50B283B
:101E60000BD8DFE800F00612100A0A0A0A08080870
:101E70000808022008BD0520FCE7054B054A064876
:101E80006F2123F05BFC0020F4E70120F2E700BFA4
:101E9000DC6D0208866E0208426E02082DE9F041F0
:101EA00091F81D800C464046FFF7D8FFA77F0546F6
:101EB0003846FFF7D3FF06463846FFF775FFA18A7D
:101EC000628B444B521A1A649A61228B521A1A611D
:101ED000E28A586342EA01425A6421696268D9631E
:101EE000DA602068802828D0227F0FD8202867D089
:101EF000402865D004281AD0364B45EA026545F4DF
:101F00000035B845DD6161D0334A44E0B0F5807FEB
:101F100004D0B0F5007FEFD1304800E0304840EA0F
:101F20000262DA61E2681A625E62596132E045EA91
:101F3000026242F40032DA61F6E7A068021DDA625A
:101F4000227F45EA026545F40035DD615E62596134
:101F5000017841B1012921D0224B234A23484FF473
:101F60008D7123F0EBFBDA69418822F47F4201395D
:101F700022F0100242EA0122DA610121154BDA69EE
:101F800042F02002DA61DA699206FCD410229A60EB
:101F90000029B9D0164A1A60BDE8F081B2F1FF01FC
:101FA000DA69408822F47F4200F1FF3022F010020B
:101FB00042EA002242F0100218BF0121DA61DDE797
:101FC00045EA0262034B42F40032B4E742F20132C6
:101FD000E1E700BF00B00240012301000900020058
:101FE0000A000200D06E0208EA6E0208426E020881
:101FF00001230200024B1B68586803685B6918479D
:10200000682E012070B5044625460A4B0C30002688
:1020100060602672667245F8203B6022294609F00E
:1020200043FD04F55A63EE6024359D42FBD1204602
:1020300070BD00BF306F0208034B1A68D207FCD492
:1020400023229A60704700BF00B002407047000032
:1020500030B50F4C2568ED07FCD423250904A56095
:1020600041F001010225FF2B65636164E0630AD042
:102070000849656241EA0363E361074B22626061DC
:10208000E060236030BDE561039BA363034BF8E789
:1020900000B002400900010001000200010003003D
:1020A00030B50E4C2568ED07FCD423251204A5603D
:1020B00042F001020225FF2B65636264E063E16088
:1020C00008D01B0643F00213E361054B65626061B3
:1020D000236030BD034BE3610123F9E700B0024008
:1020E00001000200020002FF30B50B4C2568ED072D
:1020F000FCD4232512041B06A56043F400330225FB
:1021000042F0010265636264E063E160E361034BF6
:1021100065626061236030BD00B0024001000200D2
:10212000012070474020704700EB81100830704755
:1021300000EB811008307047012070474FF4437066
:1021400070474FF4437303FB0100083070474FF4AE
:10215000437303FB010008307047012070471020D3
:10216000704700EB01100830704700EB0110083099
:102170007047084601F058BA10B5034B0360044697
:1021800008F083F8204610BDE86F020810B5044639
:10219000FFF7F2FF2046482122F08AFB204610BDBF
:1021A00010B5034B0360044608F06FF8204610BDDD
:1021B000B46F020810B50446FFF7F2FF20464FF453
:1021C000457122F075FB204610BD000010B5034B91
:1021D0000360044608F059F8204610BD806F0208DD
:1021E00010B50446FFF7F2FF2046182122F060FBED
:1021F000204610BD10B5084B0360044600F5507032
:10220000FFF7BAFF04F12C00FFF7CAFF04F1140036
:10221000FFF7DCFF204610BD1C70020808B502481D
:10222000FFF7E8FF08BD00BFA81A002010B504465C
:10223000FFF7E0FF20464FF49D6122F039FB204676
:1022400010BD00002DE9F34100F044FC054600F00C
:1022500045FC00240146234628462246009412F0FD
:1022600033FB274B274A1A60204602F035F9264DEA
:10227000264B274A27489A6012F08EFA2B68BFF344
:102280005B8FDB0735D4284622F014FB88B3224C41
:10229000224B236004F5637604F1140004F12C084A
:1022A00004F550776060C4F80880E760266107F0A5
:1022B000EDFF1B4B6361404607F0E8FF194BE362FB
:1022C000384607F0E3FF184BC4F8403304F562705A
:1022D00002F082FA224604F56271304602F0B2F949
:1022E000304601F0A1F9114823F046FA284622F0C1
:1022F000EDFA0F4802B0BDE8F041FFF7DDBB00BFCB
:10230000CC2E0120540C0020A41A0020740C0020B4
:10231000580C002024000020A81A00201C7002087D
:10232000806F0208B46F0208E86F02081D220008DF
:10233000D00B0020704700000148FFF7CFBB00BF63
:10234000D00B002070B5264E264C274D274B23601E
:102350003046FFF757FE284617F0BCFB24480FF025
:1023600091FF244B2448DC6000224FF48071C3E9C4
:10237000121222491A86C3E91A12214983F85820F9
:10238000C3E91E011F49C3F880101F491F480B6095
:10239000F021C3E90422C3E90622C3E90822C3E904
:1023A0000A22C3E90E22C3E91022C3E91422C3E9B9
:1023B00017225A6683F870205A67C3E901650180C5
:1023C0001348018013484FF4A07101801248018026
:1023D00012490A70012283F83420114A1A6070BD34
:1023E000000D0020A01A0020740C00206C6A020866
:1023F000580C0020D00B002000000101010000015A
:10240000000450001A001400682E01205C2E0120E8
:10241000622E01205E2E0120642E0120602E0120FC
:10242000F86B02080148FFF779BC00BF000D0020DF
:102430000020704781807047C180704701817047DC
:10244000418170477047704770477047704710B4BC
:10245000C4880368121B84885B6D091B12B25DF887
:10246000044B09B218474FF6FF7383814FF0FF33D7
:1024700003621368C36110607047002070478B8847
:10248000838001207047704780F82610704790F8CD
:102490002600704710B50022B1F90840B1F90A10C2
:1024A000028042808480C18010BD00220280428070
:1024B0008280C28070470177704780ED080A7047BC
:1024C00080F82410704780F825107047012070476D
:1024D000983070478C3070478430704770470000E8
:1024E000034B902283F85A2383F85823704700BF88
:1024F00000E100E0094A0A49D3680A48C3F30A0325
:10250000013B9BB20B801169C1F30A0101390180C3
:102510001364536B43F00103536370470068014039
:10252000921F0020901F0020014BD3F8AC00704791
:1025300000680140024B0122C3F8AC105A62704798
:10254000006801407047704710B52C21044622F006
:10255000AFF9204610BD10B5BC21044622F0A8F901
:10256000204610BD70B5044608F0CBFB23689D6E75
:102570000EF0F8FB01462046A8472368054AD3F829
:102580008C502046AC460023BDE87040A2F51631C1
:10259000604700BF00B004D008F09ABB08F0A4BBAD
:1025A00008F060BB08F0CFBC90F8252012B103689A
:1025B0005B691847704790F825201AB190F82420DD
:1025C00002B1186070470000034B4FF080629A60C0
:1025D0004FF080729A60704700E100E0084B4FF0C6
:1025E0008062C3F88820BFF34F8FBFF36F8F4FF027
:1025F0008072C3F88820BFF34F8FBFF36F8F70478F
:1026000000E100E070B50023124E8380124B03609E
:10261000336893F8582005460AB1D86C00B9986819
:102620000368DB6A98473368B0FA80F4D86C6409B1
:1026300030B10368DB6A9847002808BF44F0010402
:102640002CB9064B064A07482C2123F077F8284678
:1026500070BD00BF682E01202C710208287002088E
:1026600086700208BF70020870B5254E3568BFF34A
:102670005B8F15F0010540D1304622F01BF9002890
:102680003BD0204C204B256104F13400C4E90035D7
:10269000C4E90255E584A562A58510F0D8F804F1D7
:1026A00058000AF0B5FE194BA3652046184B40F8B8
:1026B000843BFFF7A7FF174BC4F884302433C4F8DA
:1026C0008C304FF4C803C4E928350023C4F8AC307B
:1026D000C4F8B030C4F8B430C4F8B8300E480F4B6A
:1026E000C4F89050C4F89C50C4F8A850C4F898306E
:1026F00023F042F8304622F0E9F8024870BD00BFEE
:10270000941F0020981F0020D08602084C710208F8
:10271000C471020884860208DD2400086486020869
:1027200038B5184C23685BB3174B184A1B6C1188DB
:102730008B4216D1164B198803F080FD236893F85D
:102740006A200025013283F86A2083F87C50FFF765
:10275000B9FA206809F052F82846BDE83840FFF77A
:10276000EDB803F06BFD2468236820461B6A984788
:10277000012384F87C300020BDE83840FFF708B919
:1027800038BD00BF682E012000680140921F002064
:10279000901F002070477047704770477047704720
:1027A00070477047704730B4C2684468551003469C
:1027B00004EB6200D20748BF62599B6830BC48BF37
:1027C000D35818470346406830B19A681AB9D86898
:1027D00000F0010070470120704710B50821044641
:1027E00022F066F8204610BD10B51021044622F0F4
:1027F0005FF8204610BD10B54FF4F871044622F082
:1028000057F8204610BD00F5B270884208B505D1D2
:102810000EF0A8FABDE8084000F036BF08BD70B55C
:10282000036804461B6B15469847236829462046D3
:102830005B6BBDE8704018470022C0E90122C0E987
:102840000322C0E90522C0E907224FF48072828486
:10285000014A0260704700BF247202082DE9F04F60
:10286000044689B02646002510F0A8FA824BE5639D
:1028700046F8403B4FF0260A52462946304623F0A0
:1028800083FA3046FFF7D8FF04F16C09FF277B4B32
:10289000236452464FF6FF73294684F86670A56696
:1028A0004846ADF8183023F06FFA4846FFF7C4FFEA
:1028B000734AE266BDF81820A4F8922004F58678E1
:1028C00006A984F8947048460BF089FB04F5B27BA6
:1028D00040460BF059FE52462946584623F054FA1A
:1028E0005846FFF7A9FF4FF0010304F5CC7784F8B1
:1028F0008831644AC4F88C514FF6FF73A4F89231C2
:10290000A4F8943184F89631294684F89051C4F89B
:1029100064213846524623F037FA3846FFF78CFFD9
:10292000594BC4F8C0314FF6FF73A4F8C4314FF4CB
:102930007F03C4F8CC314FF0FF33C4E97635534BF5
:10294000534AC4F89821C4E97834524BC4F8C851AA
:10295000C4E97A352A46A4F8D051C4F8D45129469E
:102960003046FFF75CFF30464FF4A071FFF766FD7D
:102970003046F021FFF764FD04F1040A4FF07F4375
:10298000A3663146504607F0D0FE2A4629464846FF
:10299000FFF745FF042206A94846ADF818200BF0C2
:1029A0001EFB4946504607F0C0FE6C2140462E22D1
:1029B000FFF735FF04F19802C4F8342104F1D10285
:1029C000C4F838214FF0010284F83C21152284F824
:1029D0009850C4F8402140460BF031FE0522C4F85F
:1029E000442140460BF02BFE2B4940460BF00AFEDB
:1029F0004146504607F099FE29465846BE22FFF749
:102A00000EFF0A22ADF81420ADF8182005A906AA79
:102A100058460BF0ABF904F5F072C4F88C21594616
:102A2000504607F082FE9D2238461B21FFF7F7FE35
:102A30004FF07F43A4F8CC516D46C4F8C8313946F5
:102A400028460AF08DFE95E8070004F5EA7383E84E
:102A500007000D4B069306A94FF001033846ADF869
:102A60001C300BF025F95046394607F05EFE204633
:102A700009B0BDE8F08F00BFB47202089488020864
:102A800070890208FC8802088C7202089C72020895
:102A9000048802080728000808720208704710B569
:102AA0000421044621F004FF204610BD012908B589
:102AB00006D0022908D059B901F05AFD006808BDB6
:102AC00001F056FD4068FAE701F052FD8068F6E734
:102AD0000020F4E700487047F472020814207047A1
:102AE00013B5002451B1036801948DF8034001AA85
:102AF0009C680DF10303A04702B010BD0846FBE738
:102B0000C0897047008A7047C088704780887047C6
:102B1000807A00F07F007047807AC00970470020FB
:102B2000704700009FED010A704700BF00000000E1
:102B30007047704700F598730868496803C3704789
:102B4000704770474160704770470000064BC0F8FF
:102B50004C310023C0F8503100F5A273C0F8480191
:102B6000C0F84031704700BF8D3200080123037266
:102B7000704770477047704770477047704710B490
:102B8000C26841685410034601EB6200D20748BF97
:102B90000A599B685DF8044B48BFD3581847034651
:102BA000406830B19A681AB9D86800F001007047DF
:102BB0000120704710B50C21044621F079FE204613
:102BC00010BD10B51421044621F072FE204610BD40
:102BD00010B51021044621F06BFE204610BD10B543
:102BE0004FF4AE71044621F063FE204610BD10B5CF
:102BF0004021044621F05CFE204610BD10B5402166
:102C0000044621F055FE204610BD10B50EF0AAF87E
:102C10000368BDE81040DB6B184710B50EF0A2F852
:102C20000368BDE810405B6B1847000013B504460D
:102C3000807A637A0130C0B29842A07205D901232C
:102C400023720023A37202B010BDB4F90C2000213E
:102C500010F066FAC30706D500284FF6FF73C8BF09
:102C60000123184400B2144AE08112880023ADF811
:102C7000023083B2D21AADF80020228A20829B1A39
:102C8000ADF804300D4B1B88ADF806300EF06AF835
:102C9000036802AA1B6C12E906009847A37A012B6D
:102CA000D1D1074B1B78002BCDD00EF05BF802B0D2
:102CB000BDE810400EF05CB85C2E01205E2E0120B5
:102CC000662E0120054B1B7801462BB1406818B1D8
:102CD00003680C315B6E1847704700BF672E0120F8
:102CE000054B1B7801462BB1406818B103680C31C5
:102CF0005B6E1847704700BF672E0120037A70B5DE
:102D00000546BBB940680368DB69984704463CB98F
:102D10006868036805F10C011B6EBDE87040184738
:102D2000A1886B8FC91A236820461B6B09B298478C
:102D3000A469ECE770BD037A70B50546BBB940687D
:102D40000368DB69984704463CB96868036805F185
:102D50000C011B6EBDE870401847E1886B8FC91AE3
:102D6000236820465B6B09B29847A469ECE770BD05
:102D700010B50446D0F8400158B10368DB689847A5
:102D800038B1D4F8400103689B6898470023C4F821
:102D9000403110BD70B5044690F8390094F83830D1
:102DA0000130C0B2984284F8390005D9012323725A
:102DB000002384F8393070BDB4F93A20002110F0B6
:102DC000AFF9C30706D500284FF6FF73C8BF01232C
:102DD000184400B2638AC01AA08760680368DB6980
:102DE000984705462DB960680368BDE870405B6987
:102DF0001847E988A38F19442B6828465B6B09B2F2
:102E00009847AD69EEE770B5044690F8390094F83C
:102E100038300130C0B2984284F8390005D9012316
:102E20002372002384F8393070BDB4F93A200021B0
:102E300010F076F9C30706D500284FF6FF73C8BF18
:102E40000123184400B2238AC01AA087606803686F
:102E5000DB69984705462DB960680368BDE8704096
:102E60005B691847A988A38F19442B6828461B6BF8
:102E700009B29847AD69EEE72DE9F14FD0E955BAAF
:102E80000746DBF8080003681B6A9847B0F5887F9F
:102E900005D2494B494AA321494822F04FFCDBF8AF
:102EA000040003681B6A98470F2803D8454B434A20
:102EB000A421F1E7DBF80C0003681B6A984713288C
:102EC00003D8414B3D4AA521E6E70DF04BFFDFF863
:102ED000049104300DF093FFD9F8000010B103689D
:102EE000DB689847D9F8000010B103681B68984761
:102EF000DFF8E480D8F8000010B103685B699847F8
:102F0000D7F83C0110B103685B689847D8F8000017
:102F100010B103681B689847D7F83C0110B10368EB
:102F20009B689847DBF80C00036800215B6A9847B0
:102F3000264B03604FF4A0530381254B0026867275
:102F40001B8846600446C68106828381DBF8080040
:102F5000036831465B6A9847054601F071FCDBF86F
:102F60000400036831465B6A98472946064601F02B
:102F700045FC331DC7F83C61C9F80040C8F8005053
:102F8000CAF800302B68C6F808A02846DB68EE6354
:102F90009847336830461B6898472146284610F00A
:102FA000B9F8236820461B69984723685B69204667
:102FB00001B0BDE8F04F184784740208127502088A
:102FC000067602084D760208F0760208C47D0208F3
:102FD0005C2E0120B02E0120AC2E01202DE9F14FF6
:102FE000D0E955BA0746DBF8080003681B6A984722
:102FF000B0F5F87F05D2494B494AA321494822F050
:103000009DFBDBF8040003681B6A98470F2803D870
:10301000454B434AA421F1E7DBF80C0003681B6A27
:103020009847132803D8414B3D4AA521E6E70DF008
:1030300099FEDFF8049104300DF0E1FED9F80000AC
:1030400010B10368DB689847D9F8000010B1036835
:103050001B689847DFF8E480D8F8000010B10368D7
:103060005B699847D7F83C0110B103685B689847E3
:10307000D8F8000010B103681B689847D7F83C01E6
:1030800010B103689B689847DBF80C0003680021C7
:103090005B6A9847264B03604FF4A0530381254B8E
:1030A000002686721B8846600446C681068283819C
:1030B000DBF80800036831465B6A9847054601F073
:1030C000A1FADBF80400036831465B6A9847294699
:1030D000064601F075FA331DC7F83C61C9F8004097
:1030E000C8F80050CAF800302B68C6F808A0284677
:1030F000DB68EE639847336830461B689847214683
:10310000284610F007F8236820461B699847236873
:103110005B69204601B0BDE8F04F1847847402088F
:1031200093770208067602084D760208F0760208C8
:10313000C47D02085C2E0120B02E0120AC2E01209F
:103140002DE9F14FD0E9556A0746B06803681B6A5C
:103150009847B0F5A27F05D2444B454AA321454884
:1031600022F0ECFA706803681B6A98470F2803D8AE
:10317000414B3F4AA421F2E7F06803681B6A984775
:103180000B2803D83D4B3A4AA521E8E70DF0EAFDAC
:10319000DFF8F09004300DF032FED9F8000010B1E5
:1031A0000368DB689847D9F8000010B103681B6812
:1031B0009847DFF8D480D8F8000010B103685B6945
:1031C0009847D7F83C0110B103685B689847D8F876
:1031D000000010B103681B689847D7F83C0110B194
:1031E00003689B689847F068036800215B6A98470A
:1031F0004FF0000B224BC0F804B0044680F808B032
:103200000360B068036859465B6A9847054601F059
:10321000D7FA7068036859465B6A9847294606469C
:1032200001F0ACFA331DC7F83C61C9F80040C8F89A
:103230000050CAF800302B68C6F808A02846DB68A2
:10324000EE639847336830461B6898472146284606
:103250000FF060FF236820461B69984723685B696D
:10326000204601B0BDE8F04F184700BF8474020843
:1032700081780208067602084D760208F076020888
:103280007C7D0208B02E0120AC2E01202DE9F14FEB
:10329000D0E9556A0746B06803681B6A9847B0F5DD
:1032A000437F05D2444B454AA321454822F046FAC4
:1032B000706803681B6A98470F2803D8414B3F4A40
:1032C000A421F2E7F06803681B6A98470B2803D82B
:1032D0003D4B3A4AA521E8E70DF044FDDFF8F090B8
:1032E00004300DF08CFDD9F8000010B10368DB68E4
:1032F0009847D9F8000010B103681B689847DFF8B9
:10330000D480D8F8000010B103685B699847D7F8FB
:103310003C0110B103685B689847D8F8000010B111
:1033200003681B689847D7F83C0110B103689B6895
:103330009847F068036800215B6A98474FF0000BDC
:10334000224BC0F804B0044680F808B00360B068AF
:10335000036859465B6A9847054601F0ADF9706805
:10336000036859465B6A98472946064601F082F988
:10337000331DC7F83C61C9F80040C8F80050CAF8CE
:1033800000302B68C6F808A02846DB68EE63984733
:10339000336830461B689847214628460FF0BAFE2E
:1033A000236820461B69984723685B69204601B063
:1033B000BDE8F04F184700BF847402085B7902082B
:1033C000067602084D760208F07602087C7D020837
:1033D000B02E0120AC2E01202DE9F0411D460368DE
:1033E000BDF918701B6B0446164698472368314692
:1033F00020465B6B98472368294620469B6B98477D
:10340000236839462046DB6BBDE8F04118470000D1
:103410002DE9F74FD0E9556A0746B06803681B6A83
:103420009847B0F5887F05D2544B554AA32155489B
:1034300022F084F9706803681B6A98470F2803D844
:10344000514B4F4AA421F2E7F06803681B6A984782
:103450003F2803D84D4B4A4AA521E8E70DF082FCEE
:10346000DFF8389104300DF0CAFCD9F8000010B133
:103470000368DB689847D9F8000010B103681B683F
:103480009847DFF81C81D8F8000010B103685B6929
:103490009847D7F83C0110B103685B689847D8F8A3
:1034A000000010B103681B689847D7F83C0110B1C1
:1034B00003689B689847F068036800215B6A984737
:1034C00005460022324B4260027245F80C3B04462E
:1034D00028460AF045F8142323872E4B1B78002238
:1034E000A287002B35D101232372B0680368002125
:1034F0005B6A9847054601F0A3F9706803680021EC
:103500005B6A98472946064601F078F9331DC7F8EB
:103510003C61C9F80040C8F80050CAF800302B6878
:10352000C6F808A02846DB68EE6398473368304643
:103530001B689847214628460FF0ECFD236820467B
:103540001B69984723685B69204603B0BDE8F04FCC
:103550001847DFF850B0BBF9003000930E4B11460E
:10356000B3F900302846FFF737FF284609F073FF0C
:10357000BBF800305B426387B7E700BF8474020882
:10358000357A0208067602084D760208F0760208BF
:10359000E87D0208672E01205C2E0120B02E01205C
:1035A000AC2E01205E2E0120044B1B6893F858209E
:1035B0000AB1D86C00B99868704700BF682E012026
:1035C000F8B5174604460E460DF0B6FC124B1C60CB
:1035D000124B2360124B0025C4E95135114BC4E94D
:1035E00053551868036829469B68C4E94F55C4E9D8
:1035F00055769847284600F06FFFFFF7D5FF18F083
:1036000012F9FFF7D1FF18F089F9FFF7CDFF18F095
:1036100091F92046F8BD00BFBC2E0120287D02088C
:10362000107D0208682E0120064BC0F84C310023A3
:10363000C0F8503100F5A273C0F84801C0F840311D
:10364000704700BF8D320008064BC0F84C31002394
:10365000C0F8503100F5A273C0F84801C0F84031FD
:10366000704700BFAD380008064BC0F84C3100234E
:10367000C0F8503100F5A273C0F84801C0F84031DD
:10368000704700BF41310008064BC0F84C310023A1
:10369000C0F8503100F5A273C0F84801C0F84031BD
:1036A000704700BF71370008064BC0F84C3100234B
:1036B000C0F8503100F5A273C0F84801C0F840319D
:1036C000704700BFDD2F0008064BC0F84C310023C7
:1036D000C0F8503100F5A273C0F84801C0F840317D
:1036E000704700BF11340008064BC0F84C3100236E
:1036F000C0F8503100F5A273C0F84801C0F840315D
:10370000704700BF792E0008F7B505460026144B18
:103710004660067245F80C3B044628460F4609F001
:103720001FFF104B84F838701B7884F83960A68727
:1037300023B901232372204603B0F0BD0A4B0B4F7F
:10374000B3F900300093B7F90030324631462846CD
:10375000FFF742FE284609F07EFE3B886387EAE7D2
:10376000A07D0208672E01205E2E01205C2E012024
:103770002DE9F047D0E9556A0746B06803681B6A2F
:103780009847B0F5A27F05D2414B424AA321424857
:1037900021F0D4FF706803681B6A98470F2803D88C
:1037A0003E4B3C4AA421F2E7F06803681B6A984745
:1037B0003F2803D83A4B374AA521E8E70DF0D2FA63
:1037C000DFF8E09004300DF01AFBD9F8000010B1DA
:1037D0000368DB689847D9F8000010B103681B68DC
:1037E0009847DFF8C480D8F8000010B103685B691F
:1037F0009847D7F83C0110B103685B689847D8F840
:10380000000010B103681B689847D7F83C0110B15D
:1038100003689B689847F068036800215B6A9847D3
:1038200014210446FFF770FFB068036800215B6A4B
:103830009847054600F0C4FF7068036800215B6A82
:1038400098472946064600F099FF331DC7F83C61AA
:10385000C9F80040C8F80050CAF800302B68C6F814
:1038600008A02846DB68EE639847336830461B683B
:103870009847214628460FF04DFC236820461B69D7
:103880009847236820465B69BDE8F047184700BFAA
:10389000847402082B7B0208067602084D76020823
:1038A000F0760208B02E0120AC2E01202DE9F04761
:1038B000D0E9556A0746B06803681B6A9847B0F5B7
:1038C000437F05D2414B424AA321424821F036FFB3
:1038D000706803681B6A98470F2803D83E4B3C4A20
:1038E000A421F2E7F06803681B6A98473F2803D8D1
:1038F0003A4B374AA521E8E70DF034FADFF8E090BB
:1039000004300DF07CFAD9F8000010B10368DB68D0
:103910009847D9F8000010B103681B689847DFF892
:10392000C480D8F8000010B103685B699847D7F8E5
:103930003C0110B103685B689847D8F8000010B1EB
:1039400003681B689847D7F83C0110B103689B686F
:103950009847F068036800215B6A98471421044681
:10396000FFF7D2FEB068036800215B6A98470546FE
:1039700000F0A2FE7068036800215B6A9847294640
:10398000064600F077FE331DC7F83C61C9F80040D9
:10399000C8F80050CAF800302B68C6F808A02846BE
:1039A000DB68EE639847336830461B6898472146CA
:1039B00028460FF0AFFB236820461B699847236811
:1039C00020465B69BDE8F047184700BF84740208D1
:1039D000187C0208067602084D760208F076020886
:1039E000B02E0120AC2E0120406A7047806A7047DB
:1039F00070478A880B8810B5D20A4C88C1699BB27F
:103A000051F8220043EA0443184410BD10B504469F
:103A1000BAB1107B68B1537BD27A1B0203F4E06326
:103A20001A43236A03EB82031A888A4202D193F96C
:103A3000020010BD05D8013880B204330028F3D14C
:103A4000F7E70020F5E710B52C21044620F030FF01
:103A5000204610BD30B58BB00446BDF860500895C7
:103A6000BDF85C5007959DF8505006959DF84C5058
:103A700005959DF8485004959DF8445003959DF890
:103A8000405002959DF83C500195BDF83850009586
:103A90000EF09AFF064B2360159BE361169B236291
:103AA000199B63621A9BA36220460BB030BD00BF16
:103AB0000C7E020870477047704730B4C268446893
:103AC0005510034604EB6200D20748BF62599B6859
:103AD00030BC48BFD35818470346406830B19A6895
:103AE0001AB9D86800F0010070470120704710B57E
:103AF0001021044620F0DCFE204610BD10B54FF426
:103B00003F71044620F0D4FE204610BD00F5F6704B
:103B1000884208B505D10DF025F9BDE80840FFF74A
:103B2000D3BD08BD08B529B90DF01CF9BDE80840A2
:103B3000FFF79ABD08BD000038B5262204460D46A1
:103B4000002122F021F92046FEF776FE064B236085
:103B50002B88E384FF23204684F8283029460AF086
:103B60003EFA204638BD00BF7089020810B52622F3
:103B70000446002122F008F92046FEF75DFE0023EE
:103B8000A36284F82C30012384F82430044B236092
:103B90004FF6FF7384F83230E3852386204610BD4C
:103BA000FC8802082DE9F04F04468FB0A04600269D
:103BB0000FF004F9AA4BE66348F8403B2622314651
:103BC000404622F0E1F84046FEF736FEA54B23645E
:103BD00004F16C0BFF230CA984F866304FF6FF75D7
:103BE00004F1980AA666584604F1CC09ADF83050A5
:103BF000FFF7A2FF5046FFF7B9FF4846FFF7B6FFB1
:103C000004F5807318460393FFF7B0FF04F59A7329
:103C100018460493FFF7AAFF04F5B4730CA91846DD
:103C20000593ADF83050FFF787FF04F5CA730CA970
:103C300018460693ADF83050FFF77EFF04F5E073A9
:103C40000CA918460793ADF83050FFF775FF04F53F
:103C5000F67318460893FFF789FF04F5087304F517
:103C6000157718460993FFF781FF384606F098FC50
:103C70007D4BC4E9BB347D4BC4E9BD36F0233246ED
:103C80000093314640464FF4A073251DFFF7A4FB77
:103C90004FF07F43A3664146284606F046FD324674
:103CA00031465846FEF7BBFD08230CA95846ADF82F
:103CB00030300AF094F95946284606F036FD504651
:103CC0006E226921FEF7ABFD06230CAA0BA9504614
:103CD000ADF82C30ADF830300AF048F8514628469F
:103CE00006F023FD48461022E421FEF798FD11233B
:103CF0000CAA0BA94846ADF82C30ADF830300AF0CC
:103D000035F84946284606F010FD03983D22E42187
:103D1000FEF785FD05230CAA0398ADF82C300BA9FE
:103D2000ADF830300AF022F80399284606F0FDFC81
:103D300004986E22E421FEF772FD0D230CAA04986C
:103D4000ADF82C300BA9ADF830300AF00FF804991B
:103D5000284606F0EAFC102205980B21FEF75FFDCD
:103D600009230598ADF830300CA90AF038F9059907
:103D7000284606F0DAFC102206986921FEF74FFD6E
:103D80004FF00B080698ADF830800CA90AF027F91F
:103D90000699284606F0C9FC6E2207984146FEF7B0
:103DA0003EFD0C230798ADF830300CA90AF017F946
:103DB0000799284606F0B9FC0898B922E421FEF7D5
:103DC0002EFD0E230CAA0898ADF82C300BA9ADF8E7
:103DD000303009F0CBFF04F53B73C4F81432089976
:103DE000284606F0A2FC0998B9224FF48971FEF723
:103DF00016FD0CAA0998ADF82C600BA9ADF830603F
:103E000009F0B4FF0999284606F08FFC2D232222E1
:103E1000009338466E236921FFF7DEFA38464FF0EB
:103E20007F4106F0EBFA124B0C930CA93846ADF823
:103E3000346006F0FEFA3846012106F0FFFB0A2244
:103E40000123114684F883323846334606F0F9FBE5
:103E50002846394606F069FC20460FB0BDE8F08FD1
:103E60008C7E020894880208747E02080D3B0008CC
:103E70008C72020870477047704730B4C26844685B
:103E80005510034604EB6200D20748BF62599B6895
:103E900030BC48BFD35818470346406830B19A68D1
:103EA0001AB9D86800F0010070470120704710B5BA
:103EB0001021044620F0FCFC204610BD10B54FF444
:103EC000A271044620F0F4FC204610BD38B500F184
:103ED0009803994204460D4603D10CF043FFFFF7C7
:103EE000B3FB04F580739D4203D10CF03BFFFFF759
:103EF000DBFBCC34A54205D10CF034FFBDE83840E3
:103F0000FFF7F2BB38BD022908B505D10CF02AFF36
:103F1000BDE80840FFF798BB012907D1C82380F806
:103F2000FE30BDE80840CC300EF0F6B808BD000009
:103F30002DE9F74F0446264600250EF03FFF5A4B69
:103F4000E56346F8403B4FF026094A46294630468D
:103F500021F01AFF3046FEF76FFC04F16C074FF0BA
:103F6000FF08524B23644A464FF6FF73294684F8F4
:103F70006680A5663846ADF8043021F005FF384666
:103F8000FEF75AFC4A4BE366BDF80430A4F89230C1
:103F900001A904F1980B84F8948038460AF01FF8C0
:103FA00004F1CC0A5846FFF7E1FD04F5807950464C
:103FB000FFF7DCFD4846FFF7D9FD3E4BC4E94D3421
:103FC0003D4B2A46C4E94F3529463046FEF727FCCB
:103FD00030464FF4A071FEF731FA3046F021FEF77B
:103FE0002FFA04F104084FF07F43A36631464046A0
:103FF00006F09BFB2A4629463846FEF710FC0323B1
:1040000001A93846ADF8043009F0E9FFC82384F867
:1040100094303946404606F088FB29465846BE2271
:10402000FEF7FDFB04F59A750A2301AA6946584676
:10403000ADF80030ADF8043009F098FE594640461E
:10404000C4F8C05006F071FB504641221921FEF71A
:10405000E6FB102301AAADF8003069460F23504655
:10406000ADF8043009F082FE51464046C4F8F450E1
:1040700006F05BFB484641228721FEF7D0FB022376
:10408000ADF8003001AA012369464846ADF8043076
:1040900009F06CFE4046C4F82851494606F045FB3D
:1040A000204603B0BDE8F08FD87E0208948802084D
:1040B00070890208C07E0208CD3E00087047704734
:1040C000704730B4C26844685510034604EB620080
:1040D000D20748BF62599B6830BC48BFD3581847C5
:1040E0000346406830B19A681AB9D86800F00100F8
:1040F00070470120704710B51021044620F0D8FB0E
:10410000204610BD10B54FF48871044620F0D0FB56
:10411000204610BD9830884208B505D10CF022FE2B
:10412000BDE80840FFF7B0BA08BD00002DE9F3472D
:104130000446264600250EF041FE4C4BE56346F84A
:10414000403B4FF026094A462946304621F01CFEE6
:104150003046FEF771FB04F16C074FF0FF08444B4B
:1041600023644A464FF6FF73294684F86680A566A5
:104170003846ADF8043021F007FE3846FEF75CFB08
:104180003C4BE366BDF80430A4F8923001A904F179
:10419000980A84F89480384609F021FF04F1CC098C
:1041A0005046FFF7E3FC4846FFF7E0FC324BC4E91A
:1041B0004034324B2A46C4E9423529463046FEF7A0
:1041C0002EFB30464FF4A071FEF738F93046F0214F
:1041D000FEF736F904F104084FF07F43A366314639
:1041E000404606F0A2FA2A4629463846FEF717FB53
:1041F000032301A93846ADF8043009F0F0FEC823C6
:1042000084F894303946404606F08FFA29465046E5
:10421000BE22FEF704FB0A2301AA69465046ADF808
:104220000030ADF8043009F0A1FD04F58073C4F846
:10423000C0305146404606F078FA48462D225A21B1
:10424000FEF7EDFA1323ADF8003001AA12236946F8
:104250004846ADF8043009F089FD4046494606F06D
:1042600064FA204602B0BDE8F08700BF247F020850
:1042700094880208708902080C7F02081541000822
:104280007047000030B5164D2C68BFF35B8F14F0FB
:1042900001048FB021D1284620F00CFBE8B13F2368
:1042A0000993104B0893104B104911480A94CDE91B
:1042B000064301220423CDE9033223230093102275
:1042C000CDE90B44CDE901440594FFF7C3FB094850
:1042D00021F052FA284620F0F9FA05480FB030BD17
:1042E0005420002004A7020810A7020840A50208D5
:1042F00058200020814200087047000030B5164D5C
:104300002C68BFF35B8F14F001048FB020D12846D6
:1043100020F0D0FAE0B13F230993104B0893104BE3
:10432000104911480A940122CDE906430423CDE93E
:1043300003320A230093CDE90B44CDE901440594EF
:10434000FFF788FB094821F017FA284620F0BEFA4B
:1043500005480FB030BD00BF8420002008A7020828
:1043600014A7020820A6020888200020F9420008AD
:104370007047000030B5174D2C68BFF35B8F14F009
:1043800001048FB022D1284620F094FAF0B13F23E7
:104390000993114B0893114B114912480A94CDE926
:1043A00006430123CDE904330423CDE9024314235A
:1043B00000930F221823CDE90B440194FFF74AFB29
:1043C000094821F0D9F9284620F080FA05480FB0B5
:1043D00030BD00BFB42000200CA7020818A70208B7
:1043E00030A60208B8200020714300080020704762
:1043F000002070470EB403B503AB002153F8042B23
:1044000001930DF05FFD02B05DF804EB03B070475F
:104410000CB407B504AB53F8042B01930DF052FD17
:1044200003B05DF804EB02B070470000436C10B5B8
:10443000044673B3038F2BB9184B194AC521194889
:1044400021F07CF9C38E00EB43035B8C0BB30FF0C0
:10445000ECFB238F012B03D8134B144ACB21EEE73F
:10446000E28E531C9BB2092B194688BFA3F10A01A7
:1044700004EB410140F63F10498C814209D10A2BDF
:1044800004EB420228BF002304EB4303508C588402
:1044900051842046BDE810400FF0CABA507F020890
:1044A000597F0208048002084E8002085C800208DE
:1044B0000FF085BA10B586B002AC84E806001A4643
:1044C0000AAB05930193099B00932146089B0BF0CF
:1044D000E7FF06B010BD000038B518BB124B1348FB
:1044E0001C681349B4B12268224402606268224405
:1044F0000A60A26814440F4B00221A8000F038F8BA
:10450000054600F033F80C4B1C600C4B1D600C4B47
:10451000188007E00B4B03600B4B0B600B4B1C68C8
:10452000002CE8D138BD00BFF0200020E82000209A
:10453000E4200020EC200020C02E0120C82E012005
:10454000C42E012024A702081CA702085CA70208A9
:10455000044B1B6853F82100034B1B6803EB40001E
:10456000704700BFE4200020E820002002207047B0
:1045700000487047F420002010B5FFF7FBFE044C04
:104580002060FFF77FFE6060FFF7B8FEA06010BDFF
:10459000F420002010B5002404600C6014601C603E
:1045A00010BD704704387047704710B5102104469D
:1045B00020F07EF9204610BDA0F10400F5E70000D0
:1045C00000228260024A026018324260C160704775
:1045D000388102087047000010B5034B03600446A1
:1045E000FEF7DEF8204610BD6081020810B50446D3
:1045F000FFF7F2FF20464FF4F87120F059F92046FA
:1046000010BD000010B50446FEF728F9014B2360E9
:10461000204610BD60810208FEF7C3B8704710B590
:104620004FF4AE71044620F043F9204610BD10B59A
:104630000446D0F8580100F0D2F82046BDE81040FA
:104640000CF03ABC10B50446FEF7BAFF014B2360EC
:10465000204610BD948102087047043870477047A7
:1046600010B51021044620F023F9204610BDA0F11A
:104670000400F5E700228260024A026018324260BC
:10468000C1607047E88102087047000010B5034B15
:1046900003600446FFF70EFA204610BD10820208A0
:1046A00010B50446FFF7F2FF20464FF4437120F0A7
:1046B000FFF8204610BD000010B50446FFF772FA5F
:1046C000014B2360204610BD1082020838B5044615
:1046D00004F51575FFF7EFF9284605F0FDFFC4F85E
:1046E0000003284606F011F8C4F80403284606F033
:1046F0000FF8C4F8080338BDD0F8FC323C2201336F
:1047000010B493FBF2F1C0F8FC3202FB113323BB6F
:10471000D0F8084301343B2CD0E9C021C0F808434D
:1047200006DD01313B29C0F808330DDCC0F8041365
:1047300090F8083390F8042390F800135DF8044BC8
:1047400000F5157005F07DBF0132C0F80433172A5B
:10475000D8BF1346C0F80033EAE75DF8044B704752
:10476000704704387047704710B51021044620F098
:104770009FF8204610BDA0F10400F5E700228260FA
:10478000024A026018324260C160704744820208E7
:104790007047000010B5034B03600446FFF76AFB47
:1047A000204610BD6C82020810B50446FFF7F2FFE8
:1047B00020464FF4A27120F07BF8204610BD000087
:1047C00010B50446FFF7B4FB014B2360204610BD33
:1047D0006C820208FFF74FBB0022026070477047EF
:1047E000704704387047704710B51021044620F018
:1047F0005FF8204610BDA0F10400F5E700228260BA
:10480000024A026018324260C1607047A08202080A
:104810007047000010B5034B03600446FFF74EFCE1
:10482000204610BDC882020810B50446FFF7F2FF0B
:1048300020464FF4887120F03BF8204610BD000060
:1048400010B50446FFF772FC014B2360204610BDF3
:10485000C8820208FFF733BCF02070474FF4A07005
:1048600070472920FCF700BB2820FCF7FDBA08B5EB
:10487000FCF7CEFACA20FCF7F7FAC320FCF7D8FA07
:104880000820FCF7D5FA5020FCF7D2FACF20FCF72D
:10489000EBFA0020FCF7CCFAC120FCF7C9FA302073
:1048A000FCF7C6FAED20FCF7DFFA6420FCF7C0FA4B
:1048B0000320FCF7BDFA1220FCF7BAFA8120FCF7BE
:1048C000B7FAE820FCF7D0FA8520FCF7B1FA00200F
:1048D000FCF7AEFA7820FCF7ABFACB20FCF7C4FA71
:1048E0003920FCF7A5FA2C20FCF7A2FA0020FCF7EF
:1048F0009FFA3420FCF79CFA0220FCF799FAF72083
:10490000FCF7B2FA2020FCF793FAEA20FCF7ACFAA5
:104910000020FCF78DFA0020FCF78AFAB120FCF7A2
:10492000A3FA0020FCF784FA1B20FCF781FAB620DA
:10493000FCF79AFA0A20FCF77BFAA220FCF778FA37
:10494000C020FCF791FA1020FCF772FAC120FCF7A6
:104950008BFA1020FCF76CFAC520FCF785FA45208D
:10496000FCF766FA1520FCF763FAC720FCF77CFA1F
:104970009020FCF75DFA3620FCF776FAC820FCF7A9
:1049800057FAF220FCF770FA0020FCF751FAB02039
:10499000FCF76AFAC220FCF74BFAB620FCF764FA7F
:1049A0000A20FCF745FAA720FCF742FA2720FCF77B
:1049B0003FFA0420FCF73CFA2A20FCF755FA0020C5
:1049C000FCF736FA0020FCF733FA0020FCF730FA47
:1049D000EF20FCF72DFA2B20FCF746FA0020FCF71D
:1049E00027FA0020FCF724FA0120FCF721FA3F20E7
:1049F000FCF71EFAF620FCF737FA0120FCF718FA4C
:104A00000020FCF715FA0620FCF712FA2C20FCF720
:104A10002BFAC820FCF776FA2620FCF725FA0120AD
:104A2000FCF706FAE020FCF71FFA0F20FCF700FA6B
:104A30002920FCF7FDF92420FCF7FAF90C20FCF7FB
:104A4000F7F90E20FCF7F4F90920FCF7F1F94E20F4
:104A5000FCF7EEF97820FCF7EBF93C20FCF7E8F9DD
:104A60000920FCF7E5F91320FCF7E2F90520FCF733
:104A7000DFF91720FCF7DCF91120FCF7D9F9002049
:104A8000FCF7D6F9E120FCF7EFF90020FCF7D0F9AC
:104A90001620FCF7CDF91B20FCF7CAF90420FCF71F
:104AA000C7F91120FCF7C4F90720FCF7C1F9312040
:104AB000FCF7BEF93320FCF7BBF94220FCF7B8F94C
:104AC0000520FCF7B5F90C20FCF7B2F90A20FCF739
:104AD000AFF92820FCF7ACF92F20FCF7A9F90F203B
:104AE000FCF7A6F91120FCF7BFF9C820FCF70AFA79
:104AF0002920FCF7B9F9BDE808402C20FCF7B4B92F
:104B000008B5FCF785F90321D320FCF7C9F980B279
:104B100008BD10B5C4B2022203212046FCF72EF9CD
:104B20000A20FCF773F9204600220321FCF726F93E
:104B3000BDE810400220FCF769B938B50446E4B27C
:104B4000FCF71AF900212046FCF730F9012105464F
:104B50002046FCF72BF940EA052080B238BD10B59D
:104B6000C4B240212046FCF721F9030607D54C21A9
:104B70002046FCF71BF9003818BF012010BD0122A8
:104B80004B212046FCF7FAF8204600224B21FCF787
:104B9000F5F80020F2E773B50423C4B20E461546BB
:104BA000D7210DEB03022046FCF71AF9019B1BBA33
:104BB0001A0DC3F30B23328020462B8001224B2198
:104BC000FCF7DCF800224B212046FCF7D7F802B0B6
:104BD00070BD000010B50A4A1378984204460DD003
:104BE000517888420AD00BB141B90123D454FCF763
:104BF000C3F82046BDE81040FFF78BBF10BD00BFD3
:104C00000021002010B5C4B209212046FCF7CEF8DF
:104C100040F00102D2B220460921BDE81040FCF765
:104C2000ADB810B5C4B209212046FCF7BFF8092180
:104C300000F0FE022046BDE81040FCF79FB838B5F2
:104C4000C4B20D4620460A21FCF7B0F840EA05023E
:104C5000D2B220460A21BDE83840FCF78FB810B523
:104C60000446FCF78AF820461F21FFF7E8FF20469C
:104C7000BDE81040FFF7C6BF38B5C4B20D462046A8
:104C80000A21FCF793F820EA0502D2B220460A2155
:104C9000BDE83840FCF772B810B50446FFF7C1FF15
:104CA00020461F21BDE81040FFF7E6BF10B5C0B297
:104CB0000C460B21FCF77AF8204010BD1F21FFF7AE
:104CC000F5BF0A46C0B20B21FCF758B81F21FFF709
:104CD000F8BF38B5C4B20D4620461721FCF766F878
:104CE00020EA0502D2B220461721BDE83840FCF781
:104CF00045B870B5C4B2064604212046FCF756F804
:104D0000042100F0FB0205462046FCF737F8304648
:104D1000F021FFF7DEFF05F0F80220460421FCF742
:104D20002DF8492220212046FCF728F80220FCF724
:104D30006DF8204601222121FCF720F820469A2216
:104D40004121FCF71BF8204601224A21FCF716F806
:104D5000204601224B21FCF711F8204600224B216E
:104D6000FCF70CF8204601225621FCF707F82046F4
:104D700001225821FCF702F8204601224021FBF7CE
:104D8000FDFF2046FF220B21FBF7F8FFBDE8704036
:104D90000220FCF73BB80000054BD3F8882042F412
:104DA0007002C3F888204FF000629A60704700BF1D
:104DB00000ED00E008B50B4B1A6842F400721A606F
:104DC0001A6842F480621A601A6842F480721A60AB
:104DD000032000F02FF80020FCF7BEFBFCF7A0F842
:104DE000002008BD003C0240034A044B11681B78B8
:104DF0000B441360704700BF042100208C0000208A
:104E0000014B1868704700BF0421002038B50446E4
:104E1000FFF7F6FF631C1CBF054B1B78054618BF48
:104E2000E418FFF7EDFF431BA342FAD338BD00BFE0
:104E30008C0000200749CA6822F4E06203021204D1
:104E400003F4E063120C134343F0BF6343F40033F5
:104E5000CB60704700ED00E0164B30B5DC68C4F362
:104E60000224C4F10703251D042B28BF0423062DAB
:104E70004FF0FF358CBF033C002405FA03F321EA11
:104E80000303A54022EA0502A340002843EA0203E7
:104E9000ACBF00F16040084A4FEA0313B8BF00F00E
:104EA0000F00DBB2AABF00F56140135480F8003355
:104EB00030BD00BF00ED00E014ED00E0002807DB8E
:104EC000044A4109012300F01F00834042F82130C9
:104ED000704700BF00E100E010B5044650B14379CF
:104EE00003F0FF0213B90271FCF73AF80123637172
:104EF000002010BD0120FCE7036810B5084C0246F5
:104F0000D9B210391820B1FBF0F0205CD06523F441
:104F10007F7020F003005F2988BF0430906510BDCA
:104F20000C83020870B50446FFF76AFF0546002CA3
:104F300060D0022384F835302268002384F83430AE
:104F4000136823F00103136022681368D8072ED476
:104F500013683248A1691840D4E901352B43E5684C
:104F60002B4325692B4365692B43E5690B432B4391
:104F7000256A2B430343606A042802BFD4E90B5619
:104F800035432B4313605369042823F0070343EA96
:104F9000000335D1A06AE56A03438DB391B90128B6
:104FA00020D030F002012BD1E90129D51DE0FFF717
:104FB00027FF401B0528C7D920230320636584F8F9
:104FC000350070BDB1F5005F16D1032818D801A1D6
:104FD00051F820F0EB4F0008A94F0008EB4F0008F4
:104FE000E54F0008B5F1C07F0AD140236365012376
:104FF00084F835300120E4E70228F6D90328D3D01D
:1050000053612046FFF778FFE26D3F2393408360B2
:1050100000200123606584F83530D2E73F8010F02E
:1050200070B590F83440866D012C30D0012480F8A2
:10503000344090F83540012C4FF0000425D1022572
:1050400080F8355044650468256825F4802525607E
:1050500063608368402B0EBFA260A160E260C26DF6
:1050600008BFE1603F239340B360236843F0160319
:105070002360036C1BB1236843F00803236023689B
:1050800043F001032360002070BD80F8344002200B
:10509000FAE790F83530022B03D0802343650120D6
:1050A00070470268052380F83530136823F0010348
:1050B0001360002070470000F7B5002301935C4B9C
:1050C000856D1F68C36D2E6808229A4032420446DF
:1050D0000CD001680868400708D5086820F0040073
:1050E0000860AA60626D42F00102626501229A4086
:1050F000324208D021684969090641BFAA60626D41
:1051000042F00202626504229A40324208D02168CD
:105110000968880741BFAA60626D42F004026265B7
:1051200010229A40324210D02368196809070CD522
:10513000AA601A68500337D51B68190301D4236C81
:1051400000E0A36C0BB120469847E16D20228A4015
:1051500032423AD023681868C60636D5AA6094F859
:105160003520052A1A6827D122F016021A605A69DA
:1051700022F080025A61226C0AB9A26C1AB11A6834
:1051800022F008021A603F238B40AB60012384F8B1
:105190003530002384F83430236D002B45D0204671
:1051A00003B0BDE8F04018471A68D2055EBF1A6820
:1051B00022F008021A60C2E7500327D51B681903C2
:1051C00031D4636C0BB120469847636D6BB3636D4C
:1051D000DA0719D522684FF41653B7FBF3F7052306
:1051E00084F83530136823F001031360019B013309
:1051F000BB42019302D81368DB07F7D4012384F87C
:105200003530002384F83430E36CC6E71A6812F4B2
:10521000807208D1196821F010011960012384F807
:10522000353084F83420E36BCCE703B0F0BD00BF29
:105230008800002010B5044630B390F8393003F0F0
:10524000FF021BB980F83820FBF7A2FE22686168D4
:10525000022384F83930136823F440330B4313607E
:10526000536BA16823F007030B435363136CE1688E
:1052700023F47F5323F03F030B43136400200123E7
:10528000E06384F8393010BD0120FCE770477047B7
:10529000036870B55E681D68F207044614D5E90519
:1052A00012D51A6822F480721A60C26B42F00102B1
:1052B000C26301229A60042380F83930002380F809
:1052C0003830436903B19847B20616D5AB0414D5FC
:1052D00023681A6822F400521A6020229A60E36B55
:1052E00043F00203E363042384F83930002384F895
:1052F000383063690BB120469847300716D5290529
:1053000014D523681A6822F400621A6008229A6091
:10531000E36B43F00403E363042384F83930002390
:1053200084F8383063690BB12046984772070BD573
:105330006B0509D523681A6822F480621A6004227A
:105340009A602046FFF7A2FFB00714D5A90512D531
:1053500023681A6822F400721A6002229A60E36BD2
:10536000E363012384F83930002384F8383023695B
:105370000BB120469847F20613D5EB0411D52368EC
:105380001A6822F480521A6010229A60E36BE36379
:10539000012384F83930002384F838302046FFF7A1
:1053A00076FF70BDF0B590F83820012A03464FF023
:1053B00002002BD0012283F8382083F8390003EB58
:1053C0000112D2E90740556A174F44EA0040093CF0
:1053D000012C9CBF05F07F4210434FEA01161A686A
:1053E00088BF40EA056091B9516A39400143516272
:1053F000012C9969916103D8596A21F07F4191622A
:105400000122002083F8392083F83800F0BDD169EB
:1054100039400143D1619919012C896911619CBFFF
:1054200025F07F451562EBE7F0FFFC002DE9F74F13
:10543000DFF8BC916C4A00230D6801249C4004EA0B
:105440000506AC4340F0B7804D68032705F0030420
:105450004FEA430807FA08FC671E012F6FEA0C0C9D
:1054600034D8876807EA0C0ECF6807FA08F747EACE
:105470000E078760476827EA060EC5F300179F40AE
:1054800047EA0E074760C76807EA0C0E8F6807FAFD
:1054900008F747EA0E07022CC76019D14FEAD30A72
:1054A00000EB8A0A03F0070BDAF820704FEA8B0B47
:1054B0004FF00F0E0EFA0BFE27EA0E0E0F6907FAD9
:1054C0000BF747EA0E07CAF8207001E0032CDAD187
:1054D000076804FA08F407EA0C073C4315F4403F58
:1054E000046068D000240194D9F8444044F4804416
:1054F000C9F84440D9F8444023F0030707F1804736
:1055000004F4804407F59C37019403F0030C019CDC
:10551000D7F808E04FEA8C0C0F2404FA0CF42EEABA
:10552000040E324CA0424DD004F58064A0424BD012
:1055300004F58064A04249D004F58064A04247D0BD
:1055400004F58064A04245D004F58064A04243D0B5
:1055500004F58064A04241D004F58064A0423FD0AD
:1055600004F58064A0423DD004F58064A04214BFDD
:105570000A24092404FA0CF444EA0E04BC6094687A
:10558000F74315F4801F0CBF3C4034439460D4684B
:1055900015F4001F0CBF3C403443D460546815F42C
:1055A000003F0CBF3C40344354601468ED0354BFCB
:1055B0003C40344314600133102B7FF43DAF03B003
:1055C000BDE8F08F0024D5E70124D3E70224D1E71A
:1055D0000324CFE70424CDE70524CBE70624C9E75D
:1055E0000724C7E70824C5E7003C0140000002404B
:1055F000003802400369194214BF0120002070479F
:105600000AB1816170470904FBE7436901EA0302BB
:1056100021EA030141EA024181617047044A51696C
:10562000014208B502D05061FBF7D8F808BD00BFB1
:10563000003C014001684B6913F480634FF00002A5
:1056400010D06FF480634B612023026380F83D30FB
:1056500080F83E20036C80F83C2043F00403036490
:1056600001207047184670472DE9F84606460F4658
:1056700091461D464FEA114A3368BAF1010F0CBF3B
:105680005C699C6927EA0404A4B2B4FA84F464094E
:10569000A14501D0002025E06A1CEED0FFF7B0FB49
:1056A000089BC01AA84201D8002DE5D13368BAF191
:1056B000010F0CBF5B699B6927EA03039BB2B3FA36
:1056C00083F35B099945D7D100232022336386F801
:1056D0003D2086F83E30326C86F83C3042F02002A5
:1056E00032640120BDE8F8862DE9F04104460F46FA
:1056F000164698462568686927EA000080B2C0B15E
:105700006B695A0517D52B6843F400732B606FF44F
:1057100080636B6120220023236384F83D2084F89A
:105720003E30236C43F004032364002384F83C30B0
:105730000120BDE8F081731CDDD0FFF761FBA0EB19
:105740000800B04201D8002ED4D123685A6927EA54
:10575000020292B2002ACDD000232022236384F8D3
:105760003D2084F83E30236C1343DDE770B50446DA
:105770000D46164623685B691B0601D500201EE016
:105780002046FFF757FFC8B96A1CF3D0FFF738FB74
:10579000801BA84201D8002DECD123685B6913F06F
:1057A0008003E7D12022236384F83D2084F83E3033
:1057B000226C84F83C3042F020022264012070BD4B
:1057C0002DE9F0431546026885B0DDE90C7899466D
:1057D000136843F4807313600E463B46CDF8008097
:1057E00000224FF001110446FFF73EFF236838B155
:1057F0001B68DB0502D54FF400732364032620E009
:1058000006F0FE061E611A4943463A462046FFF757
:105810006BFFA8B9236803905A6903929B690393AD
:10582000424639462046039BFFF7A0FF064660B17B
:10583000236C042B01BF2268136843F400731360C8
:105840000126304605B0BDE8F083B9F1010F2368A9
:1058500002D1EDB21D61F4E72A0A1A6139464246C7
:105860002046FFF783FF0028E2D12368F1E700BF5D
:10587000020001002DE9FF479A46036815461A68A1
:1058800042F480621A601A68DDE90C7842F4807292
:105890001A600E463B46CDF8008000224FF0011101
:1058A0000446FFF7E1FE236838B11B68DB0544BFFF
:1058B0004FF400732364032021E05FFA86F906F0B9
:1058C000FE061E612B4943463A462046FFF70CFF71
:1058D000A0B9236803905A6903929B6903934246D7
:1058E00039462046039BFFF741FF58B1236C042B38
:1058F00001BF2268136843F400731360012004B0F1
:10590000BDE8F087BAF1010F23681AD1EDB2424623
:105910001D6139462046FFF729FF02460028E5D1E0
:1059200021680B6843F480730B602046CDF800803B
:105930003B464FF00111FFF797FE226860B11368F4
:10594000B4E72A0A1A61394642462046FFF70EFF9D
:105950000028CBD12368D9E749F001031361054939
:1059600043463A462046FFF7BFFE003818BF0120E5
:10597000C5E700BF0200010070B504460D4616469B
:1059800023685B695B0701D500201EE02046FFF716
:1059900051FEC8B96A1CF3D0FFF732FA801BA84247
:1059A00001D8002DECD123685B6913F00403E7D123
:1059B0002022236384F83D2084F83E30226C84F852
:1059C0003C3042F020022264012070BD70B50446D4
:1059D0000D46164621684B6913F0400301D00020A4
:1059E00011E04A69D2060FD56FF010024A612022F9
:1059F000236384F83D2084F83E30236C2364002325
:105A000084F83C30012070BDFFF7FAF9801BA842F2
:105A100001D8002DDED123685B6913F04003D9D192
:105A20002022236384F83D2084F83E30236C134306
:105A3000E4E7000070B5044608B9012070BD90F895
:105A40003D3003F0FF021BB980F83C20FBF7C2FA9F
:105A5000242384F83D3023681A6822F001021A607A
:105A60001A6842F400421A601A6822F400421A606E
:105A700000F0B2FE3F4B65689D4294BF3E4B3F4BEA
:105A800098428CBF00230123002BD6D12268394EC7
:105A900051683B4BB0FBF3F321F03F011943B54292
:105AA000516088BF4FF49676116A88BF734321F026
:105AB0003F0184BF4FF47A76B3FBF6F301330B4317
:105AC0001362D169431E2B4821F44F41854221F0D6
:105AD000FF0132D86D0040F6FC70B3FBF5F30133E3
