:020000040800F2
:100000000000032031060008F9150008FB15000860
:10001000FD150008FF15000801160008000000008B
:10002000000000000000000000000000D183000874
:10003000031600080000000061840008EB7C000843
:100040008106000881060008810600088106000874
:100050008106000881060008051600080B16000836
:1000600011160008810600088106000881060008B4
:10007000810600088106000881060008191600089C
:100080008106000881060008810600088106000834
:100090008106000881060008810600088106000824
:1000A0008106000881060008810600088106000814
:1000B0008106000825160008810600088106000850
:1000C00081060008810600088106000881060008F4
:1000D00081060008810600088106000881060008E4
:1000E00081060008810600088106000881060008D4
:1000F00081060008810600088106000881060008C4
:1001000081060008810600088106000881060008B3
:1001100081060008810600083116000881060008E3
:100120008106000881060008810600088106000893
:100130008106000881060008810600088106000883
:100140008106000881060008810600088106000873
:100150008106000881060008810600088106000863
:100160008106000881060008810600088106000853
:1001700081060008810600088106000800000000D2
:100180008106000881060008810600088106000833
:100190008106000881060008810600088106000823
:0C01A0003D160008810600084916000802
:1001B00010B5054C237833B9044B13B10448AFF3A1
:1001C00000800123237010BD800300200000000088
:1001D0005859020808B5034B1BB103490348AFF354
:1001E000008008BD00000000840300205859020868
:1001F000034613F8012B002AFBD1181A0138704767
:1002000001F0FF01102A2BDB10F0070F08D010F8C7
:10021000013B013A8B422DD010F0070F42B3F6D1CB
:10022000F0B441EA012141EA014122F007047FF0E4
:1002300000070023F0E80256083C85EA010586EA3B
:10024000010685FA47F5A3FA87F586FA47F6A5FA77
:1002500087F68EB9EED1F0BC01F0FF0102F0070283
:1002600032B110F8013B013A83EA010313B1F8D12E
:100270000020704701387047002D06BF354603380F
:10028000073815F0010F07D1013015F4807F02BF48
:10029000013015F4C03F0130F0BC0138704700BF99
:1002A0007BB972B90029BEBF00204FF0004106E0C3
:1002B00008BF00281CBF6FF000414FF0FF3000F076
:1002C000B5B9ADF1080C6DE904CE002909DB002BAE
:1002D0001ADB00F04DF8DDF804E0DDE9022304B09C
:1002E0007047404261EB4101002B1BDB00F040F8FE
:1002F000DDF804E0DDE9022304B0404261EB410196
:10030000524263EB43037047524263EB430300F0F6
:100310002FF8DDF804E0DDE9022304B0404261EB90
:1003200041017047524263EB430300F021F8DDF8CE
:1003300004E0DDE9022304B0524263EB430370475B
:1003400053B94AB9002908BF00281CBF4FF0FF313C
:100350004FF0FF3000F06AB9ADF1080C6DE904CE42
:1003600000F006F8DDF804E0DDE9022304B0704790
:100370002DE9F047089D0C46002B4ED194468C4544
:100380008646B2FA82F262D94AB1C2F120039140A4
:1003900020FA03F30CFA02FC194300FA02FE4FEABA
:1003A0001C471FFA8CF6B1FBF7F44FEA1E4307FB1C
:1003B000141143EA014304FB06F199420AD91CEBEC
:1003C000030304F1FF3080F01281994240F20F8163
:1003D000023C6344591A1FFA8EF3B1FBF7F007FB96
:1003E000101143EA014300FB06F69E420AD91CEBBA
:1003F000030300F1FF3180F0FC809E4240F2F9805F
:10040000634402389B1B40EA044000211DB1D340E5
:100410000022C5E90032BDE8F0878B4205D90DB155
:10042000C5E9000100210846F5E7B3FA83F1002988
:1004300046D1A34202D39042C0F0F080861A64EB0A
:1004400003030120002DE6D0C5E90063E3E7002A9D
:1004500040F09080A1EB0C044FEA1C481FFA8CF787
:100460000121B4FBF8F64FEA1E4308FB164443EAA9
:10047000044307FB06F0984208D91CEB030306F17E
:10048000FF3402D2984200F2CD8026461C1A1FFA91
:100490008EF3B4FBF8F008FB104443EA044300FB7E
:1004A00007F79F4208D91CEB030300F1FF3402D287
:1004B0009F4200F2B0802046DB1B40EA0640A5E7E1
:1004C000C1F120068B4022FA06F71F4320FA06FCF2
:1004D00004FA01F343EA0C03F44000FA01F8380C83
:1004E0004FEA1349B4FBF0FE1FFA87FC00FB1E44E1
:1004F00049EA04440EFB0CF9A14502FA01F20AD9BB
:100500003C190EF1FF3A80F08480A14540F28180D1
:10051000AEF1020E3C44A4EB09041FFA83F9B4FBCC
:10052000F0F300FB134449EA044403FB0CFCA4452C
:1005300007D93C1903F1FF3067D2A44565D9023BC6
:100540003C4443EA0E40A0FB0293A4EB0C049C4203
:10055000CE469C4651D34ED055B1B8EB0E0364EB5A
:100560000C0404FA06F6CB401E43CC40C5E90064F7
:10057000002150E7C2F1200320FA03F10CFA02FC3B
:1005800024FA03F394400C434FEA1C4800FA02FE9D
:100590001FFA8CF7B3FBF8F008FB1031230C43EA89
:1005A000014300FB07F1994208D91CEB030300F15A
:1005B000FF362CD299422AD9023863445B1AA4B27E
:1005C000B3FBF8F108FB113344EA034401FB07F3E2
:1005D000A34208D91CEB040401F1FF3613D2A34255
:1005E00011D902396444E41A41EA004139E704466A
:1005F000F0E6084606E7C845AED2B9EB020E63EB5B
:10060000070C0138A8E73146EDE7034699E7304685
:10061000D4E7D6467FE7634402384DE706462346D3
:1006200008460FE7023E634430E700BF704700BF53
:10063000DFF834D0002103E00C4B5B584350043109
:100640000B480C4B42189A42F6D30B4A02E00023A7
:1006500042F8043B094B9A42F9D304F0B9F924F06B
:100660009FFC00F019F970470000032028050B08D3
:100670000000002078010020800300208C3A012037
:10068000FEE7704770470000094A1378012B07D036
:10069000022B09D10123002010700B70012070473C
:1006A0000023F8E70223F6E7032BFBD00020704776
:1006B000A0030020704710B50821044623F04EF92E
:1006C000204610BD07B5064BADF806001B6805486F
:1006D00001220DF1060106F07DF903B05DF804FB7F
:1006E00004000020D404002008B5054C2378002B1A
:1006F000FCD101F039F8642007F077FBF6E700BF82
:10070000C806002008B52A4C2A4D2B4E0121204650
:1007100004F08CFD012812D12870284824F090FAAA
:100720000022C821104601F00DF80121204604F0F6
:100730007DFD012818D10A2007F057FBF5E70221BB
:10074000204604F073FD012816D128701C4824F0BF
:1007500077FA0021C822084600F0F4FF0221204663
:1007600004F064FD012803D0C82007F03EFBCDE76C
:100770000A2007F03AFBF1E70421204604F056FD79
:10078000012812D12870304624F05AFA0021C822DC
:10079000084600F0D7FF0421204604F047FD012859
:1007A000E2D10A2007F021FBF5E700232B70DBE7FD
:1007B00000000240C8060020085A0208CC5902086E
:1007C000E959020808B592B24FF0FF33024807F02A
:1007D000A2F9002008BD00BFE4030020012802D1D7
:1007E000054B187070470228FAD0042802BF024B4C
:1007F00003221A70704700BFA003002030B595B0E7
:10080000102200210AA824F015FB1422002103A8BD
:1008100024F010FB00241E4B01941A6C42F080520D
:100820001A641B6C03F080530193019B194B0294D3
:100830001A6842F440421A601B6803F44043029372
:100840000122029B4FF48033CDE9082302254FF4A7
:1008500080030821CDE90E534FF4B473CDE9101392
:1008600008A804231393129505F05CFB05F020FB08
:100870000F23CDE903354FF4A0504FF48053CDE959
:100880000603052103A8059405F028FD15B030BD29
:1008900000380240007000402DE980489FB00024DD
:1008A000C74D04F0A3F8FFF7A9FF1422002111A8F7
:1008B00024F0C0FA02942B6BC24843F010032B6360
:1008C0002B6B03F010030293029B03942B6B43F0FA
:1008D00020032B632B6B03F020030393039B0494EF
:1008E0002B6B43F080032B632B6B03F0800304938B
:1008F000049B05942B6B43F004032B632B6B03F0D9
:1009000004030593059B06942B6B43F001032B63B3
:100910002B6B03F001030693069B07942B6B43F0AC
:1009200002032B632B6B03F002030793079B0894CE
:100930002B6B43F040032B632B6B03F040030893B6
:10094000089B09942B6B43F008032B632B6B03F07C
:100950000803099322463C21099B04F06DFC9A4848
:100960002246042104F068FC224698484FF4405186
:1009700004F062FC01264FF003083C2391481394D5
:1009800011A902274FF00409CDE91136CDF85080A6
:1009900004F068FB8C48139411A94FF0070ACDE9C5
:1009A0001196149704F05EFB4FF488138848139453
:1009B00011A9CDE911A304F055FB4FF4405383482E
:1009C00011A9CDE91136CDE9134704F04BFB2246BE
:1009D0000521062004F05CF8062004F08BF822467E
:1009E0000521504604F054F8504604F083F822469E
:1009F0000521082004F04CF8082004F07BF801944D
:100A00002B6B43F400132B632B6B724D03F4001319
:100A10000521224601930F20019B04F039F80F2095
:100A200004F068F86C486D4B036004F071F86C4A90
:100A30006C4B2C62C5E9002328464FF48043C5E97E
:100A40000434C5E90244C5E9064404F00FFE102150
:100A5000284605F053F82146284605F06EF862480E
:100A6000624984624FF48273C0E900134FF4007549
:100A70001823C0E906530A23C3625D4DC0E902444E
:100A8000C0E90444C0E9084405F048FF594A1797F3
:100A9000C5E900264FF0100B4022C5E904B24FF41F
:100AA000C072C5E906244FF40062C5E9082411A903
:100AB0004FF400522846C5E90249CDE9139AAA62CB
:100AC000CDE9117ACDE915874FF0080A05F00AFE45
:100AD0004FF6FF720DA92846CDE90EA60A940D9691
:100AE000109405F01FFE304603F0ACFF4FF6FF7286
:100AF0000DA92846CDE90D7ACDE90F6405F012FE67
:100B00004FF6FF720DA92846CDE90D8ACDE90F9465
:100B100005F008FE4FF40C720A920A9A10920DA981
:100B20004FF6FF722846CDE90D9A0F9605F0FAFDB3
:100B300040F26A51284605F013FE2146342211A8DE
:100B400024F078F92C4D2D4A2C61C5E900240922A6
:100B5000C5E905261D2240F20D1CC5E9072840F213
:100B60004312C5E909C240F2171E40F24712284657
:100B7000C5E90BE2C5E90244AC8685F8364005F0CC
:100B800081F8FF20F0214FF4A072CDE916044FF454
:100B900080690520CDE91214CDE91427CDE918901C
:100BA000CDE91A411C9211A9224628461194144DF0
:100BB000ADF874408DF8764005F02FF922E000BFC3
:100BC000003802400010024000080240000C0240C1
:100BD000000002402C060020C00600200030024029
:100BE000005C0040A0860100D404002000500140B9
:100BF000B0030020400100A08405002000680140EF
:100C00009C030020484A2A601268DFF868A19047D8
:100C10002A68464DD2689047454A2846C5E90024CF
:100C2000C5E90274C5E90A47C5E90C4404F01EF998
:100C30003146284604F0D2F95A4621460DA824F040
:100C4000F9F821461C2211A83A4DCDE90B4424F0B5
:100C5000F1F8394AAC60C5E90028284640F2E7328D
:100C6000C5E90324AC6106F051FB4FF480520DA995
:100C700028460D9206F03AFC284606F073FB0BA9B5
:100C80002846CDE90B4406F019FE602211A9CDE9F2
:100C90001124284622461394159406F0C5FB2846D5
:100CA00000F08EFB25484FF4E132C0E900A20C228F
:100CB000C0E90524C0E902440461C46106F0FCFEF9
:100CC0001F48204A84610A23C362C0E90024C0E9A6
:100CD0000244C0E90444C0E90844846205F01EFEF1
:100CE00000F06FFD00F06CFD174823F041FF17483E
:100CF00023F03EFF07F006F8154A1648214607F094
:100D00002DF8154B154A18602146154807F026F8AE
:100D1000144B154A18602146144807F01FF8144B6D
:100D2000186007F001F8FEE7280000208006002088
:100D300000B002408C04002000040040E4030020C6
:100D40002C05002000380040285A0208595A020891
:100D5000EC5A0208E9060008AC030020C85A020851
:100D6000D1170008A8030020A45A020805070008AC
:100D7000A403002000100140704770477FB5094B65
:100D80008DF817201B6802930DF1170201230092C2
:100D900001930A460146044804F010FD07B05DF8CF
:100DA00004FB00BF080000202C0600207FB50023B4
:100DB0008DF81730084B1B6802930A4601230DF18A
:100DC0001701009101930146044804F087FD9DF846
:100DD000170007B05DF804FB080000202C06002077
:100DE0001FB5084C24680092CDE901340A4601235E
:100DF0000146054804F072FD003818BF012004B018
:100E000010BD00BF080000202C06002003F01ABE11
:100E100010B5064C00222046042104F00DFA2046AD
:100E20000122BDE81040042104F006BA0008024087
:100E300038B50B4D044601220A484FF4005104F026
:100E4000FBF900220421284604F0F6F92046FFF7BA
:100E500039FC28460122BDE83840042104F0ECB9F1
:100E600000080240000C024038B50B4D0446002239
:100E70000A484FF4005104F0DFF90022042128460B
:100E800004F0DAF92046FFF71DFC28460122BDE8F0
:100E90003840042104F0D0B900080240000C0240A0
:100EA000F7B5144E144F05460C4630460022042177
:100EB00004F0C2F900224FF40051384604F0BCF9A6
:100EC0002846FFF7FFFB0D4B0D481B68224601A982
:100ED00005F02CFF384601224FF40051019C04F02C
:100EE000ABF930460122042104F0A6F9204603B0F4
:100EF000F0BD00BF00080240000C024004000020CA
:100F0000D404002003F09EBD0268034B9A4201D135
:100F100003F086BD704700BF00100040704700001E
:100F200082B00E4B00220092596C41F4804159640A
:100F3000596C01F48041009100990192196C41F0C3
:100F4000805119641B6C03F080530193019B0F21A6
:100F50006FF0010002B003F09BBD00BF00380240FB
:100F60000268094B9A4282B00BD100230193074BD0
:100F70001A6B42F480521A631B6B03F48053019383
:100F8000019B02B0704700BF0030024000380240B1
:100F900007B50F4B02689A4216D10022A3F5F04321
:100FA0000192196B41F4000119631B6B03F40003F8
:100FB000019305215A20019B03F06AFD5A2003B0DA
:100FC0005DF804EB03F096BD03B05DF804FB00BFD1
:100FD00000B002402DE9F043044689B014220021FC
:100FE00003A823F027FF2268244B9A4243D1244CC4
:100FF000244800250095236B43F004032363236BEF
:1010000003F004030093009B0195236B43F001035D
:101010002363236B03F001030193019B4FF012093B
:101020004FF400734FF001080327042603A9CDE90C
:101030000339CDE90587079604F014F84FF480735F
:101040001148079603A9CDE90339CDE9058704F0D6
:1010500009F80295236C43F400032364236C03F422
:1010600000030293029B236A43F400032362236A72
:1010700023F40003236209B0BDE8F083005C004064
:10108000003802400008024000000240F0B599B06C
:1010900004461422002107A823F0CCFE30220DEBD9
:1010A0000200002123F0C6FE22685E4B9A4240F007
:1010B000B78008230C93C0231093042312930CA829
:1010C0004FF40033159305F0E1F908B1FFF726FF5F
:1010D000554B5648002400945A6C42F080625A6482
:1010E0005A6C02F080620092009A01941A6B42F0EE
:1010F00020021A631A6B02F020020192019A0294F4
:101100001A6B42F001021A631A6B02F0010202929A
:10111000029A03941A6B42F002021A631A6B02F0ED
:1011200002020392039A04941A6B42F040021A637B
:101130001A6B02F040020492049A05941A6B42F072
:1011400004021A631A6B02F004020592059A0694CF
:101150001A6B42F008021A631B6B03F00803069334
:1011600002250E26069B0B964FF4806307A9CDE956
:101170000735CDE9094503F075FF41F658032C48C2
:101180000B9607A9CDE907350927CDE9094503F0F5
:1011900069FF032327480B9707A9CDE90735CDE958
:1011A000094503F05FFF4FF4706322480B9607A9CF
:1011B000CDE90735CDE9094503F054FF4FF40C6341
:1011C0001D480B9607A9CDE90735CDE9094503F080
:1011D00049FFC02319480B9607A9CDE90735CDE98A
:1011E000094503F03FFF082315480B9607A9CDE9F1
:1011F0000735CDE9094503F035FF4FF4A0530E48FC
:101200000B9707A9CDE90735CDE9094503F02AFF7A
:1012100058202246052103F03BFC582003F06AFCCD
:1012200019B0F0BD006801400038024000140240CF
:101230000000024000040240001802400008024082
:10124000000C0240F0B514228BB0044600210DEBD7
:10125000020023F0EFFD2368304A934238D1304B2F
:101260003048002400941A6C42F480421A641A6CCC
:1012700002F480420092009A01941A6B42F0040238
:101280001A631A6B02F004020192019A02941A6B1B
:1012900042F002021A631B6B03F002030293029BEB
:1012A000022708230326052505A9CDE90537CDE941
:1012B000086503F0D7FE4FF4E043CDE90537CDE9EB
:1012C00007461948099505A903F0CCFE0BB0F0BDFF
:1012D000164A9342FAD1124B1548002103915A6CD9
:1012E00042F480125A645A6C02F480120392039AF8
:1012F00004911A6B42F020021A631B6B03F0200367
:101300000493049B4FF4607202230321CDE905236B
:101310000523CDE9081305A9D6E700BF0038004032
:101320000038024000080240000402400050014022
:101330000014024037B51E4B02689A42054634D16C
:1013400000231C4A0193116C1B4C41F002011164F3
:10135000126C1A4902F002020192019A4FF02062C7
:10136000C4E9001240224FF48060C4E902234FF424
:101370000062C4E904024FF400522046C4E9062387
:10138000C4E9083303F0EAFB08B1FFF7C7FD6C625C
:10139000AC63002205211D20A56303F079FB1D200D
:1013A00003B0BDE8304003F0A5BB03B030BD00BFC3
:1013B00000040040003802402C040020706002400D
:1013C00010B5044686B01422002101A823F032FD96
:1013D00022680D4B9A4214D1002300930B4B0C480A
:1013E0001A6B42F002021A631B6B03F002030093B4
:1013F000009B1022022301A9CDE90123059303F0EC
:1014000031FE06B010BD00BF0004004000380240AD
:101410000004024010B5044688B01422002103A83D
:1014200023F008FD2268144B9A4223D103F594332C
:10143000002101915A6C114842F010025A645A6C12
:1014400002F010020192019A02911A6B42F001021D
:101450001A631B6B03F001030293029B4FF4C062FB
:1014600002230321CDE903230723CDE9061303A9B2
:1014700003F0F8FD08B010BD00100140000002406C
:101480002DE9F04186B0002303932B4B1C68002C00
:101490004FD14FF00108C3F80080284B00949A6B9D
:1014A000274842EA08029A639B6B03EA0803009309
:1014B000022703260C25009B01A94FF63F03CDE927
:1014C0000137CDE9046503F0CDFD1E48059501A95E
:1014D000CDE90187CDE9034603F0C4FD48F233139B
:1014E0001948059501A9CDE90137CDE9034603F077
:1014F000B9FD4FF683731548059501A9CDE901376C
:10150000CDE9034603F0AEFD4CF203731048059598
:1015100001A9CDE90137CDE9034603F0A3FD60231E
:101520000C48059501A9CDE90137CDE9034603F043
:1015300099FD06B0BDE8F081CC06002000380240DD
:10154000001402400008024000180240001002404F
:10155000000C02400004024070B588B000230293E2
:10156000204B1A6C42F010021A641B6C03F010033B
:101570000293054601A903A8029B04F069FF069B9C
:101580004BBB04F045FF184E184B336040F2E73375
:10159000F360174BB0FBF3F3013B7360304600235D
:1015A0003361B360B36105F0B1FE044680B93046E3
:1015B00005F0EEFC044658B9362003F09BFA0F2DD7
:1015C0000DD822462946362003F062FA094B1D60E9
:1015D000204608B070BD04F01BFF4000D3E7012493
:1015E000F6E700BF00380240D0060020001000409F
:1015F00040420F00900000207047FEE7FEE7FEE744
:10160000FEE77047012003F025BE022003F022BE52
:10161000042003F01FBE0000014803F069BB00BFB7
:101620002C040020014805F043BD00BF8C040020BD
:10163000014805F03DBD00BFD0060020014804F080
:101640008FBB00BF84050020014803F03DBC00BFF4
:10165000800600200120704708B523F09BFC16236C
:1016600003604FF0FF3008BD08B523F093FC16234C
:101670000360FEE770B50D4614460E46731B9C4290
:1016800001DC204670BDAFF3008006F8010BF5E7E2
:101690004FF0FF3070474FF400534B60002070470D
:1016A00001207047002070470A4A116808B50346B8
:1016B00009B9094911601068694603448B4206D98B
:1016C00023F068FC0C2303604FF0FF3008BD13606B
:1016D000FCE700BF18070020903A0120172810B53A
:1016E00014D843EA01230A4900EB400043EA0242CE
:1016F00001EB00111723012404FA03F0104214BF78
:1017000010200820013B21F8020BF5D210BD00BFCC
:101710001E07002070B5094D094C2A464FF410737E
:101720000021204606F060F82A4620464FF4107348
:10173000BDE87040002106F057B800BF1E0700202A
:101740008C040020F8B505460E4617460024E0B28A
:101750003B46324629460134FFF7C0FF182CF6D12C
:10176000BDE8F840FFF7D6BFF8B5104D104E002485
:101770000627297821448910B1FBF7F307FB1311E1
:1017800001EB41017218E0B29378715C5278013438
:10179000FFF7A4FF182CECD1FFF7BCFF2B78013327
:1017A000B3FBF4F204FB12332B70F8BD1C070020CE
:1017B0000C0000200148002106F07EB88C040020B7
:1017C000704708B500F0B6FDBDE8084000F03ABD2E
:1017D00000F0B2BD704710B50421044622F0BEF8F7
:1017E000204610BD38B50C4B0C4C18800C4B822099
:1017F00019806368984740F6110398420AD1094D51
:1018000023682C60822098472B688220DB689847E9
:10181000002038BD0120FCE7AA0B0020600000205A
:10182000A80B0020AC0B00204FF4A071F020FFF7B4
:10183000D9BF0000F7B5334D2B6804461B698220E1
:101840009847208000284AD02B680DF106025B697A
:1018500001A982209847BDF8063040F67462934291
:101860003FD9ADF80620BDF80630D21A92B20A2A46
:101870003DD90B23B2FBF3F2234B1B889A4201D9CB
:10188000013B9AB2BDF8043040F6B8318B4230D8F3
:10189000C3F571630E339BB20F21B3FBF1F31B4908
:1018A00009888B4201D901398BB2194E194D306824
:1018B0002F68834281B28CBF591AC91AB8B2BA4292
:1018C0008CBF101A801A89B280B201440529C8BFA2
:1018D00033603368C8BF2A6063802B68A38003B07D
:1018E000F0BDB32B9CBFB423ADF80630BBE700229C
:1018F000C8E7C3F56D6308339BB20E2BCCD8002329
:10190000D3E700BFAC0B0020A80B0020AA0B0020DF
:10191000A40B0020A00B002037B568460D461446E6
:10192000FFF788FFBDF8000030B1BDF802302B6032
:10193000BDF804302360012003B030BD032821D856
:10194000DFE800F0020B12190F4B1A68B2FA82F2AC
:10195000520904210D4803F06FBC0B4B5A68B2FAD0
:1019600082F252090821F5E7074B9A68B2FA82F22F
:1019700052091021EEE7044BDA68B2FA82F25209FA
:101980002021E7E7704700BFB00B002000100240A5
:10199000032821D8DFE800F0020B12190F4B1A6858
:1019A000003A18BF012204210D4803F045BC0B4B3F
:1019B0005A68003A18BF01220821F5E7074B9A68D8
:1019C000003A18BF01221021EEE7044BDA68003A12
:1019D00018BF01222021E7E7704700BFB00B0020AD
:1019E0000010024003280DD8DFE800F00206080AC4
:1019F0000421054803F025BC0821FAE71021F8E787
:101A00002021F6E7704700BF0010024008B5032808
:101A100011D8DFE800F0020A0C0E0421074803F099
:101A200005FC431E5842584108BD0821F6E7102125
:101A3000F4E72021F2E70020F3E700BF00100240A6
:101A400070B5084D00240126E0B2FFF7DFFF18B1A2
:101A50002B68012B18BF2E600134052C05F10405FD
:101A6000F2D170BDB00B0020012380F8781080F80F
:101A7000793070477047002070470000034B416485
:101A8000003918BF01211970704700BF4B2D01208C
:101A9000704700207047836B0BB1084618477047AA
:101AA0004FF6FF707047406803689B69184770479E
:101AB000704770477047704710B5044600F052FDFC
:101AC000044B636123680449D3F890302046BDE895
:101AD00010401847C00B0020000000D008B5036874
:101AE0000446D3F88430984723682046DB6F984734
:101AF00000F0F4F8236820465B6F98472920FFF731
:101B0000B3F900F0EBF8236820465B6F9847F8E7DD
:101B100010B5044609F056FA23682046D3F8BC30C5
:101B2000BDE81040184700F0FFBC00F003BD00F016
:101B300037BD00F0D5BC00F047BD00F04FBD00F050
:101B4000D9BC08F06DBC10B58421044621F006FF15
:101B5000204610BD10B590F8341090F878400C4B2A
:101B60008C421A7809D03AB90A4A0B491488088875
:101B700010800C8001221A7010BD002AFCD0054A8A
:101B800005491488088810800C800022F3E700BF04
:101B9000442D0120402D0120422D012070B50D461D
:101BA000194635B9094B0A4A0A4840F2FF2122F08A
:101BB0001BFEC0E90F52084B003A18BF01221A70F1
:101BC0000368BDE87040D3F890301847285B0208DE
:101BD000605B0208AE5B02084A2D012008B5094B84
:101BE0001B888B4203D8084B1B88934205D9074BAF
:101BF000074A0848A32122F0F7FD074B1980074B3D
:101C00001A8008BD402D0120422D0120F35B0208FF
:101C1000565C0208AE5B0208462D0120482D0120CB
:101C2000034690F87A0018B1586803681B68184793
:101C300070470000014B024A1A607047C00B002039
:101C4000B8590208012108B50022084606F0D9F863
:101C50000A4B186028B90A4B0A4A28210A4822F080
:101C6000C3FD00220421012006F06AF9074B186029
:101C700018B9074B034A2C21F0E708BDCC0B002014
:101C8000885D0208D15D0208005E0208C80B0020D2
:101C9000465E0208024B4FF0FF31186806F0FBB8B1
:101CA000CC0B0020014B186806F021B9CC0B0020AA
:101CB000024B0021186806F0EEB800BFCC0B0020E4
:101CC000FFF7F0BF03480449006800231A4606F0F6
:101CD00072B900BFC80B00202000002013B5084CCB
:101CE00000231A4601A9206806F096F920684FF0F3
:101CF000FF33002201A906F08FF902B010BD00BF2A
:101D0000C80B002003685B6C18470120704703680C
:101D10009B6A1847FEE740F2EF307047054B0360BF
:101D2000054B4FF08062C3F88820BFF34F8FBFF39D
:101D30006F8F7047DC5F020800E100E010B50446D9
:101D40004FF45A61FFF7EAFF204621F007FE2046D4
:101D500010BD000082B0002301930E4B1A6B42F4B9
:101D600000021A631A6B02F400020192019A1A69C6
:101D700042F400021A611A6922F400021A61064B49
:101D8000064A1A61064A5A61064B4FF080629A6011
:101D900002B070470038024080060020F51F00089E
:101DA000151D000800E100E008B50A2809D8DFE8A1
:101DB00000F006100E08080808101010100002208D
:101DC00008BD054B054A0648902122F00DFD002074
:101DD000F6E70120F4E700BF885E0208A35E020870
:101DE000EE5E020838B50C46887FFFF7DDFFA58A56
:101DF000E28A164B2169586342EA05425A64628BB3
:101E0000D963521B1A642568082D0ED19A611A6194
:101E10005862207F0E4A42EA0062DA61E2681A6282
:101E20000C4A5961D9601A6038BD0022D8611A6124
:101E3000E1680A0A480902F4784200F4FC600243AF
:101E4000C1F3C4010A439A63034AECE700B00240BD
:101E500009000100012302000123030008B50B283B
:101E60000BD8DFE800F00612100A0A0A0A08080870
:101E70000808022008BD0520FCE7054B054A064876
:101E80006F2122F0B1FC0020F4E70120F2E700BF4F
:101E9000885E0208325F0208EE5E02082DE9F0411A
:101EA00091F81D800C464046FFF7D8FFA77F0546F6
:101EB0003846FFF7D3FF06463846FFF775FFA18A7D
:101EC000628B444B521A1A649A61228B521A1A611D
:101ED000E28A586342EA01425A6421696268D9631E
:101EE000DA602068802828D0227F0FD8202867D089
:101EF000402865D004281AD0364B45EA026545F4DF
:101F00000035B845DD6161D0334A44E0B0F5807FEB
:101F100004D0B0F5007FEFD1304800E0304840EA0F
:101F20000262DA61E2681A625E62596132E045EA91
:101F3000026242F40032DA61F6E7A068021DDA625A
:101F4000227F45EA026545F40035DD615E62596134
:101F5000017841B1012921D0224B234A23484FF473
:101F60008D7122F041FCDA69418822F47F42013907
:101F700022F0100242EA0122DA610121154BDA69EE
:101F800042F02002DA61DA699206FCD410229A60EB
:101F90000029B9D0164A1A60BDE8F081B2F1FF01FC
:101FA000DA69408822F47F4200F1FF3022F010020B
:101FB00042EA002242F0100218BF0121DA61DDE797
:101FC00045EA0262034B42F40032B4E742F20132C6
:101FD000E1E700BF00B00240012301000900020058
:101FE0000A0002007C5F0208965F0208EE5E0208AB
:101FF00001230200024B1B68586803685B6918479D
:102000004C2D012070B5044625460A4B0C300026A5
:1020100060602672667245F8203B6022294609F00E
:1020200027F904F55A63EE6024359D42FBD1204622
:1020300070BD00BFDC5F0208034B1A68D207FCD4F6
:1020400023229A60704700BF00B002407047000032
:1020500030B50F4C2568ED07FCD423250904A56095
:1020600041F001010225FF2B65636164E0630AD042
:102070000849656241EA0363E361074B22626061DC
:10208000E060236030BDE561039BA363034BF8E789
:1020900000B002400900010001000200010003003D
:1020A00030B50E4C2568ED07FCD423251204A5603D
:1020B00042F001020225FF2B65636264E063E16088
:1020C00008D01B0643F00213E361054B65626061B3
:1020D000236030BD034BE3610123F9E700B0024008
:1020E00001000200020002FF30B50B4C2568ED072D
:1020F000FCD4232512041B06A56043F400330225FB
:1021000042F0010265636264E063E160E361034BF6
:1021100065626061236030BD00B0024001000200D2
:10212000012070474020704700EB81100830704755
:1021300000EB811008307047012070474FF4F870B1
:1021400070474FF4F87303FB0100083070474FF4F9
:10215000F87303FB0100083070470120704710201E
:10216000704700EB01100830704700EB0110083099
:102170007047084601F0AEB910B5034B0360044642
:1021800007F0A3FE204610BD9460020810B5044677
:10219000FFF7F2FF2046482121F0E0FB204610BD6A
:1021A00010B5034B0360044607F08FFE204610BDB8
:1021B0006060020810B50446FFF7F2FF20464FF4B6
:1021C000FC7121F0CBFB204610BD000010B5034B85
:1021D0000360044607F079FE204610BD2C6002081B
:1021E00010B50446FFF7F2FF2046182121F0B6FB98
:1021F000204610BD10B5084B0360044600F5097079
:10220000FFF7BAFF04F12C00FFF7CAFF04F1140036
:10221000FFF7DCFF204610BDC860020808B5024881
:10222000FFF7E8FF08BD00BFA81A002010B504465C
:10223000FFF7E0FF20464FF4737121F08FFB20463B
:1022400010BD00002DE9F34100F042FC054600F00E
:1022500043FC00240146234628462246009411F000
:1022600089FB274B274A1A60204601F09BFF264D29
:10227000264B274A27489A6011F0E4FA2B68BFF3EF
:102280005B8FDB0735D4284621F06AFB88B3224CEC
:10229000224B236004F51C7604F1140004F12C0891
:1022A00004F509776060C4F80880E760266107F0EC
:1022B0000DFE1B4B6361404607F008FE194BE362BD
:1022C000384607F003FE184BC4F8243204F51B709F
:1022D00002F09EF8224604F51B71304602F018F811
:1022E000304601F0F7F8114822F09CFA284621F018
:1022F00043FB0F4802B0BDE8F041FFF7DDBB00BF74
:10230000B02D0120540C0020A41A0020740C0020D1
:10231000580C002024000020A81A0020C8600208E1
:102320002C60020860600208946002081D22000808
:10233000D00B0020704700000148FFF7CFBB00BF63
:10234000D00B002070B5264E264C274D274B23601E
:102350003046FFF757FE284616F012FC24480FF0CF
:1023600063FB244B2448DC6000224FF48071C3E9F6
:10237000121222491A86C3E91A12214983F85820F9
:10238000C3E91E011F49C3F880101F491F480B6095
:10239000F021C3E90422C3E90622C3E90822C3E904
:1023A0000A22C3E90E22C3E91022C3E91422C3E9B9
:1023B00017225A6683F870205A67C3E901650180C5
:1023C0001348018013484FF4A07101801248018026
:1023D00012490A70012283F83420114A1A6070BD34
:1023E000000D0020A01A0020740C0020185B0208C9
:1023F000580C0020D00B002000000101010000015A
:10240000000450001A0014004C2D0120402D012022
:10241000462D0120422D0120482D0120442D012070
:10242000A45C02080148FFF779BC00BF000D002042
:102430000020704781807047C180704701817047DC
:10244000418170477047704770477047704710B4BC
:10245000C4880368121B84885B6D091B12B25DF887
:10246000044B09B218474FF6FF7383814FF0FF33D7
:1024700003621368C36110607047002070478B8847
:10248000838001207047704780F82610704790F8CD
:102490002600704710B50022B1F90840B1F90A10C2
:1024A000028042808480C18010BD00220280428070
:1024B0008280C28070470177704780ED080A7047BC
:1024C00080F82410704780F825107047012070476D
:1024D000983070478C3070478430704770470000E8
:1024E000034B902283F85A2383F85823704700BF88
:1024F00000E100E0094A0A49D3680A48C3F30A0325
:10250000013B9BB20B801169C1F30A0101390180C3
:102510001364536B43F00103536370470068014039
:10252000761E0020741E0020014BD3F8AC007047CB
:1025300000680140024B0122C3F8AC105A62704798
:10254000006801407047704710B52C21044621F007
:1025500005FA204610BD10B5BC21044621F0FEF955
:10256000204610BD70B5044607F0AFFF23689D6E8E
:102570000DF0CAFF01462046A8472368054AD3F854
:102580008C502046AC460023BDE87040A2F51631C1
:10259000604700BF00B004D007F07EBF07F088BFDF
:1025A00007F044BF08F0B3B890F8252012B10368D3
:1025B0005B691847704790F825201AB190F82420DD
:1025C00002B1186070470000034B4FF080629A60C0
:1025D0004FF080729A60704700E100E0084B4FF0C6
:1025E0008062C3F88820BFF34F8FBFF36F8F4FF027
:1025F0008072C3F88820BFF34F8FBFF36F8F70478F
:1026000000E100E070B50023124E8380124B03609E
:10261000336893F8582005460AB1D86C00B9986819
:102620000368DB6A98473368B0FA80F4D86C6409B1
:1026300030B10368DB6A9847002808BF44F0010402
:102640002CB9064B064A07482C2122F0CDF8284623
:1026500070BD00BF4C2D0120D8610208D460020873
:10266000326102086B61020870B5254E3568BFF310
:102670005B8F15F0010540D1304621F071F900283B
:102680003BD0204C204B256104F13400C4E90035D7
:10269000C4E90255E584A562A5850FF0AAFC04F102
:1026A00058000AF099FA194BA3652046184B40F8D8
:1026B000843BFFF7A7FF174BC4F884302433C4F8DA
:1026C0008C304FF4C803C4E928350023C4F8AC307B
:1026D000C4F8B030C4F8B430C4F8B8300E480F4B6A
:1026E000C4F89050C4F89C50C4F8A850C4F898306E
:1026F00022F098F8304621F03FF9024870BD00BF43
:10270000781E00207C1E0020A4730208F8610208D5
:102710007062020858730208DD240008387302084A
:1027200038B5184C23685BB3174B184A1B6C1188DB
:102730008B4216D1164B198803F09CFB236893F843
:102740006A200025013283F86A2083F87C50FFF765
:10275000B9FA206808F036FC2846BDE83840FFF793
:10276000EDB803F087FB2468236820461B6A98476E
:10277000012384F87C300020BDE83840FFF708B919
:1027800038BD00BF4C2D012000680140761E00209E
:10279000741E00207047704770477047704770473D
:1027A00070477047704730B4C2684468551003469C
:1027B00004EB6200D20748BF62599B6830BC48BF37
:1027C000D35818470346406830B19A681AB9D86898
:1027D00000F0010070470120704710B50821044641
:1027E00021F0BCF8204610BD10B51021044621F0A0
:1027F000B5F8204610BD10B54FF4F871044621F02D
:10280000ADF8204610BD00F5B270884208B505D17C
:102810000DF07AFEBDE8084000F08CBE08BD70B532
:10282000036804461B6B15469847236829462046D3
:102830005B6BBDE8704018470022C0E90122C0E987
:102840000322C0E90522C0E907224FF48072828486
:10285000014A0260704700BFD06202082DE9F04FC4
:10286000044689B0264600250FF07AFE814BE563C9
:1028700046F8403B4FF0260A52462946304622F0A1
:10288000D9FA3046FFF7D8FF04F16C09FF277A4BDD
:10289000236452464FF6FF73294684F86670A56696
:1028A0004846ADF8183022F0C5FA4846FFF7C4FF95
:1028B000724AE266BDF81820A4F8922004F58678E2
:1028C00006A984F8947048460AF05BFF04F5B27BD1
:1028D00040460BF02BFA52462946584622F0AAFAF7
:1028E0005846FFF7A9FF4FF0010304F5CC7784F8B1
:1028F0008831634AC4F864214FF6FF73A4F892311B
:10290000A4F8943184F8963152462946C4F88C5183
:1029100084F89051384622F08DFA3846FFF78CFF44
:10292000584BC4F8C0314FF6FF73A4F8C4314FF4CC
:102930007F03C4F8CC314FF0FF33C4E97635524BF6
:10294000524AC4F89821C4E97834514BC4F8C851AC
:102950002A46C4E97A3529463046A4F8D051C4F84D
:10296000D451FFF75CFF30464FF4A071FFF766FDCE
:102970003046F021FFF764FD04F1040A4FF07F4375
:10298000A3663146504607F0B5FA2A46294648461E
:10299000FFF745FF032206A94846ADF818200AF0C4
:1029A000F0FE4946504607F0A5FA6C2140462E221B
:1029B000FFF735FF04F19802C4F8342104F1D10285
:1029C000C4F838214FF0010284F83C211522C4F8E4
:1029D0004021404684F898500BF003FA0522C4F8D1
:1029E000442140460BF0FDF92A4940460BF0DCF942
:1029F0004146504607F07EFA29465846BE22FFF768
:102A00000EFF0422ADF81420ADF8182005A906AA7F
:102A100058460AF0E9FD04F5F072C4F88C215946D5
:102A2000504607F067FA9D2238461B21FFF7F7FE54
:102A30006E464FF07F43C4F8C83139463046A4F89B
:102A4000CC510AF0CBFA96E8070004F5EA7383E864
:102A500007000C4B069306A93846ADF81C500AF047
:102A600065FD5046394607F045FA204609B0BDE8F5
:102A7000F08F00BF606302086875020844760208A0
:102A8000D07502083863020848630208D874020847
:102A900007280008B4620208704710B504210446F4
:102AA00020F05CFF204610BD012908B506D00229A0
:102AB00008D059B901F0C2FB006808BD01F0BEFBA7
:102AC0004068FAE701F0BAFB8068F6E70020F4E717
:102AD00000487047A06302080B20704713B500241C
:102AE00051B1036801948DF8034001AA9C680DF16F
:102AF0000303A04702B010BD0846FBE7C08970473A
:102B0000008A7047C088704780887047807A00F0DC
:102B10007F007047807AC00970470020704700002E
:102B20009FED010A704700BF00000000704770472A
:102B300000F598730868496803C370477047704789
:102B40004160704770470000064BC0F84C310023CD
:102B5000C0F8503100F5A273C0F84801C0F8403108
:102B6000704700BF3D310008012303727047704772
:102B70007047704770477047704710B4C26841682B
:102B80005410034601EB6200D20748BF0A599B6804
:102B90005DF8044B48BFD35818470346406830B12E
:102BA0009A681AB9D86800F0010070470120704790
:102BB00010B50C21044620F0D1FE204610BD10B502
:102BC0001421044620F0CAFE204610BD10B5102185
:102BD000044620F0C3FE204610BD10B54FF4AE7180
:102BE000044620F0BBFE204610BD10B5402104462F
:102BF00020F0B4FE204610BD10B54021044620F060
:102C0000ADFE204610BD10B50DF07EFC0368BDE89A
:102C10001040DB6B184710B50DF076FC0368BDE87B
:102C200010405B6B1847000013B50446807A637A46
:102C30000130C0B29842A07205D90123237200234B
:102C4000A37202B010BDB4F90C2000210FF03AFEBF
:102C5000C30706D500284FF6FF73C8BF01231844E9
:102C600000B2144AE08112880023ADF8023083B22A
:102C7000D21AADF80020228A20829B1AADF80430C7
:102C80000D4B1B88ADF806300DF03EFC036802AA20
:102C90001B6C12E906009847A37A012BD1D1074B90
:102CA0001B78002BCDD00DF02FFC02B0BDE81040FA
:102CB0000DF030BC402D0120422D01204A2D012075
:102CC000054B1B7801462BB1406818B103680C31E5
:102CD0005B6E1847704700BF4B2D0120054B1B78DA
:102CE00001462BB1406818B103680C315B6E184780
:102CF000704700BF4B2D0120037A70B50546BBB964
:102D000040680368DB69984704463CB96868036813
:102D100005F10C011B6EBDE870401847A1886B8F50
:102D2000C91A236820461B6B09B29847A469ECE7CF
:102D300070BD037A70B50546BBB940680368DB69AE
:102D4000984704463CB96868036805F10C011B6E9E
:102D5000BDE870401847E1886B8FC91A2368204688
:102D60005B6B09B29847A469ECE770BD10B50446E7
:102D7000D0F8400158B10368DB68984738B1D4F8FF
:102D8000400103689B6898470023C4F8403110BD98
:102D900070B5044690F8390094F838300130C0B26C
:102DA000984284F8390005D901232372002384F85E
:102DB000393070BDB4F93A2000210FF083FDC3070C
:102DC00006D500284FF6FF73C8BF0123184400B290
:102DD000638AC01AA08760680368DB699847054664
:102DE0002DB960680368BDE870405B691847E988E1
:102DF000A38F19442B6828465B6B09B29847AD69CD
:102E0000EEE770B5044690F8390094F83830013098
:102E1000C0B2984284F8390005D9012323720023F7
:102E200084F8393070BDB4F93A2000210FF04AFD22
:102E3000C30706D500284FF6FF73C8BF0123184407
:102E400000B2238AC01AA08760680368DB699847CC
:102E500005462DB960680368BDE870405B69184796
:102E6000A988A38F19442B6828461B6B09B2984781
:102E7000AD69EEE72DE9F14FD0E955BA0746DBF829
:102E8000080003681B6A9847B0F5887F05D2494B54
:102E9000494AA321494821F0A7FCDBF80400036854
:102EA0001B6A98470F2803D8454B434AA421F1E7F2
:102EB000DBF80C0003681B6A9847132803D8414BC2
:102EC0003D4AA521E6E70DF01FFBDFF80491043031
:102ED0000DF067FBD9F8000010B10368DB68984774
:102EE000D9F8000010B103681B689847DFF8E48048
:102EF000D8F8000010B103685B699847D7F83C0127
:102F000010B103685B689847D8F8000010B10368F7
:102F10001B689847D7F83C0110B103689B68984735
:102F2000DBF80C00036800215B6A9847264B0360BE
:102F30004FF4A0530381254B002686721B88466000
:102F40000446C68106828381DBF8080003683146A7
:102F50005B6A9847054601F08FFADBF804000368C6
:102F600031465B6A98472946064601F063FA331DED
:102F7000C7F83C61C9F80040C8F80050CAF80030F2
:102F80002B68C6F808A02846DB68EE6398473368CC
:102F900030461B689847214628460FF08DFC236871
:102FA00020461B69984723685B69204601B0BDE84D
:102FB000F04F18477C6402080A650208FE650208A3
:102FC00045660208E8660208D86C0208402D012018
:102FD000942D0120902D01202DE9F14FD0E955BA13
:102FE0000746DBF8080003681B6A9847B0F5F87FCE
:102FF00005D2494B494AA321494821F0F5FBDBF8AA
:10300000040003681B6A98470F2803D8454B434ABE
:10301000A421F1E7DBF80C0003681B6A984713282A
:1030200003D8414B3D4AA521E6E70DF06DFADFF8E4
:10303000049104300DF0B5FAD9F8000010B103681E
:10304000DB689847D9F8000010B103681B689847FF
:10305000DFF8E480D8F8000010B103685B69984796
:10306000D7F83C0110B103685B689847D8F80000B6
:1030700010B103681B689847D7F83C0110B103688A
:103080009B689847DBF80C00036800215B6A98474F
:10309000264B03604FF4A0530381254B0026867214
:1030A0001B8846600446C68106828381DBF80800DF
:1030B000036831465B6A9847054601F009F9DBF879
:1030C0000400036831465B6A98472946064601F0CA
:1030D000DDF8331DC7F83C61C9F80040C8F800505E
:1030E000CAF800302B68C6F808A02846DB68EE63F3
:1030F0009847336830461B689847214628460FF0AA
:10310000DBFB236820461B69984723685B692046E0
:1031100001B0BDE8F04F18477C6402088B670208D5
:10312000FE65020845660208E8660208D86C0208D7
:10313000402D0120942D0120902D01202DE9F14FEB
:10314000D0E9556A0746B06803681B6A9847DB28D0
:1031500005D8444B444AA321444821F045FB7068FC
:1031600003681B6A98470F2803D8414B3E4AA421A5
:10317000F2E7F06803681B6A98470B2803D83D4BB9
:10318000394AA521E8E70DF0BFF9DFF8F0900430E7
:103190000DF007FAD9F8000010B10368DB68984712
:1031A000D9F8000010B103681B689847DFF8D08099
:1031B000D8F8000010B103685B699847D7F83C0164
:1031C00010B103685B689847D8F8000010B1036835
:1031D0001B689847D7F83C0110B103689B68984773
:1031E000F068036800215B6A98474FF0000B224BA0
:1031F000C0F804B0044680F808B00360B068036803
:1032000059465B6A9847054601F0BAF8706803684A
:1032100059465B6A98472946064601F091F8331DE6
:10322000C7F83C61C9F80040C8F80050CAF800303F
:103230002B68C6F808A02846DB68EE639847336819
:1032400030461B689847214628460FF035FB236817
:1032500020461B69984723685B69204601B0BDE89A
:10326000F04F18477C64020879680208FE6502087E
:1032700045660208E8660208906C0208942D012059
:10328000902D01202DE9F0411D460368BDF918700D
:103290001B6B0446164698472368314620465B6BF5
:1032A00098472368294620469B6B984723683946F0
:1032B0002046DB6BBDE8F041184700002DE9F74FD1
:1032C000D0E9556A0746B06803681B6A9847B0F5AD
:1032D000A27F05D2544B554AA321554821F084FAC8
:1032E000706803681B6A98470F2803D8514B4F4AF0
:1032F000A421F2E7F06803681B6A98473F2803D8C7
:103300004D4B4A4AA521E8E70DF0FEF8DFF8389169
:1033100004300DF046F9D9F8000010B10368DB68FD
:103320009847D9F8000010B103681B689847DFF888
:103330001C81D8F8000010B103685B699847D7F882
:103340003C0110B103685B689847D8F8000010B1E1
:1033500003681B689847D7F83C0110B103689B6865
:103360009847F068036800215B6A98470546002289
:10337000324B4260027245F80C3B0446284609F085
:10338000D3FC142323872E4B1B780022A287002B0B
:1033900035D101232372B068036800215B6A984726
:1033A000054601F029F87068036800215B6A9847B8
:1033B0002946064600F0FEFF331DC7F83C61C9F8F8
:1033C0000040C8F80050CAF800302B68C6F808A0C2
:1033D0002846DB68EE639847336830461B68984799
:1033E000214628460FF068FA236820461B69984753
:1033F00023685B69204603B0BDE8F04F1847DFF84B
:1034000050B0BBF9003000930E4B1146B3F90030B9
:103410002846FFF737FF284609F001FCBBF80030CB
:103420005B426387B7E700BF7C6402085369020808
:10343000FE65020845660208E8660208FC6C0208A0
:103440004B2D0120402D0120942D0120902D012095
:10345000422D0120044B1B6893F858200AB1D86C08
:1034600000B99868704700BF4C2D0120F8B5174689
:1034700004460E460DF032F9124B1C60124B2360CD
:10348000124B0025C4E95135114BC4E95355186856
:10349000036829469B68C4E94F55C4E955769847A7
:1034A000284600F07FFEFFF7D5FF17F012FAFFF76E
:1034B000D1FF17F089FAFFF7CDFF17F091FA2046F8
:1034C000F8BD00BFA02D01203C6C0208246C02084E
:1034D0004C2D0120064BC0F84C310023C0F8503170
:1034E00000F5A273C0F84801C0F84031704700BF32
:1034F0003D310008064BC0F84C310023C0F8503174
:1035000000F5A273C0F84801C0F84031704700BF11
:1035100039370008064BC0F84C310023C0F8503151
:1035200000F5A273C0F84801C0F84031704700BFF1
:10353000BD320008064BC0F84C310023C0F85031B2
:1035400000F5A273C0F84801C0F84031704700BFD1
:10355000FD350008064BC0F84C310023C0F850314F
:1035600000F5A273C0F84801C0F84031704700BFB1
:10357000D92F0008064BC0F84C310023C0F8503159
:1035800000F5A273C0F84801C0F84031704700BF91
:10359000752E0008F7B505460026144B46600672E6
:1035A00045F80C3B044628460F4609F0BDFB104B7E
:1035B00084F838701B7884F83960A68723B9012312
:1035C0002372204603B0F0BD0A4B0B4FB3F9003015
:1035D0000093B7F90030324631462846FFF752FED5
:1035E000284609F01CFB3B886387EAE7B46C0208B5
:1035F0004B2D0120422D0120402D01202DE9F047C7
:10360000D0E9556A0746B06803681B6A9847B0F569
:10361000A27F05D2414B424AA321424821F0E4F85F
:10362000706803681B6A98470F2803D83E4B3C4AD2
:10363000A421F2E7F06803681B6A98473F2803D883
:103640003A4B374AA521E8E70CF05EFFDFF8E0903F
:1036500004300CF0A6FFD9F8000010B10368DB6855
:103660009847D9F8000010B103681B689847DFF845
:10367000C480D8F8000010B103685B699847D7F898
:103680003C0110B103685B689847D8F8000010B19E
:1036900003681B689847D7F83C0110B103689B6822
:1036A0009847F068036800215B6A98471421044634
:1036B000FFF770FFB068036800215B6A9847054612
:1036C00000F09AFE7068036800215B6A98472946FB
:1036D000064600F06FFE331DC7F83C61C9F8004094
:1036E000C8F80050CAF800302B68C6F808A0284671
:1036F000DB68EE639847336830461B68984721467D
:1037000028460FF0D9F8236820461B69984723689C
:1037100020465B69BDE8F047184700BF7C6402089B
:10372000416A0208FE65020845660208E86602086A
:10373000942D0120902D01202DE9F047D0E9556A04
:103740000746B06803681B6A9847DB2805D8414BD9
:10375000414AA321414821F047F8706803681B6A79
:1037600098470F2803D83E4B3B4AA421F2E7F06864
:1037700003681B6A98473F2803D83A4B364AA5216D
:10378000E8E70CF0C1FEDFF8E09004300CF009FF30
:10379000D9F8000010B10368DB689847D9F8000039
:1037A00010B103681B689847DFF8C080D8F80000A4
:1037B00010B103685B699847D7F83C0110B1036802
:1037C0005B689847D8F8000010B103681B689847F9
:1037D000D7F83C0110B103689B689847F06803680C
:1037E00000215B6A984714210446FFF7D3FEB068B6
:1037F000036800215B6A9847054600F0C1FD7068C8
:10380000036800215B6A98472946064600F098FD48
:10381000331DC7F83C61C9F80040C8F80050CAF829
:1038200000302B68C6F808A02846DB68EE6398478E
:10383000336830461B689847214628460FF03CF80D
:10384000236820461B699847236820465B69BDE8CA
:10385000F04718477C6402082E6B0208FE650208D8
:1038600045660208E8660208942D0120902D01208B
:10387000406A7047806A704770478A880B8810B525
:10388000D20A4C88C1699BB251F8220043EA044332
:10389000184410BD10B50446BAB1107B68B1537B13
:1038A000D27A1B0203F4E0631A43236A03EB820318
:1038B0001A888A4202D193F9020010BD05D8013856
:1038C00080B204330028F3D1F7E70020F5E710B504
:1038D0002C21044620F042F8204610BD30B58BB0B4
:1038E0000446BDF860500895BDF85C5007959DF8FA
:1038F000505006959DF84C5005959DF848500495FC
:103900009DF8445003959DF8405002959DF83C5019
:103910000195BDF8385000950EF028FC064B236049
:10392000159BE361169B2362199B63621A9BA3623A
:1039300020460BB030BD00BF206D020870477047B5
:10394000704730B4C26844685510034604EB620007
:10395000D20748BF62599B6830BC48BFD35818474C
:103960000346406830B19A681AB9D86800F001007F
:1039700070470120704710B5102104461FF0EEFF7C
:10398000204610BD10B5DC2104461FF0E7FF20469D
:1039900010BD9830884208B505D10CF0B5FDBDE8E2
:1039A0000840FFF7B7BD08BD08B529B90CF0ACFD5C
:1039B000BDE80840FFF7AEBD08BD00002DE9F347A4
:1039C0000446264600250EF0CBFD494BE56346F83C
:1039D000403B4FF0260A52462946304621F02AFA4B
:1039E0003046FEF729FF04F16C07424B23644FF089
:1039F000FF084FF6FF795246294684F86680A5668F
:103A00003846ADF8049021F015FA3846FEF714FF59
:103A1000394BE366BDF80430A4F8923084F8948002
:103A200001A904F19808384609F0ABFE5246294630
:103A3000404621F0FFF94046FEF7FEFE012384F8E0
:103A4000BC302E4BC4F898302D4BA4F8C690C4E976
:103A500033342C4BA4F8C8902A46C4E9353584F891
:103A6000CA9029463046C4F8C05084F8C450FEF7C6
:103A7000D6FE30464FF4A071FEF7E0FC3046F02150
:103A8000FEF7DEFC04F104094FF07F43A3663146E4
:103A9000484606F02FFA2A4629463846FEF7BFFE6A
:103AA000022301A93846ADF8043009F06AFE394610
:103AB000484606F01FFA4046BB225A21FEF7AFFEE9
:103AC0000823ADF8003001AA072369464046ADF847
:103AD000043009F089FD04F1CC034846C4F8C03035
:103AE000414606F007FA204602B0BDE8F08700BF65
:103AF000A06D02086875020844760208D0750208B5
:103B0000886D02089339000870477047704730B4D9
:103B1000C26844685510034604EB6200D20748BFF0
:103B200062599B6830BC48BFD35818470346406869
:103B300030B19A681AB9D86800F0010070470120C6
:103B4000704710B5102104461FF008FF204610BD35
:103B500010B54FF4A27104461FF000FF204610BDBF
:103B600038B500F19803994204460D4603D10CF094
:103B7000CBFCFFF7BFFC04F580739D4203D10CF032
:103B8000C3FCFFF7E7FCCC34A54205D10CF0BCFC2C
:103B9000BDE83840FFF7EEBC38BD022908B505D1B5
:103BA0000CF0B2FCBDE80840FFF7A4BC012907D126
:103BB000C82380F8FE30BDE80840CC300DF07EBE52
:103BC00008BD000010B526220446002121F032F97C
:103BD0002046FEF731FE0023A36284F82C30012337
:103BE00084F82430044B23604FF6FF7384F832309E
:103BF000E3852386204610BDD07502082DE9F74FD6
:103C00000446264600250EF0ABFC5A4BE56346F809
:103C1000403B4FF026094A462946304621F00AF932
:103C20003046FEF709FE04F16C074FF0FF08524BD7
:103C300023644A464FF6FF73294684F86680A566DA
:103C40003846ADF8043021F0F5F83846FEF7F4FDBB
:103C50004A4BE366BDF80430A4F8923001A904F1A0
:103C6000980B84F89480384609F08BFD04F1CC0A57
:103C70005846FFF7A7FF04F580795046FFF7A2FFEB
:103C80004846FFF79FFF3E4BC4E94D343D4B2A4663
:103C9000C4E94F3529463046FEF7C1FD30464FF4A2
:103CA000A071FEF7CBFB3046F021FEF7C9FB04F113
:103CB00004084FF07F43A3663146404606F01AF9E8
:103CC0002A4629463846FEF7AAFD022301A93846AE
:103CD000ADF8043009F055FDC82384F89430394616
:103CE000404606F007F929465846BE22FEF797FDE2
:103CF00004230DEB030204F59A7669465846ADF8A5
:103D00000030ADF8043009F06FFC59464046C4F865
:103D1000C06006F0EFF8504641221921FEF77FFD02
:103D2000062301AAADF80030694605235046ADF8D8
:103D3000043009F059FC51464046C4F8F46006F0DE
:103D4000D9F8484641228721FEF769FD012301AADF
:103D500069464846ADF80030ADF8045009F044FC1F
:103D60004046C4F82861494606F0C4F8204603B02E
:103D7000BDE8F08FEC6D0208687502084476020811
:103D8000D46D0208613B000870477047704730B43B
:103D9000C26844685510034604EB6200D20748BF6E
:103DA00062599B6830BC48BFD358184703464068E7
:103DB00030B19A681AB9D86800F001007047012044
:103DC000704710B5102104461FF0C8FD204610BDF5
:103DD00010B54FF4887104461FF0C0FD204610BD99
:103DE0009830884208B505D10CF08EFBBDE808403C
:103DF000FFF7A0BB08BD00002DE9F34704462646A7
:103E000000250EF0ADFB4C4BE56346F8403B4FF010
:103E100026094A462946304621F00CF83046FEF77E
:103E20000BFD04F16C074FF0FF08444B23644A4636
:103E30004FF6FF73294684F86680A5663846ADF8CC
:103E4000043020F0F7FF3846FEF7F6FC3C4BE36603
:103E5000BDF80430A4F8923001A904F1980A84F85E
:103E60009480384609F08DFC04F1CC095046FFF7E8
:103E7000A9FE4846FFF7A6FE324BC4E94034324B58
:103E80002A46C4E9423529463046FEF7C8FC30468A
:103E90004FF4A071FEF7D2FA3046F021FEF7D0FAC7
:103EA00004F104084FF07F43A3663146404606F014
:103EB00021F82A4629463846FEF7B1FC022301A91B
:103EC0003846ADF8043009F05CFCC82384F894301F
:103ED0003946404606F00EF829465046BE22FEF707
:103EE0009EFC04230DEB030269465046ADF80030FA
:103EF000ADF8043009F078FB04F58073C4F8C030E5
:103F00005146404605F0F6FF48462D225A21FEF75D
:103F100086FC0A23ADF8003001AA09236946484609
:103F2000ADF8043009F060FB4046494605F0E2FF79
:103F3000204602B0BDE8F087386E020868750208B6
:103F400044760208206E0208E13D00087047000038
:103F500030B5164D2C68BFF35B8F14F001048FB0A1
:103F600020D128461FF0FCFCE0B13F230993104B01
:103F70000893104B104911480A940122CDE90643D9
:103F80000423CDE903320A230093CDE90B44CDE9A4
:103F900001440594FFF7A2FC094820F043FC2846A1
:103FA0001FF0EAFC05480FB030BD00BF381F0020ED
:103FB0003887020844870208448602083C1F002014
:103FC0004D3F00087047000030B5174D2C68BFF317
:103FD0005B8F14F001048FB022D128461FF0C0FC83
:103FE000F0B13F230993114B0893114B114912482B
:103FF0000A94CDE906430123CDE904330423CDE936
:104000000243142300930F221823CDE90B4401949B
:10401000FFF764FC094820F005FC28461FF0ACFCC3
:1040200005480FB030BD00BF681F00203C87020864
:1040300048870208548602086C1F0020C53F00080C
:104040007047000030B5164D2C68BFF35B8F14F03D
:1040500001048FB020D128461FF082FCE0B13F233D
:104060000993104B0893104B104911480A940122F0
:10407000CDE906430423CDE9033228230093CDE99B
:104080000B44CDE901440594FFF728FC094820F0D2
:10409000C9FB28461FF070FC05480FB030BD00BFBB
:1040A000981F0020408702084C87020828870208D2
:1040B0009C1F0020414000080020704700207047EE
:1040C0000EB403B503AB002153F8042B01930DF09C
:1040D000CBFA02B05DF804EB03B070470CB407B53F
:1040E00004AB53F8042B01930DF0BEFA03B05DF856
:1040F00004EB02B070470000436C10B5044673B384
:10410000038F2BB9184B194AC521194820F06CFBB5
:10411000C38E00EB43035B8C0BB30FF058F9238F76
:10412000012B03D8134B144ACB21EEE7E28E531C2C
:104130009BB2092B194688BFA3F10A0104EB410188
:1041400040F63F10498C814209D10A2B04EB420210
:1041500028BF002304EB4303508C5884518420462D
:10416000BDE810400FF036B8646E02086D6E0208AC
:10417000186F0208626F0208706F02080EF0F1BF3C
:1041800010B586B002AC84E806001A460AAB059367
:104190000193099B00932146089B0BF053FD06B049
:1041A00010BD000038B518BB124B13481C681349EA
:1041B000B4B1226822440260626822440A60A268A4
:1041C00014440F4B00221A8000F038F8054600F026
:1041D00033F80C4B1C600C4B1D600C4B188007E037
:1041E0000B4B03600B4B0B600B4B1C68002CE8D196
:1041F00038BD00BFD41F0020CC1F0020C81F0020E6
:10420000D01F0020A42D0120AC2D0120A82D0120BD
:10421000548702085087020888870208044B1B68ED
:1042200053F82100034B1B6803EB4000704700BFAD
:10423000C81F0020CC1F0020012070470048704795
:10424000D81F002010B5FFF7BFFE044C2060FFF719
:10425000F9FE6060FFF77CFEA06010BDD81F002053
:1042600010B5002404600C6014601C6010BD704721
:1042700004387047704710B5102104461FF06EFBDC
:10428000204610BDA0F10400F5E700000022826086
:10429000024A026018324260C16070474C700208E6
:1042A0007047000010B5034B03600446FEF778FA30
:1042B000204610BD7470020810B50446FFF7F2FFE7
:1042C00020464FF4F8711FF049FB204610BD000056
:1042D00010B50446FEF7C2FA014B2360204610BD1C
:1042E00074700208FEF75DBA704710B54FF4AE71F6
:1042F00004461FF033FB204610BD10B50446D0F82D
:10430000580100F088F82046BDE810400CF0A6B92E
:1043100010B50446FFF7AAF8014B2360204610BDF4
:10432000A8700208704704387047704710B5102114
:1043300004461FF013FB204610BDA0F10400F5E772
:1043400000228260024A026018324260C1607047F7
:10435000FC7002087047000010B5034B0360044670
:10436000FFF7ECFA204610BD2471020810B5044690
:10437000FFF7F2FF2046DC211FF0F0FA204610BDC7
:1043800010B50446FFF71AFB014B2360204610BD11
:1043900024710208FFF7D3BA70470438704770479A
:1043A00010B5102104461FF0D9FA204610BDA0F127
:1043B0000400F5E700228260024A0260183242607F
:1043C000C1607047587102087047000010B5034B78
:1043D00003600446FFF798FB204610BD8071020879
:1043E00010B50446FFF7F2FF20464FF4A2711FF00C
:1043F000B5FA204610BD000010B50446FFF7FEFBDD
:10440000014B2360204610BD80710208FFF77DBB81
:104410000022026070477047704704387047704749
:1044200010B5102104461FF099FA204610BDA0F1E6
:104430000400F5E700228260024A026018324260FE
:10444000C1607047B47102087047000010B5034B9B
:1044500003600446FFF798FC204610BDDC7102089B
:1044600010B50446FFF7F2FF20464FF488711FF0A5
:1044700075FA204610BD000010B50446FFF7BCFCDD
:10448000014B2360204610BDDC710208FFF77DBCA4
:10449000F02070474FF4A07070472920FCF7E4BC6F
:1044A0002820FCF7E1BC08B5FCF7B2FCCA20FCF7F9
:1044B000DBFCC320FCF7BCFC0820FCF7B9FC502057
:1044C000FCF7B6FCCF20FCF7CFFC0020FCF7B0FCDB
:1044D000C120FCF7ADFC3020FCF7AAFCED20FCF776
:1044E000C3FC6420FCF7A4FC0320FCF7A1FC122011
:1044F000FCF79EFC8120FCF79BFCE820FCF7B4FC59
:104500008520FCF795FC0020FCF792FC7820FCF756
:104510008FFCCB20FCF7A8FC3920FCF789FC2C2071
:10452000FCF786FC0020FCF783FC3420FCF780FCC1
:104530000220FCF77DFCF720FCF796FC2020FCF71E
:1045400077FCEA20FCF790FC0020FCF771FC0020CF
:10455000FCF76EFCB120FCF787FC0020FCF768FC40
:104560001B20FCF765FCB620FCF77EFC0A20FCF75C
:104570005FFCA220FCF75CFCC020FCF775FC10205F
:10458000FCF756FCC120FCF76FFC1020FCF750FC38
:10459000C520FCF769FC4520FCF74AFC1520FCF718
:1045A00047FCC720FCF760FC9020FCF741FC36205C
:1045B000FCF75AFCC820FCF73BFCF220FCF754FC4B
:1045C0000020FCF735FCB020FCF74EFCC220FCF7C5
:1045D0002FFCB620FCF748FC0A20FCF729FCA7209A
:1045E000FCF726FC2720FCF723FC0420FCF720FC2A
:1045F0002A20FCF739FC0020FCF71AFC0020FCF70D
:1046000017FC0020FCF714FCEF20FCF711FC2B201A
:10461000FCF72AFC0020FCF70BFC0020FCF708FC50
:104620000120FCF705FC3F20FCF702FCF620FCF71C
:104630001BFC0120FCF7FCFB0020FCF7F9FB06202B
:10464000FCF7F6FB2C20FCF70FFCC820FCF75AFC0B
:104650002620FCF709FC0120FCF7EAFBE020FCF730
:1046600003FC0F20FCF7E4FB2920FCF7E1FB2420EE
:10467000FCF7DEFB0C20FCF7DBFB0E20FCF7D8FB85
:104680000920FCF7D5FB4E20FCF7D2FB7820FCF785
:10469000CFFB3C20FCF7CCFB0920FCF7C9FB132027
:1046A000FCF7C6FB0520FCF7C3FB1720FCF7C0FB9B
:1046B0001120FCF7BDFB0020FCF7BAFBE120FCF762
:1046C000D3FB0020FCF7B4FB1620FCF7B1FB1B204A
:1046D000FCF7AEFB0420FCF7ABFB1120FCF7A8FBBA
:1046E0000720FCF7A5FB3120FCF7A2FB3320FCF7E9
:1046F0009FFB4220FCF79CFB0520FCF799FB0C205C
:10470000FCF796FB0A20FCF793FB2820FCF790FBB4
:104710002F20FCF78DFB0F20FCF78AFB1120FCF704
:10472000A3FBC820FCF7EEFB2920FCF79DFBBDE8AE
:1047300008402C20FCF798BB08B5FCF769FB032167
:10474000D320FCF7ADFB80B208BD10B5C4B2022285
:1047500003212046FCF712FB0A20FCF757FB2046FA
:1047600000220321FCF70AFBBDE810400220FCF701
:104770004DBB38B50446E4B2FCF7FEFA00212046F2
:10478000FCF714FB012105462046FCF70FFB40EA2D
:10479000052080B238BD10B5C4B240212046FCF7D8
:1047A00005FB030607D54C212046FCF7FFFA00382D
:1047B00018BF012010BD01224B212046FCF7DEFA74
:1047C000204600224B21FCF7D9FA0020F2E773B50E
:1047D0000423C4B20E461546D7210DEB0302204632
:1047E000FCF7FEFA019B1BBA1A0DC3F30B233280B0
:1047F00020462B8001224B21FCF7C0FA00224B21DE
:104800002046FCF7BBFA02B070BD000010B50A4AA2
:104810001378984204460DD0517888420AD00BB1E3
:1048200041B90123D454FCF7A7FA2046BDE8104053
:10483000FFF78BBF10BD00BFE41F002010B5C4B24E
:1048400009212046FCF7B2FA40F00102D2B220461C
:104850000921BDE81040FCF791BA10B5C4B2092196
:104860002046FCF7A3FA092100F0FE022046BDE82D
:104870001040FCF783BA38B5C4B20D4620460A2171
:10488000FCF794FA40EA0502D2B220460A21BDE8BC
:104890003840FCF773BA10B50446FCF76EFA2046B0
:1048A0001F21FFF7E8FF2046BDE81040FFF7C6BF15
:1048B00038B5C4B20D4620460A21FCF777FA20EA43
:1048C0000502D2B220460A21BDE83840FCF756BAAC
:1048D00010B50446FFF7C1FF20461F21BDE8104078
:1048E000FFF7E6BF10B5C0B20C460B21FCF75EFA2D
:1048F000204010BD1F21FFF7F5BF0A46C0B20B21B3
:10490000FCF73CBA1F21FFF7F8BF38B5C4B20D461B
:1049100020461721FCF74AFA20EA0502D2B22046C7
:104920001721BDE83840FCF729BA70B5C4B2064675
:1049300004212046FCF73AFA042100F0FB02054668
:104940002046FCF71BFA3046F021FFF7DEFF05F0AA
:10495000F80220460421FCF711FA492220212046C2
:10496000FCF70CFA0220FCF751FA20460122212123
:10497000FCF704FA20469A224121FCF7FFF9204671
:1049800001224A21FCF7FAF9204601224B21FCF7CB
:10499000F5F9204600224B21FCF7F0F920460122D0
:1049A0005621FCF7EBF9204601225821FCF7E6F9E5
:1049B000204601224021FCF7E1F92046FF220B218D
:1049C000FCF7DCF9BDE870400220FCF71FBA0000DC
:1049D000054BD3F8882042F47002C3F888204FF0CA
:1049E00000629A60704700BF00ED00E008B50B4B15
:1049F0001A6842F400721A601A6842F480621A60FF
:104A00001A6842F480721A60032000F02FF8002028
:104A1000FCF7A2FDFCF784FA002008BD003C024030
:104A2000034A044B11681B780B441360704700BFA6
:104A3000E81F00208C000020014B1868704700BF61
:104A4000E81F002038B50446FFF7F6FF631C1CBFC3
:104A5000054B1B78054618BFE418FFF7EDFF431B15
:104A6000A342FAD338BD00BF8C0000200749CA68B2
:104A700022F4E0620302120403F4E063120C134315
:104A800043F0BF6343F40033CB60704700ED00E0B8
:104A9000164B30B5DC68C4F30224C4F10703251DAE
:104AA000042B28BF0423062D4FF0FF358CBF033C99
:104AB000002405FA03F321EA0303A54022EA0502D4
:104AC000A340002843EA0203ACBF00F16040084A5B
:104AD0004FEA0313B8BF00F00F00DBB2AABF00F526
:104AE0006140135480F8003330BD00BF00ED00E09A
:104AF00014ED00E0002807DB044A4109012300F01F
:104B00001F00834042F82130704700BF00E100E001
:104B100010B5044650B1437903F0FF0213B9027196
:104B2000FCF71EFA01236371002010BD0120FCE791
:104B3000036810B5084C0246D9B210391820B1FBF1
:104B4000F0F0205CD06523F47F7020F003005F2933
:104B500088BF0430906510BD2072020870B504460D
:104B6000FFF76AFF0546002C60D0022384F8353039
:104B70002268002384F83430136823F001031360A3
:104B800022681368D8072ED413683248A1691840E8
:104B9000D4E901352B43E5682B4325692B4365692F
:104BA0002B43E5690B432B43256A2B430343606A80
:104BB000042802BFD4E90B5635432B4313605369D5
:104BC000042823F0070343EA000335D1A06AE56A0D
:104BD00003438DB391B9012820D030F002012BD1CD
:104BE000E90129D51DE0FFF727FF401B0528C7D99C
:104BF00020230320636584F8350070BDB1F5005FA4
:104C000016D1032818D801A151F820F0234C000830
:104C1000E14B0008234C00081D4C0008B5F1C07F93
:104C20000AD140236365012384F835300120E4E78D
:104C30000228F6D90328D3D053612046FFF778FF26
:104C4000E26D3F239340836000200123606584F878
:104C50003530D2E73F8010F070B590F83440866D63
:104C6000012C30D0012480F8344090F83540012CDC
:104C70004FF0000425D1022580F8355044650468C2
:104C8000256825F48025256063608368402B0EBF6E
:104C9000A260A160E260C26D08BFE1603F23934063
:104CA000B360236843F016032360036C1BB12368D1
:104CB00043F008032360236843F0010323600020CE
:104CC00070BD80F834400220FAE790F83530022BAE
:104CD00003D080234365012070470268052380F8D4
:104CE0003530136823F00103136000207047000083
:104CF000F7B5002301935C4B856D1F68C36D2E686B
:104D000008229A40324204460CD0016808684007E5
:104D100008D5086820F004000860AA60626D42F0BF
:104D20000102626501229A40324208D02168496935
:104D3000090641BFAA60626D42F002026265042268
:104D40009A40324208D021680968880741BFAA60AA
:104D5000626D42F00402626510229A40324210D025
:104D60002368196809070CD5AA601A68500337D55B
:104D70001B68190301D4236C00E0A36C0BB120461F
:104D80009847E16D20228A4032423AD02368186861
:104D9000C60636D5AA6094F83520052A1A6827D1A8
:104DA00022F016021A605A6922F080025A61226CBF
:104DB0000AB9A26C1AB11A6822F008021A603F23DD
:104DC0008B40AB60012384F83530002384F8343005
:104DD000236D002B45D0204603B0BDE8F0401847B6
:104DE0001A68D2055EBF1A6822F008021A60C2E78C
:104DF000500327D51B68190331D4636C0BB12046CF
:104E00009847636D6BB3636DDA0719D522684FF469
:104E10001653B7FBF3F7052384F83530136823F0F6
:104E200001031360019B0133BB42019302D8136855
:104E3000DB07F7D4012384F83530002384F83430BD
:104E4000E36CC6E71A6812F4807208D1196821F081
:104E500010011960012384F8353084F83420E36BA5
:104E6000CCE703B0F0BD00BF8800002010B50446B9
:104E700030B390F8393003F0FF021BB980F83820C6
:104E8000FCF786F822686168022384F839301368D9
:104E900023F440330B431360536BA16823F00703E3
:104EA0000B435363136CE16823F47F5323F03F03F8
:104EB0000B43136400200123E06384F8393010BDF4
:104EC0000120FCE770477047036870B55E681D6895
:104ED000F207044614D5E90512D51A6822F4807247
:104EE0001A60C26B42F00102C26301229A6004237D
:104EF00080F83930002380F83830436903B198478F
:104F0000B20616D5AB0414D523681A6822F40052F1
:104F10001A6020229A60E36B43F00203E3630423E8
:104F200084F83930002384F8383063690BB12046A7
:104F30009847300716D5290514D523681A6822F436
:104F400000621A6008229A60E36B43F00403E36393
:104F5000042384F83930002384F8383063690BB1B6
:104F60002046984772070BD56B0509D523681A6848
:104F700022F480621A6004229A602046FFF7A2FFA2
:104F8000B00714D5A90512D523681A6822F4007257
:104F90001A6002229A60E36BE363012384F83930DC
:104FA000002384F8383023690BB120469847F20675
:104FB00013D5EB0411D523681A6822F480521A60C5
:104FC00010229A60E36BE363012384F839300023F5
:104FD00084F838302046FFF776FF70BDF0B590F8C2
:104FE0003820012A03464FF002002BD0012283F81B
:104FF000382083F8390003EB0112D2E90740556AE3
:10500000174F44EA0040093C012C9CBF05F07F4249
:1050100010434FEA01161A6888BF40EA056091B94B
:10502000516A394001435162012C9969916103D859
:10503000596A21F07F4191620122002083F83920D2
:1050400083F83800F0BDD16939400143D161991925
:10505000012C896911619CBF25F07F451562EBE742
:10506000F0FFFC002DE9F74FDFF8BC916C4A0023FC
:105070000D6801249C4004EA0506AC4340F0B7806B
:105080004D68032705F003044FEA430807FA08FCBC
:10509000671E012F6FEA0C0C34D8876807EA0C0EE4
:1050A000CF6807FA08F747EA0E078760476827EADC
:1050B000060EC5F300179F4047EA0E074760C76812
:1050C00007EA0C0E8F6807FA08F747EA0E07022C6A
:1050D000C76019D14FEAD30A00EB8A0A03F0070B25
:1050E000DAF820704FEA8B0B4FF00F0E0EFA0BFE22
:1050F00027EA0E0E0F6907FA0BF747EA0E07CAF800
:10510000207001E0032CDAD1076804FA08F407EAFA
:105110000C073C4315F4403F046068D00024019420
:10512000D9F8444044F48044C9F84440D9F8444094
:1051300023F0030707F1804704F4804407F59C3708
:10514000019403F0030C019CD7F808E04FEA8C0CA3
:105150000F2404FA0CF42EEA040E324CA0424DD077
:1051600004F58064A0424BD004F58064A04249D08D
:1051700004F58064A04247D004F58064A04245D085
:1051800004F58064A04243D004F58064A04241D07D
:1051900004F58064A0423FD004F58064A0423DD075
:1051A00004F58064A04214BF0A24092404FA0CF414
:1051B00044EA0E04BC609468F74315F4801F0CBFEA
:1051C0003C4034439460D46815F4001F0CBF3C404D
:1051D0003443D460546815F4003F0CBF3C40344362
:1051E00054601468ED0354BF3C40344314600133F1
:1051F000102B7FF43DAF03B0BDE8F08F0024D5E75E
:105200000124D3E70224D1E70324CFE70424CDE728
:105210000524CBE70624C9E70724C7E70824C5E728
:10522000003C01400000024000380240036919427E
:1052300014BF0120002070470AB181617047090442
:10524000FBE7436901EA030221EA030141EA024163
:1052500081617047044A5169014208B502D050612A
:10526000FBF7BCFA08BD00BF003C014001684B6978
:1052700013F480634FF0000210D06FF480634B6131
:105280002023026380F83D3080F83E20036C80F8D4
:105290003C2043F004030364012070471846704724
:1052A0002DE9F84606460F4691461D464FEA114A3B
:1052B0003368BAF1010F0CBF5C699C6927EA0404EA
:1052C000A4B2B4FA84F46409A14501D0002025E019
:1052D0006A1CEED0FFF7B0FB089BC01AA84201D8A9
:1052E000002DE5D13368BAF1010F0CBF5B699B69F2
:1052F00027EA03039BB2B3FA83F35B099945D7D13D
:1053000000232022336386F83D2086F83E30326C3D
:1053100086F83C3042F0200232640120BDE8F88675
:105320002DE9F04104460F461646984625686869FF
:1053300027EA000080B2C0B16B695A0517D52B6807
:1053400043F400732B606FF480636B6120220023B1
:10535000236384F83D2084F83E30236C43F004033B
:105360002364002384F83C300120BDE8F081731CE5
:10537000DDD0FFF761FBA0EB0800B04201D8002EA2
:10538000D4D123685A6927EA020292B2002ACDD00A
:1053900000232022236384F83D2084F83E30236CD0
:1053A0001343DDE770B504460D46164623685B6976
:1053B0001B0601D500201EE02046FFF757FFC8B9A5
:1053C0006A1CF3D0FFF738FB801BA84201D8002DE0
:1053D000ECD123685B6913F08003E7D120222363BB
:1053E00084F83D2084F83E30226C84F83C3042F052
:1053F00020022264012070BD2DE9F04315460268A9
:1054000085B0DDE90C789946136843F48073136026
:105410000E463B46CDF8008000224FF001110446B5
:10542000FFF73EFF236838B11B68DB0502D54FF458
:1054300000732364032620E006F0FE061E611A496D
:1054400043463A462046FFF76BFFA8B9236803900E
:105450005A6903929B690393424639462046039B4F
:10546000FFF7A0FF064660B1236C042B01BF226842
:10547000136843F4007313600126304605B0BDE89D
:10548000F083B9F1010F236802D1EDB21D61F4E799
:105490002A0A1A61394642462046FFF783FF002850
:1054A000E2D12368F1E700BF020001002DE9FF47C8
:1054B0009A46036815461A6842F480621A601A68B0
:1054C000DDE90C7842F480721A600E463B46CDF856
:1054D000008000224FF001110446FFF7E1FE23682F
:1054E00038B11B68DB0544BF4FF40073236403200D
:1054F00021E05FFA86F906F0FE061E612B4943465D
:105500003A462046FFF70CFFA0B9236803905A697A
:1055100003929B690393424639462046039BFFF75B
:1055200041FF58B1236C042B01BF2268136843F478
:1055300000731360012004B0BDE8F087BAF1010FD9
:1055400023681AD1EDB242461D6139462046FFF765
:1055500029FF02460028E5D121680B6843F48073D7
:105560000B602046CDF800803B464FF00111FFF75D
:1055700097FE226860B11368B4E72A0A1A613946B7
:1055800042462046FFF70EFF0028CBD12368D9E71B
:1055900049F001031361054943463A462046FFF7A7
:1055A000BFFE003818BF0120C5E700BF02000100A0
:1055B00070B504460D46164623685B695B0701D546
:1055C00000201EE02046FFF751FEC8B96A1CF3D048
:1055D000FFF732FA801BA84201D8002DECD12368D6
:1055E0005B6913F00403E7D12022236384F83D2094
:1055F00084F83E30226C84F83C3042F02002226471
:10560000012070BD70B504460D46164621684B69F1
:1056100013F0400301D0002011E04A69D2060FD5F3
:105620006FF010024A612022236384F83D2084F841
:105630003E30236C2364002384F83C30012070BD8D
:10564000FFF7FAF9801BA84201D8002DDED12368AC
:105650005B6913F04003D9D12022236384F83D20F5
:1056600084F83E30236C1343E4E7000070B5044631
:1056700008B9012070BD90F83D3003F0FF021BB95E
:1056800080F83C20FBF7A6FC242384F83D302368F7
:105690001A6822F001021A601A6842F400421A6085
:1056A0001A6822F400421A6000F0B2FE3F4B6568AF
:1056B0009D4294BF3E4B3F4B98428CBF0023012339
:1056C000002BD6D12268394E51683B4BB0FBF3F327
:1056D00021F03F011943B542516088BF4FF49676DF
:1056E000116A88BF734321F03F0184BF4FF47A767B
:1056F000B3FBF6F301330B431362D169431E2B480E
:1057000021F44F41854221F0FF0132D86D0040F66F
:10571000FC70B3FBF5F30133034242D0C3F30B0338
:105720001943D161D4E907301168034321F0C00166
:105730000B4313609168D4E9030321F4034103434D
:1057400021F0FF010B439360D4E90530D168034396
:1057500021F0FF010B43D360136843F00103136092
:1057600000202023206484F83D30206384F83E002C
:1057700080E7A06850B905EB4505B3FBF5F30133AD
:10578000C3F30B037BB143F40043C9E7192068431B
:10579000B3FBF0F30133C3F30B0323B143F44043F2
:1057A000BEE70423BCE70123BAE700BFA0860100DF
:1057B0007F841E00FF083D0040420F002DE9F743A3
:1057C000044699460C9E0F469046FFF735F994F82B
:1057D0003D30202B054603D0022003B0BDE8F08306
:1057E00000903C49192301222046FFF759FD00286B
:1057F000F2D194F83C30012BEED02068012384F8DC
:105800003C300368D9075EBF036843F001030360BF
:10581000036823F400630360212384F83D304023B0
:1058200084F83E30002323640A9B6362BDF82C3069
:105830006385638D2385284BE3624246CDE900658D
:105840004B4639462046FFF7D7FD00282AD00120D5
:10585000C3E7FFF7A7FD40B1236C042B01BF22680B
:10586000136843F400731360F1E7636A27681A460C
:1058700012F8011B39616262628D218D013A92B288
:1058800062857A69481E80B2520720850AD548B1E0
:105890005A783A6102336362638D013B02399BB2ED
:1058A00021856385238D2A4631462046002BD0D1A1
:1058B000FFF77EFE0028CFD12268136843F40073FF
:1058C0001360202384F83D3084F83C0084F83E00C7
:1058D00083E700BF020010000000FFFF2DE9F04346
:1058E000044687B09946109F0D469046FFF7A4F8EE
:1058F00094F83D30202B064604D00225284607B0F8
:10590000BDE8F08300907A49192301222046FFF771
:10591000C7FC0028F1D194F83C30012BEDD0206871
:10592000012384F83C300368DB075EBF036843F063
:1059300001030360036823F400630360222384F8F7
:105940003D30402384F83E30002323640E9B636285
:10595000BDF83C306385638D2385664BE362294641
:10596000CDE900764B4642462046FFF79FFD0546AF
:1059700008B10125C2E7228D2368B2B902905A69A5
:1059800002929A690292029A1A6842F400721A60AC
:10599000DFF86481238D002B2CD1202284F83D2058
:1059A00084F83C3084F83E30A8E7012A0AD11A680E
:1059B00022F480621A6003905A6903929A690392F2
:1059C000039AE1E7022A0ED11A6822F480621A6073
:1059D0001A6842F400621A6004905A6904929B6942
:1059E0000493049BD4E705905A6905929B6905933B
:1059F000059BCDE7032B56D8012B15D132463946EE
:105A00002046FFF7FFFD0028B3D123681A69636AB7
:105A10001A70636A01336362238D013B2385638DB2
:105A2000013B9BB26385B5E7022B00963B464FF0E6
:105A300000024146204619D1FFF732FC002898D1D8
:105A400023681A6842F400721A601A69636A1A704D
:105A5000626A531C6362238D013B2385638D013B86
:105A60009BB2638523681B695370D2E7FFF718FC6C
:105A7000024600287FF47DAF2368196821F4806115
:105A800019601969636A1970636A01336362238D4F
:105A9000013B2385638D013B9BB2638541460096A4
:105AA0003B462046C8E7324639462046FFF7AAFD66
:105AB00000287FF45EAF23681A69636A1A70628DEA
:105AC000616A013A92B24B1C628522686362238D3F
:105AD0005069013B9BB2400723857FF55BAF032BE9
