:020000040800F2
:1000000000000320291000084D3100084F3100087E
:10001000513100085331000855310008000000003C
:1000200000000000000000000000000001AA00081D
:10003000573100080000000091AA000831A2000812
:10004000791000087910000879100008791000086C
:100050007910000879100008593100085F31000854
:10006000653100087910000879100008791000083F
:100070007910000879100008791000086D31000827
:10008000791000087910000879100008791000082C
:10009000791000087910000879100008791000081C
:1000A000791000087910000879100008791000080C
:1000B00079100008793100087910000879100008DB
:1000C00079100008791000087910000879100008EC
:1000D00079100008853100087910000879100008AF
:1000E00079100008791000087910000879100008CC
:1000F00079100008791000087910000879100008BC
:1001000079100008791000087910000879100008AB
:100110007910000879100008913100087910000862
:10012000791000087910000879100008791000088B
:10013000791000087910000879100008791000087B
:10014000791000087910000879100008791000086B
:1001500079100008791000089D3100087910000816
:10016000791000087910000879100008791000084B
:1001700079100008791000087910000800000000CC
:10018000791000087910000879100008791000082B
:10019000791000087910000879100008791000081B
:0C01A000A931000879100008B5310008F2
:1001B00010B5054C237833B9044B13B10448AFF3A1
:1001C00000800123237010BD4005002000000000C6
:1001D000FCAE020808B5034B1BB103490348AFF35B
:1001E000008008BD0000000044050020FCAE0208AD
:1001F000034613F8012B002AFBD1181A0138704767
:1002000001F0FF01102A2BDB10F0070F08D010F8C7
:10021000013B013A8B422DD010F0070F42B3F6D1CB
:10022000F0B441EA012141EA014122F007047FF0E4
:1002300000070023F0E80256083C85EA010586EA3B
:10024000010685FA47F5A3FA87F586FA47F6A5FA77
:1002500087F68EB9EED1F0BC01F0FF0102F0070283
:1002600032B110F8013B013A83EA010313B1F8D12E
:100270000020704701387047002D06BF354603380F
:10028000073815F0010F07D1013015F4807F02BF48
:10029000013015F4C03F0130F0BC0138704700BF99
:1002A00081F0004102E000BF83F0004330B54FEA27
:1002B00041044FEA430594EA050F08BF90EA020F94
:1002C0001FBF54EA000C55EA020C7FEA645C7FEA27
:1002D000655C00F0E2804FEA5454D4EB5555B8BF4A
:1002E0006D420CDD2C4480EA020281EA030382EABB
:1002F000000083EA010180EA020281EA0303362D4D
:1003000088BF30BD11F0004F4FEA01314FF4801C1F
:100310004CEA113102D0404261EB410113F0004F31
:100320004FEA03334CEA133302D0524263EB4303E8
:1003300094EA050F00F0A780A4F10104D5F1200E86
:100340000DDB02FA0EFC22FA05F2801841F10001E1
:1003500003FA0EF2801843FA05F359410EE0A5F1B5
:1003600020050EF1200E012A03FA0EFC28BF4CF0E6
:10037000020C43FA05F3C01851EBE37101F000459C
:1003800007D54FF0000EDCF1000C7EEB00006EEBA9
:100390000101B1F5801F1BD3B1F5001F0CD3490833
:1003A0005FEA30004FEA3C0C04F101044FEA44528A
:1003B00012F5800F80F09A80BCF1004F08BF5FEA11
:1003C000500C50F1000041EB045141EA050130BDF1
:1003D0005FEA4C0C404141EB0101013C28BFB1F503
:1003E000801FE9D291F0000F04BF01460020B1FA4E
:1003F00081F308BF2033A3F10B03B3F120020CDA21
:100400000C3208DD02F1140CC2F10C0201FA0CF0FE
:1004100021FA02F10CE002F11402D8BFC2F1200C63
:1004200001FA02F120FA0CFCDCBF41EA0C01904019
:10043000E41AA2BF01EB0451294330BD6FEA040462
:100440001F3C1CDA0C340EDC04F11404C4F120024D
:1004500020FA04F001FA02F340EA030021FA04F35F
:1004600045EA030130BDC4F10C04C4F1200220FAB6
:1004700002F001FA04F340EA0300294630BD21FAF4
:1004800004F0294630BD94F0000F83F4801306BFBA
:1004900081F480110134013D4EE77FEA645C18BFAE
:1004A0007FEA655C29D094EA050F08BF90EA020F45
:1004B00005D054EA000C04BF1946104630BD91EA3D
:1004C000030F1EBF0021002030BD5FEA545C05D140
:1004D0004000494128BF41F0004130BD14F580047F
:1004E0003CBF01F5801130BD01F0004545F0FE41F3
:1004F00041F470014FF0000030BD7FEA645C1ABF28
:10050000194610467FEA655C1CBF0B46024650EA5E
:10051000013406BF52EA033591EA030F41F400218A
:1005200030BD00BF90F0000F04BF0021704730B510
:100530004FF4806404F132044FF000054FF00001E5
:1005400050E700BF90F0000F04BF0021704730B5A6
:100550004FF4806404F1320410F0004548BF40427B
:100560004FF000013EE700BF42004FEAE2014FEAD0
:1005700031014FEA02701FBF12F07F4393F07F4FAB
:1005800081F06051704732F07F4208BF704793F0AE
:100590007F4F04BF41F40021704730B54FF46074C1
:1005A00001F0004521F000411CE700BF50EA0102C4
:1005B00008BF704730B54FF000050AE050EA01026D
:1005C00008BF704730B511F0004502D5404261EBDD
:1005D00041014FF4806404F132045FEA915C3FF41E
:1005E000D8AE4FF003025FEADC0C18BF03325FEABB
:1005F000DC0C18BF033202EBDC02C2F1200300FA6C
:1006000003FC20FA02F001FA03FE40EA0E0021FA90
:1006100002F11444BDE600BF70B54FF0FF0C4CF47E
:10062000E06C1CEA11541DBF1CEA135594EA0C0F30
:1006300095EA0C0F00F0DEF82C4481EA030621EA6B
:100640004C5123EA4C5350EA013518BF52EA0335A6
:1006500041F4801143F4801338D0A0FB02CE4FF058
:100660000005E1FB02E506F00042E0FB03E54FF088
:100670000006E1FB03569CF0000F18BF4EF0010E80
:10068000A4F1FF04B6F5007F64F5407404D25FEA7C
:100690004E0E6D4146EB060642EAC62141EA55512F
:1006A0004FEAC52040EA5E504FEACE2EB4F1FD0C71
:1006B00088BFBCF5E06F1ED8BEF1004F08BF5FEAEF
:1006C000500E50F1000041EB045170BD06F00046A1
:1006D00046EA010140EA020081EA0301B4EB5C044E
:1006E000C2BFD4EB0C0541EA045170BD41F4801146
:1006F0004FF0000E013C00F3AB8014F1360FDEBF6B
:10070000002001F0004170BDC4F10004203C35DA46
:100710000C341BDC04F11404C4F1200500FA05F3C9
:1007200020FA04F001FA05F240EA020001F000426A
:1007300021F0004110EBD37021FA04F642EB0601E0
:100740005EEA430E08BF20EAD37070BDC4F10C040A
:10075000C4F1200500FA04F320FA05F001FA04F2CE
:1007600040EA020001F0004110EBD37041F10001BA
:100770005EEA430E08BF20EAD37070BDC4F12005C5
:1007800000FA05F24EEA020E20FA04F301FA05F22D
:1007900043EA020321FA04F001F0004121FA04F2D5
:1007A00020EA020000EBD3705EEA430E08BF20EAA5
:1007B000D37070BD94F0000F0FD101F000464000DF
:1007C00041EB010111F4801F08BF013CF7D041EA61
:1007D000060195F0000F18BF704703F00046520065
:1007E00043EB030313F4801F08BF013DF7D043EA36
:1007F0000603704794EA0C0F0CEA135518BF95EAEC
:100800000C0F0CD050EA410618BF52EA4306D1D172
:1008100081EA030101F000414FF0000070BD50EA91
:10082000410606BF1046194652EA430619D094EA1B
:100830000C0F02D150EA013613D195EA0C0F05D105
:1008400052EA03361CBF104619460AD181EA030159
:1008500001F0004141F0FE4141F470014FF0000011
:1008600070BD41F0FE4141F4780170BD70B54FF0AC
:10087000FF0C4CF4E06C1CEA11541DBF1CEA13552C
:1008800094EA0C0F95EA0C0F00F0A7F8A4EB05040E
:1008900081EA030E52EA03354FEA013100F0888005
:1008A0004FEA03334FF0805545EA131343EA1263CE
:1008B0004FEA022245EA111545EA10654FEA002683
:1008C0000EF000419D4208BF964244F1FD0404F53C
:1008D000407402D25B084FEA3202B61A65EB030598
:1008E0005B084FEA32024FF480104FF4002CB6EB55
:1008F000020E75EB030E22BFB61A754640EA0C00D5
:100900005B084FEA3202B6EB020E75EB030E22BF14
:10091000B61A754640EA5C005B084FEA3202B6EB55
:10092000020E75EB030E22BFB61A754640EA9C0014
:100930005B084FEA3202B6EB020E75EB030E22BFE4
:10094000B61A754640EADC0055EA060E18D04FEAA2
:10095000051545EA16754FEA06164FEAC30343EA42
:1009600052734FEAC2025FEA1C1CC0D111F4801F0F
:100970000BD141EA00014FF000004FF0004CB6E708
:1009800011F4801F04BF01430020B4F1FD0C88BFA7
:10099000BCF5E06F3FF6AFAEB5EB030C04BFB6EBB2
:1009A000020C5FEA500C50F1000041EB045170BDA5
:1009B0000EF0004E4EEA113114EB5C04C2BFD4EBD2
:1009C0000C0541EA045170BD41F480114FF0000E56
:1009D000013C90E645EA060E8DE60CEA135594EAD2
:1009E0000C0F08BF95EA0C0F3FF43BAF94EA0C0FD5
:1009F0000AD150EA01347FF434AF95EA0C0F7FF44A
:100A000025AF104619462CE795EA0C0F06D152EA9D
:100A100003353FF4FDAE1046194622E750EA410681
:100A200018BF52EA43067FF4C5AE50EA41047FF492
:100A30000DAF52EA43057FF4EBAE12E74FF0FF3CF7
:100A400006E000BF4FF0010C02E000BF4FF0010CC8
:100A50004DF804CD4FEA410C7FEA6C5C4FEA430C41
:100A600018BF7FEA6C5C1BD001B050EA410C0CBF90
:100A700052EA430C91EA030F02BF90EA020F0020F2
:100A8000704710F1000F91EA030F58BF994208BF59
:100A900090422CBFD8176FEAE37040F00100704716
:100AA0004FEA410C7FEA6C5C02D150EA013C07D16D
:100AB0004FEA430C7FEA6C5CD6D152EA033CD3D0B8
:100AC0005DF8040B704700BF8446104662468C46B2
:100AD0001946634600E000BF01B5FFF7B7FF0028E5
:100AE00048BF10F1000F01BD4DF808EDFFF7F4FF0E
:100AF0000CBF012000205DF808FB00BF4DF808ED99
:100B0000FFF7EAFF34BF012000205DF808FB00BFBB
:100B10004DF808EDFFF7E0FF94BF012000205DF8DD
:100B200008FB00BF4DF808EDFFF7CEFF94BF012092
:100B300000205DF808FB00BF4DF808EDFFF7C4FF8B
:100B400034BF012000205DF808FB00BF4A0011D22D
:100B500012F5001211D20DD56FF47873B3EB625217
:100B60000ED44FEAC12343F0004343EA505323FA23
:100B700002F070474FF00000704750EA013002D198
:100B80004FF0FF3070474FF0000070474FEA4102CE
:100B9000B2F1E04324BFB3F5001CDCF1FE5C0DD9DB
:100BA00001F0004C4FEAC0024CEA5070B2F1004F25
:100BB00040EB830008BF20F00100704711F0804F28
:100BC00021D113F13872BCBF01F00040704741F4ED
:100BD00080114FEA5252C2F11802C2F1200C10FAF1
:100BE0000CF320FA02F018BF40F001004FEAC123D5
:100BF0004FEAD32303FA0CFC40EA0C0023FA02F379
:100C00004FEA4303CCE77FEA625307D150EA01334E
:100C10001EBF4FF0FE4040F44000704701F000401E
:100C200040F0FE4040F40000704700BF7BB972B94D
:100C30000029BEBF00204FF0004106E008BF002899
:100C40001CBF6FF000414FF0FF3000F0EBB9ADF189
:100C5000080C6DE904CE002909DB002B1ADB00F03B
:100C600083F8DDF804E0DDE9022304B07047404278
:100C700061EB4101002B1BDB00F076F8DDF804E0AE
:100C8000DDE9022304B0404261EB4101524263EBD3
:100C900043037047524263EB430300F065F8DDF80D
:100CA00004E0DDE9022304B0404261EB41017047FA
:100CB000524263EB430300F057F8DDF804E0DDE94E
:100CC000022304B0524263EB4303704753B94AB95D
:100CD000002908BF00281CBF4FF0FF314FF0FF3044
:100CE00000F0A0B9ADF1080C6DE904CE00F03CF8BD
:100CF000DDF804E0DDE9022304B0704738B50022D6
:100D0000002304460D46FFF7F9FE28B92046294680
:100D1000BDE8384000F00AB8204605F1004100F077
:100D200005F8404261EB410138BD00BFD0B50C4B26
:100D3000002206460F46FFF76FFCFFF707FF044649
:100D4000FFF7F0FB074B0022FFF766FC02460B465D
:100D500030463946FFF7A8FAFFF7F8FE2146D0BD26
:100D60000000F03D0000F0412DE9F047089D0C46E1
:100D7000002B4ED194468C458646B2FA82F262D957
:100D80004AB1C2F12003914020FA03F30CFA02FCAD
:100D9000194300FA02FE4FEA1C471FFA8CF6B1FB1A
:100DA000F7F44FEA1E4307FB141143EA014304FB27
:100DB00006F199420AD91CEB030304F1FF3080F0DD
:100DC0001281994240F20F81023C6344591A1FFA82
:100DD0008EF3B1FBF7F007FB101143EA014300FB70
:100DE00006F69E420AD91CEB030300F1FF3180F0A6
:100DF000FC809E4240F2F980634402389B1B40EA2B
:100E0000044000211DB1D3400022C5E90032BDE8F5
:100E1000F0878B4205D90DB1C5E9000100210846D4
:100E2000F5E7B3FA83F1002946D1A34202D39042F9
:100E3000C0F0F080861A64EB03030120002DE6D099
:100E4000C5E90063E3E7002A40F09080A1EB0C04C1
:100E50004FEA1C481FFA8CF70121B4FBF8F64FEA61
:100E60001E4308FB164443EA044307FB06F098427E
:100E700008D91CEB030306F1FF3402D2984200F2BA
:100E8000CD8026461C1A1FFA8EF3B4FBF8F008FB3F
:100E9000104443EA044300FB07F79F4208D91CEBC8
:100EA000030300F1FF3402D29F4200F2B0802046DB
:100EB000DB1B40EA0640A5E7C1F120068B4022FA81
:100EC00006F71F4320FA06FC04FA01F343EA0C0379
:100ED000F44000FA01F8380C4FEA1349B4FBF0FE75
:100EE0001FFA87FC00FB1E4449EA04440EFB0CF980
:100EF000A14502FA01F20AD93C190EF1FF3A80F03D
:100F00008480A14540F28180AEF1020E3C44A4EB06
:100F100009041FFA83F9B4FBF0F300FB134449EA18
:100F2000044403FB0CFCA44507D93C1903F1FF3032
:100F300067D2A44565D9023B3C4443EA0E40A0FB7E
:100F40000293A4EB0C049C42CE469C4651D34ED057
:100F500055B1B8EB0E0364EB0C0404FA06F6CB4073
:100F60001E43CC40C5E90064002150E7C2F12003D4
:100F700020FA03F10CFA02FC24FA03F394400C4328
:100F80004FEA1C4800FA02FE1FFA8CF7B3FBF8F098
:100F900008FB1031230C43EA014300FB07F199429F
:100FA00008D91CEB030300F1FF362CD299422AD951
:100FB000023863445B1AA4B2B3FBF8F108FB1133A7
:100FC00044EA034401FB07F3A34208D91CEB0404E1
:100FD00001F1FF3613D2A34211D902396444E41A55
:100FE00041EA004139E70446F0E6084606E7C8450D
:100FF000AED2B9EB020E63EB070C0138A8E731461D
:10100000EDE7034699E73046D4E7D6467FE76344E9
:1010100002384DE70646234608460FE7023E634482
:1010200030E700BF704700BFDFF834D0002103E095
:101030000C4B5B58435004310B480C4B42189A42FE
:10104000F6D30B4A02E0002342F8043B094B9A42D4
:10105000F9D305F027FD28F0B9F801F0B7F870478B
:101060000000032070A312080000002028030020C5
:101070004005002008480120FEE770477047000047
:10108000094A1378012B07D0022B09D13123002004
:1010900010700B70012070473023F8E73223F6E719
:1010A000032BFBD00020704770050020704710B55F
:1010B0000821044625F0CCFE204610BD7FB54FF038
:1010C000FF338DF80F0000930DF1170201230DF18E
:1010D0000F01044807F0D6FD9DF8170007B05DF832
:1010E00004FB00BFB80B002038B5002240F0C0055B
:1010F0004FF480710C4806F047F90B484FF400613B
:1011000006F03CF904460028F7D12846FFF7D6FF41
:101110002046FFF7D3FF012204464FF480710248B6
:1011200006F032F9204638BD0008024038B50022EA
:1011300005460C460C484FF4807106F025F90A4824
:101140004FF4006106F01AF90028F8D12846FFF79D
:10115000B5FF2046FFF7B2FFBDE838400248012244
:101160004FF4807106F010B90008024010B500225B
:101170004FF480711848184C06F006F9012005F06C
:10118000CBFC01224FF48071134806F0FDF80120DA
:1011900005F0C2FC104800224FF4807106F0F4F80C
:1011A0004FF40061204606F0E9F80028F8D130201D
:1011B000FFF784FF08484FF4006106F0DFF80028CD
:1011C000F8D100F18040BDE8104001224FF4807159
:1011D00000F5023006F0D8B800080240F8B5082043
:1011E000194D1A4FFFF780FF00232B703B701C46F0
:1011F0009C4619461E461A463F2804DD40324038B8
:10120000D2B20126F8E70F2805DD10311038C9B237
:101210004FF0010CF0E7032804DD04340438E4B295
:101220000123E9E7DFF82CE053B98EF80030BCF178
:10123000000F00D0397006B12A70054B1870F8BD48
:101240008EF80040F3E700BF600500205F05002036
:101250005D0500205E050020F8B51220194D1A4FDB
:10126000FFF742FF00232B703B7019469C461A463D
:101270001E461C467F2804DD803884F08004012649
:10128000F8E70F2805DD10321038D2B24FF0010C0C
:10129000F0E7072804DD08310838C9B20123E9E77F
:1012A000DFF82CE053B98EF80030BCF1000F00D00D
:1012B0003A7006B12C70054B1870F8BD8EF800100E
:1012C000F3E700BF640500206305002061050020EE
:1012D00062050020F8B50C46154640F04006002295
:1012E0000F480F4F4FF4807106F04EF84FF4006135
:1012F000384606F043F80028F8D13046FFF7DEFE06
:101300002544AC4207D1BDE8F840054801224FF41E
:10131000807106F039B814F8010BFFF7CFFEF0E743
:10132000000802400000000038B58F4BDFED8F7AD7
:101330002DED028B18608E4B93ED008AB4EEE78A98
:10134000F1EE10FA044644DBDFED8A7AB4EEE78A68
:10135000F1EE10FA3DD810F11D0F874B16DA1D780B
:10136000864B01221A70864B86491B78EDB2022B00
:1013700016BF2B46002300250B704D70BDEC028B71
:101380000822BDE838403E20FFF7A4BF00F11D024F
:10139000092A01D85D78E3E700F11302042A01D895
:1013A0009D78DDE700F10E02042A01D8DD78D7E749
:1013B00000F10902092A01D81D79D1E7421E042A49
:1013C00001D85D79CCE7841F012C94BF9D79DD792C
:1013D000C6E7DFED6D7AB4EEE78AF1EE10FA31DBA5
:1013E000DFED6A7AB4EEE78AF1EE10FA2AD814F14A
:1013F0001D0F674B03DA1D78604B0222B2E704F140
:101400001D02092A01D85D78F6E704F11302042AC7
:1014100001D89D78F0E704F10E02042A01D8DD78A6
:10142000EAE704F10902092A01D81D79E4E7621EFE
:10143000042A01D85D79DFE7063C012C94BF9D7931
:10144000DD79D9E7DFED537AB4EEE78AF1EE10FAF1
:101450003FDB18EE100AFFF787F841A3D3E900231A
:10146000FFF756FB002834D014F11D0F4A4B03DA66
:101470001D78424B032275E704F11D02092A01D8A9
:101480005D78F6E704F11302042A01D89D78F0E7AD
:1014900004F10E02042A01D8DD78EAE704F109021A
:1014A000032A01D81D79E4E7621D052A01D85D7978
:1014B000DFE7621E042A01D89D79DAE7A21F012A1C
:1014C00001D8DD79D5E7083C022C94BF1D7A5D7AFE
:1014D000CFE7DFED327AB4EEE78AF1EE10FAFFF6ED
:1014E00042AFDFED2F7AB4EEE78AF1EE10FA3FF665
:1014F0003AAF14F11D0F2B4B03DA1D781F4B04225A
:1015000030E704F11D02092A01D85D78F6E704F1FD
:101510001302042A01D89D78F0E704F10E02042A90
:1015200001D8DD78EAE704F10902032A01D81D7920
:10153000E4E7621D052A01D85D79DFE7621E042A0F
:1015400001D89D79DAE7A21F012A01D8DD79D5E714
:10155000083C022C94BF1D7A5D7ACFE7AFF3008080
:1015600052B81E85EB1F8C403C00002000009643C3
:10157000380000200000AE43200000206705002056
:1015800040000020280000200000BD430000E84388
:101590001800002000C042440E00002000006144FA
:1015A000000068440400002010B5874CDFED877A06
:1015B0002DED028B94ED008AB4EEE78AF1EE10FA7D
:1015C00045DBDFED837AB4EEE78AF1EE10FA3ED820
:1015D000804BFDEEC87A1A78597817EE903A891A3E
:1015E000A3F596735943302391FBF3F11144C9B22B
:1015F0000C20FFF79BFD2068FEF7B6FF6EA3D3E932
:101600000023FFF77BFA38B1BDEC028B0B21BDE85C
:1016100010402E20FFF78ABD09212E20FFF786FDFE
:101620002420FFF761FD1F2804D82030C1B22420F8
:10163000FFF77CFD684B1B78012B00F0B780BDECF9
:10164000028B664BBDE810401868FFF76DBEDFEDFA
:10165000647AB4EEE78AF1EE10FA34DBDFED617AFA
:10166000B4EEE78AF1EE10FA2DD8FDEEC87A5E4BA3
:1016700017EE901A1A785B78A1F5BD719B1A594341
:10168000562391FBF3F11144C9B20C20FFF74EFD34
:1016900094ED007ADFED557AB4EEE77AF1EE10FAC8
:1016A000B2D409212E20FFF741FD2420FFF71CFDB5
:1016B0001F2804D82030C1B22420FFF737FD464B45
:1016C0001B78022BB9E7DFED4A7AB4EEE78AF1EE38
:1016D00010FA38DB18EE100AFEF746FF38A3D3E9FC
:1016E0000023FFF715FA70B3FDEEC87A414B17EEF1
:1016F000901A1A785B78A1F20B319B1A5943782320
:1017000091FBF3F11144C9B20C20FFF70FFD94EDEA
:10171000007ADFED397AB4EEE77AF1EE10FA3FF5B0
:1017200073AF09212E20FFF701FD2420FFF7DCFC19
:101730001F2804D82030C1B22420FFF7F7FC264B25
:101740001B78032B79E7DFED2D7AB4EEE78AF1EE13
:1017500010FA2BDBDFED2A7AB4EEE78AF1EE10FA0D
:1017600024D8FDEEC87A274B17EE901A1A785B78CA
:10177000A1F561719B1A59431C2391FBF3F11144AC
:10178000C9B20C20FFF7D2FC09212E20FFF7CEFCB6
:101790002420FFF7A9FC1F2804D82030C1B2242040
:1017A000FFF7C4FC0C4B1B78042B46E7BDEC028B07
:1017B00010BD00BFAFF30080AE47E17A142E744035
:1017C00052B81E85EB1F8C40380000200000964365
:1017D0000000AE4336000020670500203C000020DA
:1017E0000000BD430000E843340000200040D74320
:1017F00000C04244320000200040574400006144D1
:1018000000006844300000202DE9F0472A4B28A74B
:10181000D7E900672DED028B0024DFED288A83EDE8
:10182000000A2546A246B3EE0A8AB4EEC80AF1EED3
:1018300010FA06DB0AF1010A30EE480A5FFA8AFA6A
:10184000F3E7B4EEE80AF1EE10FA04DB013530EE0E
:10185000680AEDB2E9E710EE100AFEF785FE14A360
:10186000D3E9002380468946FFF75CF960B1324630
:101870003B4640464946FEF717FDFFF787F901341E
:1018800000EE100AE4B2D0E751460D20FFF74EFCFF
:1018900029460E20FFF74AFC21460F20FFF746FCA1
:1018A000BDEC028BBDE8F047FFF77EBEAFF30080D2
:1018B000E9F351465C003A3F380000200000D03D7B
:1018C000042828BF042010B5184B0446013C1870AA
:1018D000FFF7C2FC032C27D8DFE804F0020522241E
:1018E0001021102301E030211123114C114A2370E3
:1018F000114B11701B781944104B1B781944104B75
:101900001B781944C9B21220FFF710FC217822205D
:10191000FFF70CFC0B4BBDE810401868FFF704BD47
:101920004021DEE77021DCE70021DAE740000020FB
:101930006905002063050020640500206205002081
:10194000610500203C000020194A10B5194C1070A8
:10195000D8B10B210020FFF7E9FB06210220FFF799
:10196000E5FB05210820FFF7E1FBF8211120FFF737
:10197000DDFB21780B311020C9B2FFF7D7FB0E4BEE
:10198000BDE810401878FFF79BBF0D21FFF7CEFB95
:101990000D210220FFF7CAFB32210820FFF7C6FB0A
:1019A00093211120FFF7C2FB21780731E3E700BF45
:1019B00066050020650500204000002008B50621CE
:1019C0000B20FFF7B3FB324B1878FFF7BDFF314B0D
:1019D00093ED000AFFF718FF02211320FFF7A6FB83
:1019E000F8211420FFF7A2FB2B4B0A201978FFF7F0
:1019F0009DFB47211520FFF799FB56212120FFF77A
:101A000095FB18210846FFF791FB16211920FFF7D7
:101A10008DFB1C211A20FFF789FBC7211B20FFF734
:101A200085FB00211C20FFF781FBB2211D20FFF761
:101A30007DFBE9212320FFF779FB2A212420FFF7F2
:101A400075FB00212520FFF771FB1F212620FFF7E2
:101A50006DFB59212920FFF769FB81212C20FFF71D
:101A600065FB35212D20FFF761FB09212E20FFF7B3
:101A70005DFB04210720FFF759FB00210920FFF738
:101A800055FBBDE8084000210620FFF74FBB00BF13
:101A900066050020380000206805002010B50C4CB9
:101AA000012220464FF4807105F06EFC2046012291
:101AB0004FF4806105F068FC204600224FF480510D
:101AC00005F062FCFFF752FBBDE81040FFF776BF60
:101AD0000008024010B50446FFF780FB094BA00048
:101AE0001870094B1978094B1B781944084B00F002
:101AF000FC001B7801441944BDE81040C9B208201D
:101B0000FFF714BB5E050020600500205F05002084
:101B10005D05002010B5002204464FF480710A488C
:101B200005F032FC08484FF4006105F027FC00285E
:101B3000F8D12046FFF7C2FABDE810400248012262
:101B40004FF4807105F020BC0008024008B5362033
:101B5000FFF7E0FF3420FFF7DDFF024B02221A708F
:101B600008BD00BF5C05002010B5094B1B78022B97
:101B7000044601D0FFF7EAFF3B20FFF7B5FA10F06B
:101B80007F0003D0204604F0C7FF012010BD00BF36
:101B90005C05002010B53320FFF7A6FAC0F3C71488
:101BA0003CB93A20FFF7B6FF3420FFF7B3FF2046D9
:101BB00010BD0120FCE708B53420FFF795FA7F2817
:101BC000C4BFA0F5807000EBD07040104A3808BD4B
:101BD0003320FFF789BA000038B5002240F08005B5
:101BE0004FF480710C4805F0CFFB0B484FF40061B7
:101BF00005F0C4FB04460028F7D12846FFF75EFA3B
:101C00002046FFF75BFA012204464FF48071024838
:101C100005F0BAFB204638BD00080240F8B50C4676
:101C2000154640F0C00600221048104F4FF4807156
:101C300005F0AAFB4FF40061384605F09FFB002831
:101C4000F8D13046FFF73AFA2544AC4207D1BDE857
:101C5000F840064801224FF4807105F095BB002042
:101C6000FFF72CFA04F8010BEFE700BF0008024071
:101C700037B505463B20FFF737FA10F07F040DD04B
:101C80003F20FFF7A9FF2946024604463F20FFF701
:101C9000C5FF022201A93F20FFF7C0FF3A20FFF74E
:101CA00039FF3420FFF736FF204603B030BD08B5BA
:101CB0003120FFF719FA003818BF012008BD0000D5
:101CC00010B50446FFF7C8FA0A4B0B4A072C20460A
:101CD00028BF07201870094B12781B781344084A54
:101CE00012781344C118BDE81040C9B21220FFF7A2
:101CF0001DBA00BF610500206305002064050020B7
:101D000062050020014807F0EBB900BFD00A0020AF
:101D1000014B1B68586A7047D00A002070470000CA
:101D2000014826F0B3BF00BF80AF020807B5064BDD
:101D3000ADF806001B68054801220DF1060106F00A
:101D4000F1FE03B05DF804FB44000020600B0020AE
:101D500008B5064C064D23781BB92B780BB901F05A
:101D6000ADFA642008F0E5FAF5E700BF7005002041
:101D7000380E002080B5384D384FC0B038684FF06D
:101D8000FF3108F0A3FB0446002861D12B78012B1A
:101D90005FFA83F922D1324EDFF8D08030684FF0FD
:101DA000FF3108F007FB2F4888F8009026F0D6FF97
:101DB0002246C821204601F06FFA4FF4FA700AF06B
:101DC0006FF868462C7088F800400AF05FFB2648E0
:101DD000694626F05BFF306808F00FFB2B78022B7A
:101DE00019D11F4C214E20684FF0FF3108F0E2FA64
:101DF00001231F48337026F0B1FF00210846C82296
:101E000001F04AFAFA200AF04BF8002320682B7000
:101E1000337008F0F2FA2B78032B19D1104C134EC3
:101E200020684FF0FF3108F0C5FA012311483370E4
:101E300026F094FF00210846C82201F02DFAFA206E
:101E40000AF02EF8002320682B70337008F0D5FAC2
:101E5000642008F06EFA91E7700500207C090020EC
:101E60008009002092AF0208AFAF0208380E0020B0
:101E7000B8AF0208D8AF0208F8B53D4E6420FFF7AE
:101E800073FE002844D030683A4F4FF0FF3108F01D
:101E900091FA01233B70FFF77DFEA0B3FFF78BFEA5
:101EA00001463548354C26F0F1FEFFF791FE01461C
:101EB000334826F0EBFE2046FFF7DAFE00232354DA
:101EC000054621462F4826F0E1FE2F4B2A462146A3
:101ED000184627F0AAF90278542A1DD142783A2AE6
:101EE00011D1023025F01EFF51EC100BFEF74EFE13
:101EF00007EE900A254B2648FDEEE77AC3ED007AFF
:101F0000196826F0C3FE002330683B7008F075FAAC
:101F1000642008F00EFAB1E7482A13D142783A2A31
:101F2000F1D1023025F0FEFE51EC100BFEF72EFE33
:101F300007EE900A174B1848FDEEE77AC3ED007ADA
:101F40001968DEE7502ADED142783A2ADBD1023026
:101F500025F0E8FE51EC100BFEF718FE07EE900A94
:101F60000E4B0F48FDEEE77AC3ED007A1968C8E71B
:101F700080090020380E0020F7AF0208B80D0020BD
:101F800002B002088DAF0208F80D0020B40D002049
:101F90000CB00208B00D002021B00208AC0D0020EA
:101FA00032B00208F8B50268164B9A4216D1164EA6
:101FB000164C174D0027377022682B689A420ED2B4
:101FC00023682A6821681348521A134992B21944A7
:101FD00007F04EFE012333702B682360F8BD2268A2
:101FE0002B689A42FAD9236822680B490948C2F53E
:101FF0008062194492B207F03BFE012333702760E0
:10200000ECE700BF001001407105002074050020BE
:1020100078050020280A00207C0500202DE9F047E3
:10202000264D274F2B68DFF8A490134440F2FE3072
:1020300083428A46144619D82868384427F0F5F8B0
:102040002B6823442B6099F8003063B91D4D1E485E
:102050002968A2B2394407F00BFE012389F8003049
:102060002B6823442B602046BDE8F0872E68286843
:10207000C6F57F7808F10308A6F2FF3626444246EB
:10208000384427F0D2F832460AEB0801384627F0E8
:10209000CCF82E6099F8003003F0FF06002BE2D157
:1020A000084D094829681FFA88F2394407F0E0FD15
:1020B000012389F800302E60D5E700BF78050020A5
:1020C0007C05002074050020280A002071050020EE
:1020D000012808B50AD1104B1870104826F03EFEB2
:1020E0000F4B1868BDE8084008F01CBA022807D159
:1020F000094B0C4A187013680B4801331360EDE765
:102100000428EDD1044B094803221A70054A1368CC
:10211000013B1360E2E700BF7005002045B00208F4
:102120007C0900204C00002049B0020850B0020891
:1021300030B595B0102200210AA826F029FF1422FC
:10214000002103A826F024FF00241E4B01941A6CE2
:1021500042F080521A641B6C03F080530193019B80
:10216000194B02941A6842F440421A601B6803F447
:10217000404302930122029B4FF48033CDE90823B0
:1021800002254FF480030821CDE90E534FF4B473B8
:10219000CDE9101308A804231393129505F06AFFE4
:1021A00005F02EFF0F23CDE903354FF4A0504FF477
:1021B0008053CDE90603052103A8059406F036F9FE
:1021C00015B030BD00380240007000402DE9804855
:1021D0009FB00024C54D04F073FCFFF7A9FF142243
:1021E000002111A826F0D4FE02942B6BC04843F0C6
:1021F00010032B632B6B03F010030293029B0394D9
:102200002B6B43F020032B632B6B03F02003039312
:10221000039B04942B6B43F080032B632B6B03F025
:1022200080030493049B05942B6B43F004032B63FE
:102230002B6B03F004030593059B06942B6B43F073
:1022400001032B632B6B03F001030693069B07949A
:102250002B6B43F002032B632B6B03F002030793FA
:10226000079B08942B6B43F040032B632B6B03F00D
:1022700040030893089B09942B6B43F008032B63DE
:102280002B6B03F00803099322463C21099B05F0C0
:102290007BF8984822464FF4827105F075F896480D
:1022A00022464FF4405105F06FF8224693484FF410
:1022B0000071012605F068F84FF003083C238C48B4
:1022C000CDF8508011A902274FF00409CDE911364D
:1022D000139404F06FFF8748139411A94FF0070A75
:1022E000CDE91196149704F065FF4FF488138448E4
:1022F000139711A9CDE911A304F05CFF4FF44053EB
:102300007D4811A9CDE91136CDE9134704F052FFFC
:102310004FF48073774811A9CDE91136CDE9134404
:1023200004F048FF4FF40073744811A9CDE9113649
:10233000CDE9134404F03EFF22460521062004F0B7
:1023400011FC062004F040FC22460521504604F012
:1023500009FC504604F038FC22460521082004F010
:1023600001FC082004F030FC00942A6B42F40012B7
:102370002A632A6B02F400120092009A01942A6BDD
:1023800042F480022A632A6B5E4D02F480020192BD
:102390000521019A0F20224604F0E4FB0F2004F0EF
:1023A00013FC05212246462004F0DCFB462004F005
:1023B0000BFC5548554A026004F014FC544B554A36
:1023C0002C62C5E9003228464FF48042C5E9042456
:1023D000C5E90244C5E9064405F0F0F91021284694
:1023E00005F034FC2146284605F04FFC4A484B4A8C
:1023F0004B4D84624FF48273C0E9002318224FF4DE
:102400000073C0E906320A23C362C0E90244C0E98E
:102410000444C0E9084406F029FB424A17974FF0EC
:10242000100BC5E900264022C5E904B24FF4C07282
:10243000C5E906244FF40062C5E9082411A94FF448
:1024400000522846C5E90249CDE9139AAA62CDE9AE
:10245000117ACDE915874FF0080A06F0EBF94FF62F
:10246000FF720DA92846CDE90EA60A940D96109488
:1024700006F000FA304604F04FFB4FF6FF720DA94C
:102480002846CDE90D7ACDE90F6406F0F3F94FF651
:10249000FF720DA92846CDE90D8ACDE90F9406F00B
:1024A000E9F94FF40C720A920A9A10920DA94FF6AC
:1024B000FF722846CDE90D9A0F9606F0DBF940F23F
:1024C0006A51284606F0F4F93422214611A826F074
:1024D0005FFD154D154A2C61C5E900240922C5E9A7
:1024E00005261D22C5E9072822E000BF003802406A
:1024F0000010024000080240000C02400018024098
:1025000000000240100D0020A40D00200030024009
:10251000005C0040A0860100600B002000500140DC
:1025200094090020400100A0680C002000680140D0
:1025300040F20D1140F24312C5E9091240F21710A2
:1025400040F24712C5E90B022846C5E90244AC86B1
:1025500085F8364005F03EFCFF204FF4806CF021FA
:102560004FF4A072CDE916040520CDE918C0CDE9DD
:102570001214CDE91427CDE91A411C9211A9224663
:1025800028461194824DADF874408DF8764005F0E0
:10259000ECFC804A2A601268DFF87CA290472A6827
:1025A0007D4DD26890477D4A2846C5E90024C5E99B
:1025B0000274C5E90A47C5E90C4404F0FFFC314642
:1025C000284604F0B3FD5A4621460DA826F0E0FC4B
:1025D00021461C2211A8724DCDE90B4426F0D8FCEF
:1025E000704AAC60C5E900284FF080091B222846DC
:1025F000C5E90324C5F818904FF4805806F064FF2D
:102600000DA92846CDF8348007F04EF8284606F08C
:1026100087FF0BA92846CDE90B4407F02DFA60226D
:1026200011A9CDE91124284622461394159406F0E9
:10263000D9FF284600F048FCDFF8E0E15A485B4D3E
:1026400004614FF4E132C0E900E20C22C0E9052444
:10265000C0E90244C46107F0DBFA5548554A846179
:102660000A23C362C0E90024C0E90244C0E904446B
:10267000C0E90844846206F0F9F95A46214611A8D7
:1026800026F086FCA022C5E900A228464FF0FF32C2
:10269000C5E90324CDE90D44AC60C5F8189006F0F7
:1026A00013FF11A92846CDF8448006F0FDFF0DA9BF
:1026B0002846CDE90D4407F0DFF93F4A3F484FF483
:1026C0008273C0E900234FF4007B2823C0E906B3DE
:1026D0000A23C362C0E90244C0E90444C0E90844D3
:1026E000846206F0C3F900F016FE00F013FE3448D1
:1026F00026F0CCFA334826F0C9FAFFF7CFF9304676
:10270000FFF722F92046FFF7DBF89FED2F0AFFF7CE
:102710007BF83846FFF7D4FA3046FFF7DBF92B4851
:1027200026F01CFBFFF7C3FA00282FD0284826F01C
:1027300015FB07F08BFD274807F007FE264B274ABD
:1027400018600121084607F077FE254B254A1860DE
:102750000021254807F0A6FD244B254A18600021DA
:10276000244807F09FFD244B244A18600021244888
:1027700007F098FD234B244A18600021234807F0F6
:1027800091FD234B186007F073FDFEE72148CEE76B
:102790006C0500206C000020640D002000B0024099
:1027A000180B002000040040280A0020D00A002056
:1027B000100C002000380040003C0040B80B002006
:1027C00056B0020887B0020800204B44B5B002089A
:1027D000BEB002082CB10208800900201CB102081A
:1027E0007C090020A8B10208511D000890090020B2
:1027F00084B10208253300088C09002060B102086A
:10280000751D0008880900203CB10208791E0008E7
:1028100084090020CDB00208000C004000100140E7
:10282000704770477FB5094B8DF817201B680293DE
:102830000DF117020123009201930A460146044854
:1028400005F064F807B05DF804FB00BF4800002005
:10285000100D00207FB500238DF81730084B1B6842
:1028600002930A4601230DF11701009101930146DD
:10287000044805F0DBF89DF8170007B05DF804FB8D
:1028800048000020100D00201FB5084C246800925D
:10289000CDE901340A4601230146054805F0C6F892
:1028A000003818BF012004B010BD00BF4800002050
:1028B000100D002004F030B910B5064C002220465F
:1028C000042104F061FD20460122BDE810400421EE
:1028D00004F05ABD0008024038B50B4D04460122F1
:1028E0000A484FF4005104F04FFD0022042128460D
:1028F00004F04AFD2046FFF719FA28460122BDE8F8
:102900003840042104F040BD00080240000C0240A1
:1029100038B50B4D044600220A484FF4005104F02C
:1029200033FD00220421284604F02EFD2046FFF747
:10293000FDF928460122BDE83840042104F024BDF9
:1029400000080240000C0240F7B5144E144F054633
:102950000C4630460022042104F016FD00224FF4FC
:102960000051384604F010FD2846FFF7DFF90D4B03
:102970000D481B68224601A906F080FA384601225C
:102980004FF40051019C04F0FFFC30460122042169
:1029900004F0FAFC204603B0F0BD00BF000802407E
:1029A000000C024044000020600B002004F0B4B88A
:1029B0000268034B9A4201D104F09CB8704700BFF3
:1029C000001000407047000082B00E4B00220092C1
:1029D000596C41F480415964596C01F48041009173
:1029E00000990192196C41F0805119641B6C03F03D
:1029F00080530193019B0F216FF0010002B004F09E
:102A0000B1B800BF003802400268094B9A4282B058
:102A10000BD100230193074B1A6B42F480521A63C7
:102A20001B6B03F480530193019B02B0704700BFFE
:102A3000003002400038024007B50F4B02689A424E
:102A400016D10022A3F5F0430192196B41F4000165
:102A500019631B6B03F40003019305215A20019BAA
:102A600004F080F85A2003B05DF804EB04F0ACB831
:102A700003B05DF804FB00BF00B002402DE9F04355
:102A8000044689B01422002103A826F081FA2268A6
:102A9000204B9A423BD1204C204800250095236BC7
:102AA00043F004032363236B03F004030093009BB0
:102AB0000195236B43F001032363236B03F00103B0
:102AC0000193019B4FF012094FF400734FF001087E
:102AD0000327042603A9CDE90339CDE90587079625
:102AE00004F068FB4FF480730D48079603A9CDE905
:102AF0000339CDE9058704F05DFB0295236C43F4AF
:102B000000032364236C03F400030293029B09B0C7
:102B1000BDE8F083005C004000380240000802403D
:102B200000000240F0B599B004461422002107A825
:102B300026F02EFA30220DEB0200002126F028FAB2
:102B400022685E4B9A4240F0B78008230C93C02362
:102B50001093042312930CA84FF40033159305F03F
:102B60003DFD08B1FFF72EFF554B56480024009459
:102B70005A6C42F080625A645A6C02F08062009291
:102B8000009A01941A6B42F020021A631A6B02F049
:102B900020020192019A02941A6B42F001021A6318
:102BA0001A6B02F001020292029A03941A6B42F02D
:102BB00002021A631A6B02F002020392039A04944F
:102BC0001A6B42F040021A631A6B02F04002049240
:102BD000049A05941A6B42F004021A631A6B02F00D
:102BE00004020592059A06941A6B42F008021A63D1
:102BF0001B6B03F00803069302250E26069B0B961B
:102C00004FF4806307A9CDE90735CDE9094504F004
:102C1000D1FA41F658032C480B9607A9CDE90735A0
:102C20000927CDE9094504F0C5FA032327480B9786
:102C300007A9CDE90735CDE9094504F0BBFA4FF402
:102C4000706322480B9607A9CDE90735CDE9094500
:102C500004F0B0FA4FF40C631D480B9607A9CDE9B8
:102C60000735CDE9094504F0A5FAC02319480B96AC
:102C700007A9CDE90735CDE9094504F09BFA0823FA
:102C800015480B9607A9CDE90735CDE9094504F0AC
:102C900091FA4FF4A0530E480B9707A9CDE90735D9
:102CA000CDE9094504F086FA58202246052103F0B3
:102CB00059FF582003F088FF19B0F0BD00680140AB
:102CC00000380240001402400000024000040240AC
:102CD0000018024000080240000C0240F0B5044613
:102CE0008DB01422002107A826F052F92368434A28
:102CF000934238D1424B4348002400941A6C42F46A
:102D000080421A641A6C02F480420092009A019484
:102D10001A6B42F004021A631A6B02F00402019269
:102D2000019A02941A6B42F002021A631B6B03F0C1
:102D300002030293029B022708230326052507A905
:102D4000CDE90737CDE90A6504F034FA4FF4E043E2
:102D5000CDE90737CDE909462B480B9507A904F0C3
:102D600029FA0DB0F0BD294A934221D1244B00210C
:102D700003911A6C42F400421A641A6C02F4004285
:102D80000392039A04911A6B42F004021A631B6BBC
:102D900003F0040304934FF4E050049B0223CDE9B5
:102DA000070303240623CDE90A43164807A9D6E7FB
:102DB000174A9342D5D1124B1648002105915A6CFF
:102DC00042F480125A645A6C02F480120592059AF9
:102DD00006911A6B42F020021A631B6B03F020036A
:102DE0000693069B4FF4607202230321CDE907236B
:102DF0000523CDE90A1307A9B1E700BF0038004059
:102E0000003802400008024000040240003C00403C
:102E1000005001400014024037B50368254A934230
:102E2000054635D1002302F50D320093116C224C7A
:102E300041F002011164126C204902F0020200927A
:102E4000009A4FF02062C4E9001240224FF48060E3
:102E5000C4E902234FF40062C4E904024FF40052B3
:102E60002046C4E90623C4E9083303F0E1FE08B1B3
:102E7000FFF7A8FD6C62AC63002205211D20A5634D
:102E800003F070FE1D2003B0BDE8304003F09CBE8F
:102E90000B4A93420BD1002301930A4B1A6C42F068
:102EA00008021A641B6C03F008030193019B03B032
:102EB00030BD00BF00040040700A00207060024076
:102EC000000C00400038024010B5044686B01422C1
:102ED000002101A826F05CF822680D4B9A4214D11B
:102EE000002300930B4B0C481A6B42F002021A634A
:102EF0001B6B03F002030093009B1022022301A925
:102F0000CDE90123059304F055F906B010BD00BFCB
:102F100000040040003802400004024070B506463C
:102F200088B01422002103A826F032F83268254B1D
:102F30009A4244D1002503F5943301955A6C2248F6
:102F4000224C42F010025A645A6C02F010020192B4
:102F5000019A02951A6B42F001021A631B6B03F08F
:102F600001030293029B4FF4C0620223CDE90323C5
:102F700003210723CDE9061303A904F01BF9144824
:102F80004FF00063C4E900034023C4E90235204642
:102F90004FF48063C4E90435C4E90655C4E9085513
:102FA00003F046FE08B1FFF70DFDB46325200022B3
:102FB0000521A66303F0D6FD252003F005FE08B029
:102FC00070BD00BF0010014000000240C809002091
:102FD000B86402402DE9F04186B0002303932B4BE7
:102FE0001C68002C4FD14FF00108C3F80080284B1B
:102FF00000949A6B274842EA08029A639B6B03EAA3
:1030000008030093022703260C25009B01A94FF615
:103010003F03CDE90137CDE9046504F0CBF81E4844
:10302000059501A9CDE90187CDE9034604F0C2F871
:1030300048F233131948059501A9CDE90137CDE9C7
:10304000034604F0B7F84FF683731548059501A9B8
:10305000CDE90137CDE9034604F0ACF84CF2037337
:103060001048059501A9CDE90137CDE9034604F0E3
:10307000A1F860230C48059501A9CDE90137CDE9F8
:10308000034604F097F806B0BDE8F0813C0E00203E
:1030900000380240001402400008024000180240BC
:1030A00000100240000C02400004024070B588B0DD
:1030B00000230293204B1A6C42F010021A641B6C1E
:1030C00003F010030293054601A903A8029B05F033
:1030D00067FA069B4BBB05F043FA184E184B33605A
:1030E00040F2E733F360174BB0FBF3F3013B73603F
:1030F000304600233361B360B36106F0E5F904465E
:1031000080B9304606F022F8044658B9362003F05C
:103110005BFD0F2D0DD822462946362003F022FDF7
:10312000094B1D60204608B070BD05F019FA40003B
:10313000D3E70124F6E700BF00380240400E00202C
:103140000010004040420F00D40000207047FEE70E
:10315000FEE7FEE7FEE77047012004F023B90220F6
:1031600004F020B9042004F01DB90000014803F068
:1031700067BE00BF700A0020014806F077B800BFA4
:10318000180B0020014806F06DBE00BF280A002081
:10319000014806F06BB800BF400E0020014803F064
:1031A0004FBE00BFC8090020014804F081BE00BF27
:1031B000680C0020014803F02FBF00BF640D002001
:1031C0000120704708B525F0FBFF162303604FF080
:1031D000FF3008BD08B525F0F3FF16230360FEE7B6
:1031E00070B50D4614460E46731B9C4201DC20460A
:1031F00070BDAFF3008006F8010BF5E74FF0FF302C
:1032000070474FF400534B60002070470120704717
:10321000002070470A4A116808B5034609B90949F0
:1032200011601068694603448B4206D925F0C8FF37
:103230000C2303604FF0FF3008BD1360FCE700BFB4
:10324000880E002008480120172810B514D843EA3A
:1032500001230A4900EB400043EA024201EB00115E
:103260001723012404FA03F0104214BF1020082091
:10327000013B21F8020BF5D210BD00BF8E0E0020DD
:10328000034A04484FF41073002106F08BBB00BFC3
:103290008E0E0020180B0020F8B505460E46174686
:1032A0000024E0B23B46324629460134FFF7CCFF0A
:1032B000182CF6D1BDE8F840FFF7E2BFF8B5104D85
:1032C000104E00240627297821448910B1FBF7F31A
:1032D00007FB131101EB41017218E0B29378715CA6
:1032E00052780134FFF7B0FF182CECD1FFF7C8FF7C
:1032F0002B780133B3FBF4F204FB12332B70F8BDCF
:103300008C0E0020500000200148002106F0B2BBC6
:10331000180B0020704708B500F0B6FDBDE8084066
:1033200000F03ABD00F0B2BD704710B5042104466C
:1033300023F08EFD204610BD38B50C4B0C4C188088
:103340000C4B822019806368984740F6110398421D
:103350000AD1094D23682C60822098472B6882206F
:10336000DB689847002038BD0120FCE71A130020D5
:10337000A4000020181300201C1300204FF4A0719B
:10338000F020FFF7D9BF0000F7B5334D2B68044696
:103390001B6982209847208000284AD02B680DF1B5
:1033A00006025B6901A982209847BDF8063040F605
:1033B000746293423FD9ADF80620BDF80630D21AA8
:1033C00092B20A2A3DD90B23B2FBF3F2234B1B889E
:1033D0009A4201D9013B9AB2BDF8043040F6B831A7
:1033E0008B4230D8C3F571630E339BB20F21B3FB10
:1033F000F1F31B4909888B4201D901398BB2194E6F
:10340000194D30682F68834281B28CBF591AC91A8E
:10341000B8B2BA428CBF101A801A89B280B2014485
:103420000529C8BF33603368C8BF2A6063802B6832
:10343000A38003B0F0BDB32B9CBFB423ADF806301E
:10344000BBE70022C8E7C3F56D6308339BB20E2BC0
:10345000CCD80023D3E700BF1C1300201813002092
:103460001A130020141300201013002037B56846EB
:103470000D461446FFF788FFBDF8000030B1BDF8D7
:1034800002302B60BDF804302360012003B030BD52
:10349000032821D8DFE800F0020B12190F4B1A683D
:1034A000B2FA82F2520904210D4803F06DBF0B4BB2
:1034B0005A68B2FA82F252090821F5E7074B9A6876
:1034C000B2FA82F252091021EEE7044BDA68B2FA3E
:1034D00082F252092021E7E7704700BF2013002045
:1034E00000100240032821D8DFE800F0020B121977
:1034F0000F4B1A68003A18BF012204210D4803F04F
:1035000043BF0B4B5A68003A18BF01220821F5E768
:10351000074B9A68003A18BF01221021EEE7044BCE
:10352000DA68003A18BF01222021E7E7704700BFA0
:10353000201300200010024003280DD8DFE800F01F
:103540000206080A0421054803F023BF0821FAE710
:103550001021F8E72021F6E7704700BF0010024075
:1035600008B5032811D8DFE800F0020A0C0E042188
:10357000074803F003FF431E5842584108BD082185
:10358000F6E71021F4E72021F2E70020F3E700BF7F
:103590000010024070B5084D00240126E0B2FFF78C
:1035A000DFFF18B12B68012B18BF2E600134052CEA
:1035B00005F10405F2D170BD20130020012380F82D
:1035C000781080F87930704770470020704700000D
:1035D000034B4164003918BF01211970704700BFC7
:1035E000C73A0120704700207047836B0BB1084633
:1035F000184770474FF6FF707047406803689B6933
:1036000018477047704770477047704710B50446B9
:1036100000F052FD044B636123680449D3F89030F5
:103620002046BDE81040184730130020000000D0AD
:1036300008B503680446D3F88430984723682046C9
:10364000DB6F984700F0F4F8236820465B6F9847DB
:103650002920FFF75DF900F0EBF8236820465B6F47
:103660009847F8E710B504460AF0BEFB23682046E9
:10367000D3F8BC30BDE81040184700F0FFBC00F0A4
:1036800003BD00F037BD00F0D5BC00F047BD00F031
:103690004FBD00F0D9BC09F0D5BD10B5842104465A
:1036A00023F0D6FB204610BD10B590F8341090F8EA
:1036B00078400C4B8C421A7809D03AB90A4A0B4927
:1036C0001488088810800C8001221A7010BD002A0E
:1036D000FCD0054A05491488088810800C80002217
:1036E000F3E700BFC03A0120BC3A0120BE3A0120F6
:1036F00070B50D46194635B9094B0A4A0A4840F2D9
:10370000FF2124F0EBFAC0E90F52084B003A18BF32
:1037100001221A700368BDE87040D3F89030184752
:10372000E4B102081CB202086AB20208C63A0120DB
:1037300008B5094B1B888B4203D8084B1B88934262
:1037400005D9074B074A0848A32124F0C7FA074BBD
:103750001980074B1A8008BDBC3A0120BE3A0120EF
:10376000AFB2020812B302086AB20208C23A0120DC
:10377000C43A0120034690F87A0018B158680368EB
:103780001B68184770470000014B024A1A607047D7
:10379000301300206CAF0208012108B50022084652
:1037A00006F04AFE0A4B186028B90A4B0A4A28213B
:1037B0000A4824F093FA00220421012006F0DBFEDF
:1037C000074B186018B9074B034A2C21F0E708BDD6
:1037D0003C13002044B402088DB40208BCB40208B3
:1037E0003813002002B50208024B4FF0FF31186871
:1037F00006F06CBE3C130020014B186806F092BE28
:103800003C130020024B0021186806F05FBE00BF89
:103810003C130020FFF7F0BF034804490068002371
:103820001A4606F0E3BE00BF3813002064000020F3
:1038300013B5084C00231A4601A9206806F007FFBB
:1038400020684FF0FF33002201A906F000FF02B00C
:1038500010BD00BF3813002003685B6C18470120BF
:10386000704703689B6A1847FEE740F2EF307047E5
:10387000054B0360054B4FF08062C3F88820BFF30F
:103880004F8FBFF36F8F704798B6020800E100E0DA
:1038900010B504464FF45A61FFF7EAFF204623F0C3
:1038A000D7FA204610BD000082B0002301930E4BD2
:1038B0001A6B42F400021A631A6B02F400020192BE
:1038C000019A1A6942F400021A611A6922F400028C
:1038D0001A61064B064A1A61064A5A61064B4FF0B6
:1038E00080629A6002B0704700380240640D002088
:1038F000493B00086938000800E100E008B50A28E3
:1039000009D8DFE800F006100E08080808101010AB
:103910001000022008BD054B054A0648902124F0FE
:10392000DDF90020F6E70120F4E700BF44B5020806
:103930005FB50208AAB5020838B50C46887FFFF7C4
:10394000DDFFA58AE28A164B2169586342EA0542E7
:103950005A64628BD963521B1A642568082D0ED1F4
:103960009A611A615862207F0E4A42EA0062DA6167
:10397000E2681A620C4A5961D9601A6038BD0022A7
:10398000D8611A61E1680A0A480902F4784200F431
:10399000FC600243C1F3C4010A439A63034AECE7A3
:1039A00000B00240090001000123020001230300CE
:1039B00008B50B280BD8DFE800F00612100A0A0A37
:1039C0000A0808080808022008BD0520FCE7054B86
:1039D000054A06486F2124F081F90020F4E7012010
:1039E000F2E700BF44B50208EEB50208AAB5020826
:1039F0002DE9F04191F81D800C464046FFF7D8FFB5
:103A0000A77F05463846FFF7D3FF06463846FFF73F
:103A100075FFA18A628B444B521A1A649A61228BF9
:103A2000521A1A61E28A586342EA01425A642169D1
:103A30006268D963DA602068802828D0227F0FD896
:103A4000202867D0402865D004281AD0364B45EA94
:103A5000026545F40035B845DD6161D0334A44E084
:103A6000B0F5807F04D0B0F5007FEFD1304800E0A2
:103A7000304840EA0262DA61E2681A625E625961C5
:103A800032E045EA026242F40032DA61F6E7A06809
:103A9000021DDA62227F45EA026545F40035DD61E8
:103AA0005E625961017841B1012921D0224B234A3C
:103AB00023484FF48D7124F011F9DA69418822F41A
:103AC0007F42013922F0100242EA0122DA6101212B
:103AD000154BDA6942F02002DA61DA699206FCD409
:103AE00010229A600029B9D0164A1A60BDE8F08108
:103AF000B2F1FF01DA69408822F47F4200F1FF3021
:103B000022F0100242EA002242F0100218BF012106
:103B1000DA61DDE745EA0262034B42F40032B4E7C2
:103B200042F20132E1E700BF00B002400123010090
:103B3000090002000A00020038B6020852B6020864
:103B4000AAB5020801230200024B1B6858680368EB
:103B50005B691847C83A012070B5044625460A4BF0
:103B60000C30002660602672667245F8203B6022A9
:103B700029460AF08FFA04F55A63EE6024359D4217
:103B8000FBD1204670BD00BF98B60208034B1A68EF
:103B9000D207FCD423229A60704700BF00B00240D5
:103BA0007047000030B50F4C2568ED07FCD4232585
:103BB0000904A56041F001010225FF2B65636164E2
:103BC000E0630AD00849656241EA0363E361074B99
:103BD00022626061E060236030BDE561039BA36306
:103BE000034BF8E700B002400900010001000200A9
:103BF0000100030030B50E4C2568ED07FCD42325E9
:103C00001204A56042F001020225FF2B6563626485
:103C1000E063E16008D01B0643F00213E361054B4B
:103C200065626061236030BD034BE3610123F9E706
:103C300000B0024001000200020002FF30B50B4C50
:103C40002568ED07FCD4232512041B06A56043F468
:103C50000033022542F0010265636264E063E160C3
:103C6000E361034B65626061236030BD00B00240D8
:103C700001000200012070474020704700EB8110D6
:103C80000830704700EB8110083070470120704702
:103C900040F2BC60704740F2BC6303FB0100083097
:103CA000704740F2BC6303FB0100083070470120FD
:103CB00070471020704700EB01100830704700EB90
:103CC000011008307047084601F078B910B5034B71
:103CD0000360044608F03DFE204610BD50B70208C0
:103CE00010B50446FFF7F2FF2046482123F0B0F854
:103CF000204610BD10B5034B0360044608F029FEB2
:103D0000204610BD1CB7020810B50446FFF7F2FFAD
:103D1000204640F2C46123F09BF8204610BD00000D
:103D200010B5034B0360044608F013FE204610BD97
:103D3000E8B6020810B50446FFF7F2FF2046182146
:103D400023F086F8204610BD10B5084B03600446EA
:103D500000F5DE60FFF7BAFF04F12C00FFF7CAFFA1
:103D600004F11400FFF7DCFF204610BD84B7020801
:103D700008B50248FFF7E8FF08BD00BF1822002081
:103D800010B50446FFF7E0FF204640F6980123F007
:103D90005FF8204610BD00002DE9F34100F05AFC09
:103DA000054600F05BFC00240146234628462246D7
:103DB000009413F059F8274B274A1A60204602F066
:103DC00065F9264D264B274A27489A6012F0B4FF22
:103DD0002B68BFF35B8FDB0735D4284623F03AF816
:103DE00088B3224C224B236004F23C7604F1140089
:103DF00004F12C0804F5DE676060C4F80880E76011
:103E0000266108F0A7FD1B4B6361404608F0A2FD48
:103E1000194BE362384608F09DFD184BC4F8F036A4
:103E200004F5E76002F05DFB224604F5E7613046E9
:103E300002F0ECF9304601F0C1F8114823F06CFFB4
:103E4000284623F013F80F4802B0BDE8F041FFF711
:103E5000DDBB00BF2C3B0120C41300201422002036
:103E6000E4130020C813002068000020182200205E
:103E700084B70208E8B602081CB7020850B7020867
:103E8000713D000840130020704700000148FFF713
:103E9000CFBB00BF4013002070B5264E264C274DE7
:103EA000274B23603046FFF757FE284618F0E2F80C
:103EB000244810F0B7FC244B2448DC6000224FF467
:103EC0008071C3E9121222491A86C3E91A122149E4
:103ED00083F85820C3E91E011F49C3F880101F4909
:103EE0001F480B60F021C3E90422C3E90622C3E99D
:103EF0000822C3E90A22C3E90E22C3E91022C3E95A
:103F00001422C3E917225A6683F870205A67C3E95E
:103F1000016501801348018013484FF4A0710180AE
:103F20001248018012490A70012283F83420114A94
:103F30001A6070BD7014002010220020E4130020CD
:103F4000D4B10208C8130020401300200000010172
:103F500001000001000450001A001400C83A0120BA
:103F6000BC3A0120C23A0120BE3A0120C43A0120E5
:103F7000C03A012060B302080148FFF779BC00BFD6
:103F8000701400200020704781807047C180704706
:103F90000181704741817047704770477047704793
:103FA000704710B4C4880368121B84885B6D091BBA
:103FB00012B25DF8044B09B218474FF6FF738381C4
:103FC0004FF0FF3303621368C36110607047002035
:103FD00070478B88838001207047704780F82610D7
:103FE000704790F82600704710B50022B1F90840DC
:103FF000B1F90A10028042808480C18010BD002285
:10400000028042808280C28070470177704780EDD5
:10401000080A704780F82410704780F82510704710
:1040200001207047983070478C307047843070475B
:1040300070470000034B902283F85A2383F85823DB
:10404000704700BF00E100E0094A0A49D3680A4806
:10405000C3F30A03013B9BB20B801169C1F30A0150
:10406000013901801364536B43F0010353637047BC
:1040700000680140B22A0020B02A0020014BD3F88A
:10408000AC00704700680140024B0122C3F8AC103D
:104090005A627047006801407047704710B52C2184
:1040A000044622F0D5FE204610BD10B5BC210446C2
:1040B00022F0CEFE204610BD70B5044609F017F977
:1040C00023689D6E0FF046F901462046A8472368F5
:1040D000054AD3F88C502046AC460023BDE870401A
:1040E000A2F51631604700BF00B004D009F0E6B871
:1040F00009F0F0B809F0ACB809F01BBA90F8252027
:1041000012B103685B691847704790F825201AB10F
:1041100090F8242002B1186070470000034B4FF064
:1041200080629A604FF080729A60704700E100E010
:10413000084B4FF08062C3F88820BFF34F8FBFF366
:104140006F8F4FF08072C3F88820BFF34F8FBFF39B
:104150006F8F704700E100E070B50023124E83803E
:10416000124B0360336893F8582005460AB1D86CA7
:1041700000B998680368DB6A98473368B0FA80F43E
:10418000D86C640930B10368DB6A9847002808BF1F
:1041900044F001042CB9064B064A07482C2123F0B1
:1041A0009DFD284670BD00BFC83A012094B80208A2
:1041B00090B70208EEB7020827B8020870B5254E7E
:1041C0003568BFF35B8F15F0010540D1304622F012
:1041D00041FE00283BD0204C204B256104F13400E7
:1041E000C4E90035C4E90255E584A562A58510F04F
:1041F000FEFD04F158000BF003FC194BA3652046AB
:10420000184B40F8843BFFF7A7FF174BC4F88430E6
:104210002433C4F88C304FF4C803C4E92835002394
:10422000C4F8AC30C4F8B030C4F8B430C4F8B83016
:104230000E480F4BC4F89050C4F89C50C4F8A850D6
:10424000C4F8983023F068FD304622F00FFE024893
:1042500070BD00BFB42A0020B82A00208CD002080C
:10426000B4B802082CB9020840D002083140000856
:1042700020D0020838B5184C23685BB3174B184A96
:104280001B6C11888B4216D1164B198803F09AFECD
:10429000236893F86A200025013283F86A2083F8A6
:1042A0007C50FFF7B9FA206809F09EFD2846BDE86A
:1042B0003840FFF7EDB803F085FE246823682046F8
:1042C0001B6A9847012384F87C300020BDE8384001
:1042D000FFF708B938BD00BFC83A012000680140A7
:1042E000B22A0020B02A00207047704770477047FC
:1042F0007047704770477047704730B4C268446871
:104300005510034604EB6200D20748BF62599B6810
:1043100030BC48BFD35818470346406830B19A684C
:104320001AB9D86800F0010070470120704710B535
:104330000821044622F08CFD204610BD10B5102146
:10434000044622F085FD204610BD10B54FF4F871EB
:10435000044622F07DFD204610BD00F5B270884273
:1043600008B505D10EF0F6FFBDE8084000F036BEF6
:1043700008BD322908B505D10EF0ECFFBDE80840B4
:1043800000F02CBE08BD70B5036804461B6B1546D3
:1043900098472368294620465B6BBDE87040184764
:1043A0000022C0E90122C0E90322C0E90522C0E9D8
:1043B00007224FF480728284014A0260704700BF76
:1043C0008CB902082DE9F04F044689B02646002535
:1043D00010F0C4FF814BE56346F8403B4FF0260ADE
:1043E00052462946304624F0D3FD3046FFF7D8FF29
:1043F00004F16C09FF277A4B236452464FF6FF7392
:10440000294684F86670A5664846ADF8183024F051
:10441000BFFD4846FFF7C4FF724AE266BDF81820A8
:10442000A4F8922004F5867806A984F8947048468A
:104430000CF0CDF804F5B27B40460CF09DFB5246E3
:104440002946584624F0A4FD5846FFF7A9FF4FF02F
:10445000010304F5CC7784F88831634AC4F88C51A1
:104460004FF6FF73A4F89231A4F8943184F8963192
:10447000294684F89051C4F864213846524624F005
:1044800087FD3846FFF78CFF584BC4F8C0314FF614
:10449000FF73A4F8C4314FF47F03C4F8CC314FF05C
:1044A000FF33C4E97635524B524AC4F89821C4E927
:1044B0007834514BC4F8C851C4E97A352A46A4F877
:1044C000D051C4F8D45129463046FFF75CFF30463E
:1044D0004FF4A071FFF75CFD3046F021FFF75AFD65
:1044E00004F1040A4FF07F43A3663146504608F0BA
:1044F00012FC2A4629464846FFF745FF052606A92D
:104500004846ADF818600CF062F84946504608F08D
:1045100002FC6C2140462E22FFF735FF04F1980281
:10452000C4F8342104F1D102C4F838214FF001025B
:1045300084F83C211522C4F8402184F89850404664
:104540000CF075FB4046C4F844610CF070FB2B493D
:1045500040460CF04FFB4146504608F0DCFB294634
:104560005846BE22FFF70FFF0C22ADF81420ADF81D
:10457000182005A906AA58460BF0F0FE04F5F072C3
:10458000C4F88C215946504608F0C5FBA122384694
:104590004D21FFF7F8FE4FF07F43A4F8CC516D4654
:1045A000C4F8C831394628460BF0D2FB95E807001D
:1045B00004F5EA7383E807000C4B069306A90D2364
:1045C0003846ADF81C300BF06BFE5046394608F00B
:1045D000A2FB204609B0BDE8F08F00BF1CBA02085C
:1045E00050D202082CD30208B8D20208F4B902084B
:1045F00004BA0208C0D102085B43000870B902087F
:10460000704708B505291CD8DFE801F003070B0F38
:10461000131701F087FD006808BD01F083FD4068B5
:10462000FAE701F07FFD8068F6E701F07BFDC068E6
:10463000F2E701F077FD0069EEE701F073FD4069F4
:10464000EAE70020E8E710B50421044622F000FC68
:10465000204610BD004870475CBA0208162070471B
:1046600013B5002451B1036801948DF8034001AAE9
:104670009C680DF10303A04702B010BD0846FBE79C
:10468000C0897047008A7047C0887047808870472B
:10469000807A00F07F007047807AC0097047002060
:1046A000704700009FED010A704700BF0000000046
:1046B0007047704700F598730868496803C37047EE
:1046C000704770474160704770470000064BC0F864
:1046D0004C310023C0F8503100F5A273C0F84801F6
:1046E000C0F84031704700BF894A000801230372B7
:1046F0007047704770477047704710B4C268416890
:104700005410034601EB6200D20748BF0A599B6868
:104710005DF8044B48BFD35818470346406830B192
:104720009A681AB9D86800F00100704701207047F4
:1047300010B50C21044622F08BFB204610BD10B5AD
:104740001021044622F084FB204610BD10B54FF422
:10475000AE71044622F07CFB204610BD10B540210E
:10476000044622F075FB204610BD10B540210446DA
:1047700022F06EFB204610BD10B50EF0EBFD036875
:10478000BDE81040DB6B1847054B1B7801462BB189
:10479000406818B103680C315B6E1847704700BF62
:1047A000C73A0120054B1B7801462BB1406818B170
:1047B00003680C315B6E1847704700BFC73A012091
:1047C000037A70B50546BBB940680368DB69984752
:1047D00004463CB96868036805F10C011B6EBDE82E
:1047E00070401847A1886B8FC91A236820461B6B3D
:1047F00009B29847A469ECE770BD037A70B5054625
:10480000BBB940680368DB69984704463CB96868EF
:10481000036805F10C011B6EBDE870401847E18884
:104820006B8FC91A236820465B6B09B29847A4694D
:10483000ECE770BD10B50446D0F8400158B10368EC
:10484000DB68984738B1D4F8400103689B68984703
:104850000023C4F8403110BD70B5044690F839000B
:1048600094F838300130C0B2984284F8390005D944
:1048700001232372002384F8393070BDB4F93A2043
:10488000002110F01DFFC30706D500284FF6FF7367
:10489000C8BF0123184400B2638AC01AA0876068A9
:1048A0000368DB69984705462DB960680368BDE871
:1048B00070405B691847E988A38F19442B68284624
:1048C0005B6B09B29847AD69EEE770B5044690F8A6
:1048D000390094F838300130C0B2984284F8390079
:1048E00005D901232372002384F8393070BDB4F94F
:1048F0003A20002110F0E4FEC30706D500284FF649
:10490000FF73C8BF0123184400B2238AC01AA087CE
:1049100060680368DB69984705462DB960680368DD
:10492000BDE870405B691847A988A38F19442B68BC
:1049300028461B6B09B29847AD69EEE72DE9F14FA8
:10494000D0E9556A0746B06803681B6A9847B0F516
:10495000F87F05D2444B454AA321454823F0BEF9D0
:10496000706803681B6A98470F2803D8414B3F4A79
:10497000A421F2E7F06803681B6A98470B2803D864
:104980003D4B3A4AA521E8E70EF0E4FCDFF8F09051
:1049900004300EF004FDD9F8000010B10368DB68A4
:1049A0009847D9F8000010B103681B689847DFF8F2
:1049B000D480D8F8000010B103685B699847D7F835
:1049C0003C0110B103685B689847D8F8000010B14B
:1049D00003681B689847D7F83C0110B103689B68CF
:1049E0009847F068036800215B6A98474FF0000B16
:1049F000224BC0F804B0044680F808B00360B068E9
:104A0000036859465B6A9847054601F0DFFB70680A
:104A1000036859465B6A98472946064601F0B4FB8D
:104A2000331DC7F83C61C9F80040C8F80050CAF807
:104A300000302B68C6F808A02846DB68EE6398476C
:104A4000336830461B6898472146284610F032FEEE
:104A5000236820461B69984723685B69204601B09C
:104A6000BDE8F04F184700BF14BC0208A2BC020802
:104A70007EBD0208C5BD020868BE02083CC202082D
:104A8000103B01200C3B01202DE9F14FD0E9556A84
:104A90000746B06803681B6A984740F2BB639842B8
:104AA00005D8444B444AA321444823F017F97068C1
:104AB00003681B6A98470F2803D8414B3E4AA4213C
:104AC000F2E7F06803681B6A98470B2803D83D4B50
:104AD000394AA521E8E70EF03DFCDFF8F0900430FC
:104AE0000EF05DFCD9F8000010B10368DB68984750
:104AF000D9F8000010B103681B689847DFF8D08030
:104B0000D8F8000010B103685B699847D7F83C01FA
:104B100010B103685B689847D8F8000010B10368CB
:104B20001B689847D7F83C0110B103689B68984709
:104B3000F068036800215B6A98474FF0000B224B36
:104B4000C0F804B0044680F808B00360B068036899
:104B500059465B6A9847054601F0A4FB70680368F4
:104B600059465B6A98472946064601F067FB331DA4
:104B7000C7F83C61C9F80040C8F80050CAF80030D6
:104B80002B68C6F808A02846DB68EE6398473368B0
:104B900030461B6898472146284610F08BFD236855
:104BA00020461B69984723685B69204601B0BDE831
:104BB000F04F184714BC02080BBF02087EBD020864
:104BC000C5BD020868BE02083CC20208103B0120B5
:104BD0000C3B01202DE9F0411D460368BDF918701A
:104BE0001B6B0446164698472368314620465B6B8C
:104BF00098472368294620469B6B98472368394687
:104C00002046DB6BBDE8F041184700002DE9F74F67
:104C1000D0E9556A0746B06803681B6A984740F2B6
:104C2000BB63984205D8544B544AA321544823F0FF
:104C300055F8706803681B6A98470F2803D8514BD2
:104C40004E4AA421F2E7F06803681B6A98473F28A0
:104C500003D84D4B494AA521E8E70EF07BFBDFF86E
:104C6000389104300EF09BFBD9F8000010B10368B6
:104C7000DB689847D9F8000010B103681B689847B3
:104C8000DFF81881D8F8000010B103685B69984715
:104C9000D7F83C0110B103685B689847D8F800006A
:104CA00010B103681B689847D7F83C0110B103683E
:104CB0009B689847F068036800215B6A984705463F
:104CC0000022324B4260027245F80C3B04462846F3
:104CD0000AF03EFF142323872D4B1B780022A28766
:104CE000002B35D101232372B068036800215B6A71
:104CF0009847054601F0D6FA7068036800215B6AA0
:104D000098472946064601F099FA331DC7F83C61D9
:104D1000C9F80040C8F80050CAF800302B68C6F83F
:104D200008A02846DB68EE639847336830461B6866
:104D300098472146284610F0BDFC236820461B6991
:104D4000984723685B69204603B0BDE8F04F1847D9
:104D5000104BDFF84CB0B3F900300093BBF90030D2
:104D600011462846FFF736FF28460AF06CFEBBF8CE
:104D700000306387B8E700BF14BC0208E5BF020833
:104D80007EBD0208C5BD020868BE020884C20208D2
:104D9000C73A0120BE3A0120103B01200C3B012004
:104DA000BC3A01202DE9F74FD0E9556A0746B068B3
:104DB00003681B6A9847B0F5887F05D2544B554A63
:104DC000A321554822F08AFF706803681B6A984740
:104DD0000F2803D8514B4F4AA421F2E7F06803682B
:104DE0001B6A98473F2803D84D4B4A4AA521E8E75C
:104DF0000EF0B0FADFF8389104300EF0D0FAD9F89E
:104E0000000010B10368DB689847D9F8000010B1C2
:104E100003681B689847DFF81C81D8F8000010B1C0
:104E200003685B699847D7F83C0110B103685B6879
:104E30009847D8F8000010B103681B689847D7F866
:104E40003C0110B103689B689847F0680368002133
:104E50005B6A984705460022324B4260027245F871
:104E60000C3B044628460AF073FE142323872E4B7E
:104E70001B780022A287002B35D101232372B06852
:104E8000036800215B6A9847054601F05FFB706884
:104E9000036800215B6A98472946064601F034FB07
:104EA000331DC7F83C61C9F80040C8F80050CAF883
:104EB00000302B68C6F808A02846DB68EE639847E8
:104EC000336830461B6898472146284610F0F2FBAD
:104ED000236820461B69984723685B69204603B016
:104EE000BDE8F04F1847DFF850B0BBF90030009331
:104EF0000E4B1146B3F900302846FFF76BFE2846EB
:104F00000AF0A1FDBBF800305B426387B7E700BF42
:104F100014BC0208D2C002087EBD0208C5BD02084A
:104F200068BE020860C20208C73A0120BC3A0120EC
:104F3000103B01200C3B0120BE3A0120044B1B68B2
:104F400093F858200AB1D86C00B99868704700BF30
:104F5000C83A0120F8B5174604460E460EF0BCFAD2
:104F6000124B1C60124B2360124B0025C4E95135D3
:104F7000114BC4E953551868036829469B68C4E976
:104F80004F55C4E955769847284601F07FF8FFF75A
:104F9000D5FF18F018FFFFF7D1FF18F08FFFFFF7CC
:104FA000CDFF18F097FF2046F8BD00BF1C3B012045
:104FB000E8C10208D0C10208C83A0120064BC0F877
:104FC0004C310023C0F8503100F5A273C0F84801FD
:104FD000C0F84031704700BF894A0008064BC0F84E
:104FE0004C310023C0F8503100F5A273C0F84801DD
:104FF000C0F84031704700BF0D4C0008064BC0F8A8
:105000004C310023C0F8503100F5A273C0F84801BC
:10501000C0F84031704700BF3D490008064BC0F85A
:105020004C310023C0F8503100F5A273C0F848019C
:10503000C0F84031704700BFA54D0008406A704776
:10504000806A704770478A880B8810B5D20A4C88EE
:10505000C1699BB251F8220043EA0443184410BDD1
:1050600010B50446BAB1107B68B1537BD27A1B02EB
:1050700003F4E0631A43236A03EB82031A888A422B
:1050800002D193F9020010BD05D8013880B2043373
:105090000028F3D1F7E70020F5E710B52C210446EE
:1050A00021F0D6FE204610BD30B58BB00446BDF8C9
:1050B00060500895BDF85C5007959DF850500695D6
:1050C0009DF84C5005959DF8485004959DF8445026
:1050D00003959DF8405002959DF83C500195BDF810
:1050E000385000950FF040FF064B2360159BE3619D
:1050F000169B2362199B63621A9BA36220460BB026
:1051000030BD00BFA8C2020830B50368018185B078
:105110006D460146D3F8843004462846984795E802
:1051200007003C3484E8070005B030BD30B50368A3
:10513000418185B06D460146D3F884300446284647
:10514000984795E807003C3484E8070005B030BD77
:105150000022028042808280C280704780F8361030
:10516000704770B5036804461B6B15469847236863
:10517000294620465B6EBDE8704018470020704706
:1051800000224FF0FF31C0E9002182607047806C3F
:1051900070477047704770477047704730B4C268B7
:1051A00044685510034604EB6200D20748BF6259B9
:1051B0009B6830BC48BFD35818470346406830B19D
:1051C0009A681AB9D86800F001007047012070474A
:1051D00010B54C21044621F03BFE204610BD10B511
:1051E0001021044621F034FE204610BD10B540F2D7
:1051F0006C61044621F02CFE204610BD08B5FEF778
:105200007DFF08BD3029034602D11B68DB6A1847C1
:105210003129FAD03229F8D070470000036870B500
:105220005E6B124B1B6804468DB22BB9104B114AB2
:105230006C21114822F052FD1049828D098891425B
:1052400003D80F4B0B4A6D21F3E713F812200D4BD7
:105250001B6853F8220003681B6B9847291A3346D2
:10526000204609B2BDE87040184700BF203B01202E
:1052700008C302084AC3020885C30208243B012070
:10528000CCC30208283B012038B500F5F6739942DB
:1052900004460D4603D10EF05DF8FFF7BFFE04F59E
:1052A0000874A54205D10EF055F8BDE83840FFF767
:1052B000A5BE38BD38B5262204460D46002123F090
:1052C00067FE2046FFF76CF8064B23602B88E384CB
:1052D000FF23204684F8283029460BF078F9204631
:1052E00038BD00BF2CD3020810B526220446002189
:1052F00023F04EFE2046FFF753F80023A36284F804
:105300002C30012384F82430044B23604FF6FF73C4
:1053100084F83230E3852386204610BDB8D20208D7
:1053200010B526220446002123F032FE2046FFF766
:1053300037F80A4B23600A4BA3624FF6FF73A3852D
:105340004FF47F020023C4E90C3223874FF0FF3271
:10535000C4E91023E363204610BD00BFC0D102089A
:10536000F4B902082DE9F04F04469FB02546002607
:105370000FF0F4FFD74BE66345F8403B2622314659
:10538000284623F005FE2846FFF70AF8D24B23648F
:1053900004F16C0B4FF0FF334FF6FF771CA984F834
:1053A000663004F1980A5846A66604F1CC09ADF8B7
:1053B0007070FFF77FFF5046FFF796FF04F5807887
:1053C0004846FFF791FF4046FFF78EFF04F59A73BA
:1053D00018460C93FFF788FF04F5B4731CA9184610
:1053E0000D93ADF87070FFF765FF04F5CA731CA943
:1053F00018460E93ADF87070FFF75CFF04F5E0738C
:105400001CA918460F93ADF87070FFF753FF04F511
:10541000F67318461093FFF767FF04F508731846F4
:105420001193FFF761FF04F515731846029307F017
:10543000ADFB04F53B7318460393FFF771FFA74BD1
:10544000C4F8EC3204F54E731846C4F83463049380
:10545000FFF766FF04F5607318460593FFF760FFDA
:1054600004F572731CA918461293ADF87070FFF71B
:1054700021FF04F57D7318460693FFF751FF04F2F0
:105480003C4318460793FFF74BFF04F2844318464A
:105490001393FFF745FF914BC4F8843404F59A63E6
:1054A0001CA91846C4F8CC641493ADF87070FFF7CB
:1054B00001FF04F2FC431CA918461593ADF8707067
:1054C000FFF7F8FE04F5A56318460893FFF728FFD9
:1054D00004F5AE6318460993FFF722FF04F5B7639E
:1054E00018460A93FFF71CFF04F5C06318460B9398
:1054F000FFF716FF7A4BC4F85C367A4BC4F8643673
:10550000F02332462846C4F86046C4F8686631463F
:1055100000934FF4A073271DFFF75CFB4FF07F4310
:10552000A3662946384607F0F6FB32465846314610
:10553000FEF729FF4FF00A0358461CA9ADF870305A
:105540000BF045F85946384607F0E5FB50466E2209
:105550006921FEF718FF4FF008031CAA50461BA94B
:10556000ADF86C30ADF870300AF0F8FE51463846B0
:1055700007F0D1FB48461022E421FEF704FF4FF06C
:10558000070A1CAA48461BA9ADF86CA0ADF870A08C
:105590000AF0E4FE4946384607F0BDFB40463D228E
:1055A000E421FEF7F0FE1CAA40461BA9ADF86CA052
:1055B000ADF870A00AF0D2FE4146384607F0ABFBCA
:1055C0000C98DFF824816E22E421FEF7DCFE0F2325
:1055D0001CAA0C98ADF86C301BA9ADF870300AF01D
:1055E000BDFE0C99384607F096FB10220D980B2152
:1055F000FEF7C9FE4FF00B0B0D98ADF870B01CA96B
:105600000AF0E5FF0D99384607F085FB10220E9849
:105610006921FEF7B8FE0D230E98ADF870301CA975
:105620000AF0D5FF0E99384607F075FB6E220F98E9
:105630005946FEF7A8FE0E230F98ADF870301CA94E
:105640000AF0C5FF0F99384607F065FB1098B9229C
:10565000E421FEF798FE04F25C6510231CAA109862
:10566000ADF86C301BA9ADF870300AF077FE1099D8
:10567000C4F81452384607F04EFB1198B9224FF483
:105680008971FEF780FE1CAA1198ADF86C601BA909
:10569000ADF870600AF062FE1199C4F848523846BD
:1056A00007F039FB34231E220298009369216E23F0
:1056B000FFF790FA02984FF07F4107F0A5F94FF0FD
:1056C0000C090298CDF870801CA9ADF8749007F011
:1056D000AEF90BE008C5020850D2020860C4020807
:1056E000F0C4020889520008F4B9020802980121A6
:1056F00007F09AFA0A224FF001031146029884F843
:105700008332334607F093FA0299384607F003FBD9
:1057100028232A22039800934946FFF75BFA4FF0AB
:105720007F43C4F81C33D4F8EC320399D3F88430A7
:10573000A4F8206316AD2846984795E8070004F5BD
:105740004A7383E8070002934FF0030384F825337C
:10575000D4F8EC320399D3F884302846984795E87A
:105760000700029B83E8070004F5C9630293084B16
:105770001B682BB9074B084A6021084822F0AEFA93
:10578000074B1B88082B0FD8064B034A6121F4E70F
:10579000203B012008C302080AC4020885C302088E
:1057A000243B0120CCC30208CD4B0821186800F02F
:1057B000A9FCCC4A03460A21029811F0AFFA029ADA
:1057C000C4F834230398ADF874B01CA9CDF87080E8
:1057D0000AF066FD0399384607F09DFA4946049899
:1057E0001922FEF7D0FD4FF07F420499C4F86823D8
:1057F0002846A4F86C630AF0ABFA95E8070004F5B4
:105800005D7383E807004FF00A020498ADF8742036
:105810001CA9CDF870800AF043FD0499384607F0C2
:105820007AFA05986E221621FEF7ADFD4FF07F4201
:105830000599C4F8B0232846A4F8B4630AF088FA9E
:1058400095E8070004F56F7383E8070009230598BE
:10585000ADF874301CA9CDF870800AF021FD0599CF
:10586000384607F058FAA02249461298FEF78BFDF9
:105870004FF0040B1298ADF870B01CA90AF0A7FE07
:105880001299384607F047FA06982A223421FEF783
:105890007AFD4FF07F420699C4F824242846A4F8E4
:1058A00028640AF055FA95E8070004F5866383E852
:1058B00007000698ADF874A01CA9CDF870800AF016
:1058C000EFFC0699384607F026FA07987E223A211F
:1058D000FEF759FD4FF07F420799C4F86C24284623
:1058E000A4F870640AF034FA95E8070004F58F63B1
:1058F00083E807004FF0060A0798CDF870801CA9CE
:10590000ADF874A04FF014090AF0CAFC07993846A4
:1059100007F001FA22237E221398CDF80090162179
:10592000FFF758F94FF07F42C4F8B4244FF0030258
:1059300084F8BD246C4AA4F8B8644FF0FF33C4F86F
:10594000C4341368C4F8C064C4F8C864002B3FF4BE
:1059500011AF664A13885B457FF616AF604B594618
:10596000186800F0CFFB0523C4F8CC041CA91398D9
:10597000ADF87430CDF870800AF092FC1399384677
:1059800007F0C9F915221498E621FEF7FCFC132351
:105990001498ADF870301CA90AF019FE1499384615
:1059A00007F0B9F941221598E621FEF7ECFC1598AD
:1059B000ADF870A01CA90AF00AFE1599384607F048
:1059C000AAF94A4608984FF48471FEF7DCFC4FF0C0
:1059D0007F430899C4F858352846A4F85C650AF056
:1059E000B7F995E8070004F2645383E807004FF025
:1059F00003030898ADF874301CA9CDF870800AF044
:105A00004FFC0899384607F086F909984022FF2193
:105A1000FEF7B9FC4FF07F430999C4F8A03528463A
:105A2000A4F8A4650AF094F995E8070004F2AC53D1
:105A300083E8070002230998ADF874301CA9CDF85B
:105A400070800AF02DFC0999384607F064F90A982D
:105A500072226F21FEF797FC4FF07F430A99C4F83A
:105A6000E8352846A4F8EC650AF072F995E80700D5
:105A700004F2F45383E807004FF001030A98ADF8ED
:105A800074301CA9CDF870800AF00AFC0A993846D7
:105A900007F041F90B987122E821FEF774FC4FF0F2
:105AA0007F430B99C4F830362846A4F834660AF0D0
:105AB0004FF995E8070004F23C6383E807000B9870
:105AC000CDF870801CA9ADF874600AF0E9FB384687
:105AD0000B9907F020F920461FB0BDE8F08F00BFFA
